{
	"ExceptionExample.sol": {
		"ExceptionExample": {
			"abi": [
				{
					"inputs": [
						{
							"internalType": "address",
							"name": "",
							"type": "address"
						}
					],
					"name": "balanceReceived",
					"outputs": [
						{
							"internalType": "uint64",
							"name": "",
							"type": "uint64"
						}
					],
					"stateMutability": "view",
					"type": "function"
				},
				{
					"inputs": [],
					"name": "receiveMoney",
					"outputs": [],
					"stateMutability": "payable",
					"type": "function"
				},
				{
					"inputs": [
						{
							"internalType": "address payable",
							"name": "_to",
							"type": "address"
						},
						{
							"internalType": "uint64",
							"name": "_amount",
							"type": "uint64"
						}
					],
					"name": "withdrawMoney",
					"outputs": [],
					"stateMutability": "nonpayable",
					"type": "function"
				}
			],
			"devdoc": {
				"kind": "dev",
				"methods": {},
				"version": 1
			},
			"evm": {
				"assembly": "    /* \"ExceptionExample.sol\":59:455  contract ExceptionExample {\r... */\n  mstore(0x40, 0x80)\n  callvalue\n  dup1\n  iszero\n  tag_1\n  jumpi\n  0x00\n  dup1\n  revert\ntag_1:\n  pop\n  dataSize(sub_0)\n  dup1\n  dataOffset(sub_0)\n  0x00\n  codecopy\n  0x00\n  return\nstop\n\nsub_0: assembly {\n        /* \"ExceptionExample.sol\":59:455  contract ExceptionExample {\r... */\n      mstore(0x40, 0x80)\n      jumpi(tag_1, lt(calldatasize, 0x04))\n      shr(0xe0, calldataload(0x00))\n      dup1\n      0x0ad19aeb\n      eq\n      tag_2\n      jumpi\n      dup1\n      0x6d26ec18\n      eq\n      tag_3\n      jumpi\n      dup1\n      0xd18a42e1\n      eq\n      tag_4\n      jumpi\n    tag_1:\n      0x00\n      dup1\n      revert\n        /* \"ExceptionExample.sol\":236:452  function withdrawMoney(address payable _to, uint64 _amount) public {\r... */\n    tag_2:\n      callvalue\n      dup1\n      iszero\n      tag_5\n      jumpi\n      0x00\n      dup1\n      revert\n    tag_5:\n      pop\n      tag_6\n      0x04\n      dup1\n      calldatasize\n      sub\n      0x40\n      dup2\n      lt\n      iszero\n      tag_7\n      jumpi\n      0x00\n      dup1\n      revert\n    tag_7:\n      pop\n      dup1\n      calldataload\n      sub(shl(0xa0, 0x01), 0x01)\n      and\n      swap1\n      0x20\n      add\n      calldataload\n      0xffffffffffffffff\n      and\n      tag_8\n      jump\t// in\n    tag_6:\n      stop\n        /* \"ExceptionExample.sol\":140:234  function receiveMoney() public payable {\r... */\n    tag_3:\n      tag_6\n      tag_10\n      jump\t// in\n        /* \"ExceptionExample.sol\":88:137  mapping(address => uint64) public balanceReceived */\n    tag_4:\n      callvalue\n      dup1\n      iszero\n      tag_11\n      jumpi\n      0x00\n      dup1\n      revert\n    tag_11:\n      pop\n      tag_12\n      0x04\n      dup1\n      calldatasize\n      sub\n      0x20\n      dup2\n      lt\n      iszero\n      tag_13\n      jumpi\n      0x00\n      dup1\n      revert\n    tag_13:\n      pop\n      calldataload\n      sub(shl(0xa0, 0x01), 0x01)\n      and\n      tag_14\n      jump\t// in\n    tag_12:\n      0x40\n      dup1\n      mload\n      0xffffffffffffffff\n      swap1\n      swap3\n      and\n      dup3\n      mstore\n      mload\n      swap1\n      dup2\n      swap1\n      sub\n      0x20\n      add\n      swap1\n      return\n        /* \"ExceptionExample.sol\":236:452  function withdrawMoney(address payable _to, uint64 _amount) public {\r... */\n    tag_8:\n        /* \"ExceptionExample.sol\":341:351  msg.sender */\n      caller\n        /* \"ExceptionExample.sol\":325:340  balanceReceived */\n      0x00\n        /* \"ExceptionExample.sol\":325:352  balanceReceived[msg.sender] */\n      swap1\n      dup2\n      mstore\n      0x20\n      dup2\n      swap1\n      mstore\n      0x40\n      swap1\n      keccak256\n      sload\n      0xffffffffffffffff\n      swap1\n      dup2\n      and\n        /* \"ExceptionExample.sol\":314:352  _amount <= balanceReceived[msg.sender] */\n      swap1\n      dup3\n      and\n      gt\n      iszero\n        /* \"ExceptionExample.sol\":306:383  require(_amount <= balanceReceived[msg.sender], \"Not Enough Funds, aborting\") */\n      tag_16\n      jumpi\n      0x40\n      dup1\n      mload\n      shl(0xe5, 0x461bcd)\n      dup2\n      mstore\n      0x20\n      0x04\n      dup3\n      add\n      mstore\n      0x1a\n      0x24\n      dup3\n      add\n      mstore\n      0x4e6f7420456e6f7567682046756e64732c2061626f7274696e67000000000000\n      0x44\n      dup3\n      add\n      mstore\n      swap1\n      mload\n      swap1\n      dup2\n      swap1\n      sub\n      0x64\n      add\n      swap1\n      revert\n    tag_16:\n        /* \"ExceptionExample.sol\":402:412  msg.sender */\n      caller\n        /* \"ExceptionExample.sol\":386:401  balanceReceived */\n      0x00\n        /* \"ExceptionExample.sol\":386:413  balanceReceived[msg.sender] */\n      swap1\n      dup2\n      mstore\n      0x20\n      dup2\n      swap1\n      mstore\n      0x40\n      dup1\n      dup3\n      keccak256\n        /* \"ExceptionExample.sol\":386:424  balanceReceived[msg.sender] -= _amount */\n      dup1\n      sload\n      not(0xffffffffffffffff)\n      dup2\n      and\n      0xffffffffffffffff\n      swap2\n      dup3\n      and\n      dup7\n      swap1\n      sub\n      dup3\n      and\n      or\n      swap1\n      swap2\n      sstore\n        /* \"ExceptionExample.sol\":427:448  _to.transfer(_amount) */\n      swap1\n      mload\n      sub(shl(0xa0, 0x01), 0x01)\n        /* \"ExceptionExample.sol\":427:439  _to.transfer */\n      dup6\n      and\n      swap3\n        /* \"ExceptionExample.sol\":427:448  _to.transfer(_amount) */\n      0x08fc\n      swap3\n      dup6\n      and\n      dup1\n      iszero\n      swap4\n      swap1\n      swap4\n      mul\n      swap3\n      swap2\n      swap1\n      dup2\n        /* \"ExceptionExample.sol\":386:401  balanceReceived */\n      dup2\n        /* \"ExceptionExample.sol\":427:448  _to.transfer(_amount) */\n      dup2\n      dup6\n        /* \"ExceptionExample.sol\":427:439  _to.transfer */\n      dup9\n        /* \"ExceptionExample.sol\":427:448  _to.transfer(_amount) */\n      dup9\n      call\n      swap4\n      pop\n      pop\n      pop\n      pop\n      iszero\n      dup1\n      iszero\n      tag_18\n      jumpi\n      returndatasize\n      0x00\n      dup1\n      returndatacopy\n      revert(0x00, returndatasize)\n    tag_18:\n      pop\n        /* \"ExceptionExample.sol\":236:452  function withdrawMoney(address payable _to, uint64 _amount) public {\r... */\n      pop\n      pop\n      jump\t// out\n        /* \"ExceptionExample.sol\":140:234  function receiveMoney() public payable {\r... */\n    tag_10:\n        /* \"ExceptionExample.sol\":198:208  msg.sender */\n      caller\n        /* \"ExceptionExample.sol\":182:197  balanceReceived */\n      0x00\n        /* \"ExceptionExample.sol\":182:209  balanceReceived[msg.sender] */\n      swap1\n      dup2\n      mstore\n      0x20\n      dup2\n      swap1\n      mstore\n      0x40\n      swap1\n      keccak256\n        /* \"ExceptionExample.sol\":182:230  balanceReceived[msg.sender] += uint64(msg.value) */\n      dup1\n      sload\n      0xffffffffffffffff\n      dup1\n      dup3\n      and\n        /* \"ExceptionExample.sol\":220:229  msg.value */\n      callvalue\n        /* \"ExceptionExample.sol\":182:230  balanceReceived[msg.sender] += uint64(msg.value) */\n      add\n      and\n      not(0xffffffffffffffff)\n      swap1\n      swap2\n      and\n      or\n      swap1\n      sstore\n        /* \"ExceptionExample.sol\":140:234  function receiveMoney() public payable {\r... */\n      jump\t// out\n        /* \"ExceptionExample.sol\":88:137  mapping(address => uint64) public balanceReceived */\n    tag_14:\n      0x00\n      0x20\n      dup2\n      swap1\n      mstore\n      swap1\n      dup2\n      mstore\n      0x40\n      swap1\n      keccak256\n      sload\n      0xffffffffffffffff\n      and\n      dup2\n      jump\t// out\n\n    auxdata: 0xa2646970667358221220d57cc42a77483e4bcd6a47d3982da35f009c3d321fe70e707982b18691f0f9d864736f6c634300060c0033\n}\n",
				"bytecode": {
					"linkReferences": {},
					"object": "608060405234801561001057600080fd5b5061023d806100206000396000f3fe6080604052600436106100345760003560e01c80630ad19aeb146100395780636d26ec181461007e578063d18a42e114610086575b600080fd5b34801561004557600080fd5b5061007c6004803603604081101561005c57600080fd5b5080356001600160a01b0316906020013567ffffffffffffffff166100d6565b005b61007c6101b9565b34801561009257600080fd5b506100b9600480360360208110156100a957600080fd5b50356001600160a01b03166101eb565b6040805167ffffffffffffffff9092168252519081900360200190f35b3360009081526020819052604090205467ffffffffffffffff9081169082161115610148576040805162461bcd60e51b815260206004820152601a60248201527f4e6f7420456e6f7567682046756e64732c2061626f7274696e67000000000000604482015290519081900360640190fd5b33600090815260208190526040808220805467ffffffffffffffff19811667ffffffffffffffff91821686900382161790915590516001600160a01b038516926108fc928516801593909302929190818181858888f193505050501580156101b4573d6000803e3d6000fd5b505050565b336000908152602081905260409020805467ffffffffffffffff80821634011667ffffffffffffffff19909116179055565b60006020819052908152604090205467ffffffffffffffff168156fea2646970667358221220d57cc42a77483e4bcd6a47d3982da35f009c3d321fe70e707982b18691f0f9d864736f6c634300060c0033",
					"opcodes": "PUSH1 0x80 PUSH1 0x40 MSTORE CALLVALUE DUP1 ISZERO PUSH2 0x10 JUMPI PUSH1 0x0 DUP1 REVERT JUMPDEST POP PUSH2 0x23D DUP1 PUSH2 0x20 PUSH1 0x0 CODECOPY PUSH1 0x0 RETURN INVALID PUSH1 0x80 PUSH1 0x40 MSTORE PUSH1 0x4 CALLDATASIZE LT PUSH2 0x34 JUMPI PUSH1 0x0 CALLDATALOAD PUSH1 0xE0 SHR DUP1 PUSH4 0xAD19AEB EQ PUSH2 0x39 JUMPI DUP1 PUSH4 0x6D26EC18 EQ PUSH2 0x7E JUMPI DUP1 PUSH4 0xD18A42E1 EQ PUSH2 0x86 JUMPI JUMPDEST PUSH1 0x0 DUP1 REVERT JUMPDEST CALLVALUE DUP1 ISZERO PUSH2 0x45 JUMPI PUSH1 0x0 DUP1 REVERT JUMPDEST POP PUSH2 0x7C PUSH1 0x4 DUP1 CALLDATASIZE SUB PUSH1 0x40 DUP2 LT ISZERO PUSH2 0x5C JUMPI PUSH1 0x0 DUP1 REVERT JUMPDEST POP DUP1 CALLDATALOAD PUSH1 0x1 PUSH1 0x1 PUSH1 0xA0 SHL SUB AND SWAP1 PUSH1 0x20 ADD CALLDATALOAD PUSH8 0xFFFFFFFFFFFFFFFF AND PUSH2 0xD6 JUMP JUMPDEST STOP JUMPDEST PUSH2 0x7C PUSH2 0x1B9 JUMP JUMPDEST CALLVALUE DUP1 ISZERO PUSH2 0x92 JUMPI PUSH1 0x0 DUP1 REVERT JUMPDEST POP PUSH2 0xB9 PUSH1 0x4 DUP1 CALLDATASIZE SUB PUSH1 0x20 DUP2 LT ISZERO PUSH2 0xA9 JUMPI PUSH1 0x0 DUP1 REVERT JUMPDEST POP CALLDATALOAD PUSH1 0x1 PUSH1 0x1 PUSH1 0xA0 SHL SUB AND PUSH2 0x1EB JUMP JUMPDEST PUSH1 0x40 DUP1 MLOAD PUSH8 0xFFFFFFFFFFFFFFFF SWAP1 SWAP3 AND DUP3 MSTORE MLOAD SWAP1 DUP2 SWAP1 SUB PUSH1 0x20 ADD SWAP1 RETURN JUMPDEST CALLER PUSH1 0x0 SWAP1 DUP2 MSTORE PUSH1 0x20 DUP2 SWAP1 MSTORE PUSH1 0x40 SWAP1 KECCAK256 SLOAD PUSH8 0xFFFFFFFFFFFFFFFF SWAP1 DUP2 AND SWAP1 DUP3 AND GT ISZERO PUSH2 0x148 JUMPI PUSH1 0x40 DUP1 MLOAD PUSH3 0x461BCD PUSH1 0xE5 SHL DUP2 MSTORE PUSH1 0x20 PUSH1 0x4 DUP3 ADD MSTORE PUSH1 0x1A PUSH1 0x24 DUP3 ADD MSTORE PUSH32 0x4E6F7420456E6F7567682046756E64732C2061626F7274696E67000000000000 PUSH1 0x44 DUP3 ADD MSTORE SWAP1 MLOAD SWAP1 DUP2 SWAP1 SUB PUSH1 0x64 ADD SWAP1 REVERT JUMPDEST CALLER PUSH1 0x0 SWAP1 DUP2 MSTORE PUSH1 0x20 DUP2 SWAP1 MSTORE PUSH1 0x40 DUP1 DUP3 KECCAK256 DUP1 SLOAD PUSH8 0xFFFFFFFFFFFFFFFF NOT DUP2 AND PUSH8 0xFFFFFFFFFFFFFFFF SWAP2 DUP3 AND DUP7 SWAP1 SUB DUP3 AND OR SWAP1 SWAP2 SSTORE SWAP1 MLOAD PUSH1 0x1 PUSH1 0x1 PUSH1 0xA0 SHL SUB DUP6 AND SWAP3 PUSH2 0x8FC SWAP3 DUP6 AND DUP1 ISZERO SWAP4 SWAP1 SWAP4 MUL SWAP3 SWAP2 SWAP1 DUP2 DUP2 DUP2 DUP6 DUP9 DUP9 CALL SWAP4 POP POP POP POP ISZERO DUP1 ISZERO PUSH2 0x1B4 JUMPI RETURNDATASIZE PUSH1 0x0 DUP1 RETURNDATACOPY RETURNDATASIZE PUSH1 0x0 REVERT JUMPDEST POP POP POP JUMP JUMPDEST CALLER PUSH1 0x0 SWAP1 DUP2 MSTORE PUSH1 0x20 DUP2 SWAP1 MSTORE PUSH1 0x40 SWAP1 KECCAK256 DUP1 SLOAD PUSH8 0xFFFFFFFFFFFFFFFF DUP1 DUP3 AND CALLVALUE ADD AND PUSH8 0xFFFFFFFFFFFFFFFF NOT SWAP1 SWAP2 AND OR SWAP1 SSTORE JUMP JUMPDEST PUSH1 0x0 PUSH1 0x20 DUP2 SWAP1 MSTORE SWAP1 DUP2 MSTORE PUSH1 0x40 SWAP1 KECCAK256 SLOAD PUSH8 0xFFFFFFFFFFFFFFFF AND DUP2 JUMP INVALID LOG2 PUSH5 0x6970667358 0x22 SLT KECCAK256 0xD5 PUSH29 0xC42A77483E4BCD6A47D3982DA35F009C3D321FE70E707982B18691F0F9 0xD8 PUSH5 0x736F6C6343 STOP MOD 0xC STOP CALLER "
				},
				"gasEstimates": {
					"creation": {
						"codeDepositCost": "114600",
						"executionCost": "159",
						"totalCost": "114759"
					},
					"external": {
						"balanceReceived(address)": "1164",
						"receiveMoney()": "21038",
						"withdrawMoney(address,uint64)": "infinite"
					}
				},
				"methodIdentifiers": {
					"balanceReceived(address)": "d18a42e1",
					"receiveMoney()": "6d26ec18",
					"withdrawMoney(address,uint64)": "0ad19aeb"
				}
			},
			"userdoc": {
				"kind": "user",
				"methods": {},
				"version": 1
			}
		}
	}
}