{
	"StringExample.sol": {
		"StringExample": {
			"abi": [
				{
					"inputs": [],
					"name": "myString",
					"outputs": [
						{
							"internalType": "string",
							"name": "",
							"type": "string"
						}
					],
					"stateMutability": "view",
					"type": "function"
				},
				{
					"inputs": [
						{
							"internalType": "string",
							"name": "_myString",
							"type": "string"
						}
					],
					"name": "setMyString",
					"outputs": [],
					"stateMutability": "nonpayable",
					"type": "function"
				}
			],
			"devdoc": {
				"kind": "dev",
				"methods": {},
				"version": 1
			},
			"evm": {
				"assembly": "    /* \"StringExample.sol\":97:136  string public myString = 'hello world!' */\n  0xc0\n    /* \"StringExample.sol\":65:222  contract StringExample {\r... */\n  0x40\n    /* \"StringExample.sol\":97:136  string public myString = 'hello world!' */\n  mstore\n  0x0c\n    /* \"StringExample.sol\":65:222  contract StringExample {\r... */\n  0x80\n    /* \"StringExample.sol\":97:136  string public myString = 'hello world!' */\n  dup2\n  swap1\n  mstore\n  shl(0xa0, 0x68656c6c6f20776f726c6421)\n  0xa0\n  swap1\n  dup2\n  mstore\n  tag_1\n  swap2\n  0x00\n  swap2\n  swap1\n  tag_2\n  jump\t// in\ntag_1:\n  pop\n    /* \"StringExample.sol\":65:222  contract StringExample {\r... */\n  callvalue\n  dup1\n  iszero\n  tag_3\n  jumpi\n  0x00\n  dup1\n  revert\ntag_3:\n  pop\n  jump(tag_16)\ntag_2:\n  dup3\n  dup1\n  sload\n  tag_5\n  swap1\n  tag_6\n  jump\t// in\ntag_5:\n  swap1\n  0x00\n  mstore\n  keccak256(0x00, 0x20)\n  swap1\n  0x1f\n  add\n  0x20\n  swap1\n  div\n  dup2\n  add\n  swap3\n  dup3\n  tag_8\n  jumpi\n  0x00\n  dup6\n  sstore\n  jump(tag_11)\ntag_8:\n  dup3\n  0x1f\n  lt\n  tag_9\n  jumpi\n  dup1\n  mload\n  not(0xff)\n  and\n  dup4\n  dup1\n  add\n  or\n  dup6\n  sstore\n  jump(tag_11)\ntag_9:\n  dup3\n  dup1\n  add\n  0x01\n  add\n  dup6\n  sstore\n  dup3\n  iszero\n  tag_11\n  jumpi\n  swap2\n  dup3\n  add\ntag_10:\n  dup3\n  dup2\n  gt\n  iszero\n  tag_11\n  jumpi\n  dup3\n  mload\n  dup3\n  sstore\n  swap2\n  0x20\n  add\n  swap2\n  swap1\n  0x01\n  add\n  swap1\n  jump(tag_10)\ntag_11:\n  pop\n  tag_12\n  swap3\n  swap2\n  pop\n  tag_13\n  jump\t// in\ntag_12:\n  pop\n  swap1\n  jump\t// out\ntag_13:\ntag_14:\n  dup1\n  dup3\n  gt\n  iszero\n  tag_12\n  jumpi\n  0x00\n  dup2\n  sstore\n  0x01\n  add\n  jump(tag_14)\n    /* \"#utility.yul\":14:394   */\ntag_6:\n    /* \"#utility.yul\":99:100   */\n  0x02\n    /* \"#utility.yul\":89:101   */\n  dup2\n  div\n    /* \"#utility.yul\":146:147   */\n  0x01\n    /* \"#utility.yul\":136:148   */\n  dup3\n  and\n  dup1\n    /* \"#utility.yul\":157:159   */\n  tag_18\n  jumpi\n    /* \"#utility.yul\":211:215   */\n  0x7f\n    /* \"#utility.yul\":203:209   */\n  dup3\n    /* \"#utility.yul\":199:216   */\n  and\n    /* \"#utility.yul\":189:216   */\n  swap2\n  pop\n    /* \"#utility.yul\":157:159   */\ntag_18:\n    /* \"#utility.yul\":264:266   */\n  0x20\n    /* \"#utility.yul\":256:262   */\n  dup3\n    /* \"#utility.yul\":253:267   */\n  lt\n    /* \"#utility.yul\":233:251   */\n  dup2\n    /* \"#utility.yul\":230:268   */\n  eq\n    /* \"#utility.yul\":227:229   */\n  iszero\n  tag_19\n  jumpi\n    /* \"#utility.yul\":310:320   */\n  0x4e487b71\n    /* \"#utility.yul\":305:308   */\n  0xe0\n    /* \"#utility.yul\":301:321   */\n  shl\n    /* \"#utility.yul\":298:299   */\n  0x00\n    /* \"#utility.yul\":291:322   */\n  mstore\n    /* \"#utility.yul\":345:349   */\n  0x22\n    /* \"#utility.yul\":342:343   */\n  0x04\n    /* \"#utility.yul\":335:350   */\n  mstore\n    /* \"#utility.yul\":373:377   */\n  0x24\n    /* \"#utility.yul\":370:371   */\n  0x00\n    /* \"#utility.yul\":363:378   */\n  revert\n    /* \"#utility.yul\":227:229   */\ntag_19:\n  pop\n    /* \"#utility.yul\":69:394   */\n  swap2\n  swap1\n  pop\n  jump\t// out\ntag_16:\n    /* \"StringExample.sol\":65:222  contract StringExample {\r... */\n  dataSize(sub_0)\n  dup1\n  dataOffset(sub_0)\n  0x00\n  codecopy\n  0x00\n  return\nstop\n\nsub_0: assembly {\n        /* \"StringExample.sol\":65:222  contract StringExample {\r... */\n      mstore(0x40, 0x80)\n      callvalue\n      dup1\n      iszero\n      tag_1\n      jumpi\n      0x00\n      dup1\n      revert\n    tag_1:\n      pop\n      jumpi(tag_2, lt(calldatasize, 0x04))\n      shr(0xe0, calldataload(0x00))\n      dup1\n      0x492bfa18\n      eq\n      tag_3\n      jumpi\n      dup1\n      0x82180568\n      eq\n      tag_4\n      jumpi\n    tag_2:\n      0x00\n      dup1\n      revert\n        /* \"StringExample.sol\":97:136  string public myString = 'hello world!' */\n    tag_3:\n      tag_5\n      tag_6\n      jump\t// in\n    tag_5:\n      mload(0x40)\n      tag_7\n      swap2\n      swap1\n      tag_8\n      jump\t// in\n    tag_7:\n      mload(0x40)\n      dup1\n      swap2\n      sub\n      swap1\n      return\n        /* \"StringExample.sol\":139:219  function setMyString(string memory _myString) public {\r... */\n    tag_4:\n      tag_9\n      tag_10\n      calldatasize\n      0x04\n      tag_11\n      jump\t// in\n    tag_10:\n      tag_12\n      jump\t// in\n    tag_9:\n      stop\n        /* \"StringExample.sol\":97:136  string public myString = 'hello world!' */\n    tag_6:\n      0x00\n      dup1\n      sload\n      tag_13\n      swap1\n      tag_14\n      jump\t// in\n    tag_13:\n      dup1\n      0x1f\n      add\n      0x20\n      dup1\n      swap2\n      div\n      mul\n      0x20\n      add\n      mload(0x40)\n      swap1\n      dup2\n      add\n      0x40\n      mstore\n      dup1\n      swap3\n      swap2\n      swap1\n      dup2\n      dup2\n      mstore\n      0x20\n      add\n      dup3\n      dup1\n      sload\n      tag_15\n      swap1\n      tag_14\n      jump\t// in\n    tag_15:\n      dup1\n      iszero\n      tag_16\n      jumpi\n      dup1\n      0x1f\n      lt\n      tag_17\n      jumpi\n      0x0100\n      dup1\n      dup4\n      sload\n      div\n      mul\n      dup4\n      mstore\n      swap2\n      0x20\n      add\n      swap2\n      jump(tag_16)\n    tag_17:\n      dup3\n      add\n      swap2\n      swap1\n      0x00\n      mstore\n      keccak256(0x00, 0x20)\n      swap1\n    tag_18:\n      dup2\n      sload\n      dup2\n      mstore\n      swap1\n      0x01\n      add\n      swap1\n      0x20\n      add\n      dup1\n      dup4\n      gt\n      tag_18\n      jumpi\n      dup3\n      swap1\n      sub\n      0x1f\n      and\n      dup3\n      add\n      swap2\n    tag_16:\n      pop\n      pop\n      pop\n      pop\n      pop\n      dup2\n      jump\t// out\n        /* \"StringExample.sol\":139:219  function setMyString(string memory _myString) public {\r... */\n    tag_12:\n        /* \"StringExample.sol\":195:215  myString = _myString */\n      dup1\n      mload\n      tag_20\n      swap1\n        /* \"StringExample.sol\":195:203  myString */\n      0x00\n      swap1\n        /* \"StringExample.sol\":195:215  myString = _myString */\n      0x20\n      dup5\n      add\n      swap1\n      tag_21\n      jump\t// in\n    tag_20:\n      pop\n        /* \"StringExample.sol\":139:219  function setMyString(string memory _myString) public {\r... */\n      pop\n      jump\t// out\n    tag_21:\n      dup3\n      dup1\n      sload\n      tag_22\n      swap1\n      tag_14\n      jump\t// in\n    tag_22:\n      swap1\n      0x00\n      mstore\n      keccak256(0x00, 0x20)\n      swap1\n      0x1f\n      add\n      0x20\n      swap1\n      div\n      dup2\n      add\n      swap3\n      dup3\n      tag_24\n      jumpi\n      0x00\n      dup6\n      sstore\n      jump(tag_27)\n    tag_24:\n      dup3\n      0x1f\n      lt\n      tag_25\n      jumpi\n      dup1\n      mload\n      not(0xff)\n      and\n      dup4\n      dup1\n      add\n      or\n      dup6\n      sstore\n      jump(tag_27)\n    tag_25:\n      dup3\n      dup1\n      add\n      0x01\n      add\n      dup6\n      sstore\n      dup3\n      iszero\n      tag_27\n      jumpi\n      swap2\n      dup3\n      add\n    tag_26:\n      dup3\n      dup2\n      gt\n      iszero\n      tag_27\n      jumpi\n      dup3\n      mload\n      dup3\n      sstore\n      swap2\n      0x20\n      add\n      swap2\n      swap1\n      0x01\n      add\n      swap1\n      jump(tag_26)\n    tag_27:\n      pop\n      tag_28\n      swap3\n      swap2\n      pop\n      tag_29\n      jump\t// in\n    tag_28:\n      pop\n      swap1\n      jump\t// out\n    tag_29:\n    tag_30:\n      dup1\n      dup3\n      gt\n      iszero\n      tag_28\n      jumpi\n      0x00\n      dup2\n      sstore\n      0x01\n      add\n      jump(tag_30)\n        /* \"#utility.yul\":14:981   */\n    tag_11:\n      0x00\n        /* \"#utility.yul\":136:138   */\n      0x20\n        /* \"#utility.yul\":124:133   */\n      dup3\n        /* \"#utility.yul\":115:122   */\n      dup5\n        /* \"#utility.yul\":111:134   */\n      sub\n        /* \"#utility.yul\":107:139   */\n      slt\n        /* \"#utility.yul\":104:106   */\n      iszero\n      tag_34\n      jumpi\n        /* \"#utility.yul\":157:163   */\n      dup1\n        /* \"#utility.yul\":149:155   */\n      dup2\n        /* \"#utility.yul\":142:164   */\n      revert\n        /* \"#utility.yul\":104:106   */\n    tag_34:\n        /* \"#utility.yul\":202:211   */\n      dup2\n        /* \"#utility.yul\":189:212   */\n      calldataload\n        /* \"#utility.yul\":231:249   */\n      0xffffffffffffffff\n        /* \"#utility.yul\":272:274   */\n      dup1\n        /* \"#utility.yul\":264:270   */\n      dup3\n        /* \"#utility.yul\":261:275   */\n      gt\n        /* \"#utility.yul\":258:260   */\n      iszero\n      tag_35\n      jumpi\n        /* \"#utility.yul\":293:299   */\n      dup3\n        /* \"#utility.yul\":285:291   */\n      dup4\n        /* \"#utility.yul\":278:300   */\n      revert\n        /* \"#utility.yul\":258:260   */\n    tag_35:\n        /* \"#utility.yul\":336:342   */\n      dup2\n        /* \"#utility.yul\":325:334   */\n      dup5\n        /* \"#utility.yul\":321:343   */\n      add\n        /* \"#utility.yul\":311:343   */\n      swap2\n      pop\n        /* \"#utility.yul\":381:388   */\n      dup5\n        /* \"#utility.yul\":374:378   */\n      0x1f\n        /* \"#utility.yul\":370:372   */\n      dup4\n        /* \"#utility.yul\":366:379   */\n      add\n        /* \"#utility.yul\":362:389   */\n      slt\n        /* \"#utility.yul\":352:354   */\n      tag_36\n      jumpi\n        /* \"#utility.yul\":408:414   */\n      dup3\n        /* \"#utility.yul\":400:406   */\n      dup4\n        /* \"#utility.yul\":393:415   */\n      revert\n        /* \"#utility.yul\":352:354   */\n    tag_36:\n        /* \"#utility.yul\":449:451   */\n      dup2\n        /* \"#utility.yul\":436:452   */\n      calldataload\n        /* \"#utility.yul\":471:473   */\n      dup2\n        /* \"#utility.yul\":467:469   */\n      dup2\n        /* \"#utility.yul\":464:474   */\n      gt\n        /* \"#utility.yul\":461:463   */\n      iszero\n      tag_38\n      jumpi\n        /* \"#utility.yul\":477:495   */\n      tag_38\n      tag_39\n      jump\t// in\n    tag_38:\n        /* \"#utility.yul\":552:554   */\n      0x40\n        /* \"#utility.yul\":546:555   */\n      mload\n        /* \"#utility.yul\":520:522   */\n      0x1f\n        /* \"#utility.yul\":606:619   */\n      dup3\n      add\n      not(0x1f)\n        /* \"#utility.yul\":602:624   */\n      swap1\n      dup2\n      and\n        /* \"#utility.yul\":626:628   */\n      0x3f\n        /* \"#utility.yul\":598:629   */\n      add\n        /* \"#utility.yul\":594:634   */\n      and\n        /* \"#utility.yul\":582:635   */\n      dup2\n      add\n      swap1\n        /* \"#utility.yul\":650:668   */\n      dup4\n      dup3\n      gt\n        /* \"#utility.yul\":670:692   */\n      dup2\n      dup4\n      lt\n        /* \"#utility.yul\":647:693   */\n      or\n        /* \"#utility.yul\":644:646   */\n      iszero\n      tag_41\n      jumpi\n        /* \"#utility.yul\":696:714   */\n      tag_41\n      tag_39\n      jump\t// in\n    tag_41:\n        /* \"#utility.yul\":736:746   */\n      dup2\n        /* \"#utility.yul\":732:734   */\n      0x40\n        /* \"#utility.yul\":725:747   */\n      mstore\n        /* \"#utility.yul\":771:773   */\n      dup3\n        /* \"#utility.yul\":763:769   */\n      dup2\n        /* \"#utility.yul\":756:774   */\n      mstore\n        /* \"#utility.yul\":811:818   */\n      dup8\n        /* \"#utility.yul\":806:808   */\n      0x20\n        /* \"#utility.yul\":801:803   */\n      dup5\n        /* \"#utility.yul\":797:799   */\n      dup8\n        /* \"#utility.yul\":793:804   */\n      add\n        /* \"#utility.yul\":789:809   */\n      add\n        /* \"#utility.yul\":786:819   */\n      gt\n        /* \"#utility.yul\":783:785   */\n      iszero\n      tag_42\n      jumpi\n        /* \"#utility.yul\":837:843   */\n      dup6\n        /* \"#utility.yul\":829:835   */\n      dup7\n        /* \"#utility.yul\":822:844   */\n      revert\n        /* \"#utility.yul\":783:785   */\n    tag_42:\n        /* \"#utility.yul\":898:900   */\n      dup3\n        /* \"#utility.yul\":893:895   */\n      0x20\n        /* \"#utility.yul\":889:891   */\n      dup7\n        /* \"#utility.yul\":885:896   */\n      add\n        /* \"#utility.yul\":880:882   */\n      0x20\n        /* \"#utility.yul\":872:878   */\n      dup4\n        /* \"#utility.yul\":868:883   */\n      add\n        /* \"#utility.yul\":855:901   */\n      calldatacopy\n        /* \"#utility.yul\":921:936   */\n      swap2\n      dup3\n      add\n        /* \"#utility.yul\":938:940   */\n      0x20\n        /* \"#utility.yul\":917:941   */\n      add\n        /* \"#utility.yul\":910:950   */\n      swap5\n      swap1\n      swap5\n      mstore\n        /* \"#utility.yul\":925:931   */\n      swap6\n        /* \"#utility.yul\":94:981   */\n      swap5\n      pop\n      pop\n      pop\n      pop\n      pop\n      jump\t// out\n        /* \"#utility.yul\":986:1589   */\n    tag_8:\n      0x00\n        /* \"#utility.yul\":1127:1129   */\n      0x20\n        /* \"#utility.yul\":1156:1158   */\n      dup1\n        /* \"#utility.yul\":1145:1154   */\n      dup4\n        /* \"#utility.yul\":1138:1159   */\n      mstore\n        /* \"#utility.yul\":1188:1194   */\n      dup4\n        /* \"#utility.yul\":1182:1195   */\n      mload\n        /* \"#utility.yul\":1231:1237   */\n      dup1\n        /* \"#utility.yul\":1226:1228   */\n      dup3\n        /* \"#utility.yul\":1215:1224   */\n      dup6\n        /* \"#utility.yul\":1211:1229   */\n      add\n        /* \"#utility.yul\":1204:1238   */\n      mstore\n        /* \"#utility.yul\":1256:1260   */\n      dup3\n        /* \"#utility.yul\":1269:1409   */\n    tag_44:\n        /* \"#utility.yul\":1283:1289   */\n      dup2\n        /* \"#utility.yul\":1280:1281   */\n      dup2\n        /* \"#utility.yul\":1277:1290   */\n      lt\n        /* \"#utility.yul\":1269:1409   */\n      iszero\n      tag_46\n      jumpi\n        /* \"#utility.yul\":1378:1392   */\n      dup6\n      dup2\n      add\n        /* \"#utility.yul\":1374:1397   */\n      dup4\n      add\n        /* \"#utility.yul\":1368:1398   */\n      mload\n        /* \"#utility.yul\":1344:1361   */\n      dup6\n      dup3\n      add\n        /* \"#utility.yul\":1363:1365   */\n      0x40\n        /* \"#utility.yul\":1340:1366   */\n      add\n        /* \"#utility.yul\":1333:1399   */\n      mstore\n        /* \"#utility.yul\":1298:1308   */\n      dup3\n      add\n        /* \"#utility.yul\":1269:1409   */\n      jump(tag_44)\n    tag_46:\n        /* \"#utility.yul\":1427:1433   */\n      dup2\n        /* \"#utility.yul\":1424:1425   */\n      dup2\n        /* \"#utility.yul\":1421:1434   */\n      gt\n        /* \"#utility.yul\":1418:1420   */\n      iszero\n      tag_47\n      jumpi\n        /* \"#utility.yul\":1497:1501   */\n      dup4\n        /* \"#utility.yul\":1492:1494   */\n      0x40\n        /* \"#utility.yul\":1483:1489   */\n      dup4\n        /* \"#utility.yul\":1472:1481   */\n      dup8\n        /* \"#utility.yul\":1468:1490   */\n      add\n        /* \"#utility.yul\":1464:1495   */\n      add\n        /* \"#utility.yul\":1457:1502   */\n      mstore\n        /* \"#utility.yul\":1418:1420   */\n    tag_47:\n      pop\n        /* \"#utility.yul\":1573:1575   */\n      0x1f\n        /* \"#utility.yul\":1552:1567   */\n      add\n      not(0x1f)\n        /* \"#utility.yul\":1548:1577   */\n      and\n        /* \"#utility.yul\":1533:1578   */\n      swap3\n      swap1\n      swap3\n      add\n        /* \"#utility.yul\":1580:1582   */\n      0x40\n        /* \"#utility.yul\":1529:1583   */\n      add\n      swap4\n        /* \"#utility.yul\":1107:1589   */\n      swap3\n      pop\n      pop\n      pop\n      jump\t// out\n        /* \"#utility.yul\":1594:1974   */\n    tag_14:\n        /* \"#utility.yul\":1679:1680   */\n      0x02\n        /* \"#utility.yul\":1669:1681   */\n      dup2\n      div\n        /* \"#utility.yul\":1726:1727   */\n      0x01\n        /* \"#utility.yul\":1716:1728   */\n      dup3\n      and\n      dup1\n        /* \"#utility.yul\":1737:1739   */\n      tag_49\n      jumpi\n        /* \"#utility.yul\":1791:1795   */\n      0x7f\n        /* \"#utility.yul\":1783:1789   */\n      dup3\n        /* \"#utility.yul\":1779:1796   */\n      and\n        /* \"#utility.yul\":1769:1796   */\n      swap2\n      pop\n        /* \"#utility.yul\":1737:1739   */\n    tag_49:\n        /* \"#utility.yul\":1844:1846   */\n      0x20\n        /* \"#utility.yul\":1836:1842   */\n      dup3\n        /* \"#utility.yul\":1833:1847   */\n      lt\n        /* \"#utility.yul\":1813:1831   */\n      dup2\n        /* \"#utility.yul\":1810:1848   */\n      eq\n        /* \"#utility.yul\":1807:1809   */\n      iszero\n      tag_50\n      jumpi\n        /* \"#utility.yul\":1890:1900   */\n      0x4e487b71\n        /* \"#utility.yul\":1885:1888   */\n      0xe0\n        /* \"#utility.yul\":1881:1901   */\n      shl\n        /* \"#utility.yul\":1878:1879   */\n      0x00\n        /* \"#utility.yul\":1871:1902   */\n      mstore\n        /* \"#utility.yul\":1925:1929   */\n      0x22\n        /* \"#utility.yul\":1922:1923   */\n      0x04\n        /* \"#utility.yul\":1915:1930   */\n      mstore\n        /* \"#utility.yul\":1953:1957   */\n      0x24\n        /* \"#utility.yul\":1950:1951   */\n      0x00\n        /* \"#utility.yul\":1943:1958   */\n      revert\n        /* \"#utility.yul\":1807:1809   */\n    tag_50:\n      pop\n        /* \"#utility.yul\":1649:1974   */\n      swap2\n      swap1\n      pop\n      jump\t// out\n        /* \"#utility.yul\":1979:2106   */\n    tag_39:\n        /* \"#utility.yul\":2040:2050   */\n      0x4e487b71\n        /* \"#utility.yul\":2035:2038   */\n      0xe0\n        /* \"#utility.yul\":2031:2051   */\n      shl\n        /* \"#utility.yul\":2028:2029   */\n      0x00\n        /* \"#utility.yul\":2021:2052   */\n      mstore\n        /* \"#utility.yul\":2071:2075   */\n      0x41\n        /* \"#utility.yul\":2068:2069   */\n      0x04\n        /* \"#utility.yul\":2061:2076   */\n      mstore\n        /* \"#utility.yul\":2095:2099   */\n      0x24\n        /* \"#utility.yul\":2092:2093   */\n      0x00\n        /* \"#utility.yul\":2085:2100   */\n      revert\n\n    auxdata: 0xa2646970667358221220ee30b39f30cd5aabe479bd62c1b6a50e3558237507ee6e32a2415225283782f564736f6c63430008010033\n}\n",
				"bytecode": {
					"linkReferences": {},
					"object": "60c0604052600c60808190526b68656c6c6f20776f726c642160a01b60a090815261002d9160009190610040565b5034801561003a57600080fd5b50610114565b82805461004c906100d9565b90600052602060002090601f01602090048101928261006e57600085556100b4565b82601f1061008757805160ff19168380011785556100b4565b828001600101855582156100b4579182015b828111156100b4578251825591602001919060010190610099565b506100c09291506100c4565b5090565b5b808211156100c057600081556001016100c5565b6002810460018216806100ed57607f821691505b6020821081141561010e57634e487b7160e01b600052602260045260246000fd5b50919050565b610330806101236000396000f3fe608060405234801561001057600080fd5b50600436106100365760003560e01c8063492bfa181461003b5780638218056814610059575b600080fd5b61004361006e565b6040516100509190610256565b60405180910390f35b61006c6100673660046101ac565b6100fc565b005b6000805461007b906102a9565b80601f01602080910402602001604051908101604052809291908181526020018280546100a7906102a9565b80156100f45780601f106100c9576101008083540402835291602001916100f4565b820191906000526020600020905b8154815290600101906020018083116100d757829003601f168201915b505050505081565b805161010f906000906020840190610113565b5050565b82805461011f906102a9565b90600052602060002090601f0160209004810192826101415760008555610187565b82601f1061015a57805160ff1916838001178555610187565b82800160010185558215610187579182015b8281111561018757825182559160200191906001019061016c565b50610193929150610197565b5090565b5b808211156101935760008155600101610198565b6000602082840312156101bd578081fd5b813567ffffffffffffffff808211156101d4578283fd5b818401915084601f8301126101e7578283fd5b8135818111156101f9576101f96102e4565b604051601f8201601f19908116603f01168101908382118183101715610221576102216102e4565b81604052828152876020848701011115610239578586fd5b826020860160208301379182016020019490945295945050505050565b6000602080835283518082850152825b8181101561028257858101830151858201604001528201610266565b818111156102935783604083870101525b50601f01601f1916929092016040019392505050565b6002810460018216806102bd57607f821691505b602082108114156102de57634e487b7160e01b600052602260045260246000fd5b50919050565b634e487b7160e01b600052604160045260246000fdfea2646970667358221220ee30b39f30cd5aabe479bd62c1b6a50e3558237507ee6e32a2415225283782f564736f6c63430008010033",
					"opcodes": "PUSH1 0xC0 PUSH1 0x40 MSTORE PUSH1 0xC PUSH1 0x80 DUP2 SWAP1 MSTORE PUSH12 0x68656C6C6F20776F726C6421 PUSH1 0xA0 SHL PUSH1 0xA0 SWAP1 DUP2 MSTORE PUSH2 0x2D SWAP2 PUSH1 0x0 SWAP2 SWAP1 PUSH2 0x40 JUMP JUMPDEST POP CALLVALUE DUP1 ISZERO PUSH2 0x3A JUMPI PUSH1 0x0 DUP1 REVERT JUMPDEST POP PUSH2 0x114 JUMP JUMPDEST DUP3 DUP1 SLOAD PUSH2 0x4C SWAP1 PUSH2 0xD9 JUMP JUMPDEST SWAP1 PUSH1 0x0 MSTORE PUSH1 0x20 PUSH1 0x0 KECCAK256 SWAP1 PUSH1 0x1F ADD PUSH1 0x20 SWAP1 DIV DUP2 ADD SWAP3 DUP3 PUSH2 0x6E JUMPI PUSH1 0x0 DUP6 SSTORE PUSH2 0xB4 JUMP JUMPDEST DUP3 PUSH1 0x1F LT PUSH2 0x87 JUMPI DUP1 MLOAD PUSH1 0xFF NOT AND DUP4 DUP1 ADD OR DUP6 SSTORE PUSH2 0xB4 JUMP JUMPDEST DUP3 DUP1 ADD PUSH1 0x1 ADD DUP6 SSTORE DUP3 ISZERO PUSH2 0xB4 JUMPI SWAP2 DUP3 ADD JUMPDEST DUP3 DUP2 GT ISZERO PUSH2 0xB4 JUMPI DUP3 MLOAD DUP3 SSTORE SWAP2 PUSH1 0x20 ADD SWAP2 SWAP1 PUSH1 0x1 ADD SWAP1 PUSH2 0x99 JUMP JUMPDEST POP PUSH2 0xC0 SWAP3 SWAP2 POP PUSH2 0xC4 JUMP JUMPDEST POP SWAP1 JUMP JUMPDEST JUMPDEST DUP1 DUP3 GT ISZERO PUSH2 0xC0 JUMPI PUSH1 0x0 DUP2 SSTORE PUSH1 0x1 ADD PUSH2 0xC5 JUMP JUMPDEST PUSH1 0x2 DUP2 DIV PUSH1 0x1 DUP3 AND DUP1 PUSH2 0xED JUMPI PUSH1 0x7F DUP3 AND SWAP2 POP JUMPDEST PUSH1 0x20 DUP3 LT DUP2 EQ ISZERO PUSH2 0x10E JUMPI PUSH4 0x4E487B71 PUSH1 0xE0 SHL PUSH1 0x0 MSTORE PUSH1 0x22 PUSH1 0x4 MSTORE PUSH1 0x24 PUSH1 0x0 REVERT JUMPDEST POP SWAP2 SWAP1 POP JUMP JUMPDEST PUSH2 0x330 DUP1 PUSH2 0x123 PUSH1 0x0 CODECOPY PUSH1 0x0 RETURN INVALID PUSH1 0x80 PUSH1 0x40 MSTORE CALLVALUE DUP1 ISZERO PUSH2 0x10 JUMPI PUSH1 0x0 DUP1 REVERT JUMPDEST POP PUSH1 0x4 CALLDATASIZE LT PUSH2 0x36 JUMPI PUSH1 0x0 CALLDATALOAD PUSH1 0xE0 SHR DUP1 PUSH4 0x492BFA18 EQ PUSH2 0x3B JUMPI DUP1 PUSH4 0x82180568 EQ PUSH2 0x59 JUMPI JUMPDEST PUSH1 0x0 DUP1 REVERT JUMPDEST PUSH2 0x43 PUSH2 0x6E JUMP JUMPDEST PUSH1 0x40 MLOAD PUSH2 0x50 SWAP2 SWAP1 PUSH2 0x256 JUMP JUMPDEST PUSH1 0x40 MLOAD DUP1 SWAP2 SUB SWAP1 RETURN JUMPDEST PUSH2 0x6C PUSH2 0x67 CALLDATASIZE PUSH1 0x4 PUSH2 0x1AC JUMP JUMPDEST PUSH2 0xFC JUMP JUMPDEST STOP JUMPDEST PUSH1 0x0 DUP1 SLOAD PUSH2 0x7B SWAP1 PUSH2 0x2A9 JUMP JUMPDEST DUP1 PUSH1 0x1F ADD PUSH1 0x20 DUP1 SWAP2 DIV MUL PUSH1 0x20 ADD PUSH1 0x40 MLOAD SWAP1 DUP2 ADD PUSH1 0x40 MSTORE DUP1 SWAP3 SWAP2 SWAP1 DUP2 DUP2 MSTORE PUSH1 0x20 ADD DUP3 DUP1 SLOAD PUSH2 0xA7 SWAP1 PUSH2 0x2A9 JUMP JUMPDEST DUP1 ISZERO PUSH2 0xF4 JUMPI DUP1 PUSH1 0x1F LT PUSH2 0xC9 JUMPI PUSH2 0x100 DUP1 DUP4 SLOAD DIV MUL DUP4 MSTORE SWAP2 PUSH1 0x20 ADD SWAP2 PUSH2 0xF4 JUMP JUMPDEST DUP3 ADD SWAP2 SWAP1 PUSH1 0x0 MSTORE PUSH1 0x20 PUSH1 0x0 KECCAK256 SWAP1 JUMPDEST DUP2 SLOAD DUP2 MSTORE SWAP1 PUSH1 0x1 ADD SWAP1 PUSH1 0x20 ADD DUP1 DUP4 GT PUSH2 0xD7 JUMPI DUP3 SWAP1 SUB PUSH1 0x1F AND DUP3 ADD SWAP2 JUMPDEST POP POP POP POP POP DUP2 JUMP JUMPDEST DUP1 MLOAD PUSH2 0x10F SWAP1 PUSH1 0x0 SWAP1 PUSH1 0x20 DUP5 ADD SWAP1 PUSH2 0x113 JUMP JUMPDEST POP POP JUMP JUMPDEST DUP3 DUP1 SLOAD PUSH2 0x11F SWAP1 PUSH2 0x2A9 JUMP JUMPDEST SWAP1 PUSH1 0x0 MSTORE PUSH1 0x20 PUSH1 0x0 KECCAK256 SWAP1 PUSH1 0x1F ADD PUSH1 0x20 SWAP1 DIV DUP2 ADD SWAP3 DUP3 PUSH2 0x141 JUMPI PUSH1 0x0 DUP6 SSTORE PUSH2 0x187 JUMP JUMPDEST DUP3 PUSH1 0x1F LT PUSH2 0x15A JUMPI DUP1 MLOAD PUSH1 0xFF NOT AND DUP4 DUP1 ADD OR DUP6 SSTORE PUSH2 0x187 JUMP JUMPDEST DUP3 DUP1 ADD PUSH1 0x1 ADD DUP6 SSTORE DUP3 ISZERO PUSH2 0x187 JUMPI SWAP2 DUP3 ADD JUMPDEST DUP3 DUP2 GT ISZERO PUSH2 0x187 JUMPI DUP3 MLOAD DUP3 SSTORE SWAP2 PUSH1 0x20 ADD SWAP2 SWAP1 PUSH1 0x1 ADD SWAP1 PUSH2 0x16C JUMP JUMPDEST POP PUSH2 0x193 SWAP3 SWAP2 POP PUSH2 0x197 JUMP JUMPDEST POP SWAP1 JUMP JUMPDEST JUMPDEST DUP1 DUP3 GT ISZERO PUSH2 0x193 JUMPI PUSH1 0x0 DUP2 SSTORE PUSH1 0x1 ADD PUSH2 0x198 JUMP JUMPDEST PUSH1 0x0 PUSH1 0x20 DUP3 DUP5 SUB SLT ISZERO PUSH2 0x1BD JUMPI DUP1 DUP2 REVERT JUMPDEST DUP2 CALLDATALOAD PUSH8 0xFFFFFFFFFFFFFFFF DUP1 DUP3 GT ISZERO PUSH2 0x1D4 JUMPI DUP3 DUP4 REVERT JUMPDEST DUP2 DUP5 ADD SWAP2 POP DUP5 PUSH1 0x1F DUP4 ADD SLT PUSH2 0x1E7 JUMPI DUP3 DUP4 REVERT JUMPDEST DUP2 CALLDATALOAD DUP2 DUP2 GT ISZERO PUSH2 0x1F9 JUMPI PUSH2 0x1F9 PUSH2 0x2E4 JUMP JUMPDEST PUSH1 0x40 MLOAD PUSH1 0x1F DUP3 ADD PUSH1 0x1F NOT SWAP1 DUP2 AND PUSH1 0x3F ADD AND DUP2 ADD SWAP1 DUP4 DUP3 GT DUP2 DUP4 LT OR ISZERO PUSH2 0x221 JUMPI PUSH2 0x221 PUSH2 0x2E4 JUMP JUMPDEST DUP2 PUSH1 0x40 MSTORE DUP3 DUP2 MSTORE DUP8 PUSH1 0x20 DUP5 DUP8 ADD ADD GT ISZERO PUSH2 0x239 JUMPI DUP6 DUP7 REVERT JUMPDEST DUP3 PUSH1 0x20 DUP7 ADD PUSH1 0x20 DUP4 ADD CALLDATACOPY SWAP2 DUP3 ADD PUSH1 0x20 ADD SWAP5 SWAP1 SWAP5 MSTORE SWAP6 SWAP5 POP POP POP POP POP JUMP JUMPDEST PUSH1 0x0 PUSH1 0x20 DUP1 DUP4 MSTORE DUP4 MLOAD DUP1 DUP3 DUP6 ADD MSTORE DUP3 JUMPDEST DUP2 DUP2 LT ISZERO PUSH2 0x282 JUMPI DUP6 DUP2 ADD DUP4 ADD MLOAD DUP6 DUP3 ADD PUSH1 0x40 ADD MSTORE DUP3 ADD PUSH2 0x266 JUMP JUMPDEST DUP2 DUP2 GT ISZERO PUSH2 0x293 JUMPI DUP4 PUSH1 0x40 DUP4 DUP8 ADD ADD MSTORE JUMPDEST POP PUSH1 0x1F ADD PUSH1 0x1F NOT AND SWAP3 SWAP1 SWAP3 ADD PUSH1 0x40 ADD SWAP4 SWAP3 POP POP POP JUMP JUMPDEST PUSH1 0x2 DUP2 DIV PUSH1 0x1 DUP3 AND DUP1 PUSH2 0x2BD JUMPI PUSH1 0x7F DUP3 AND SWAP2 POP JUMPDEST PUSH1 0x20 DUP3 LT DUP2 EQ ISZERO PUSH2 0x2DE JUMPI PUSH4 0x4E487B71 PUSH1 0xE0 SHL PUSH1 0x0 MSTORE PUSH1 0x22 PUSH1 0x4 MSTORE PUSH1 0x24 PUSH1 0x0 REVERT JUMPDEST POP SWAP2 SWAP1 POP JUMP JUMPDEST PUSH4 0x4E487B71 PUSH1 0xE0 SHL PUSH1 0x0 MSTORE PUSH1 0x41 PUSH1 0x4 MSTORE PUSH1 0x24 PUSH1 0x0 REVERT INVALID LOG2 PUSH5 0x6970667358 0x22 SLT KECCAK256 0xEE ADDRESS 0xB3 SWAP16 ADDRESS 0xCD GAS 0xAB 0xE4 PUSH26 0xBD62C1B6A50E3558237507EE6E32A2415225283782F564736F6C PUSH4 0x43000801 STOP CALLER "
				},
				"gasEstimates": {
					"creation": {
						"codeDepositCost": "163200",
						"executionCost": "infinite",
						"totalCost": "infinite"
					},
					"external": {
						"myString()": "infinite",
						"setMyString(string)": "infinite"
					}
				},
				"methodIdentifiers": {
					"myString()": "492bfa18",
					"setMyString(string)": "82180568"
				}
			},
			"userdoc": {
				"kind": "user",
				"methods": {},
				"version": 1
			}
		}
	}
}