{
	"WillThrow.sol": {
		"ErrorHandling": {
			"abi": [
				{
					"anonymous": false,
					"inputs": [
						{
							"indexed": false,
							"internalType": "string",
							"name": "reason",
							"type": "string"
						}
					],
					"name": "ErrorLogging",
					"type": "event"
				},
				{
					"inputs": [],
					"name": "catchError",
					"outputs": [],
					"stateMutability": "nonpayable",
					"type": "function"
				}
			],
			"devdoc": {
				"kind": "dev",
				"methods": {},
				"version": 1
			},
			"evm": {
				"assembly": "    /* \"WillThrow.sol\":204:545  contract ErrorHandling {\r... */\n  mstore(0x40, 0x80)\n  callvalue\n  dup1\n  iszero\n  tag_1\n  jumpi\n  0x00\n  dup1\n  revert\ntag_1:\n  pop\n  dataSize(sub_0)\n  dup1\n  dataOffset(sub_0)\n  0x00\n  codecopy\n  0x00\n  return\nstop\n\nsub_0: assembly {\n        /* \"WillThrow.sol\":204:545  contract ErrorHandling {\r... */\n      mstore(0x40, 0x80)\n      callvalue\n      dup1\n      iszero\n      tag_1\n      jumpi\n      0x00\n      dup1\n      revert\n    tag_1:\n      pop\n      jumpi(tag_2, lt(calldatasize, 0x04))\n      shr(0xe0, calldataload(0x00))\n      dup1\n      0x8b188516\n      eq\n      tag_3\n      jumpi\n    tag_2:\n      0x00\n      dup1\n      revert\n        /* \"WillThrow.sol\":282:542  function catchError() public {\r... */\n    tag_3:\n      tag_4\n      tag_5\n      jump\t// in\n    tag_4:\n      stop\n    tag_5:\n        /* \"WillThrow.sol\":322:336  WillThrow will */\n      0x00\n        /* \"WillThrow.sol\":339:354  new WillThrow() */\n      mload(0x40)\n      tag_7\n      swap1\n      tag_8\n      jump\t// in\n    tag_7:\n      mload(0x40)\n      dup1\n      swap2\n      sub\n      swap1\n      0x00\n      create\n      dup1\n      iszero\n      dup1\n      iszero\n      tag_9\n      jumpi\n      returndatasize\n      0x00\n      dup1\n      returndatacopy\n      revert(0x00, returndatasize)\n    tag_9:\n      pop\n        /* \"WillThrow.sol\":322:354  WillThrow will = new WillThrow() */\n      swap1\n      pop\n        /* \"WillThrow.sol\":369:373  will */\n      dup1\n      sub(shl(0xa0, 0x01), 0x01)\n        /* \"WillThrow.sol\":369:383  will.aFunction */\n      and\n      0x39c117a4\n        /* \"WillThrow.sol\":369:385  will.aFunction() */\n      mload(0x40)\n      dup2\n      0xffffffff\n      and\n      0xe0\n      shl\n      dup2\n      mstore\n      0x04\n      add\n      0x00\n      mload(0x40)\n      dup1\n      dup4\n      sub\n      dup2\n      0x00\n      dup8\n      dup1\n      extcodesize\n      iszero\n      dup1\n      iszero\n      tag_10\n      jumpi\n      0x00\n      dup1\n      revert\n    tag_10:\n      pop\n      gas\n      call\n      swap3\n      pop\n      pop\n      pop\n      dup1\n      iszero\n      tag_11\n      jumpi\n      pop\n      0x01\n    tag_11:\n        /* \"WillThrow.sol\":365:535  try will.aFunction() {\r... */\n      tag_12\n      jumpi\n      tag_16\n      tag_17\n      jump\t// in\n    tag_16:\n      dup1\n      0x08c379a0\n      eq\n      iszero\n      tag_15\n      jumpi\n      pop\n      tag_18\n      tag_19\n      jump\t// in\n    tag_18:\n      dup1\n      tag_20\n      jumpi\n      pop\n      jump(tag_14)\n    tag_20:\n        /* \"WillThrow.sol\":503:523  ErrorLogging(reason) */\n      0xdcbe72357183be3854887085e70fd914c4c1733a94106878f48e8ba069d8fabc\n        /* \"WillThrow.sol\":516:522  reason */\n      dup2\n        /* \"WillThrow.sol\":503:523  ErrorLogging(reason) */\n      mload(0x40)\n      tag_21\n      swap2\n      swap1\n      tag_22\n      jump\t// in\n    tag_21:\n      mload(0x40)\n      dup1\n      swap2\n      sub\n      swap1\n      log1\n        /* \"WillThrow.sol\":449:535  catch Error(string memory reason) {\r... */\n      pop\n        /* \"WillThrow.sol\":282:542  function catchError() public {\r... */\n      pop\n      jump\t// out\n        /* \"WillThrow.sol\":365:535  try will.aFunction() {\r... */\n    tag_15:\n      pop\n    tag_14:\n      returndatasize\n      0x00\n      dup1\n      returndatacopy\n      revert(0x00, returndatasize)\n    tag_12:\n        /* \"WillThrow.sol\":282:542  function catchError() public {\r... */\n      pop\n      jump\t// out\n    tag_8:\n      dataSize(sub_0)\n      dup1\n      dataOffset(sub_0)\n      dup4\n      codecopy\n      add\n      swap1\n      jump\t// out\n        /* \"#utility.yul\":14:617   */\n    tag_22:\n        /* \"#utility.yul\":126:130   */\n      0x00\n        /* \"#utility.yul\":155:157   */\n      0x20\n        /* \"#utility.yul\":184:186   */\n      dup1\n        /* \"#utility.yul\":173:182   */\n      dup4\n        /* \"#utility.yul\":166:187   */\n      mstore\n        /* \"#utility.yul\":216:222   */\n      dup4\n        /* \"#utility.yul\":210:223   */\n      mload\n        /* \"#utility.yul\":259:265   */\n      dup1\n        /* \"#utility.yul\":254:256   */\n      dup3\n        /* \"#utility.yul\":243:252   */\n      dup6\n        /* \"#utility.yul\":239:257   */\n      add\n        /* \"#utility.yul\":232:266   */\n      mstore\n        /* \"#utility.yul\":284:288   */\n      dup3\n        /* \"#utility.yul\":297:437   */\n    tag_26:\n        /* \"#utility.yul\":311:317   */\n      dup2\n        /* \"#utility.yul\":308:309   */\n      dup2\n        /* \"#utility.yul\":305:318   */\n      lt\n        /* \"#utility.yul\":297:437   */\n      iszero\n      tag_28\n      jumpi\n        /* \"#utility.yul\":406:420   */\n      dup6\n      dup2\n      add\n        /* \"#utility.yul\":402:425   */\n      dup4\n      add\n        /* \"#utility.yul\":396:426   */\n      mload\n        /* \"#utility.yul\":372:389   */\n      dup6\n      dup3\n      add\n        /* \"#utility.yul\":391:393   */\n      0x40\n        /* \"#utility.yul\":368:394   */\n      add\n        /* \"#utility.yul\":361:427   */\n      mstore\n        /* \"#utility.yul\":326:336   */\n      dup3\n      add\n        /* \"#utility.yul\":297:437   */\n      jump(tag_26)\n    tag_28:\n        /* \"#utility.yul\":455:461   */\n      dup2\n        /* \"#utility.yul\":452:453   */\n      dup2\n        /* \"#utility.yul\":449:462   */\n      gt\n        /* \"#utility.yul\":446:448   */\n      iszero\n      tag_29\n      jumpi\n        /* \"#utility.yul\":525:529   */\n      dup4\n        /* \"#utility.yul\":520:522   */\n      0x40\n        /* \"#utility.yul\":511:517   */\n      dup4\n        /* \"#utility.yul\":500:509   */\n      dup8\n        /* \"#utility.yul\":496:518   */\n      add\n        /* \"#utility.yul\":492:523   */\n      add\n        /* \"#utility.yul\":485:530   */\n      mstore\n        /* \"#utility.yul\":446:448   */\n    tag_29:\n      pop\n        /* \"#utility.yul\":601:603   */\n      0x1f\n        /* \"#utility.yul\":580:595   */\n      add\n      not(0x1f)\n        /* \"#utility.yul\":576:605   */\n      and\n        /* \"#utility.yul\":561:606   */\n      swap3\n      swap1\n      swap3\n      add\n        /* \"#utility.yul\":608:610   */\n      0x40\n        /* \"#utility.yul\":557:611   */\n      add\n      swap4\n        /* \"#utility.yul\":135:617   */\n      swap3\n      pop\n      pop\n      pop\n      jump\t// out\n        /* \"#utility.yul\":622:968   */\n    tag_30:\n        /* \"#utility.yul\":732:734   */\n      0x1f\n        /* \"#utility.yul\":713:726   */\n      dup3\n      add\n      not(0x1f)\n        /* \"#utility.yul\":709:736   */\n      and\n        /* \"#utility.yul\":697:737   */\n      dup2\n      add\n        /* \"#utility.yul\":767:785   */\n      0xffffffffffffffff\n        /* \"#utility.yul\":752:786   */\n      dup2\n      gt\n        /* \"#utility.yul\":788:810   */\n      dup3\n      dup3\n      lt\n        /* \"#utility.yul\":749:811   */\n      or\n        /* \"#utility.yul\":746:748   */\n      iszero\n      tag_32\n      jumpi\n        /* \"#utility.yul\":853:863   */\n      0x4e487b71\n        /* \"#utility.yul\":848:851   */\n      0xe0\n        /* \"#utility.yul\":844:864   */\n      shl\n        /* \"#utility.yul\":841:842   */\n      0x00\n        /* \"#utility.yul\":834:865   */\n      mstore\n        /* \"#utility.yul\":888:892   */\n      0x41\n        /* \"#utility.yul\":885:886   */\n      0x04\n        /* \"#utility.yul\":878:893   */\n      mstore\n        /* \"#utility.yul\":916:920   */\n      0x24\n        /* \"#utility.yul\":913:914   */\n      0x00\n        /* \"#utility.yul\":906:921   */\n      revert\n        /* \"#utility.yul\":746:748   */\n    tag_32:\n        /* \"#utility.yul\":947:949   */\n      0x40\n        /* \"#utility.yul\":940:962   */\n      mstore\n      pop\n      pop\n        /* \"#utility.yul\":669:968   */\n      jump\t// out\n        /* \"#utility.yul\":973:1158   */\n    tag_17:\n        /* \"#utility.yul\":1008:1011   */\n      0x00\n        /* \"#utility.yul\":1050:1051   */\n      0x03\n        /* \"#utility.yul\":1032:1048   */\n      returndatasize\n        /* \"#utility.yul\":1029:1052   */\n      gt\n        /* \"#utility.yul\":1026:1028   */\n      iszero\n      tag_34\n      jumpi\n        /* \"#utility.yul\":1100:1101   */\n      0x04\n        /* \"#utility.yul\":1095:1098   */\n      dup2\n        /* \"#utility.yul\":1090:1093   */\n      dup3\n        /* \"#utility.yul\":1075:1102   */\n      returndatacopy\n        /* \"#utility.yul\":1131:1141   */\n      mload\n        /* \"#utility.yul\":1126:1129   */\n      0xe0\n        /* \"#utility.yul\":1122:1142   */\n      shr\n        /* \"#utility.yul\":1026:1028   */\n    tag_34:\n        /* \"#utility.yul\":1016:1158   */\n      swap1\n      jump\t// out\n        /* \"#utility.yul\":1163:1834   */\n    tag_19:\n        /* \"#utility.yul\":1202:1205   */\n      0x00\n        /* \"#utility.yul\":1244:1248   */\n      0x44\n        /* \"#utility.yul\":1226:1242   */\n      returndatasize\n        /* \"#utility.yul\":1223:1249   */\n      lt\n        /* \"#utility.yul\":1220:1222   */\n      iszero\n      tag_36\n      jumpi\n        /* \"#utility.yul\":1210:1834   */\n      swap1\n      jump\t// out\n        /* \"#utility.yul\":1220:1222   */\n    tag_36:\n        /* \"#utility.yul\":1286:1288   */\n      0x40\n        /* \"#utility.yul\":1280:1289   */\n      mload\n      not(0x03)\n        /* \"#utility.yul\":1351:1367   */\n      returndatasize\n        /* \"#utility.yul\":1347:1372   */\n      dup2\n      add\n        /* \"#utility.yul\":1344:1345   */\n      0x04\n        /* \"#utility.yul\":1280:1289   */\n      dup4\n        /* \"#utility.yul\":1323:1373   */\n      returndatacopy\n        /* \"#utility.yul\":1402:1406   */\n      dup2\n        /* \"#utility.yul\":1396:1407   */\n      mload\n        /* \"#utility.yul\":1426:1442   */\n      returndatasize\n        /* \"#utility.yul\":1461:1479   */\n      0xffffffffffffffff\n        /* \"#utility.yul\":1532:1534   */\n      dup2\n        /* \"#utility.yul\":1525:1529   */\n      0x24\n        /* \"#utility.yul\":1517:1523   */\n      dup5\n        /* \"#utility.yul\":1513:1530   */\n      add\n        /* \"#utility.yul\":1510:1535   */\n      gt\n        /* \"#utility.yul\":1505:1507   */\n      dup2\n        /* \"#utility.yul\":1497:1503   */\n      dup5\n        /* \"#utility.yul\":1494:1508   */\n      gt\n        /* \"#utility.yul\":1491:1536   */\n      or\n        /* \"#utility.yul\":1488:1490   */\n      iszero\n      tag_37\n      jumpi\n        /* \"#utility.yul\":1539:1544   */\n      pop\n      pop\n      pop\n      pop\n      pop\n        /* \"#utility.yul\":1210:1834   */\n      swap1\n      jump\t// out\n        /* \"#utility.yul\":1488:1490   */\n    tag_37:\n        /* \"#utility.yul\":1576:1582   */\n      dup3\n        /* \"#utility.yul\":1570:1574   */\n      dup6\n        /* \"#utility.yul\":1566:1583   */\n      add\n        /* \"#utility.yul\":1555:1583   */\n      swap2\n      pop\n        /* \"#utility.yul\":1612:1615   */\n      dup2\n        /* \"#utility.yul\":1606:1616   */\n      mload\n        /* \"#utility.yul\":1639:1641   */\n      dup2\n        /* \"#utility.yul\":1631:1637   */\n      dup2\n        /* \"#utility.yul\":1628:1642   */\n      gt\n        /* \"#utility.yul\":1625:1627   */\n      iszero\n      tag_38\n      jumpi\n        /* \"#utility.yul\":1645:1650   */\n      pop\n      pop\n      pop\n      pop\n      pop\n      pop\n        /* \"#utility.yul\":1210:1834   */\n      swap1\n      jump\t// out\n        /* \"#utility.yul\":1625:1627   */\n    tag_38:\n        /* \"#utility.yul\":1729:1731   */\n      dup5\n        /* \"#utility.yul\":1710:1726   */\n      returndatasize\n        /* \"#utility.yul\":1704:1708   */\n      dup8\n        /* \"#utility.yul\":1700:1727   */\n      add\n        /* \"#utility.yul\":1696:1732   */\n      add\n        /* \"#utility.yul\":1689:1693   */\n      0x20\n        /* \"#utility.yul\":1680:1686   */\n      dup3\n        /* \"#utility.yul\":1675:1678   */\n      dup6\n        /* \"#utility.yul\":1671:1687   */\n      add\n        /* \"#utility.yul\":1667:1694   */\n      add\n        /* \"#utility.yul\":1664:1733   */\n      gt\n        /* \"#utility.yul\":1661:1663   */\n      iszero\n      tag_39\n      jumpi\n        /* \"#utility.yul\":1736:1741   */\n      pop\n      pop\n      pop\n      pop\n      pop\n      pop\n        /* \"#utility.yul\":1210:1834   */\n      swap1\n      jump\t// out\n        /* \"#utility.yul\":1661:1663   */\n    tag_39:\n        /* \"#utility.yul\":1752:1809   */\n      tag_40\n        /* \"#utility.yul\":1803:1807   */\n      0x20\n        /* \"#utility.yul\":1794:1800   */\n      dup3\n        /* \"#utility.yul\":1786:1792   */\n      dup7\n        /* \"#utility.yul\":1782:1801   */\n      add\n        /* \"#utility.yul\":1778:1808   */\n      add\n        /* \"#utility.yul\":1772:1776   */\n      dup8\n        /* \"#utility.yul\":1752:1809   */\n      tag_30\n      jump\t// in\n    tag_40:\n      pop\n        /* \"#utility.yul\":1825:1828   */\n      swap1\n      swap6\n        /* \"#utility.yul\":1210:1834   */\n      swap5\n      pop\n      pop\n      pop\n      pop\n      pop\n      jump\t// out\n    stop\n\n    sub_0: assembly {\n            /* \"WillThrow.sol\":60:200  contract WillThrow {\r... */\n          mstore(0x40, 0x80)\n          callvalue\n          dup1\n          iszero\n          tag_1\n          jumpi\n          0x00\n          dup1\n          revert\n        tag_1:\n          pop\n          dataSize(sub_0)\n          dup1\n          dataOffset(sub_0)\n          0x00\n          codecopy\n          0x00\n          return\n        stop\n\n        sub_0: assembly {\n                /* \"WillThrow.sol\":60:200  contract WillThrow {\r... */\n              mstore(0x40, 0x80)\n              callvalue\n              dup1\n              iszero\n              tag_1\n              jumpi\n              0x00\n              dup1\n              revert\n            tag_1:\n              pop\n              jumpi(tag_2, lt(calldatasize, 0x04))\n              shr(0xe0, calldataload(0x00))\n              dup1\n              0x39c117a4\n              eq\n              tag_3\n              jumpi\n            tag_2:\n              0x00\n              dup1\n              revert\n                /* \"WillThrow.sol\":92:197  function aFunction() public {\r... */\n            tag_3:\n              tag_4\n              tag_5\n              jump\t// in\n            tag_4:\n              stop\n            tag_5:\n              shl(0xe0, 0x4e487b71)\n                /* \"WillThrow.sol\":176:189  assert(false) */\n              0x00\n              mstore\n              mstore(0x04, 0x01)\n              revert(0x00, 0x24)\n\n            auxdata: 0xa2646970667358221220d8615e472e8f602f606c25ffc9ecf04b2156f82a647678b0b4c2754bf5e1bd8464736f6c63430008040033\n        }\n    }\n\n    auxdata: 0xa26469706673582212207be004a9c04feed64cae8c53cda024edd1df7c6e0ed9e4e53de6e1b1c92c425064736f6c63430008040033\n}\n",
				"bytecode": {
					"linkReferences": {},
					"object": "608060405234801561001057600080fd5b5061033a806100206000396000f3fe608060405234801561001057600080fd5b506004361061002b5760003560e01c80638b18851614610030575b600080fd5b61003861003a565b005b600060405161004890610129565b604051809103906000f080158015610064573d6000803e3d6000fd5b509050806001600160a01b03166339c117a46040518163ffffffff1660e01b8152600401600060405180830381600087803b1580156100a257600080fd5b505af19250505080156100b3575060015b610126576100bf6101c3565b806308c379a0141561011a57506100d46101db565b806100df575061011c565b7fdcbe72357183be3854887085e70fd914c4c1733a94106878f48e8ba069d8fabc8160405161010e9190610135565b60405180910390a15050565b505b3d6000803e3d6000fd5b50565b609f8061026683390190565b6000602080835283518082850152825b8181101561016157858101830151858201604001528201610145565b818111156101725783604083870101525b50601f01601f1916929092016040019392505050565b601f8201601f1916810167ffffffffffffffff811182821017156101bc57634e487b7160e01b600052604160045260246000fd5b6040525050565b600060033d11156101d857600481823e5160e01c5b90565b600060443d10156101e95790565b6040516003193d81016004833e81513d67ffffffffffffffff816024840111818411171561021957505050505090565b82850191508151818111156102315750505050505090565b843d870101602082850101111561024b5750505050505090565b61025a60208286010187610188565b50909594505050505056fe6080604052348015600f57600080fd5b5060818061001e6000396000f3fe6080604052348015600f57600080fd5b506004361060285760003560e01c806339c117a414602d575b600080fd5b60336035565b005b634e487b7160e01b600052600160045260246000fdfea2646970667358221220d8615e472e8f602f606c25ffc9ecf04b2156f82a647678b0b4c2754bf5e1bd8464736f6c63430008040033a26469706673582212207be004a9c04feed64cae8c53cda024edd1df7c6e0ed9e4e53de6e1b1c92c425064736f6c63430008040033",
					"opcodes": "PUSH1 0x80 PUSH1 0x40 MSTORE CALLVALUE DUP1 ISZERO PUSH2 0x10 JUMPI PUSH1 0x0 DUP1 REVERT JUMPDEST POP PUSH2 0x33A DUP1 PUSH2 0x20 PUSH1 0x0 CODECOPY PUSH1 0x0 RETURN INVALID PUSH1 0x80 PUSH1 0x40 MSTORE CALLVALUE DUP1 ISZERO PUSH2 0x10 JUMPI PUSH1 0x0 DUP1 REVERT JUMPDEST POP PUSH1 0x4 CALLDATASIZE LT PUSH2 0x2B JUMPI PUSH1 0x0 CALLDATALOAD PUSH1 0xE0 SHR DUP1 PUSH4 0x8B188516 EQ PUSH2 0x30 JUMPI JUMPDEST PUSH1 0x0 DUP1 REVERT JUMPDEST PUSH2 0x38 PUSH2 0x3A JUMP JUMPDEST STOP JUMPDEST PUSH1 0x0 PUSH1 0x40 MLOAD PUSH2 0x48 SWAP1 PUSH2 0x129 JUMP JUMPDEST PUSH1 0x40 MLOAD DUP1 SWAP2 SUB SWAP1 PUSH1 0x0 CREATE DUP1 ISZERO DUP1 ISZERO PUSH2 0x64 JUMPI RETURNDATASIZE PUSH1 0x0 DUP1 RETURNDATACOPY RETURNDATASIZE PUSH1 0x0 REVERT JUMPDEST POP SWAP1 POP DUP1 PUSH1 0x1 PUSH1 0x1 PUSH1 0xA0 SHL SUB AND PUSH4 0x39C117A4 PUSH1 0x40 MLOAD DUP2 PUSH4 0xFFFFFFFF AND PUSH1 0xE0 SHL DUP2 MSTORE PUSH1 0x4 ADD PUSH1 0x0 PUSH1 0x40 MLOAD DUP1 DUP4 SUB DUP2 PUSH1 0x0 DUP8 DUP1 EXTCODESIZE ISZERO DUP1 ISZERO PUSH2 0xA2 JUMPI PUSH1 0x0 DUP1 REVERT JUMPDEST POP GAS CALL SWAP3 POP POP POP DUP1 ISZERO PUSH2 0xB3 JUMPI POP PUSH1 0x1 JUMPDEST PUSH2 0x126 JUMPI PUSH2 0xBF PUSH2 0x1C3 JUMP JUMPDEST DUP1 PUSH4 0x8C379A0 EQ ISZERO PUSH2 0x11A JUMPI POP PUSH2 0xD4 PUSH2 0x1DB JUMP JUMPDEST DUP1 PUSH2 0xDF JUMPI POP PUSH2 0x11C JUMP JUMPDEST PUSH32 0xDCBE72357183BE3854887085E70FD914C4C1733A94106878F48E8BA069D8FABC DUP2 PUSH1 0x40 MLOAD PUSH2 0x10E SWAP2 SWAP1 PUSH2 0x135 JUMP JUMPDEST PUSH1 0x40 MLOAD DUP1 SWAP2 SUB SWAP1 LOG1 POP POP JUMP JUMPDEST POP JUMPDEST RETURNDATASIZE PUSH1 0x0 DUP1 RETURNDATACOPY RETURNDATASIZE PUSH1 0x0 REVERT JUMPDEST POP JUMP JUMPDEST PUSH1 0x9F DUP1 PUSH2 0x266 DUP4 CODECOPY ADD SWAP1 JUMP JUMPDEST PUSH1 0x0 PUSH1 0x20 DUP1 DUP4 MSTORE DUP4 MLOAD DUP1 DUP3 DUP6 ADD MSTORE DUP3 JUMPDEST DUP2 DUP2 LT ISZERO PUSH2 0x161 JUMPI DUP6 DUP2 ADD DUP4 ADD MLOAD DUP6 DUP3 ADD PUSH1 0x40 ADD MSTORE DUP3 ADD PUSH2 0x145 JUMP JUMPDEST DUP2 DUP2 GT ISZERO PUSH2 0x172 JUMPI DUP4 PUSH1 0x40 DUP4 DUP8 ADD ADD MSTORE JUMPDEST POP PUSH1 0x1F ADD PUSH1 0x1F NOT AND SWAP3 SWAP1 SWAP3 ADD PUSH1 0x40 ADD SWAP4 SWAP3 POP POP POP JUMP JUMPDEST PUSH1 0x1F DUP3 ADD PUSH1 0x1F NOT AND DUP2 ADD PUSH8 0xFFFFFFFFFFFFFFFF DUP2 GT DUP3 DUP3 LT OR ISZERO PUSH2 0x1BC JUMPI PUSH4 0x4E487B71 PUSH1 0xE0 SHL PUSH1 0x0 MSTORE PUSH1 0x41 PUSH1 0x4 MSTORE PUSH1 0x24 PUSH1 0x0 REVERT JUMPDEST PUSH1 0x40 MSTORE POP POP JUMP JUMPDEST PUSH1 0x0 PUSH1 0x3 RETURNDATASIZE GT ISZERO PUSH2 0x1D8 JUMPI PUSH1 0x4 DUP2 DUP3 RETURNDATACOPY MLOAD PUSH1 0xE0 SHR JUMPDEST SWAP1 JUMP JUMPDEST PUSH1 0x0 PUSH1 0x44 RETURNDATASIZE LT ISZERO PUSH2 0x1E9 JUMPI SWAP1 JUMP JUMPDEST PUSH1 0x40 MLOAD PUSH1 0x3 NOT RETURNDATASIZE DUP2 ADD PUSH1 0x4 DUP4 RETURNDATACOPY DUP2 MLOAD RETURNDATASIZE PUSH8 0xFFFFFFFFFFFFFFFF DUP2 PUSH1 0x24 DUP5 ADD GT DUP2 DUP5 GT OR ISZERO PUSH2 0x219 JUMPI POP POP POP POP POP SWAP1 JUMP JUMPDEST DUP3 DUP6 ADD SWAP2 POP DUP2 MLOAD DUP2 DUP2 GT ISZERO PUSH2 0x231 JUMPI POP POP POP POP POP POP SWAP1 JUMP JUMPDEST DUP5 RETURNDATASIZE DUP8 ADD ADD PUSH1 0x20 DUP3 DUP6 ADD ADD GT ISZERO PUSH2 0x24B JUMPI POP POP POP POP POP POP SWAP1 JUMP JUMPDEST PUSH2 0x25A PUSH1 0x20 DUP3 DUP7 ADD ADD DUP8 PUSH2 0x188 JUMP JUMPDEST POP SWAP1 SWAP6 SWAP5 POP POP POP POP POP JUMP INVALID PUSH1 0x80 PUSH1 0x40 MSTORE CALLVALUE DUP1 ISZERO PUSH1 0xF JUMPI PUSH1 0x0 DUP1 REVERT JUMPDEST POP PUSH1 0x81 DUP1 PUSH2 0x1E PUSH1 0x0 CODECOPY PUSH1 0x0 RETURN INVALID PUSH1 0x80 PUSH1 0x40 MSTORE CALLVALUE DUP1 ISZERO PUSH1 0xF JUMPI PUSH1 0x0 DUP1 REVERT JUMPDEST POP PUSH1 0x4 CALLDATASIZE LT PUSH1 0x28 JUMPI PUSH1 0x0 CALLDATALOAD PUSH1 0xE0 SHR DUP1 PUSH4 0x39C117A4 EQ PUSH1 0x2D JUMPI JUMPDEST PUSH1 0x0 DUP1 REVERT JUMPDEST PUSH1 0x33 PUSH1 0x35 JUMP JUMPDEST STOP JUMPDEST PUSH4 0x4E487B71 PUSH1 0xE0 SHL PUSH1 0x0 MSTORE PUSH1 0x1 PUSH1 0x4 MSTORE PUSH1 0x24 PUSH1 0x0 REVERT INVALID LOG2 PUSH5 0x6970667358 0x22 SLT KECCAK256 0xD8 PUSH2 0x5E47 0x2E DUP16 PUSH1 0x2F PUSH1 0x6C 0x25 SELFDESTRUCT 0xC9 0xEC CREATE 0x4B 0x21 JUMP 0xF8 0x2A PUSH5 0x7678B0B4C2 PUSH22 0x4BF5E1BD8464736F6C63430008040033A26469706673 PC 0x22 SLT KECCAK256 PUSH28 0xE004A9C04FEED64CAE8C53CDA024EDD1DF7C6E0ED9E4E53DE6E1B1C9 0x2C TIMESTAMP POP PUSH5 0x736F6C6343 STOP ADDMOD DIV STOP CALLER "
				},
				"gasEstimates": {
					"creation": {
						"codeDepositCost": "165200",
						"executionCost": "208",
						"totalCost": "165408"
					},
					"external": {
						"catchError()": "infinite"
					}
				},
				"methodIdentifiers": {
					"catchError()": "8b188516"
				}
			},
			"userdoc": {
				"kind": "user",
				"methods": {},
				"version": 1
			}
		}
	}
}