{
	"BooleanExample.sol": {
		"BooleanExample": {
			"abi": [
				{
					"inputs": [],
					"name": "myBool",
					"outputs": [
						{
							"internalType": "bool",
							"name": "",
							"type": "bool"
						}
					],
					"stateMutability": "view",
					"type": "function"
				},
				{
					"inputs": [
						{
							"internalType": "bool",
							"name": "_myBool",
							"type": "bool"
						}
					],
					"name": "setMyBool",
					"outputs": [],
					"stateMutability": "nonpayable",
					"type": "function"
				}
			],
			"devdoc": {
				"kind": "dev",
				"methods": {},
				"version": 1
			},
			"evm": {
				"assembly": "    /* \"BooleanExample.sol\":64:204  contract BooleanExample {\r... */\n  mstore(0x40, 0x80)\n  callvalue\n  dup1\n  iszero\n  tag_1\n  jumpi\n  0x00\n  dup1\n  revert\ntag_1:\n  pop\n  dataSize(sub_0)\n  dup1\n  dataOffset(sub_0)\n  0x00\n  codecopy\n  0x00\n  return\nstop\n\nsub_0: assembly {\n        /* \"BooleanExample.sol\":64:204  contract BooleanExample {\r... */\n      mstore(0x40, 0x80)\n      callvalue\n      dup1\n      iszero\n      tag_1\n      jumpi\n      0x00\n      dup1\n      revert\n    tag_1:\n      pop\n      jumpi(tag_2, lt(calldatasize, 0x04))\n      shr(0xe0, calldataload(0x00))\n      dup1\n      0x6deecdbe\n      eq\n      tag_3\n      jumpi\n      dup1\n      0xeb1b30d9\n      eq\n      tag_4\n      jumpi\n    tag_2:\n      0x00\n      dup1\n      revert\n        /* \"BooleanExample.sol\":95:113  bool public myBool */\n    tag_3:\n      sload(0x00)\n      tag_5\n      swap1\n      0xff\n      and\n      dup2\n      jump\n    tag_5:\n      mload(0x40)\n        /* \"#utility.yul\":457:471   */\n      swap1\n      iszero\n        /* \"#utility.yul\":450:472   */\n      iszero\n        /* \"#utility.yul\":432:473   */\n      dup2\n      mstore\n        /* \"#utility.yul\":420:422   */\n      0x20\n        /* \"#utility.yul\":405:423   */\n      add\n        /* \"BooleanExample.sol\":95:113  bool public myBool */\n      mload(0x40)\n      dup1\n      swap2\n      sub\n      swap1\n      return\n        /* \"BooleanExample.sol\":126:201  function setMyBool(bool _myBool) public {\r... */\n    tag_4:\n      tag_9\n      tag_10\n      calldatasize\n      0x04\n      tag_11\n      jump\t// in\n    tag_10:\n        /* \"BooleanExample.sol\":177:183  myBool */\n      0x00\n        /* \"BooleanExample.sol\":177:193  myBool = _myBool */\n      dup1\n      sload\n      not(0xff)\n      and\n      swap2\n      iszero\n      iszero\n      swap2\n      swap1\n      swap2\n      or\n      swap1\n      sstore\n        /* \"BooleanExample.sol\":126:201  function setMyBool(bool _myBool) public {\r... */\n      jump\n    tag_9:\n      stop\n        /* \"#utility.yul\":14:287   */\n    tag_11:\n        /* \"#utility.yul\":70:76   */\n      0x00\n        /* \"#utility.yul\":123:125   */\n      0x20\n        /* \"#utility.yul\":111:120   */\n      dup3\n        /* \"#utility.yul\":102:109   */\n      dup5\n        /* \"#utility.yul\":98:121   */\n      sub\n        /* \"#utility.yul\":94:126   */\n      slt\n        /* \"#utility.yul\":91:143   */\n      iszero\n      tag_16\n      jumpi\n        /* \"#utility.yul\":139:140   */\n      0x00\n        /* \"#utility.yul\":136:137   */\n      dup1\n        /* \"#utility.yul\":129:141   */\n      revert\n        /* \"#utility.yul\":91:143   */\n    tag_16:\n        /* \"#utility.yul\":178:187   */\n      dup2\n        /* \"#utility.yul\":165:188   */\n      calldataload\n        /* \"#utility.yul\":231:236   */\n      dup1\n        /* \"#utility.yul\":224:237   */\n      iszero\n        /* \"#utility.yul\":217:238   */\n      iszero\n        /* \"#utility.yul\":210:215   */\n      dup2\n        /* \"#utility.yul\":207:239   */\n      eq\n        /* \"#utility.yul\":197:257   */\n      tag_17\n      jumpi\n        /* \"#utility.yul\":253:254   */\n      0x00\n        /* \"#utility.yul\":250:251   */\n      dup1\n        /* \"#utility.yul\":243:255   */\n      revert\n        /* \"#utility.yul\":197:257   */\n    tag_17:\n        /* \"#utility.yul\":276:281   */\n      swap4\n        /* \"#utility.yul\":14:287   */\n      swap3\n      pop\n      pop\n      pop\n      jump\t// out\n\n    auxdata: 0xa2646970667358221220a95846e7631a5de2cd43ace9706f4ec8e2e592dbdfdba6866d77e93ca70adbb464736f6c63430008070033\n}\n",
				"bytecode": {
					"linkReferences": {},
					"object": "608060405234801561001057600080fd5b5060d48061001f6000396000f3fe6080604052348015600f57600080fd5b506004361060325760003560e01c80636deecdbe146037578063eb1b30d9146057575b600080fd5b60005460439060ff1681565b604051901515815260200160405180910390f35b607560623660046077565b6000805460ff1916911515919091179055565b005b600060208284031215608857600080fd5b81358015158114609757600080fd5b939250505056fea2646970667358221220a95846e7631a5de2cd43ace9706f4ec8e2e592dbdfdba6866d77e93ca70adbb464736f6c63430008070033",
					"opcodes": "PUSH1 0x80 PUSH1 0x40 MSTORE CALLVALUE DUP1 ISZERO PUSH2 0x10 JUMPI PUSH1 0x0 DUP1 REVERT JUMPDEST POP PUSH1 0xD4 DUP1 PUSH2 0x1F PUSH1 0x0 CODECOPY PUSH1 0x0 RETURN INVALID PUSH1 0x80 PUSH1 0x40 MSTORE CALLVALUE DUP1 ISZERO PUSH1 0xF JUMPI PUSH1 0x0 DUP1 REVERT JUMPDEST POP PUSH1 0x4 CALLDATASIZE LT PUSH1 0x32 JUMPI PUSH1 0x0 CALLDATALOAD PUSH1 0xE0 SHR DUP1 PUSH4 0x6DEECDBE EQ PUSH1 0x37 JUMPI DUP1 PUSH4 0xEB1B30D9 EQ PUSH1 0x57 JUMPI JUMPDEST PUSH1 0x0 DUP1 REVERT JUMPDEST PUSH1 0x0 SLOAD PUSH1 0x43 SWAP1 PUSH1 0xFF AND DUP2 JUMP JUMPDEST PUSH1 0x40 MLOAD SWAP1 ISZERO ISZERO DUP2 MSTORE PUSH1 0x20 ADD PUSH1 0x40 MLOAD DUP1 SWAP2 SUB SWAP1 RETURN JUMPDEST PUSH1 0x75 PUSH1 0x62 CALLDATASIZE PUSH1 0x4 PUSH1 0x77 JUMP JUMPDEST PUSH1 0x0 DUP1 SLOAD PUSH1 0xFF NOT AND SWAP2 ISZERO ISZERO SWAP2 SWAP1 SWAP2 OR SWAP1 SSTORE JUMP JUMPDEST STOP JUMPDEST PUSH1 0x0 PUSH1 0x20 DUP3 DUP5 SUB SLT ISZERO PUSH1 0x88 JUMPI PUSH1 0x0 DUP1 REVERT JUMPDEST DUP2 CALLDATALOAD DUP1 ISZERO ISZERO DUP2 EQ PUSH1 0x97 JUMPI PUSH1 0x0 DUP1 REVERT JUMPDEST SWAP4 SWAP3 POP POP POP JUMP INVALID LOG2 PUSH5 0x6970667358 0x22 SLT KECCAK256 0xA9 PC CHAINID 0xE7 PUSH4 0x1A5DE2CD NUMBER 0xAC 0xE9 PUSH17 0x6F4EC8E2E592DBDFDBA6866D77E93CA70A 0xDB 0xB4 PUSH5 0x736F6C6343 STOP ADDMOD SMOD STOP CALLER "
				},
				"gasEstimates": {
					"creation": {
						"codeDepositCost": "42400",
						"executionCost": "93",
						"totalCost": "42493"
					},
					"external": {
						"myBool()": "2276",
						"setMyBool(bool)": "24482"
					}
				},
				"methodIdentifiers": {
					"myBool()": "6deecdbe",
					"setMyBool(bool)": "eb1b30d9"
				}
			},
			"userdoc": {
				"kind": "user",
				"methods": {},
				"version": 1
			}
		}
	}
}