{
	"MappingStructExample.sol": {
		"MappingsStructExample": {
			"abi": [
				{
					"inputs": [
						{
							"internalType": "address",
							"name": "",
							"type": "address"
						}
					],
					"name": "balanceReceived",
					"outputs": [
						{
							"internalType": "uint256",
							"name": "totalBalance",
							"type": "uint256"
						},
						{
							"internalType": "uint256",
							"name": "numPayments",
							"type": "uint256"
						}
					],
					"stateMutability": "view",
					"type": "function"
				},
				{
					"inputs": [],
					"name": "getBalance",
					"outputs": [
						{
							"internalType": "uint256",
							"name": "",
							"type": "uint256"
						}
					],
					"stateMutability": "view",
					"type": "function"
				},
				{
					"inputs": [],
					"name": "sendMoney",
					"outputs": [],
					"stateMutability": "payable",
					"type": "function"
				},
				{
					"inputs": [
						{
							"internalType": "address payable",
							"name": "_to",
							"type": "address"
						}
					],
					"name": "withdrawAllMoney",
					"outputs": [],
					"stateMutability": "nonpayable",
					"type": "function"
				},
				{
					"inputs": [
						{
							"internalType": "address payable",
							"name": "_to",
							"type": "address"
						},
						{
							"internalType": "uint256",
							"name": "_amount",
							"type": "uint256"
						}
					],
					"name": "withdrawMoney",
					"outputs": [],
					"stateMutability": "nonpayable",
					"type": "function"
				}
			],
			"devdoc": {
				"kind": "dev",
				"methods": {},
				"version": 1
			},
			"evm": {
				"assembly": "    /* \"MappingStructExample.sol\":61:1310  contract MappingsStructExample {... */\n  mstore(0x40, 0x80)\n  callvalue\n  dup1\n  iszero\n  tag_1\n  jumpi\n  0x00\n  dup1\n  revert\ntag_1:\n  pop\n  dataSize(sub_0)\n  dup1\n  dataOffset(sub_0)\n  0x00\n  codecopy\n  0x00\n  return\nstop\n\nsub_0: assembly {\n        /* \"MappingStructExample.sol\":61:1310  contract MappingsStructExample {... */\n      mstore(0x40, 0x80)\n      jumpi(tag_1, lt(calldatasize, 0x04))\n      shr(0xe0, calldataload(0x00))\n      dup1\n      0x0adec93c\n      eq\n      tag_2\n      jumpi\n      dup1\n      0x12065fe0\n      eq\n      tag_3\n      jumpi\n      dup1\n      0xcbedbf5a\n      eq\n      tag_4\n      jumpi\n      dup1\n      0xd18a42e1\n      eq\n      tag_5\n      jumpi\n      dup1\n      0xf274c897\n      eq\n      tag_6\n      jumpi\n    tag_1:\n      0x00\n      dup1\n      revert\n        /* \"MappingStructExample.sol\":1092:1307  function withdrawAllMoney(address payable _to) public {... */\n    tag_2:\n      callvalue\n      dup1\n      iszero\n      tag_7\n      jumpi\n      0x00\n      dup1\n      revert\n    tag_7:\n      pop\n      tag_8\n      tag_9\n      calldatasize\n      0x04\n      tag_10\n      jump\t// in\n    tag_9:\n      tag_11\n      jump\t// in\n    tag_8:\n      stop\n        /* \"MappingStructExample.sol\":380:475  function getBalance() public view returns(uint) {... */\n    tag_3:\n      callvalue\n      dup1\n      iszero\n      tag_12\n      jumpi\n      0x00\n      dup1\n      revert\n    tag_12:\n      pop\n      mload(0x40)\n        /* \"MappingStructExample.sol\":446:467  address(this).balance */\n      selfbalance\n        /* \"#utility.yul\":572:597   */\n      dup2\n      mstore\n        /* \"#utility.yul\":560:562   */\n      0x20\n        /* \"#utility.yul\":545:563   */\n      add\n        /* \"MappingStructExample.sol\":380:475  function getBalance() public view returns(uint) {... */\n    tag_15:\n      mload(0x40)\n      dup1\n      swap2\n      sub\n      swap1\n      return\n        /* \"MappingStructExample.sol\":483:812  function sendMoney() public payable {... */\n    tag_4:\n      tag_8\n      tag_18\n      jump\t// in\n        /* \"MappingStructExample.sol\":317:367  mapping(address => Balance) public balanceReceived */\n    tag_5:\n      callvalue\n      dup1\n      iszero\n      tag_19\n      jumpi\n      0x00\n      dup1\n      revert\n    tag_19:\n      pop\n      tag_20\n      tag_21\n      calldatasize\n      0x04\n      tag_10\n      jump\t// in\n    tag_21:\n      0x00\n      0x20\n      dup2\n      swap1\n      mstore\n      swap1\n      dup2\n      mstore\n      0x40\n      swap1\n      keccak256\n      dup1\n      sload\n      0x01\n      swap1\n      swap2\n      add\n      sload\n      dup3\n      jump\n    tag_20:\n      0x40\n      dup1\n      mload\n        /* \"#utility.yul\":1042:1067   */\n      swap3\n      dup4\n      mstore\n        /* \"#utility.yul\":1098:1100   */\n      0x20\n        /* \"#utility.yul\":1083:1101   */\n      dup4\n      add\n        /* \"#utility.yul\":1076:1110   */\n      swap2\n      swap1\n      swap2\n      mstore\n        /* \"#utility.yul\":1015:1033   */\n      add\n        /* \"MappingStructExample.sol\":317:367  mapping(address => Balance) public balanceReceived */\n      tag_15\n        /* \"#utility.yul\":868:1116   */\n      jump\n        /* \"MappingStructExample.sol\":824:1086  function withdrawMoney(address payable _to, uint _amount) public {... */\n    tag_6:\n      callvalue\n      dup1\n      iszero\n      tag_26\n      jumpi\n      0x00\n      dup1\n      revert\n    tag_26:\n      pop\n      tag_8\n      tag_28\n      calldatasize\n      0x04\n      tag_29\n      jump\t// in\n    tag_28:\n      tag_30\n      jump\t// in\n        /* \"MappingStructExample.sol\":1092:1307  function withdrawAllMoney(address payable _to) public {... */\n    tag_11:\n        /* \"MappingStructExample.sol\":1190:1200  msg.sender */\n      caller\n        /* \"MappingStructExample.sol\":1153:1171  uint balanceToSend */\n      0x00\n        /* \"MappingStructExample.sol\":1174:1201  balanceReceived[msg.sender] */\n      swap1\n      dup2\n      mstore\n      0x20\n      dup2\n      swap1\n      mstore\n      0x40\n      dup1\n      dup3\n      keccak256\n        /* \"MappingStructExample.sol\":1174:1214  balanceReceived[msg.sender].totalBalance */\n      dup1\n      sload\n        /* \"MappingStructExample.sol\":1221:1265  balanceReceived[msg.sender].totalBalance = 0 */\n      swap1\n      dup4\n      swap1\n      sstore\n        /* \"MappingStructExample.sol\":1272:1299  _to.transfer(balanceToSend) */\n      swap1\n      mload\n        /* \"MappingStructExample.sol\":1174:1214  balanceReceived[msg.sender].totalBalance */\n      swap1\n      swap2\n      sub(shl(0xa0, 0x01), 0x01)\n        /* \"MappingStructExample.sol\":1272:1284  _to.transfer */\n      dup5\n      and\n      swap2\n        /* \"MappingStructExample.sol\":1272:1299  _to.transfer(balanceToSend) */\n      dup4\n      iszero\n      0x08fc\n      mul\n      swap2\n        /* \"MappingStructExample.sol\":1174:1214  balanceReceived[msg.sender].totalBalance */\n      dup5\n      swap2\n        /* \"MappingStructExample.sol\":1272:1299  _to.transfer(balanceToSend) */\n      swap1\n      dup2\n        /* \"MappingStructExample.sol\":1153:1171  uint balanceToSend */\n      dup2\n        /* \"MappingStructExample.sol\":1272:1299  _to.transfer(balanceToSend) */\n      dup2\n        /* \"MappingStructExample.sol\":1174:1214  balanceReceived[msg.sender].totalBalance */\n      dup6\n        /* \"MappingStructExample.sol\":1272:1284  _to.transfer */\n      dup9\n        /* \"MappingStructExample.sol\":1272:1299  _to.transfer(balanceToSend) */\n      dup9\n      call\n      swap4\n      pop\n      pop\n      pop\n      pop\n      iszero\n      dup1\n      iszero\n      tag_33\n      jumpi\n      returndatasize\n      0x00\n      dup1\n      returndatacopy\n      revert(0x00, returndatasize)\n    tag_33:\n      pop\n        /* \"MappingStructExample.sol\":1146:1307  {... */\n      pop\n        /* \"MappingStructExample.sol\":1092:1307  function withdrawAllMoney(address payable _to) public {... */\n      pop\n      jump\t// out\n        /* \"MappingStructExample.sol\":483:812  function sendMoney() public payable {... */\n    tag_18:\n        /* \"MappingStructExample.sol\":546:556  msg.sender */\n      caller\n        /* \"MappingStructExample.sol\":530:545  balanceReceived */\n      0x00\n        /* \"MappingStructExample.sol\":530:557  balanceReceived[msg.sender] */\n      swap1\n      dup2\n      mstore\n      0x20\n      dup2\n      swap1\n      mstore\n      0x40\n      dup2\n      keccak256\n        /* \"MappingStructExample.sol\":530:583  balanceReceived[msg.sender].totalBalance += msg.value */\n      dup1\n      sload\n        /* \"MappingStructExample.sol\":574:583  msg.value */\n      callvalue\n      swap3\n        /* \"MappingStructExample.sol\":530:545  balanceReceived */\n      swap1\n        /* \"MappingStructExample.sol\":530:583  balanceReceived[msg.sender].totalBalance += msg.value */\n      tag_36\n      swap1\n        /* \"MappingStructExample.sol\":574:583  msg.value */\n      dup5\n      swap1\n        /* \"MappingStructExample.sol\":530:583  balanceReceived[msg.sender].totalBalance += msg.value */\n      tag_37\n      jump\t// in\n    tag_36:\n      swap1\n      swap2\n      sstore\n      pop\n      pop\n        /* \"MappingStructExample.sol\":619:654  Payment(msg.value, block.timestamp) */\n      0x40\n      dup1\n      mload\n      dup1\n      dup3\n      add\n      dup3\n      mstore\n        /* \"MappingStructExample.sol\":627:636  msg.value */\n      callvalue\n        /* \"MappingStructExample.sol\":619:654  Payment(msg.value, block.timestamp) */\n      dup2\n      mstore\n        /* \"MappingStructExample.sol\":638:653  block.timestamp */\n      timestamp\n        /* \"MappingStructExample.sol\":619:654  Payment(msg.value, block.timestamp) */\n      0x20\n      dup1\n      dup4\n      add\n      swap2\n      dup3\n      mstore\n        /* \"MappingStructExample.sol\":681:691  msg.sender */\n      caller\n        /* \"MappingStructExample.sol\":594:616  Payment memory payment */\n      0x00\n        /* \"MappingStructExample.sol\":665:692  balanceReceived[msg.sender] */\n      dup2\n      dup2\n      mstore\n      dup1\n      dup4\n      mstore\n      dup6\n      dup2\n      keccak256\n        /* \"MappingStructExample.sol\":702:741  balanceReceived[msg.sender].numPayments */\n      0x01\n      dup1\n      dup3\n      add\n      dup1\n      sload\n        /* \"MappingStructExample.sol\":665:742  balanceReceived[msg.sender].payments[balanceReceived[msg.sender].numPayments] */\n      dup5\n      mstore\n        /* \"MappingStructExample.sol\":665:701  balanceReceived[msg.sender].payments */\n      0x02\n      swap1\n      swap3\n      add\n        /* \"MappingStructExample.sol\":665:742  balanceReceived[msg.sender].payments[balanceReceived[msg.sender].numPayments] */\n      dup6\n      mstore\n      swap7\n      dup3\n      keccak256\n        /* \"MappingStructExample.sol\":665:752  balanceReceived[msg.sender].payments[balanceReceived[msg.sender].numPayments] = payment */\n      dup7\n      mload\n      dup2\n      sstore\n      swap5\n      mload\n      swap5\n      swap1\n      swap7\n      add\n      swap4\n      swap1\n      swap4\n      sstore\n        /* \"MappingStructExample.sol\":763:790  balanceReceived[msg.sender] */\n      dup3\n      mstore\n      dup2\n      swap1\n      mstore\n        /* \"MappingStructExample.sol\":763:804  balanceReceived[msg.sender].numPayments++ */\n      dup3\n      sload\n        /* \"MappingStructExample.sol\":619:654  Payment(msg.value, block.timestamp) */\n      swap2\n      swap3\n        /* \"MappingStructExample.sol\":702:741  balanceReceived[msg.sender].numPayments */\n      swap1\n        /* \"MappingStructExample.sol\":763:804  balanceReceived[msg.sender].numPayments++ */\n      tag_38\n      dup4\n      tag_39\n      jump\t// in\n    tag_38:\n      swap2\n      swap1\n      pop\n      sstore\n      pop\n        /* \"MappingStructExample.sol\":519:812  {... */\n      pop\n        /* \"MappingStructExample.sol\":483:812  function sendMoney() public payable {... */\n      jump\t// out\n        /* \"MappingStructExample.sol\":824:1086  function withdrawMoney(address payable _to, uint _amount) public {... */\n    tag_30:\n        /* \"MappingStructExample.sol\":935:945  msg.sender */\n      caller\n        /* \"MappingStructExample.sol\":919:934  balanceReceived */\n      0x00\n        /* \"MappingStructExample.sol\":919:946  balanceReceived[msg.sender] */\n      swap1\n      dup2\n      mstore\n      0x20\n      dup2\n      swap1\n      mstore\n      0x40\n      swap1\n      keccak256\n        /* \"MappingStructExample.sol\":919:959  balanceReceived[msg.sender].totalBalance */\n      sload\n        /* \"MappingStructExample.sol\":908:959  _amount <= balanceReceived[msg.sender].totalBalance */\n      dup2\n      gt\n      iszero\n        /* \"MappingStructExample.sol\":900:980  require(_amount <= balanceReceived[msg.sender].totalBalance, \"not enough funds\") */\n      tag_41\n      jumpi\n      mload(0x40)\n      shl(0xe5, 0x461bcd)\n      dup2\n      mstore\n        /* \"#utility.yul\":2064:2066   */\n      0x20\n        /* \"MappingStructExample.sol\":900:980  require(_amount <= balanceReceived[msg.sender].totalBalance, \"not enough funds\") */\n      0x04\n      dup3\n      add\n        /* \"#utility.yul\":2046:2067   */\n      mstore\n        /* \"#utility.yul\":2103:2105   */\n      0x10\n        /* \"#utility.yul\":2083:2101   */\n      0x24\n      dup3\n      add\n        /* \"#utility.yul\":2076:2106   */\n      mstore\n      shl(0x80, 0x6e6f7420656e6f7567682066756e6473)\n        /* \"#utility.yul\":2122:2140   */\n      0x44\n      dup3\n      add\n        /* \"#utility.yul\":2115:2161   */\n      mstore\n        /* \"#utility.yul\":2178:2196   */\n      0x64\n      add\n        /* \"MappingStructExample.sol\":900:980  require(_amount <= balanceReceived[msg.sender].totalBalance, \"not enough funds\") */\n      mload(0x40)\n      dup1\n      swap2\n      sub\n      swap1\n      revert\n    tag_41:\n        /* \"MappingStructExample.sol\":1007:1017  msg.sender */\n      caller\n        /* \"MappingStructExample.sol\":991:1006  balanceReceived */\n      0x00\n        /* \"MappingStructExample.sol\":991:1018  balanceReceived[msg.sender] */\n      swap1\n      dup2\n      mstore\n      0x20\n      dup2\n      swap1\n      mstore\n      0x40\n      dup2\n      keccak256\n        /* \"MappingStructExample.sol\":991:1042  balanceReceived[msg.sender].totalBalance -= _amount */\n      dup1\n      sload\n        /* \"MappingStructExample.sol\":1035:1042  _amount */\n      dup4\n      swap3\n        /* \"MappingStructExample.sol\":991:1006  balanceReceived */\n      swap1\n        /* \"MappingStructExample.sol\":991:1042  balanceReceived[msg.sender].totalBalance -= _amount */\n      tag_44\n      swap1\n        /* \"MappingStructExample.sol\":1035:1042  _amount */\n      dup5\n      swap1\n        /* \"MappingStructExample.sol\":991:1042  balanceReceived[msg.sender].totalBalance -= _amount */\n      tag_45\n      jump\t// in\n    tag_44:\n      swap1\n      swap2\n      sstore\n      pop\n      pop\n        /* \"MappingStructExample.sol\":1053:1074  _to.transfer(_amount) */\n      mload(0x40)\n      sub(shl(0xa0, 0x01), 0x01)\n        /* \"MappingStructExample.sol\":1053:1065  _to.transfer */\n      dup4\n      and\n      swap1\n        /* \"MappingStructExample.sol\":1053:1074  _to.transfer(_amount) */\n      dup3\n      iszero\n      0x08fc\n      mul\n      swap1\n        /* \"MappingStructExample.sol\":1066:1073  _amount */\n      dup4\n      swap1\n        /* \"MappingStructExample.sol\":1053:1074  _to.transfer(_amount) */\n      0x00\n      dup2\n      dup2\n      dup2\n        /* \"MappingStructExample.sol\":1066:1073  _amount */\n      dup6\n        /* \"MappingStructExample.sol\":1053:1065  _to.transfer */\n      dup9\n        /* \"MappingStructExample.sol\":1053:1074  _to.transfer(_amount) */\n      dup9\n      call\n      swap4\n      pop\n      pop\n      pop\n      pop\n      iszero\n      dup1\n      iszero\n      tag_33\n      jumpi\n      returndatasize\n      0x00\n      dup1\n      returndatacopy\n      revert(0x00, returndatasize)\n        /* \"#utility.yul\":14:153   */\n    tag_48:\n      sub(shl(0xa0, 0x01), 0x01)\n        /* \"#utility.yul\":97:128   */\n      dup2\n      and\n        /* \"#utility.yul\":87:129   */\n      dup2\n      eq\n        /* \"#utility.yul\":77:147   */\n      tag_52\n      jumpi\n        /* \"#utility.yul\":143:144   */\n      0x00\n        /* \"#utility.yul\":140:141   */\n      dup1\n        /* \"#utility.yul\":133:145   */\n      revert\n        /* \"#utility.yul\":77:147   */\n    tag_52:\n        /* \"#utility.yul\":14:153   */\n      pop\n      jump\t// out\n        /* \"#utility.yul\":158:421   */\n    tag_10:\n        /* \"#utility.yul\":225:231   */\n      0x00\n        /* \"#utility.yul\":278:280   */\n      0x20\n        /* \"#utility.yul\":266:275   */\n      dup3\n        /* \"#utility.yul\":257:264   */\n      dup5\n        /* \"#utility.yul\":253:276   */\n      sub\n        /* \"#utility.yul\":249:281   */\n      slt\n        /* \"#utility.yul\":246:298   */\n      iszero\n      tag_54\n      jumpi\n        /* \"#utility.yul\":294:295   */\n      0x00\n        /* \"#utility.yul\":291:292   */\n      dup1\n        /* \"#utility.yul\":284:296   */\n      revert\n        /* \"#utility.yul\":246:298   */\n    tag_54:\n        /* \"#utility.yul\":333:342   */\n      dup2\n        /* \"#utility.yul\":320:343   */\n      calldataload\n        /* \"#utility.yul\":352:391   */\n      tag_55\n        /* \"#utility.yul\":385:390   */\n      dup2\n        /* \"#utility.yul\":352:391   */\n      tag_48\n      jump\t// in\n    tag_55:\n        /* \"#utility.yul\":410:415   */\n      swap4\n        /* \"#utility.yul\":158:421   */\n      swap3\n      pop\n      pop\n      pop\n      jump\t// out\n        /* \"#utility.yul\":1121:1452   */\n    tag_29:\n        /* \"#utility.yul\":1197:1203   */\n      0x00\n        /* \"#utility.yul\":1205:1211   */\n      dup1\n        /* \"#utility.yul\":1258:1260   */\n      0x40\n        /* \"#utility.yul\":1246:1255   */\n      dup4\n        /* \"#utility.yul\":1237:1244   */\n      dup6\n        /* \"#utility.yul\":1233:1256   */\n      sub\n        /* \"#utility.yul\":1229:1261   */\n      slt\n        /* \"#utility.yul\":1226:1278   */\n      iszero\n      tag_62\n      jumpi\n        /* \"#utility.yul\":1274:1275   */\n      0x00\n        /* \"#utility.yul\":1271:1272   */\n      dup1\n        /* \"#utility.yul\":1264:1276   */\n      revert\n        /* \"#utility.yul\":1226:1278   */\n    tag_62:\n        /* \"#utility.yul\":1313:1322   */\n      dup3\n        /* \"#utility.yul\":1300:1323   */\n      calldataload\n        /* \"#utility.yul\":1332:1371   */\n      tag_63\n        /* \"#utility.yul\":1365:1370   */\n      dup2\n        /* \"#utility.yul\":1332:1371   */\n      tag_48\n      jump\t// in\n    tag_63:\n        /* \"#utility.yul\":1390:1395   */\n      swap5\n        /* \"#utility.yul\":1442:1444   */\n      0x20\n        /* \"#utility.yul\":1427:1445   */\n      swap4\n      swap1\n      swap4\n      add\n        /* \"#utility.yul\":1414:1446   */\n      calldataload\n      swap4\n      pop\n      pop\n      pop\n        /* \"#utility.yul\":1121:1452   */\n      jump\t// out\n        /* \"#utility.yul\":1457:1584   */\n    tag_49:\n        /* \"#utility.yul\":1518:1528   */\n      0x4e487b71\n        /* \"#utility.yul\":1513:1516   */\n      0xe0\n        /* \"#utility.yul\":1509:1529   */\n      shl\n        /* \"#utility.yul\":1506:1507   */\n      0x00\n        /* \"#utility.yul\":1499:1530   */\n      mstore\n        /* \"#utility.yul\":1549:1553   */\n      0x11\n        /* \"#utility.yul\":1546:1547   */\n      0x04\n        /* \"#utility.yul\":1539:1554   */\n      mstore\n        /* \"#utility.yul\":1573:1577   */\n      0x24\n        /* \"#utility.yul\":1570:1571   */\n      0x00\n        /* \"#utility.yul\":1563:1578   */\n      revert\n        /* \"#utility.yul\":1589:1717   */\n    tag_37:\n        /* \"#utility.yul\":1629:1632   */\n      0x00\n        /* \"#utility.yul\":1660:1661   */\n      dup3\n        /* \"#utility.yul\":1656:1662   */\n      not\n        /* \"#utility.yul\":1653:1654   */\n      dup3\n        /* \"#utility.yul\":1650:1663   */\n      gt\n        /* \"#utility.yul\":1647:1686   */\n      iszero\n      tag_67\n      jumpi\n        /* \"#utility.yul\":1666:1684   */\n      tag_67\n      tag_49\n      jump\t// in\n    tag_67:\n      pop\n        /* \"#utility.yul\":1702:1711   */\n      add\n      swap1\n        /* \"#utility.yul\":1589:1717   */\n      jump\t// out\n        /* \"#utility.yul\":1722:1857   */\n    tag_39:\n        /* \"#utility.yul\":1761:1764   */\n      0x00\n        /* \"#utility.yul\":1782:1799   */\n      0x01\n      dup3\n      add\n        /* \"#utility.yul\":1779:1822   */\n      tag_70\n      jumpi\n        /* \"#utility.yul\":1802:1820   */\n      tag_70\n      tag_49\n      jump\t// in\n    tag_70:\n      pop\n        /* \"#utility.yul\":1849:1850   */\n      0x01\n        /* \"#utility.yul\":1838:1851   */\n      add\n      swap1\n        /* \"#utility.yul\":1722:1857   */\n      jump\t// out\n        /* \"#utility.yul\":2207:2332   */\n    tag_45:\n        /* \"#utility.yul\":2247:2251   */\n      0x00\n        /* \"#utility.yul\":2275:2276   */\n      dup3\n        /* \"#utility.yul\":2272:2273   */\n      dup3\n        /* \"#utility.yul\":2269:2277   */\n      lt\n        /* \"#utility.yul\":2266:2300   */\n      iszero\n      tag_74\n      jumpi\n        /* \"#utility.yul\":2280:2298   */\n      tag_74\n      tag_49\n      jump\t// in\n    tag_74:\n      pop\n        /* \"#utility.yul\":2317:2326   */\n      sub\n      swap1\n        /* \"#utility.yul\":2207:2332   */\n      jump\t// out\n\n    auxdata: 0xa2646970667358221220e4a94f036be09061b1a5c62e65bf5accb5418b0add5b58bfccab058ad0a0d3da64736f6c634300080d0033\n}\n",
				"bytecode": {
					"linkReferences": {},
					"object": "608060405234801561001057600080fd5b50610380806100206000396000f3fe60806040526004361061004a5760003560e01c80630adec93c1461004f57806312065fe014610071578063cbedbf5a14610091578063d18a42e114610099578063f274c897146100e2575b600080fd5b34801561005b57600080fd5b5061006f61006a36600461029c565b610102565b005b34801561007d57600080fd5b506040514781526020015b60405180910390f35b61006f610153565b3480156100a557600080fd5b506100cd6100b436600461029c565b6000602081905290815260409020805460019091015482565b60408051928352602083019190915201610088565b3480156100ee57600080fd5b5061006f6100fd3660046102c0565b6101d4565b33600090815260208190526040808220805490839055905190916001600160a01b0384169183156108fc0291849190818181858888f1935050505015801561014e573d6000803e3d6000fd5b505050565b3360009081526020819052604081208054349290610172908490610302565b9091555050604080518082018252348152426020808301918252336000818152808352858120600180820180548452600290920185529682208651815594519490960193909355825281905282549192906101cc8361031a565b919050555050565b3360009081526020819052604090205481111561022a5760405162461bcd60e51b815260206004820152601060248201526f6e6f7420656e6f7567682066756e647360801b604482015260640160405180910390fd5b3360009081526020819052604081208054839290610249908490610333565b90915550506040516001600160a01b0383169082156108fc029083906000818181858888f1935050505015801561014e573d6000803e3d6000fd5b6001600160a01b038116811461029957600080fd5b50565b6000602082840312156102ae57600080fd5b81356102b981610284565b9392505050565b600080604083850312156102d357600080fd5b82356102de81610284565b946020939093013593505050565b634e487b7160e01b600052601160045260246000fd5b60008219821115610315576103156102ec565b500190565b60006001820161032c5761032c6102ec565b5060010190565b600082821015610345576103456102ec565b50039056fea2646970667358221220e4a94f036be09061b1a5c62e65bf5accb5418b0add5b58bfccab058ad0a0d3da64736f6c634300080d0033",
					"opcodes": "PUSH1 0x80 PUSH1 0x40 MSTORE CALLVALUE DUP1 ISZERO PUSH2 0x10 JUMPI PUSH1 0x0 DUP1 REVERT JUMPDEST POP PUSH2 0x380 DUP1 PUSH2 0x20 PUSH1 0x0 CODECOPY PUSH1 0x0 RETURN INVALID PUSH1 0x80 PUSH1 0x40 MSTORE PUSH1 0x4 CALLDATASIZE LT PUSH2 0x4A JUMPI PUSH1 0x0 CALLDATALOAD PUSH1 0xE0 SHR DUP1 PUSH4 0xADEC93C EQ PUSH2 0x4F JUMPI DUP1 PUSH4 0x12065FE0 EQ PUSH2 0x71 JUMPI DUP1 PUSH4 0xCBEDBF5A EQ PUSH2 0x91 JUMPI DUP1 PUSH4 0xD18A42E1 EQ PUSH2 0x99 JUMPI DUP1 PUSH4 0xF274C897 EQ PUSH2 0xE2 JUMPI JUMPDEST PUSH1 0x0 DUP1 REVERT JUMPDEST CALLVALUE DUP1 ISZERO PUSH2 0x5B JUMPI PUSH1 0x0 DUP1 REVERT JUMPDEST POP PUSH2 0x6F PUSH2 0x6A CALLDATASIZE PUSH1 0x4 PUSH2 0x29C JUMP JUMPDEST PUSH2 0x102 JUMP JUMPDEST STOP JUMPDEST CALLVALUE DUP1 ISZERO PUSH2 0x7D JUMPI PUSH1 0x0 DUP1 REVERT JUMPDEST POP PUSH1 0x40 MLOAD SELFBALANCE DUP2 MSTORE PUSH1 0x20 ADD JUMPDEST PUSH1 0x40 MLOAD DUP1 SWAP2 SUB SWAP1 RETURN JUMPDEST PUSH2 0x6F PUSH2 0x153 JUMP JUMPDEST CALLVALUE DUP1 ISZERO PUSH2 0xA5 JUMPI PUSH1 0x0 DUP1 REVERT JUMPDEST POP PUSH2 0xCD PUSH2 0xB4 CALLDATASIZE PUSH1 0x4 PUSH2 0x29C JUMP JUMPDEST PUSH1 0x0 PUSH1 0x20 DUP2 SWAP1 MSTORE SWAP1 DUP2 MSTORE PUSH1 0x40 SWAP1 KECCAK256 DUP1 SLOAD PUSH1 0x1 SWAP1 SWAP2 ADD SLOAD DUP3 JUMP JUMPDEST PUSH1 0x40 DUP1 MLOAD SWAP3 DUP4 MSTORE PUSH1 0x20 DUP4 ADD SWAP2 SWAP1 SWAP2 MSTORE ADD PUSH2 0x88 JUMP JUMPDEST CALLVALUE DUP1 ISZERO PUSH2 0xEE JUMPI PUSH1 0x0 DUP1 REVERT JUMPDEST POP PUSH2 0x6F PUSH2 0xFD CALLDATASIZE PUSH1 0x4 PUSH2 0x2C0 JUMP JUMPDEST PUSH2 0x1D4 JUMP JUMPDEST CALLER PUSH1 0x0 SWAP1 DUP2 MSTORE PUSH1 0x20 DUP2 SWAP1 MSTORE PUSH1 0x40 DUP1 DUP3 KECCAK256 DUP1 SLOAD SWAP1 DUP4 SWAP1 SSTORE SWAP1 MLOAD SWAP1 SWAP2 PUSH1 0x1 PUSH1 0x1 PUSH1 0xA0 SHL SUB DUP5 AND SWAP2 DUP4 ISZERO PUSH2 0x8FC MUL SWAP2 DUP5 SWAP2 SWAP1 DUP2 DUP2 DUP2 DUP6 DUP9 DUP9 CALL SWAP4 POP POP POP POP ISZERO DUP1 ISZERO PUSH2 0x14E JUMPI RETURNDATASIZE PUSH1 0x0 DUP1 RETURNDATACOPY RETURNDATASIZE PUSH1 0x0 REVERT JUMPDEST POP POP POP JUMP JUMPDEST CALLER PUSH1 0x0 SWAP1 DUP2 MSTORE PUSH1 0x20 DUP2 SWAP1 MSTORE PUSH1 0x40 DUP2 KECCAK256 DUP1 SLOAD CALLVALUE SWAP3 SWAP1 PUSH2 0x172 SWAP1 DUP5 SWAP1 PUSH2 0x302 JUMP JUMPDEST SWAP1 SWAP2 SSTORE POP POP PUSH1 0x40 DUP1 MLOAD DUP1 DUP3 ADD DUP3 MSTORE CALLVALUE DUP2 MSTORE TIMESTAMP PUSH1 0x20 DUP1 DUP4 ADD SWAP2 DUP3 MSTORE CALLER PUSH1 0x0 DUP2 DUP2 MSTORE DUP1 DUP4 MSTORE DUP6 DUP2 KECCAK256 PUSH1 0x1 DUP1 DUP3 ADD DUP1 SLOAD DUP5 MSTORE PUSH1 0x2 SWAP1 SWAP3 ADD DUP6 MSTORE SWAP7 DUP3 KECCAK256 DUP7 MLOAD DUP2 SSTORE SWAP5 MLOAD SWAP5 SWAP1 SWAP7 ADD SWAP4 SWAP1 SWAP4 SSTORE DUP3 MSTORE DUP2 SWAP1 MSTORE DUP3 SLOAD SWAP2 SWAP3 SWAP1 PUSH2 0x1CC DUP4 PUSH2 0x31A JUMP JUMPDEST SWAP2 SWAP1 POP SSTORE POP POP JUMP JUMPDEST CALLER PUSH1 0x0 SWAP1 DUP2 MSTORE PUSH1 0x20 DUP2 SWAP1 MSTORE PUSH1 0x40 SWAP1 KECCAK256 SLOAD DUP2 GT ISZERO PUSH2 0x22A JUMPI PUSH1 0x40 MLOAD PUSH3 0x461BCD PUSH1 0xE5 SHL DUP2 MSTORE PUSH1 0x20 PUSH1 0x4 DUP3 ADD MSTORE PUSH1 0x10 PUSH1 0x24 DUP3 ADD MSTORE PUSH16 0x6E6F7420656E6F7567682066756E6473 PUSH1 0x80 SHL PUSH1 0x44 DUP3 ADD MSTORE PUSH1 0x64 ADD PUSH1 0x40 MLOAD DUP1 SWAP2 SUB SWAP1 REVERT JUMPDEST CALLER PUSH1 0x0 SWAP1 DUP2 MSTORE PUSH1 0x20 DUP2 SWAP1 MSTORE PUSH1 0x40 DUP2 KECCAK256 DUP1 SLOAD DUP4 SWAP3 SWAP1 PUSH2 0x249 SWAP1 DUP5 SWAP1 PUSH2 0x333 JUMP JUMPDEST SWAP1 SWAP2 SSTORE POP POP PUSH1 0x40 MLOAD PUSH1 0x1 PUSH1 0x1 PUSH1 0xA0 SHL SUB DUP4 AND SWAP1 DUP3 ISZERO PUSH2 0x8FC MUL SWAP1 DUP4 SWAP1 PUSH1 0x0 DUP2 DUP2 DUP2 DUP6 DUP9 DUP9 CALL SWAP4 POP POP POP POP ISZERO DUP1 ISZERO PUSH2 0x14E JUMPI RETURNDATASIZE PUSH1 0x0 DUP1 RETURNDATACOPY RETURNDATASIZE PUSH1 0x0 REVERT JUMPDEST PUSH1 0x1 PUSH1 0x1 PUSH1 0xA0 SHL SUB DUP2 AND DUP2 EQ PUSH2 0x299 JUMPI PUSH1 0x0 DUP1 REVERT JUMPDEST POP JUMP JUMPDEST PUSH1 0x0 PUSH1 0x20 DUP3 DUP5 SUB SLT ISZERO PUSH2 0x2AE JUMPI PUSH1 0x0 DUP1 REVERT JUMPDEST DUP2 CALLDATALOAD PUSH2 0x2B9 DUP2 PUSH2 0x284 JUMP JUMPDEST SWAP4 SWAP3 POP POP POP JUMP JUMPDEST PUSH1 0x0 DUP1 PUSH1 0x40 DUP4 DUP6 SUB SLT ISZERO PUSH2 0x2D3 JUMPI PUSH1 0x0 DUP1 REVERT JUMPDEST DUP3 CALLDATALOAD PUSH2 0x2DE DUP2 PUSH2 0x284 JUMP JUMPDEST SWAP5 PUSH1 0x20 SWAP4 SWAP1 SWAP4 ADD CALLDATALOAD SWAP4 POP POP POP JUMP JUMPDEST PUSH4 0x4E487B71 PUSH1 0xE0 SHL PUSH1 0x0 MSTORE PUSH1 0x11 PUSH1 0x4 MSTORE PUSH1 0x24 PUSH1 0x0 REVERT JUMPDEST PUSH1 0x0 DUP3 NOT DUP3 GT ISZERO PUSH2 0x315 JUMPI PUSH2 0x315 PUSH2 0x2EC JUMP JUMPDEST POP ADD SWAP1 JUMP JUMPDEST PUSH1 0x0 PUSH1 0x1 DUP3 ADD PUSH2 0x32C JUMPI PUSH2 0x32C PUSH2 0x2EC JUMP JUMPDEST POP PUSH1 0x1 ADD SWAP1 JUMP JUMPDEST PUSH1 0x0 DUP3 DUP3 LT ISZERO PUSH2 0x345 JUMPI PUSH2 0x345 PUSH2 0x2EC JUMP JUMPDEST POP SUB SWAP1 JUMP INVALID LOG2 PUSH5 0x6970667358 0x22 SLT KECCAK256 0xE4 0xA9 0x4F SUB PUSH12 0xE09061B1A5C62E65BF5ACCB5 COINBASE DUP12 EXP 0xDD JUMPDEST PC 0xBF 0xCC 0xAB SDIV DUP11 0xD0 LOG0 0xD3 0xDA PUSH5 0x736F6C6343 STOP ADDMOD 0xD STOP CALLER "
				},
				"gasEstimates": {
					"creation": {
						"codeDepositCost": "179200",
						"executionCost": "220",
						"totalCost": "179420"
					},
					"external": {
						"balanceReceived(address)": "4699",
						"getBalance()": "168",
						"sendMoney()": "95371",
						"withdrawAllMoney(address)": "infinite",
						"withdrawMoney(address,uint256)": "infinite"
					}
				},
				"methodIdentifiers": {
					"balanceReceived(address)": "d18a42e1",
					"getBalance()": "12065fe0",
					"sendMoney()": "cbedbf5a",
					"withdrawAllMoney(address)": "0adec93c",
					"withdrawMoney(address,uint256)": "f274c897"
				}
			},
			"userdoc": {
				"kind": "user",
				"methods": {},
				"version": 1
			}
		}
	}
}