{
	"StartingStopping.sol": {
		"StartStopUpdateExample": {
			"abi": [
				{
					"inputs": [],
					"stateMutability": "nonpayable",
					"type": "constructor"
				},
				{
					"inputs": [],
					"name": "getBalance",
					"outputs": [
						{
							"internalType": "uint256",
							"name": "",
							"type": "uint256"
						}
					],
					"stateMutability": "view",
					"type": "function"
				},
				{
					"inputs": [],
					"name": "owner",
					"outputs": [
						{
							"internalType": "address",
							"name": "",
							"type": "address"
						}
					],
					"stateMutability": "view",
					"type": "function"
				},
				{
					"inputs": [],
					"name": "paused",
					"outputs": [
						{
							"internalType": "bool",
							"name": "",
							"type": "bool"
						}
					],
					"stateMutability": "view",
					"type": "function"
				},
				{
					"inputs": [],
					"name": "sendMoney",
					"outputs": [],
					"stateMutability": "payable",
					"type": "function"
				},
				{
					"inputs": [
						{
							"internalType": "bool",
							"name": "_paused",
							"type": "bool"
						}
					],
					"name": "setPaused",
					"outputs": [],
					"stateMutability": "nonpayable",
					"type": "function"
				},
				{
					"inputs": [
						{
							"internalType": "address payable",
							"name": "_to",
							"type": "address"
						}
					],
					"name": "withdrawAllMoney",
					"outputs": [],
					"stateMutability": "nonpayable",
					"type": "function"
				}
			],
			"devdoc": {
				"kind": "dev",
				"methods": {},
				"version": 1
			},
			"evm": {
				"assembly": "    /* \"StartingStopping.sol\":66:764  contract StartStopUpdateExample {\r... */\n  mstore(0x40, 0x80)\n    /* \"StartingStopping.sol\":165:216  constructor() {\r... */\n  callvalue\n  dup1\n  iszero\n  tag_1\n  jumpi\n  0x00\n  dup1\n  revert\ntag_1:\n  pop\n    /* \"StartingStopping.sol\":190:195  owner */\n  0x00\n    /* \"StartingStopping.sol\":190:208  owner = msg.sender */\n  dup1\n  sload\n  not(sub(shl(0xa0, 0x01), 0x01))\n  and\n    /* \"StartingStopping.sol\":198:208  msg.sender */\n  caller\n    /* \"StartingStopping.sol\":190:208  owner = msg.sender */\n  or\n  swap1\n  sstore\n    /* \"StartingStopping.sol\":66:764  contract StartStopUpdateExample {\r... */\n  dataSize(sub_0)\n  dup1\n  dataOffset(sub_0)\n  0x00\n  codecopy\n  0x00\n  return\nstop\n\nsub_0: assembly {\n        /* \"StartingStopping.sol\":66:764  contract StartStopUpdateExample {\r... */\n      mstore(0x40, 0x80)\n      jumpi(tag_1, lt(calldatasize, 0x04))\n      shr(0xe0, calldataload(0x00))\n      dup1\n      0x0adec93c\n      eq\n      tag_2\n      jumpi\n      dup1\n      0x12065fe0\n      eq\n      tag_3\n      jumpi\n      dup1\n      0x16c38b3c\n      eq\n      tag_4\n      jumpi\n      dup1\n      0x5c975abb\n      eq\n      tag_5\n      jumpi\n      dup1\n      0x8da5cb5b\n      eq\n      tag_6\n      jumpi\n      dup1\n      0xcbedbf5a\n      eq\n      tag_9\n      jumpi\n    tag_1:\n      0x00\n      dup1\n      revert\n        /* \"StartingStopping.sol\":536:761  function withdrawAllMoney(address payable _to) public {\r... */\n    tag_2:\n      callvalue\n      dup1\n      iszero\n      tag_8\n      jumpi\n      0x00\n      dup1\n      revert\n    tag_8:\n      pop\n      tag_9\n      tag_10\n      calldatasize\n      0x04\n      tag_11\n      jump\t// in\n    tag_10:\n      tag_12\n      jump\t// in\n    tag_9:\n      stop\n        /* \"StartingStopping.sol\":224:319  function getBalance() public view returns(uint) {\r... */\n    tag_3:\n      callvalue\n      dup1\n      iszero\n      tag_13\n      jumpi\n      0x00\n      dup1\n      revert\n    tag_13:\n      pop\n      mload(0x40)\n        /* \"StartingStopping.sol\":290:311  address(this).balance */\n      selfbalance\n        /* \"#utility.yul\":2180:2205   */\n      dup2\n      mstore\n        /* \"#utility.yul\":2168:2170   */\n      0x20\n        /* \"#utility.yul\":2153:2171   */\n      add\n        /* \"StartingStopping.sol\":224:319  function getBalance() public view returns(uint) {\r... */\n    tag_16:\n      mload(0x40)\n      dup1\n      swap2\n      sub\n      swap1\n      return\n        /* \"StartingStopping.sol\":389:528  function setPaused(bool _paused) public {\r... */\n    tag_4:\n      callvalue\n      dup1\n      iszero\n      tag_18\n      jumpi\n      0x00\n      dup1\n      revert\n    tag_18:\n      pop\n      tag_9\n      tag_20\n      calldatasize\n      0x04\n      tag_21\n      jump\t// in\n    tag_20:\n      tag_22\n      jump\t// in\n        /* \"StartingStopping.sol\":138:156  bool public paused */\n    tag_5:\n      callvalue\n      dup1\n      iszero\n      tag_23\n      jumpi\n      0x00\n      dup1\n      revert\n    tag_23:\n      pop\n      sload(0x00)\n      tag_24\n      swap1\n      shl(0xa0, 0x01)\n      swap1\n      div\n      0xff\n      and\n      dup2\n      jump\n    tag_24:\n      mload(0x40)\n        /* \"#utility.yul\":964:978   */\n      swap1\n      iszero\n        /* \"#utility.yul\":957:979   */\n      iszero\n        /* \"#utility.yul\":939:980   */\n      dup2\n      mstore\n        /* \"#utility.yul\":927:929   */\n      0x20\n        /* \"#utility.yul\":912:930   */\n      add\n        /* \"StartingStopping.sol\":138:156  bool public paused */\n      tag_16\n        /* \"#utility.yul\":799:986   */\n      jump\n        /* \"StartingStopping.sol\":111:131  address public owner */\n    tag_6:\n      callvalue\n      dup1\n      iszero\n      tag_28\n      jumpi\n      0x00\n      dup1\n      revert\n    tag_28:\n      pop\n      sload(0x00)\n      tag_29\n      swap1\n      sub(shl(0xa0, 0x01), 0x01)\n      and\n      dup2\n      jump\n    tag_29:\n      mload(0x40)\n      sub(shl(0xa0, 0x01), 0x01)\n        /* \"#utility.yul\":755:787   */\n      swap1\n      swap2\n      and\n        /* \"#utility.yul\":737:788   */\n      dup2\n      mstore\n        /* \"#utility.yul\":725:727   */\n      0x20\n        /* \"#utility.yul\":710:728   */\n      add\n        /* \"StartingStopping.sol\":111:131  address public owner */\n      tag_16\n        /* \"#utility.yul\":591:794   */\n      jump\n        /* \"StartingStopping.sol\":536:761  function withdrawAllMoney(address payable _to) public {\r... */\n    tag_12:\n        /* \"StartingStopping.sol\":609:614  owner */\n      and(sub(shl(0xa0, 0x01), 0x01), sload(0x00))\n        /* \"StartingStopping.sol\":618:628  msg.sender */\n      caller\n        /* \"StartingStopping.sol\":609:628  owner == msg.sender */\n      eq\n        /* \"StartingStopping.sol\":601:653  require(owner == msg.sender, \"You cannot withdraw.\") */\n      tag_36\n      jumpi\n      mload(0x40)\n      shl(0xe5, 0x461bcd)\n      dup2\n      mstore\n        /* \"#utility.yul\":1543:1545   */\n      0x20\n        /* \"StartingStopping.sol\":601:653  require(owner == msg.sender, \"You cannot withdraw.\") */\n      0x04\n      dup3\n      add\n        /* \"#utility.yul\":1525:1546   */\n      mstore\n        /* \"#utility.yul\":1582:1584   */\n      0x14\n        /* \"#utility.yul\":1562:1580   */\n      0x24\n      dup3\n      add\n        /* \"#utility.yul\":1555:1585   */\n      mstore\n      shl(0x61, 0x2cb7ba9031b0b73737ba103bb4ba34323930bb97)\n        /* \"#utility.yul\":1601:1619   */\n      0x44\n      dup3\n      add\n        /* \"#utility.yul\":1594:1644   */\n      mstore\n        /* \"#utility.yul\":1661:1679   */\n      0x64\n      add\n        /* \"StartingStopping.sol\":601:653  require(owner == msg.sender, \"You cannot withdraw.\") */\n    tag_37:\n      mload(0x40)\n      dup1\n      swap2\n      sub\n      swap1\n      revert\n    tag_36:\n        /* \"StartingStopping.sol\":672:678  paused */\n      sload(0x00)\n      shl(0xa0, 0x01)\n      swap1\n      div\n      0xff\n      and\n        /* \"StartingStopping.sol\":672:687  paused == false */\n      iszero\n        /* \"StartingStopping.sol\":664:707  require(paused == false, \"Contract Paused\") */\n      tag_39\n      jumpi\n      mload(0x40)\n      shl(0xe5, 0x461bcd)\n      dup2\n      mstore\n        /* \"#utility.yul\":1892:1894   */\n      0x20\n        /* \"StartingStopping.sol\":664:707  require(paused == false, \"Contract Paused\") */\n      0x04\n      dup3\n      add\n        /* \"#utility.yul\":1874:1895   */\n      mstore\n        /* \"#utility.yul\":1931:1933   */\n      0x0f\n        /* \"#utility.yul\":1911:1929   */\n      0x24\n      dup3\n      add\n        /* \"#utility.yul\":1904:1934   */\n      mstore\n      shl(0x8a, 0x10dbdb9d1c9858dd0814185d5cd959)\n        /* \"#utility.yul\":1950:1968   */\n      0x44\n      dup3\n      add\n        /* \"#utility.yul\":1943:1988   */\n      mstore\n        /* \"#utility.yul\":2005:2023   */\n      0x64\n      add\n        /* \"StartingStopping.sol\":664:707  require(paused == false, \"Contract Paused\") */\n      tag_37\n        /* \"#utility.yul\":1690:2029   */\n      jump\n        /* \"StartingStopping.sol\":664:707  require(paused == false, \"Contract Paused\") */\n    tag_39:\n        /* \"StartingStopping.sol\":718:753  _to.transfer(address(this).balance) */\n      mload(0x40)\n      sub(shl(0xa0, 0x01), 0x01)\n        /* \"StartingStopping.sol\":718:730  _to.transfer */\n      dup3\n      and\n      swap1\n        /* \"StartingStopping.sol\":731:752  address(this).balance */\n      selfbalance\n        /* \"StartingStopping.sol\":718:753  _to.transfer(address(this).balance) */\n      dup1\n      iszero\n      0x08fc\n      mul\n      swap2\n      0x00\n      dup2\n      dup2\n      dup2\n        /* \"StartingStopping.sol\":731:752  address(this).balance */\n      dup6\n        /* \"StartingStopping.sol\":718:730  _to.transfer */\n      dup9\n        /* \"StartingStopping.sol\":718:753  _to.transfer(address(this).balance) */\n      dup9\n      call\n      swap4\n      pop\n      pop\n      pop\n      pop\n      iszero\n      dup1\n      iszero\n      tag_43\n      jumpi\n      returndatasize\n      0x00\n      dup1\n      returndatacopy\n      revert(0x00, returndatasize)\n    tag_43:\n      pop\n        /* \"StartingStopping.sol\":536:761  function withdrawAllMoney(address payable _to) public {\r... */\n      pop\n      jump\t// out\n        /* \"StartingStopping.sol\":389:528  function setPaused(bool _paused) public {\r... */\n    tag_22:\n        /* \"StartingStopping.sol\":462:467  owner */\n      and(sub(shl(0xa0, 0x01), 0x01), sload(0x00))\n        /* \"StartingStopping.sol\":448:458  msg.sender */\n      caller\n        /* \"StartingStopping.sol\":448:467  msg.sender == owner */\n      eq\n        /* \"StartingStopping.sol\":440:493  require(msg.sender == owner, \"You are not the owner\") */\n      tag_46\n      jumpi\n      mload(0x40)\n      shl(0xe5, 0x461bcd)\n      dup2\n      mstore\n        /* \"#utility.yul\":1193:1195   */\n      0x20\n        /* \"StartingStopping.sol\":440:493  require(msg.sender == owner, \"You are not the owner\") */\n      0x04\n      dup3\n      add\n        /* \"#utility.yul\":1175:1196   */\n      mstore\n        /* \"#utility.yul\":1232:1234   */\n      0x15\n        /* \"#utility.yul\":1212:1230   */\n      0x24\n      dup3\n      add\n        /* \"#utility.yul\":1205:1235   */\n      mstore\n      shl(0x59, 0x2cb7ba9030b932903737ba103a34329037bbb732b9)\n        /* \"#utility.yul\":1251:1269   */\n      0x44\n      dup3\n      add\n        /* \"#utility.yul\":1244:1295   */\n      mstore\n        /* \"#utility.yul\":1312:1330   */\n      0x64\n      add\n        /* \"StartingStopping.sol\":440:493  require(msg.sender == owner, \"You are not the owner\") */\n      tag_37\n        /* \"#utility.yul\":991:1336   */\n      jump\n        /* \"StartingStopping.sol\":440:493  require(msg.sender == owner, \"You are not the owner\") */\n    tag_46:\n        /* \"StartingStopping.sol\":504:510  paused */\n      0x00\n        /* \"StartingStopping.sol\":504:520  paused = _paused */\n      dup1\n      sload\n      swap2\n      iszero\n      iszero\n      shl(0xa0, 0x01)\n      mul\n      not(shl(0xa0, 0xff))\n      swap1\n      swap3\n      and\n      swap2\n      swap1\n      swap2\n      or\n      swap1\n      sstore\n        /* \"StartingStopping.sol\":389:528  function setPaused(bool _paused) public {\r... */\n      jump\t// out\n        /* \"#utility.yul\":14:308   */\n    tag_11:\n        /* \"#utility.yul\":81:87   */\n      0x00\n        /* \"#utility.yul\":134:136   */\n      0x20\n        /* \"#utility.yul\":122:131   */\n      dup3\n        /* \"#utility.yul\":113:120   */\n      dup5\n        /* \"#utility.yul\":109:132   */\n      sub\n        /* \"#utility.yul\":105:137   */\n      slt\n        /* \"#utility.yul\":102:154   */\n      iszero\n      tag_52\n      jumpi\n        /* \"#utility.yul\":150:151   */\n      0x00\n        /* \"#utility.yul\":147:148   */\n      dup1\n        /* \"#utility.yul\":140:152   */\n      revert\n        /* \"#utility.yul\":102:154   */\n    tag_52:\n        /* \"#utility.yul\":176:199   */\n      dup2\n      calldataload\n      sub(shl(0xa0, 0x01), 0x01)\n        /* \"#utility.yul\":228:259   */\n      dup2\n      and\n        /* \"#utility.yul\":218:260   */\n      dup2\n      eq\n        /* \"#utility.yul\":208:278   */\n      tag_53\n      jumpi\n        /* \"#utility.yul\":274:275   */\n      0x00\n        /* \"#utility.yul\":271:272   */\n      dup1\n        /* \"#utility.yul\":264:276   */\n      revert\n        /* \"#utility.yul\":208:278   */\n    tag_53:\n        /* \"#utility.yul\":297:302   */\n      swap4\n        /* \"#utility.yul\":14:308   */\n      swap3\n      pop\n      pop\n      pop\n      jump\t// out\n        /* \"#utility.yul\":313:586   */\n    tag_21:\n        /* \"#utility.yul\":369:375   */\n      0x00\n        /* \"#utility.yul\":422:424   */\n      0x20\n        /* \"#utility.yul\":410:419   */\n      dup3\n        /* \"#utility.yul\":401:408   */\n      dup5\n        /* \"#utility.yul\":397:420   */\n      sub\n        /* \"#utility.yul\":393:425   */\n      slt\n        /* \"#utility.yul\":390:442   */\n      iszero\n      tag_55\n      jumpi\n        /* \"#utility.yul\":438:439   */\n      0x00\n        /* \"#utility.yul\":435:436   */\n      dup1\n        /* \"#utility.yul\":428:440   */\n      revert\n        /* \"#utility.yul\":390:442   */\n    tag_55:\n        /* \"#utility.yul\":477:486   */\n      dup2\n        /* \"#utility.yul\":464:487   */\n      calldataload\n        /* \"#utility.yul\":530:535   */\n      dup1\n        /* \"#utility.yul\":523:536   */\n      iszero\n        /* \"#utility.yul\":516:537   */\n      iszero\n        /* \"#utility.yul\":509:514   */\n      dup2\n        /* \"#utility.yul\":506:538   */\n      eq\n        /* \"#utility.yul\":496:556   */\n      tag_53\n      jumpi\n        /* \"#utility.yul\":552:553   */\n      0x00\n        /* \"#utility.yul\":549:550   */\n      dup1\n        /* \"#utility.yul\":542:554   */\n      revert\n\n    auxdata: 0xa264697066735822122000961b44016ae01df1e77bb1ef0ee45cbed97190c69bda6eeccff564d8dbc1ab64736f6c63430008070033\n}\n",
				"bytecode": {
					"linkReferences": {},
					"object": "608060405234801561001057600080fd5b50600080546001600160a01b031916331790556102f8806100326000396000f3fe6080604052600436106100555760003560e01c80630adec93c1461005a57806312065fe01461007c57806316c38b3c1461009c5780635c975abb146100bc5780638da5cb5b146100ed578063cbedbf5a1461007a575b600080fd5b34801561006657600080fd5b5061007a610075366004610270565b610125565b005b34801561008857600080fd5b506040514781526020015b60405180910390f35b3480156100a857600080fd5b5061007a6100b73660046102a0565b610200565b3480156100c857600080fd5b506000546100dd90600160a01b900460ff1681565b6040519015158152602001610093565b3480156100f957600080fd5b5060005461010d906001600160a01b031681565b6040516001600160a01b039091168152602001610093565b6000546001600160a01b0316331461017b5760405162461bcd60e51b81526020600482015260146024820152732cb7ba9031b0b73737ba103bb4ba34323930bb9760611b60448201526064015b60405180910390fd5b600054600160a01b900460ff16156101c75760405162461bcd60e51b815260206004820152600f60248201526e10dbdb9d1c9858dd0814185d5cd959608a1b6044820152606401610172565b6040516001600160a01b038216904780156108fc02916000818181858888f193505050501580156101fc573d6000803e3d6000fd5b5050565b6000546001600160a01b031633146102525760405162461bcd60e51b81526020600482015260156024820152742cb7ba9030b932903737ba103a34329037bbb732b960591b6044820152606401610172565b60008054911515600160a01b0260ff60a01b19909216919091179055565b60006020828403121561028257600080fd5b81356001600160a01b038116811461029957600080fd5b9392505050565b6000602082840312156102b257600080fd5b8135801515811461029957600080fdfea264697066735822122000961b44016ae01df1e77bb1ef0ee45cbed97190c69bda6eeccff564d8dbc1ab64736f6c63430008070033",
					"opcodes": "PUSH1 0x80 PUSH1 0x40 MSTORE CALLVALUE DUP1 ISZERO PUSH2 0x10 JUMPI PUSH1 0x0 DUP1 REVERT JUMPDEST POP PUSH1 0x0 DUP1 SLOAD PUSH1 0x1 PUSH1 0x1 PUSH1 0xA0 SHL SUB NOT AND CALLER OR SWAP1 SSTORE PUSH2 0x2F8 DUP1 PUSH2 0x32 PUSH1 0x0 CODECOPY PUSH1 0x0 RETURN INVALID PUSH1 0x80 PUSH1 0x40 MSTORE PUSH1 0x4 CALLDATASIZE LT PUSH2 0x55 JUMPI PUSH1 0x0 CALLDATALOAD PUSH1 0xE0 SHR DUP1 PUSH4 0xADEC93C EQ PUSH2 0x5A JUMPI DUP1 PUSH4 0x12065FE0 EQ PUSH2 0x7C JUMPI DUP1 PUSH4 0x16C38B3C EQ PUSH2 0x9C JUMPI DUP1 PUSH4 0x5C975ABB EQ PUSH2 0xBC JUMPI DUP1 PUSH4 0x8DA5CB5B EQ PUSH2 0xED JUMPI DUP1 PUSH4 0xCBEDBF5A EQ PUSH2 0x7A JUMPI JUMPDEST PUSH1 0x0 DUP1 REVERT JUMPDEST CALLVALUE DUP1 ISZERO PUSH2 0x66 JUMPI PUSH1 0x0 DUP1 REVERT JUMPDEST POP PUSH2 0x7A PUSH2 0x75 CALLDATASIZE PUSH1 0x4 PUSH2 0x270 JUMP JUMPDEST PUSH2 0x125 JUMP JUMPDEST STOP JUMPDEST CALLVALUE DUP1 ISZERO PUSH2 0x88 JUMPI PUSH1 0x0 DUP1 REVERT JUMPDEST POP PUSH1 0x40 MLOAD SELFBALANCE DUP2 MSTORE PUSH1 0x20 ADD JUMPDEST PUSH1 0x40 MLOAD DUP1 SWAP2 SUB SWAP1 RETURN JUMPDEST CALLVALUE DUP1 ISZERO PUSH2 0xA8 JUMPI PUSH1 0x0 DUP1 REVERT JUMPDEST POP PUSH2 0x7A PUSH2 0xB7 CALLDATASIZE PUSH1 0x4 PUSH2 0x2A0 JUMP JUMPDEST PUSH2 0x200 JUMP JUMPDEST CALLVALUE DUP1 ISZERO PUSH2 0xC8 JUMPI PUSH1 0x0 DUP1 REVERT JUMPDEST POP PUSH1 0x0 SLOAD PUSH2 0xDD SWAP1 PUSH1 0x1 PUSH1 0xA0 SHL SWAP1 DIV PUSH1 0xFF AND DUP2 JUMP JUMPDEST PUSH1 0x40 MLOAD SWAP1 ISZERO ISZERO DUP2 MSTORE PUSH1 0x20 ADD PUSH2 0x93 JUMP JUMPDEST CALLVALUE DUP1 ISZERO PUSH2 0xF9 JUMPI PUSH1 0x0 DUP1 REVERT JUMPDEST POP PUSH1 0x0 SLOAD PUSH2 0x10D SWAP1 PUSH1 0x1 PUSH1 0x1 PUSH1 0xA0 SHL SUB AND DUP2 JUMP JUMPDEST PUSH1 0x40 MLOAD PUSH1 0x1 PUSH1 0x1 PUSH1 0xA0 SHL SUB SWAP1 SWAP2 AND DUP2 MSTORE PUSH1 0x20 ADD PUSH2 0x93 JUMP JUMPDEST PUSH1 0x0 SLOAD PUSH1 0x1 PUSH1 0x1 PUSH1 0xA0 SHL SUB AND CALLER EQ PUSH2 0x17B JUMPI PUSH1 0x40 MLOAD PUSH3 0x461BCD PUSH1 0xE5 SHL DUP2 MSTORE PUSH1 0x20 PUSH1 0x4 DUP3 ADD MSTORE PUSH1 0x14 PUSH1 0x24 DUP3 ADD MSTORE PUSH20 0x2CB7BA9031B0B73737BA103BB4BA34323930BB97 PUSH1 0x61 SHL PUSH1 0x44 DUP3 ADD MSTORE PUSH1 0x64 ADD JUMPDEST PUSH1 0x40 MLOAD DUP1 SWAP2 SUB SWAP1 REVERT JUMPDEST PUSH1 0x0 SLOAD PUSH1 0x1 PUSH1 0xA0 SHL SWAP1 DIV PUSH1 0xFF AND ISZERO PUSH2 0x1C7 JUMPI PUSH1 0x40 MLOAD PUSH3 0x461BCD PUSH1 0xE5 SHL DUP2 MSTORE PUSH1 0x20 PUSH1 0x4 DUP3 ADD MSTORE PUSH1 0xF PUSH1 0x24 DUP3 ADD MSTORE PUSH15 0x10DBDB9D1C9858DD0814185D5CD959 PUSH1 0x8A SHL PUSH1 0x44 DUP3 ADD MSTORE PUSH1 0x64 ADD PUSH2 0x172 JUMP JUMPDEST PUSH1 0x40 MLOAD PUSH1 0x1 PUSH1 0x1 PUSH1 0xA0 SHL SUB DUP3 AND SWAP1 SELFBALANCE DUP1 ISZERO PUSH2 0x8FC MUL SWAP2 PUSH1 0x0 DUP2 DUP2 DUP2 DUP6 DUP9 DUP9 CALL SWAP4 POP POP POP POP ISZERO DUP1 ISZERO PUSH2 0x1FC JUMPI RETURNDATASIZE PUSH1 0x0 DUP1 RETURNDATACOPY RETURNDATASIZE PUSH1 0x0 REVERT JUMPDEST POP POP JUMP JUMPDEST PUSH1 0x0 SLOAD PUSH1 0x1 PUSH1 0x1 PUSH1 0xA0 SHL SUB AND CALLER EQ PUSH2 0x252 JUMPI PUSH1 0x40 MLOAD PUSH3 0x461BCD PUSH1 0xE5 SHL DUP2 MSTORE PUSH1 0x20 PUSH1 0x4 DUP3 ADD MSTORE PUSH1 0x15 PUSH1 0x24 DUP3 ADD MSTORE PUSH21 0x2CB7BA9030B932903737BA103A34329037BBB732B9 PUSH1 0x59 SHL PUSH1 0x44 DUP3 ADD MSTORE PUSH1 0x64 ADD PUSH2 0x172 JUMP JUMPDEST PUSH1 0x0 DUP1 SLOAD SWAP2 ISZERO ISZERO PUSH1 0x1 PUSH1 0xA0 SHL MUL PUSH1 0xFF PUSH1 0xA0 SHL NOT SWAP1 SWAP3 AND SWAP2 SWAP1 SWAP2 OR SWAP1 SSTORE JUMP JUMPDEST PUSH1 0x0 PUSH1 0x20 DUP3 DUP5 SUB SLT ISZERO PUSH2 0x282 JUMPI PUSH1 0x0 DUP1 REVERT JUMPDEST DUP2 CALLDATALOAD PUSH1 0x1 PUSH1 0x1 PUSH1 0xA0 SHL SUB DUP2 AND DUP2 EQ PUSH2 0x299 JUMPI PUSH1 0x0 DUP1 REVERT JUMPDEST SWAP4 SWAP3 POP POP POP JUMP JUMPDEST PUSH1 0x0 PUSH1 0x20 DUP3 DUP5 SUB SLT ISZERO PUSH2 0x2B2 JUMPI PUSH1 0x0 DUP1 REVERT JUMPDEST DUP2 CALLDATALOAD DUP1 ISZERO ISZERO DUP2 EQ PUSH2 0x299 JUMPI PUSH1 0x0 DUP1 REVERT INVALID LOG2 PUSH5 0x6970667358 0x22 SLT KECCAK256 STOP SWAP7 SHL DIFFICULTY ADD PUSH11 0xE01DF1E77BB1EF0EE45CBE 0xD9 PUSH18 0x90C69BDA6EECCFF564D8DBC1AB64736F6C63 NUMBER STOP ADDMOD SMOD STOP CALLER "
				},
				"gasEstimates": {
					"creation": {
						"codeDepositCost": "152000",
						"executionCost": "24431",
						"totalCost": "176431"
					},
					"external": {
						"getBalance()": "168",
						"owner()": "2403",
						"paused()": "2371",
						"sendMoney()": "184",
						"setPaused(bool)": "26682",
						"withdrawAllMoney(address)": "infinite"
					}
				},
				"methodIdentifiers": {
					"getBalance()": "12065fe0",
					"owner()": "8da5cb5b",
					"paused()": "5c975abb",
					"sendMoney()": "cbedbf5a",
					"setPaused(bool)": "16c38b3c",
					"withdrawAllMoney(address)": "0adec93c"
				}
			},
			"userdoc": {
				"kind": "user",
				"methods": {},
				"version": 1
			}
		}
	}
}