{
	"SendMoneyExample.sol": {
		"SendMoneyExample": {
			"abi": [
				{
					"inputs": [],
					"name": "balanceReceived",
					"outputs": [
						{
							"internalType": "uint256",
							"name": "",
							"type": "uint256"
						}
					],
					"stateMutability": "view",
					"type": "function"
				},
				{
					"inputs": [],
					"name": "getBalance",
					"outputs": [
						{
							"internalType": "uint256",
							"name": "",
							"type": "uint256"
						}
					],
					"stateMutability": "view",
					"type": "function"
				},
				{
					"inputs": [],
					"name": "receiveMoney",
					"outputs": [],
					"stateMutability": "payable",
					"type": "function"
				},
				{
					"inputs": [],
					"name": "withdrawMoney",
					"outputs": [],
					"stateMutability": "nonpayable",
					"type": "function"
				}
			],
			"devdoc": {
				"kind": "dev",
				"methods": {},
				"version": 1
			},
			"evm": {
				"assembly": "    /* \"SendMoneyExample.sol\":66:436  contract SendMoneyExample {\r... */\n  mstore(0x40, 0x80)\n  callvalue\n  dup1\n  iszero\n  tag_1\n  jumpi\n  0x00\n  dup1\n  revert\ntag_1:\n  pop\n  dataSize(sub_0)\n  dup1\n  dataOffset(sub_0)\n  0x00\n  codecopy\n  0x00\n  return\nstop\n\nsub_0: assembly {\n        /* \"SendMoneyExample.sol\":66:436  contract SendMoneyExample {\r... */\n      mstore(0x40, 0x80)\n      jumpi(tag_1, lt(calldatasize, 0x04))\n      shr(0xe0, calldataload(0x00))\n      dup1\n      0x12065fe0\n      eq\n      tag_2\n      jumpi\n      dup1\n      0x52a90c42\n      eq\n      tag_3\n      jumpi\n      dup1\n      0x6d26ec18\n      eq\n      tag_4\n      jumpi\n      dup1\n      0xac446002\n      eq\n      tag_5\n      jumpi\n    tag_1:\n      0x00\n      dup1\n      revert\n        /* \"SendMoneyExample.sol\":225:320  function getBalance() public view returns(uint) {\r... */\n    tag_2:\n      callvalue\n      dup1\n      iszero\n      tag_6\n      jumpi\n      0x00\n      dup1\n      revert\n    tag_6:\n      pop\n      tag_7\n      tag_8\n      jump\t// in\n    tag_7:\n      mload(0x40)\n      tag_9\n      swap2\n      swap1\n      tag_10\n      jump\t// in\n    tag_9:\n      mload(0x40)\n      dup1\n      swap2\n      sub\n      swap1\n      return\n        /* \"SendMoneyExample.sol\":99:126  uint public balanceReceived */\n    tag_3:\n      callvalue\n      dup1\n      iszero\n      tag_11\n      jumpi\n      0x00\n      dup1\n      revert\n    tag_11:\n      pop\n      tag_7\n      tag_13\n      jump\t// in\n        /* \"SendMoneyExample.sol\":133:219  function receiveMoney() public payable {\r... */\n    tag_4:\n      tag_15\n      tag_16\n      jump\t// in\n    tag_15:\n      stop\n        /* \"SendMoneyExample.sol\":326:433  function withdrawMoney() public {\r... */\n    tag_5:\n      callvalue\n      dup1\n      iszero\n      tag_17\n      jumpi\n      0x00\n      dup1\n      revert\n    tag_17:\n      pop\n      tag_15\n      tag_19\n      jump\t// in\n        /* \"SendMoneyExample.sol\":225:320  function getBalance() public view returns(uint) {\r... */\n    tag_8:\n        /* \"SendMoneyExample.sol\":291:312  address(this).balance */\n      selfbalance\n        /* \"SendMoneyExample.sol\":225:320  function getBalance() public view returns(uint) {\r... */\n      swap1\n      jump\t// out\n        /* \"SendMoneyExample.sol\":99:126  uint public balanceReceived */\n    tag_13:\n      sload(0x00)\n      dup2\n      jump\t// out\n        /* \"SendMoneyExample.sol\":133:219  function receiveMoney() public payable {\r... */\n    tag_16:\n        /* \"SendMoneyExample.sol\":202:211  msg.value */\n      callvalue\n        /* \"SendMoneyExample.sol\":183:198  balanceReceived */\n      0x00\n      dup1\n        /* \"SendMoneyExample.sol\":183:211  balanceReceived += msg.value */\n      dup3\n      dup3\n      sload\n      tag_22\n      swap2\n      swap1\n      tag_23\n      jump\t// in\n    tag_22:\n      swap1\n      swap2\n      sstore\n      pop\n      pop\n        /* \"SendMoneyExample.sol\":133:219  function receiveMoney() public payable {\r... */\n      jump\t// out\n        /* \"SendMoneyExample.sol\":326:433  function withdrawMoney() public {\r... */\n    tag_19:\n        /* \"SendMoneyExample.sol\":390:400  msg.sender */\n      caller\n      dup1\n        /* \"SendMoneyExample.sol\":404:429  to.transfer(getBalance()) */\n      0x08fc\n        /* \"SendMoneyExample.sol\":416:428  getBalance() */\n      tag_25\n        /* \"SendMoneyExample.sol\":416:426  getBalance */\n      tag_8\n        /* \"SendMoneyExample.sol\":416:428  getBalance() */\n      jump\t// in\n    tag_25:\n        /* \"SendMoneyExample.sol\":404:429  to.transfer(getBalance()) */\n      mload(0x40)\n      dup2\n      iszero\n      swap1\n      swap3\n      mul\n      swap2\n      0x00\n      dup2\n      dup2\n      dup2\n      dup6\n      dup9\n      dup9\n      call\n      swap4\n      pop\n      pop\n      pop\n      pop\n      iszero\n      dup1\n      iszero\n      tag_27\n      jumpi\n      returndatasize\n      0x00\n      dup1\n      returndatacopy\n      revert(0x00, returndatasize)\n    tag_27:\n      pop\n        /* \"SendMoneyExample.sol\":326:433  function withdrawMoney() public {\r... */\n      pop\n      jump\t// out\n        /* \"#utility.yul\":14:191   */\n    tag_10:\n        /* \"#utility.yul\":160:185   */\n      swap1\n      dup2\n      mstore\n        /* \"#utility.yul\":148:150   */\n      0x20\n        /* \"#utility.yul\":133:151   */\n      add\n      swap1\n        /* \"#utility.yul\":115:191   */\n      jump\t// out\n        /* \"#utility.yul\":196:425   */\n    tag_23:\n      0x00\n        /* \"#utility.yul\":267:268   */\n      dup3\n        /* \"#utility.yul\":263:269   */\n      not\n        /* \"#utility.yul\":260:261   */\n      dup3\n        /* \"#utility.yul\":257:270   */\n      gt\n        /* \"#utility.yul\":254:256   */\n      iszero\n      tag_31\n      jumpi\n      shl(0xe0, 0x4e487b71)\n        /* \"#utility.yul\":293:326   */\n      dup2\n      mstore\n        /* \"#utility.yul\":349:353   */\n      0x11\n        /* \"#utility.yul\":346:347   */\n      0x04\n        /* \"#utility.yul\":339:354   */\n      mstore\n        /* \"#utility.yul\":379:383   */\n      0x24\n        /* \"#utility.yul\":300:303   */\n      dup2\n        /* \"#utility.yul\":367:384   */\n      revert\n        /* \"#utility.yul\":254:256   */\n    tag_31:\n      pop\n        /* \"#utility.yul\":410:419   */\n      add\n      swap1\n        /* \"#utility.yul\":244:425   */\n      jump\t// out\n\n    auxdata: 0xa2646970667358221220c863a6930a0c0f9ad676719906ac3afaf500f690c5c5c112a4bb53695f8df4a364736f6c63430008010033\n}\n",
				"bytecode": {
					"linkReferences": {},
					"object": "608060405234801561001057600080fd5b50610161806100206000396000f3fe60806040526004361061003f5760003560e01c806312065fe01461004457806352a90c421461006f5780636d26ec1814610084578063ac4460021461008e575b600080fd5b34801561005057600080fd5b506100596100a3565b60405161006691906100fe565b60405180910390f35b34801561007b57600080fd5b506100596100a7565b61008c6100ad565b005b34801561009a57600080fd5b5061008c6100c5565b4790565b60005481565b346000808282546100be9190610107565b9091555050565b33806108fc6100d26100a3565b6040518115909202916000818181858888f193505050501580156100fa573d6000803e3d6000fd5b5050565b90815260200190565b6000821982111561012657634e487b7160e01b81526011600452602481fd5b50019056fea2646970667358221220c863a6930a0c0f9ad676719906ac3afaf500f690c5c5c112a4bb53695f8df4a364736f6c63430008010033",
					"opcodes": "PUSH1 0x80 PUSH1 0x40 MSTORE CALLVALUE DUP1 ISZERO PUSH2 0x10 JUMPI PUSH1 0x0 DUP1 REVERT JUMPDEST POP PUSH2 0x161 DUP1 PUSH2 0x20 PUSH1 0x0 CODECOPY PUSH1 0x0 RETURN INVALID PUSH1 0x80 PUSH1 0x40 MSTORE PUSH1 0x4 CALLDATASIZE LT PUSH2 0x3F JUMPI PUSH1 0x0 CALLDATALOAD PUSH1 0xE0 SHR DUP1 PUSH4 0x12065FE0 EQ PUSH2 0x44 JUMPI DUP1 PUSH4 0x52A90C42 EQ PUSH2 0x6F JUMPI DUP1 PUSH4 0x6D26EC18 EQ PUSH2 0x84 JUMPI DUP1 PUSH4 0xAC446002 EQ PUSH2 0x8E JUMPI JUMPDEST PUSH1 0x0 DUP1 REVERT JUMPDEST CALLVALUE DUP1 ISZERO PUSH2 0x50 JUMPI PUSH1 0x0 DUP1 REVERT JUMPDEST POP PUSH2 0x59 PUSH2 0xA3 JUMP JUMPDEST PUSH1 0x40 MLOAD PUSH2 0x66 SWAP2 SWAP1 PUSH2 0xFE JUMP JUMPDEST PUSH1 0x40 MLOAD DUP1 SWAP2 SUB SWAP1 RETURN JUMPDEST CALLVALUE DUP1 ISZERO PUSH2 0x7B JUMPI PUSH1 0x0 DUP1 REVERT JUMPDEST POP PUSH2 0x59 PUSH2 0xA7 JUMP JUMPDEST PUSH2 0x8C PUSH2 0xAD JUMP JUMPDEST STOP JUMPDEST CALLVALUE DUP1 ISZERO PUSH2 0x9A JUMPI PUSH1 0x0 DUP1 REVERT JUMPDEST POP PUSH2 0x8C PUSH2 0xC5 JUMP JUMPDEST SELFBALANCE SWAP1 JUMP JUMPDEST PUSH1 0x0 SLOAD DUP2 JUMP JUMPDEST CALLVALUE PUSH1 0x0 DUP1 DUP3 DUP3 SLOAD PUSH2 0xBE SWAP2 SWAP1 PUSH2 0x107 JUMP JUMPDEST SWAP1 SWAP2 SSTORE POP POP JUMP JUMPDEST CALLER DUP1 PUSH2 0x8FC PUSH2 0xD2 PUSH2 0xA3 JUMP JUMPDEST PUSH1 0x40 MLOAD DUP2 ISZERO SWAP1 SWAP3 MUL SWAP2 PUSH1 0x0 DUP2 DUP2 DUP2 DUP6 DUP9 DUP9 CALL SWAP4 POP POP POP POP ISZERO DUP1 ISZERO PUSH2 0xFA JUMPI RETURNDATASIZE PUSH1 0x0 DUP1 RETURNDATACOPY RETURNDATASIZE PUSH1 0x0 REVERT JUMPDEST POP POP JUMP JUMPDEST SWAP1 DUP2 MSTORE PUSH1 0x20 ADD SWAP1 JUMP JUMPDEST PUSH1 0x0 DUP3 NOT DUP3 GT ISZERO PUSH2 0x126 JUMPI PUSH4 0x4E487B71 PUSH1 0xE0 SHL DUP2 MSTORE PUSH1 0x11 PUSH1 0x4 MSTORE PUSH1 0x24 DUP2 REVERT JUMPDEST POP ADD SWAP1 JUMP INVALID LOG2 PUSH5 0x6970667358 0x22 SLT KECCAK256 0xC8 PUSH4 0xA6930A0C 0xF SWAP11 0xD6 PUSH23 0x719906AC3AFAF500F690C5C5C112A4BB53695F8DF4A364 PUSH20 0x6F6C634300080100330000000000000000000000 "
				},
				"gasEstimates": {
					"creation": {
						"codeDepositCost": "70600",
						"executionCost": "123",
						"totalCost": "70723"
					},
					"external": {
						"balanceReceived()": "1028",
						"getBalance()": "208",
						"receiveMoney()": "21036",
						"withdrawMoney()": "infinite"
					}
				},
				"methodIdentifiers": {
					"balanceReceived()": "52a90c42",
					"getBalance()": "12065fe0",
					"receiveMoney()": "6d26ec18",
					"withdrawMoney()": "ac446002"
				}
			},
			"userdoc": {
				"kind": "user",
				"methods": {},
				"version": 1
			}
		}
	}
}