{
	"SendMoneyExample.sol": {
		"SendMoneyExample": {
			"abi": [
				{
					"inputs": [],
					"name": "balanceReceived",
					"outputs": [
						{
							"internalType": "uint256",
							"name": "",
							"type": "uint256"
						}
					],
					"stateMutability": "view",
					"type": "function"
				},
				{
					"inputs": [],
					"name": "getBalance",
					"outputs": [
						{
							"internalType": "uint256",
							"name": "",
							"type": "uint256"
						}
					],
					"stateMutability": "view",
					"type": "function"
				},
				{
					"inputs": [],
					"name": "receiveMoney",
					"outputs": [],
					"stateMutability": "payable",
					"type": "function"
				}
			],
			"devdoc": {
				"kind": "dev",
				"methods": {},
				"version": 1
			},
			"evm": {
				"assembly": "    /* \"SendMoneyExample.sol\":64:285  contract SendMoneyExample {\r... */\n  mstore(0x40, 0x80)\n  callvalue\n  dup1\n  iszero\n  tag_1\n  jumpi\n  0x00\n  dup1\n  revert\ntag_1:\n  pop\n  dataSize(sub_0)\n  dup1\n  dataOffset(sub_0)\n  0x00\n  codecopy\n  0x00\n  return\nstop\n\nsub_0: assembly {\n        /* \"SendMoneyExample.sol\":64:285  contract SendMoneyExample {\r... */\n      mstore(0x40, 0x80)\n      jumpi(tag_1, lt(calldatasize, 0x04))\n      shr(0xe0, calldataload(0x00))\n      dup1\n      0x12065fe0\n      eq\n      tag_2\n      jumpi\n      dup1\n      0x52a90c42\n      eq\n      tag_3\n      jumpi\n      dup1\n      0x6d26ec18\n      eq\n      tag_4\n      jumpi\n    tag_1:\n      0x00\n      dup1\n      revert\n        /* \"SendMoneyExample.sol\":199:282  function getBalance() public view returns(uint) {\r... */\n    tag_2:\n      callvalue\n      dup1\n      iszero\n      tag_5\n      jumpi\n      0x00\n      dup1\n      revert\n    tag_5:\n      pop\n      tag_6\n      tag_7\n      jump\t// in\n    tag_6:\n      mload(0x40)\n      tag_8\n      swap2\n      swap1\n      tag_9\n      jump\t// in\n    tag_8:\n      mload(0x40)\n      dup1\n      swap2\n      sub\n      swap1\n      return\n        /* \"SendMoneyExample.sol\":93:120  uint public balanceReceived */\n    tag_3:\n      callvalue\n      dup1\n      iszero\n      tag_10\n      jumpi\n      0x00\n      dup1\n      revert\n    tag_10:\n      pop\n      tag_6\n      tag_12\n      jump\t// in\n        /* \"SendMoneyExample.sol\":123:197  function receiveMoney() public payable {\r... */\n    tag_4:\n      tag_14\n      tag_15\n      jump\t// in\n    tag_14:\n      stop\n        /* \"SendMoneyExample.sol\":199:282  function getBalance() public view returns(uint) {\r... */\n    tag_7:\n        /* \"SendMoneyExample.sol\":257:278  address(this).balance */\n      selfbalance\n        /* \"SendMoneyExample.sol\":199:282  function getBalance() public view returns(uint) {\r... */\n      swap1\n      jump\t// out\n        /* \"SendMoneyExample.sol\":93:120  uint public balanceReceived */\n    tag_12:\n      sload(0x00)\n      dup2\n      jump\t// out\n        /* \"SendMoneyExample.sol\":123:197  function receiveMoney() public payable {\r... */\n    tag_15:\n        /* \"SendMoneyExample.sol\":184:193  msg.value */\n      callvalue\n        /* \"SendMoneyExample.sol\":165:180  balanceReceived */\n      0x00\n      dup1\n        /* \"SendMoneyExample.sol\":165:193  balanceReceived += msg.value */\n      dup3\n      dup3\n      sload\n      tag_18\n      swap2\n      swap1\n      tag_19\n      jump\t// in\n    tag_18:\n      swap1\n      swap2\n      sstore\n      pop\n      pop\n        /* \"SendMoneyExample.sol\":123:197  function receiveMoney() public payable {\r... */\n      jump\t// out\n        /* \"#utility.yul\":14:191   */\n    tag_9:\n        /* \"#utility.yul\":160:185   */\n      swap1\n      dup2\n      mstore\n        /* \"#utility.yul\":148:150   */\n      0x20\n        /* \"#utility.yul\":133:151   */\n      add\n      swap1\n        /* \"#utility.yul\":115:191   */\n      jump\t// out\n        /* \"#utility.yul\":196:425   */\n    tag_19:\n      0x00\n        /* \"#utility.yul\":267:268   */\n      dup3\n        /* \"#utility.yul\":263:269   */\n      not\n        /* \"#utility.yul\":260:261   */\n      dup3\n        /* \"#utility.yul\":257:270   */\n      gt\n        /* \"#utility.yul\":254:256   */\n      iszero\n      tag_23\n      jumpi\n      shl(0xe0, 0x4e487b71)\n        /* \"#utility.yul\":293:326   */\n      dup2\n      mstore\n        /* \"#utility.yul\":349:353   */\n      0x11\n        /* \"#utility.yul\":346:347   */\n      0x04\n        /* \"#utility.yul\":339:354   */\n      mstore\n        /* \"#utility.yul\":379:383   */\n      0x24\n        /* \"#utility.yul\":300:303   */\n      dup2\n        /* \"#utility.yul\":367:384   */\n      revert\n        /* \"#utility.yul\":254:256   */\n    tag_23:\n      pop\n        /* \"#utility.yul\":410:419   */\n      add\n      swap1\n        /* \"#utility.yul\":244:425   */\n      jump\t// out\n\n    auxdata: 0xa2646970667358221220f50835af16e9d1792c90114ff973961bfe962b5097fe93f7e48948671277418c64736f6c63430008010033\n}\n",
				"bytecode": {
					"linkReferences": {},
					"object": "608060405234801561001057600080fd5b5060f78061001f6000396000f3fe60806040526004361060305760003560e01c806312065fe014603557806352a90c4214605b5780636d26ec1814606d575b600080fd5b348015604057600080fd5b5060476075565b604051605291906095565b60405180910390f35b348015606657600080fd5b5060476079565b6073607f565b005b4790565b60005481565b34600080828254608e9190609e565b9091555050565b90815260200190565b6000821982111560bc57634e487b7160e01b81526011600452602481fd5b50019056fea2646970667358221220f50835af16e9d1792c90114ff973961bfe962b5097fe93f7e48948671277418c64736f6c63430008010033",
					"opcodes": "PUSH1 0x80 PUSH1 0x40 MSTORE CALLVALUE DUP1 ISZERO PUSH2 0x10 JUMPI PUSH1 0x0 DUP1 REVERT JUMPDEST POP PUSH1 0xF7 DUP1 PUSH2 0x1F PUSH1 0x0 CODECOPY PUSH1 0x0 RETURN INVALID PUSH1 0x80 PUSH1 0x40 MSTORE PUSH1 0x4 CALLDATASIZE LT PUSH1 0x30 JUMPI PUSH1 0x0 CALLDATALOAD PUSH1 0xE0 SHR DUP1 PUSH4 0x12065FE0 EQ PUSH1 0x35 JUMPI DUP1 PUSH4 0x52A90C42 EQ PUSH1 0x5B JUMPI DUP1 PUSH4 0x6D26EC18 EQ PUSH1 0x6D JUMPI JUMPDEST PUSH1 0x0 DUP1 REVERT JUMPDEST CALLVALUE DUP1 ISZERO PUSH1 0x40 JUMPI PUSH1 0x0 DUP1 REVERT JUMPDEST POP PUSH1 0x47 PUSH1 0x75 JUMP JUMPDEST PUSH1 0x40 MLOAD PUSH1 0x52 SWAP2 SWAP1 PUSH1 0x95 JUMP JUMPDEST PUSH1 0x40 MLOAD DUP1 SWAP2 SUB SWAP1 RETURN JUMPDEST CALLVALUE DUP1 ISZERO PUSH1 0x66 JUMPI PUSH1 0x0 DUP1 REVERT JUMPDEST POP PUSH1 0x47 PUSH1 0x79 JUMP JUMPDEST PUSH1 0x73 PUSH1 0x7F JUMP JUMPDEST STOP JUMPDEST SELFBALANCE SWAP1 JUMP JUMPDEST PUSH1 0x0 SLOAD DUP2 JUMP JUMPDEST CALLVALUE PUSH1 0x0 DUP1 DUP3 DUP3 SLOAD PUSH1 0x8E SWAP2 SWAP1 PUSH1 0x9E JUMP JUMPDEST SWAP1 SWAP2 SSTORE POP POP JUMP JUMPDEST SWAP1 DUP2 MSTORE PUSH1 0x20 ADD SWAP1 JUMP JUMPDEST PUSH1 0x0 DUP3 NOT DUP3 GT ISZERO PUSH1 0xBC JUMPI PUSH4 0x4E487B71 PUSH1 0xE0 SHL DUP2 MSTORE PUSH1 0x11 PUSH1 0x4 MSTORE PUSH1 0x24 DUP2 REVERT JUMPDEST POP ADD SWAP1 JUMP INVALID LOG2 PUSH5 0x6970667358 0x22 SLT KECCAK256 CREATE2 ADDMOD CALLDATALOAD 0xAF AND 0xE9 0xD1 PUSH26 0x2C90114FF973961BFE962B5097FE93F7E48948671277418C6473 PUSH16 0x6C634300080100330000000000000000 "
				},
				"gasEstimates": {
					"creation": {
						"codeDepositCost": "49400",
						"executionCost": "99",
						"totalCost": "49499"
					},
					"external": {
						"balanceReceived()": "1028",
						"getBalance()": "208",
						"receiveMoney()": "21036"
					}
				},
				"methodIdentifiers": {
					"balanceReceived()": "52a90c42",
					"getBalance()": "12065fe0",
					"receiveMoney()": "6d26ec18"
				}
			},
			"userdoc": {
				"kind": "user",
				"methods": {},
				"version": 1
			}
		}
	}
}