{
	"AllExample.sol": {
		"test": {
			"abi": [
				{
					"inputs": [],
					"name": "getChoice",
					"outputs": [
						{
							"internalType": "enum test.FreshJuiceSize",
							"name": "",
							"type": "uint8"
						}
					],
					"stateMutability": "view",
					"type": "function"
				},
				{
					"inputs": [],
					"name": "getDefaultChoice",
					"outputs": [
						{
							"internalType": "uint256",
							"name": "",
							"type": "uint256"
						}
					],
					"stateMutability": "nonpayable",
					"type": "function"
				},
				{
					"inputs": [],
					"name": "setLarge",
					"outputs": [],
					"stateMutability": "nonpayable",
					"type": "function"
				}
			],
			"devdoc": {
				"kind": "dev",
				"methods": {},
				"version": 1
			},
			"evm": {
				"assembly": "    /* \"AllExample.sol\":66:494  contract test {\r... */\n  mstore(0x40, 0x80)\n  callvalue\n  dup1\n  iszero\n  tag_1\n  jumpi\n  0x00\n  dup1\n  revert\ntag_1:\n  pop\n  dataSize(sub_0)\n  dup1\n  dataOffset(sub_0)\n  0x00\n  codecopy\n  0x00\n  return\nstop\n\nsub_0: assembly {\n        /* \"AllExample.sol\":66:494  contract test {\r... */\n      mstore(0x40, 0x80)\n      callvalue\n      dup1\n      iszero\n      tag_1\n      jumpi\n      0x00\n      dup1\n      revert\n    tag_1:\n      pop\n      jumpi(tag_2, lt(calldatasize, 0x04))\n      shr(0xe0, calldataload(0x00))\n      dup1\n      0x67cb61b6\n      eq\n      tag_3\n      jumpi\n      dup1\n      0x694ebe4f\n      eq\n      tag_4\n      jumpi\n      dup1\n      0x843f7258\n      eq\n      tag_5\n      jumpi\n    tag_2:\n      0x00\n      dup1\n      revert\n        /* \"AllExample.sol\":307:394  function getChoice() public view returns (FreshJuiceSize) {\r... */\n    tag_3:\n      tag_6\n      tag_7\n      jump\t// in\n    tag_6:\n      mload(0x40)\n      tag_8\n      swap2\n      swap1\n      tag_9\n      jump\t// in\n    tag_8:\n      mload(0x40)\n      dup1\n      swap2\n      sub\n      swap1\n      return\n        /* \"AllExample.sol\":230:302  function setLarge() public {\r... */\n    tag_4:\n      tag_10\n      tag_11\n      jump\t// in\n    tag_10:\n      stop\n        /* \"AllExample.sol\":399:491  function getDefaultChoice() public returns (uint) {\r... */\n    tag_5:\n      tag_12\n      tag_13\n      jump\t// in\n    tag_12:\n      mload(0x40)\n      tag_8\n      swap2\n      swap1\n      tag_15\n      jump\t// in\n        /* \"AllExample.sol\":307:394  function getChoice() public view returns (FreshJuiceSize) {\r... */\n    tag_7:\n        /* \"AllExample.sol\":349:363  FreshJuiceSize */\n      0x00\n        /* \"AllExample.sol\":381:387  choice */\n      sload\n      0xff\n      and\n        /* \"AllExample.sol\":307:394  function getChoice() public view returns (FreshJuiceSize) {\r... */\n      swap1\n      jump\t// out\n        /* \"AllExample.sol\":230:302  function setLarge() public {\r... */\n    tag_11:\n        /* \"AllExample.sol\":266:272  choice */\n      0x00\n        /* \"AllExample.sol\":266:295  choice = FreshJuiceSize.LARGE */\n      dup1\n      sload\n      not(0xff)\n      and\n        /* \"AllExample.sol\":275:295  FreshJuiceSize.LARGE */\n      0x02\n        /* \"AllExample.sol\":266:295  choice = FreshJuiceSize.LARGE */\n      or\n      swap1\n      sstore\n        /* \"AllExample.sol\":230:302  function setLarge() public {\r... */\n      jump\t// out\n        /* \"AllExample.sol\":399:491  function getDefaultChoice() public returns (uint) {\r... */\n    tag_13:\n        /* \"AllExample.sol\":201:222  FreshJuiceSize.MEDIUM */\n      0x01\n      swap1\n        /* \"AllExample.sol\":399:491  function getDefaultChoice() public returns (uint) {\r... */\n      jump\t// out\n        /* \"#utility.yul\":14:358   */\n    tag_9:\n        /* \"#utility.yul\":162:164   */\n      0x20\n        /* \"#utility.yul\":147:165   */\n      dup2\n      add\n        /* \"#utility.yul\":195:196   */\n      0x03\n        /* \"#utility.yul\":184:197   */\n      dup4\n      lt\n        /* \"#utility.yul\":174:176   */\n      tag_23\n      jumpi\n        /* \"#utility.yul\":240:250   */\n      0x4e487b71\n        /* \"#utility.yul\":235:238   */\n      0xe0\n        /* \"#utility.yul\":231:251   */\n      shl\n        /* \"#utility.yul\":228:229   */\n      0x00\n        /* \"#utility.yul\":221:252   */\n      mstore\n        /* \"#utility.yul\":275:279   */\n      0x21\n        /* \"#utility.yul\":272:273   */\n      0x04\n        /* \"#utility.yul\":265:280   */\n      mstore\n        /* \"#utility.yul\":303:307   */\n      0x24\n        /* \"#utility.yul\":300:301   */\n      0x00\n        /* \"#utility.yul\":293:308   */\n      revert\n        /* \"#utility.yul\":174:176   */\n    tag_23:\n        /* \"#utility.yul\":327:352   */\n      swap2\n      swap1\n      mstore\n        /* \"#utility.yul\":129:358   */\n      swap1\n      jump\t// out\n        /* \"#utility.yul\":363:540   */\n    tag_15:\n        /* \"#utility.yul\":509:534   */\n      swap1\n      dup2\n      mstore\n        /* \"#utility.yul\":497:499   */\n      0x20\n        /* \"#utility.yul\":482:500   */\n      add\n      swap1\n        /* \"#utility.yul\":464:540   */\n      jump\t// out\n\n    auxdata: 0xa26469706673582212203ec75d03a655cefc5de78273ab375ad524e32afae5b96fccdc9b3c4b4862645e64736f6c63430008010033\n}\n",
				"bytecode": {
					"linkReferences": {},
					"object": "608060405234801561001057600080fd5b5060f78061001f6000396000f3fe6080604052348015600f57600080fd5b5060043610603c5760003560e01c806367cb61b6146041578063694ebe4f14605b578063843f7258146063575b600080fd5b60476074565b604051605291906091565b60405180910390f35b6061607d565b005b6069608c565b6040516052919060b8565b60005460ff1690565b6000805460ff19166002179055565b600190565b602081016003831060b257634e487b7160e01b600052602160045260246000fd5b91905290565b9081526020019056fea26469706673582212203ec75d03a655cefc5de78273ab375ad524e32afae5b96fccdc9b3c4b4862645e64736f6c63430008010033",
					"opcodes": "PUSH1 0x80 PUSH1 0x40 MSTORE CALLVALUE DUP1 ISZERO PUSH2 0x10 JUMPI PUSH1 0x0 DUP1 REVERT JUMPDEST POP PUSH1 0xF7 DUP1 PUSH2 0x1F PUSH1 0x0 CODECOPY PUSH1 0x0 RETURN INVALID PUSH1 0x80 PUSH1 0x40 MSTORE CALLVALUE DUP1 ISZERO PUSH1 0xF JUMPI PUSH1 0x0 DUP1 REVERT JUMPDEST POP PUSH1 0x4 CALLDATASIZE LT PUSH1 0x3C JUMPI PUSH1 0x0 CALLDATALOAD PUSH1 0xE0 SHR DUP1 PUSH4 0x67CB61B6 EQ PUSH1 0x41 JUMPI DUP1 PUSH4 0x694EBE4F EQ PUSH1 0x5B JUMPI DUP1 PUSH4 0x843F7258 EQ PUSH1 0x63 JUMPI JUMPDEST PUSH1 0x0 DUP1 REVERT JUMPDEST PUSH1 0x47 PUSH1 0x74 JUMP JUMPDEST PUSH1 0x40 MLOAD PUSH1 0x52 SWAP2 SWAP1 PUSH1 0x91 JUMP JUMPDEST PUSH1 0x40 MLOAD DUP1 SWAP2 SUB SWAP1 RETURN JUMPDEST PUSH1 0x61 PUSH1 0x7D JUMP JUMPDEST STOP JUMPDEST PUSH1 0x69 PUSH1 0x8C JUMP JUMPDEST PUSH1 0x40 MLOAD PUSH1 0x52 SWAP2 SWAP1 PUSH1 0xB8 JUMP JUMPDEST PUSH1 0x0 SLOAD PUSH1 0xFF AND SWAP1 JUMP JUMPDEST PUSH1 0x0 DUP1 SLOAD PUSH1 0xFF NOT AND PUSH1 0x2 OR SWAP1 SSTORE JUMP JUMPDEST PUSH1 0x1 SWAP1 JUMP JUMPDEST PUSH1 0x20 DUP2 ADD PUSH1 0x3 DUP4 LT PUSH1 0xB2 JUMPI PUSH4 0x4E487B71 PUSH1 0xE0 SHL PUSH1 0x0 MSTORE PUSH1 0x21 PUSH1 0x4 MSTORE PUSH1 0x24 PUSH1 0x0 REVERT JUMPDEST SWAP2 SWAP1 MSTORE SWAP1 JUMP JUMPDEST SWAP1 DUP2 MSTORE PUSH1 0x20 ADD SWAP1 JUMP INVALID LOG2 PUSH5 0x6970667358 0x22 SLT KECCAK256 RETURNDATACOPY 0xC7 0x5D SUB 0xA6 SSTORE 0xCE 0xFC 0x5D 0xE7 DUP3 PUSH20 0xAB375AD524E32AFAE5B96FCCDC9B3C4B4862645E PUSH5 0x736F6C6343 STOP ADDMOD ADD STOP CALLER "
				},
				"gasEstimates": {
					"creation": {
						"codeDepositCost": "49400",
						"executionCost": "99",
						"totalCost": "49499"
					},
					"external": {
						"getChoice()": "1038",
						"getDefaultChoice()": "250",
						"setLarge()": "20968"
					}
				},
				"methodIdentifiers": {
					"getChoice()": "67cb61b6",
					"getDefaultChoice()": "843f7258",
					"setLarge()": "694ebe4f"
				}
			},
			"userdoc": {
				"kind": "user",
				"methods": {},
				"version": 1
			}
		}
	}
}