{
	"StartingStopping.sol": {
		"StartStopUpdateExample": {
			"abi": [
				{
					"inputs": [],
					"name": "sendMoney",
					"outputs": [],
					"stateMutability": "payable",
					"type": "function"
				},
				{
					"inputs": [
						{
							"internalType": "address payable",
							"name": "_to",
							"type": "address"
						}
					],
					"name": "withdrawAllMoney",
					"outputs": [],
					"stateMutability": "nonpayable",
					"type": "function"
				}
			],
			"devdoc": {
				"kind": "dev",
				"methods": {},
				"version": 1
			},
			"evm": {
				"assembly": "    /* \"StartingStopping.sol\":66:262  contract StartStopUpdateExample {\r... */\n  mstore(0x40, 0x80)\n  callvalue\n  dup1\n  iszero\n  tag_1\n  jumpi\n  0x00\n  dup1\n  revert\ntag_1:\n  pop\n  dataSize(sub_0)\n  dup1\n  dataOffset(sub_0)\n  0x00\n  codecopy\n  0x00\n  return\nstop\n\nsub_0: assembly {\n        /* \"StartingStopping.sol\":66:262  contract StartStopUpdateExample {\r... */\n      mstore(0x40, 0x80)\n      jumpi(tag_1, lt(calldatasize, 0x04))\n      shr(0xe0, calldataload(0x00))\n      dup1\n      0x0adec93c\n      eq\n      tag_2\n      jumpi\n      dup1\n      0xcbedbf5a\n      eq\n      tag_5\n      jumpi\n    tag_1:\n      0x00\n      dup1\n      revert\n        /* \"StartingStopping.sol\":155:259  function withdrawAllMoney(address payable _to) public {\r... */\n    tag_2:\n      callvalue\n      dup1\n      iszero\n      tag_4\n      jumpi\n      0x00\n      dup1\n      revert\n    tag_4:\n      pop\n      tag_5\n      tag_6\n      calldatasize\n      0x04\n      tag_7\n      jump\t// in\n    tag_6:\n      tag_8\n      jump\t// in\n    tag_5:\n      stop\n    tag_8:\n        /* \"StartingStopping.sol\":216:251  _to.transfer(address(this).balance) */\n      mload(0x40)\n      sub(shl(0xa0, 0x01), 0x01)\n        /* \"StartingStopping.sol\":216:228  _to.transfer */\n      dup3\n      and\n      swap1\n        /* \"StartingStopping.sol\":229:250  address(this).balance */\n      selfbalance\n        /* \"StartingStopping.sol\":216:251  _to.transfer(address(this).balance) */\n      dup1\n      iszero\n      0x08fc\n      mul\n      swap2\n      0x00\n      dup2\n      dup2\n      dup2\n        /* \"StartingStopping.sol\":229:250  address(this).balance */\n      dup6\n        /* \"StartingStopping.sol\":216:228  _to.transfer */\n      dup9\n        /* \"StartingStopping.sol\":216:251  _to.transfer(address(this).balance) */\n      dup9\n      call\n      swap4\n      pop\n      pop\n      pop\n      pop\n      iszero\n      dup1\n      iszero\n      tag_13\n      jumpi\n      returndatasize\n      0x00\n      dup1\n      returndatacopy\n      revert(0x00, returndatasize)\n    tag_13:\n      pop\n        /* \"StartingStopping.sol\":155:259  function withdrawAllMoney(address payable _to) public {\r... */\n      pop\n      jump\t// out\n        /* \"#utility.yul\":14:308   */\n    tag_7:\n        /* \"#utility.yul\":81:87   */\n      0x00\n        /* \"#utility.yul\":134:136   */\n      0x20\n        /* \"#utility.yul\":122:131   */\n      dup3\n        /* \"#utility.yul\":113:120   */\n      dup5\n        /* \"#utility.yul\":109:132   */\n      sub\n        /* \"#utility.yul\":105:137   */\n      slt\n        /* \"#utility.yul\":102:154   */\n      iszero\n      tag_17\n      jumpi\n        /* \"#utility.yul\":150:151   */\n      0x00\n        /* \"#utility.yul\":147:148   */\n      dup1\n        /* \"#utility.yul\":140:152   */\n      revert\n        /* \"#utility.yul\":102:154   */\n    tag_17:\n        /* \"#utility.yul\":176:199   */\n      dup2\n      calldataload\n      sub(shl(0xa0, 0x01), 0x01)\n        /* \"#utility.yul\":228:259   */\n      dup2\n      and\n        /* \"#utility.yul\":218:260   */\n      dup2\n      eq\n        /* \"#utility.yul\":208:278   */\n      tag_18\n      jumpi\n        /* \"#utility.yul\":274:275   */\n      0x00\n        /* \"#utility.yul\":271:272   */\n      dup1\n        /* \"#utility.yul\":264:276   */\n      revert\n        /* \"#utility.yul\":208:278   */\n    tag_18:\n        /* \"#utility.yul\":297:302   */\n      swap4\n        /* \"#utility.yul\":14:308   */\n      swap3\n      pop\n      pop\n      pop\n      jump\t// out\n\n    auxdata: 0xa26469706673582212207654ad49ecaa0796d5988cc66929e94b19292902dc4dc869eea71771cff84df664736f6c63430008070033\n}\n",
				"bytecode": {
					"linkReferences": {},
					"object": "608060405234801561001057600080fd5b5060e48061001f6000396000f3fe60806040526004361060265760003560e01c80630adec93c14602b578063cbedbf5a146046575b600080fd5b348015603657600080fd5b50604660423660046080565b6048565b005b6040516001600160a01b038216904780156108fc02916000818181858888f19350505050158015607c573d6000803e3d6000fd5b5050565b600060208284031215609157600080fd5b81356001600160a01b038116811460a757600080fd5b939250505056fea26469706673582212207654ad49ecaa0796d5988cc66929e94b19292902dc4dc869eea71771cff84df664736f6c63430008070033",
					"opcodes": "PUSH1 0x80 PUSH1 0x40 MSTORE CALLVALUE DUP1 ISZERO PUSH2 0x10 JUMPI PUSH1 0x0 DUP1 REVERT JUMPDEST POP PUSH1 0xE4 DUP1 PUSH2 0x1F PUSH1 0x0 CODECOPY PUSH1 0x0 RETURN INVALID PUSH1 0x80 PUSH1 0x40 MSTORE PUSH1 0x4 CALLDATASIZE LT PUSH1 0x26 JUMPI PUSH1 0x0 CALLDATALOAD PUSH1 0xE0 SHR DUP1 PUSH4 0xADEC93C EQ PUSH1 0x2B JUMPI DUP1 PUSH4 0xCBEDBF5A EQ PUSH1 0x46 JUMPI JUMPDEST PUSH1 0x0 DUP1 REVERT JUMPDEST CALLVALUE DUP1 ISZERO PUSH1 0x36 JUMPI PUSH1 0x0 DUP1 REVERT JUMPDEST POP PUSH1 0x46 PUSH1 0x42 CALLDATASIZE PUSH1 0x4 PUSH1 0x80 JUMP JUMPDEST PUSH1 0x48 JUMP JUMPDEST STOP JUMPDEST PUSH1 0x40 MLOAD PUSH1 0x1 PUSH1 0x1 PUSH1 0xA0 SHL SUB DUP3 AND SWAP1 SELFBALANCE DUP1 ISZERO PUSH2 0x8FC MUL SWAP2 PUSH1 0x0 DUP2 DUP2 DUP2 DUP6 DUP9 DUP9 CALL SWAP4 POP POP POP POP ISZERO DUP1 ISZERO PUSH1 0x7C JUMPI RETURNDATASIZE PUSH1 0x0 DUP1 RETURNDATACOPY RETURNDATASIZE PUSH1 0x0 REVERT JUMPDEST POP POP JUMP JUMPDEST PUSH1 0x0 PUSH1 0x20 DUP3 DUP5 SUB SLT ISZERO PUSH1 0x91 JUMPI PUSH1 0x0 DUP1 REVERT JUMPDEST DUP2 CALLDATALOAD PUSH1 0x1 PUSH1 0x1 PUSH1 0xA0 SHL SUB DUP2 AND DUP2 EQ PUSH1 0xA7 JUMPI PUSH1 0x0 DUP1 REVERT JUMPDEST SWAP4 SWAP3 POP POP POP JUMP INVALID LOG2 PUSH5 0x6970667358 0x22 SLT KECCAK256 PUSH23 0x54AD49ECAA0796D5988CC66929E94B19292902DC4DC869 0xEE 0xA7 OR PUSH18 0xCFF84DF664736F6C63430008070033000000 "
				},
				"gasEstimates": {
					"creation": {
						"codeDepositCost": "45600",
						"executionCost": "99",
						"totalCost": "45699"
					},
					"external": {
						"sendMoney()": "96",
						"withdrawAllMoney(address)": "infinite"
					}
				},
				"methodIdentifiers": {
					"sendMoney()": "cbedbf5a",
					"withdrawAllMoney(address)": "0adec93c"
				}
			},
			"userdoc": {
				"kind": "user",
				"methods": {},
				"version": 1
			}
		}
	}
}