{
	"AllExample.sol": {
		"AllExample": {
			"abi": [
				{
					"inputs": [],
					"stateMutability": "nonpayable",
					"type": "constructor"
				},
				{
					"inputs": [],
					"name": "getLocalVal",
					"outputs": [
						{
							"internalType": "uint256",
							"name": "",
							"type": "uint256"
						}
					],
					"stateMutability": "view",
					"type": "function"
				}
			],
			"devdoc": {
				"kind": "dev",
				"methods": {},
				"version": 1
			},
			"evm": {
				"assembly": "    /* \"AllExample.sol\":66:290  contract AllExample {\r... */\n  mstore(0x40, 0x80)\n    /* \"AllExample.sol\":113:167  constructor() public {\r... */\n  callvalue\n  dup1\n  iszero\n  tag_1\n  jumpi\n  0x00\n  dup1\n  revert\ntag_1:\n  pop\n    /* \"AllExample.sol\":156:159  100 */\n  0x64\n    /* \"AllExample.sol\":145:153  stateVal */\n  0x00\n    /* \"AllExample.sol\":145:159  stateVal = 100 */\n  sstore\n    /* \"AllExample.sol\":66:290  contract AllExample {\r... */\n  dataSize(sub_0)\n  dup1\n  dataOffset(sub_0)\n  0x00\n  codecopy\n  0x00\n  return\nstop\n\nsub_0: assembly {\n        /* \"AllExample.sol\":66:290  contract AllExample {\r... */\n      mstore(0x40, 0x80)\n      callvalue\n      dup1\n      iszero\n      tag_1\n      jumpi\n      0x00\n      dup1\n      revert\n    tag_1:\n      pop\n      jumpi(tag_2, lt(calldatasize, 0x04))\n      shr(0xe0, calldataload(0x00))\n      dup1\n      0x7921381a\n      eq\n      tag_3\n      jumpi\n    tag_2:\n      0x00\n      dup1\n      revert\n        /* \"AllExample.sol\":175:287  function getLocalVal() public view returns(uint) {\r... */\n    tag_3:\n      tag_4\n      tag_5\n      jump\t// in\n    tag_4:\n      mload(0x40)\n      tag_6\n      swap2\n      swap1\n      tag_7\n      jump\t// in\n    tag_6:\n      mload(0x40)\n      dup1\n      swap2\n      sub\n      swap1\n      return\n    tag_5:\n        /* \"AllExample.sol\":251:253  10 */\n      0x0a\n        /* \"AllExample.sol\":175:287  function getLocalVal() public view returns(uint) {\r... */\n      swap1\n      jump\t// out\n        /* \"#utility.yul\":14:191   */\n    tag_7:\n        /* \"#utility.yul\":160:185   */\n      swap1\n      dup2\n      mstore\n        /* \"#utility.yul\":148:150   */\n      0x20\n        /* \"#utility.yul\":133:151   */\n      add\n      swap1\n        /* \"#utility.yul\":115:191   */\n      jump\t// out\n\n    auxdata: 0xa2646970667358221220786c62b32ba9624ccf49b74ff57c3f4fae8de96a9f1cd1d09e0ddd7ce474290164736f6c63430008010033\n}\n",
				"bytecode": {
					"linkReferences": {},
					"object": "6080604052348015600f57600080fd5b506064600055608b806100236000396000f3fe6080604052348015600f57600080fd5b506004361060285760003560e01c80637921381a14602d575b600080fd5b60336047565b604051603e9190604c565b60405180910390f35b600a90565b9081526020019056fea2646970667358221220786c62b32ba9624ccf49b74ff57c3f4fae8de96a9f1cd1d09e0ddd7ce474290164736f6c63430008010033",
					"opcodes": "PUSH1 0x80 PUSH1 0x40 MSTORE CALLVALUE DUP1 ISZERO PUSH1 0xF JUMPI PUSH1 0x0 DUP1 REVERT JUMPDEST POP PUSH1 0x64 PUSH1 0x0 SSTORE PUSH1 0x8B DUP1 PUSH2 0x23 PUSH1 0x0 CODECOPY PUSH1 0x0 RETURN INVALID PUSH1 0x80 PUSH1 0x40 MSTORE CALLVALUE DUP1 ISZERO PUSH1 0xF JUMPI PUSH1 0x0 DUP1 REVERT JUMPDEST POP PUSH1 0x4 CALLDATASIZE LT PUSH1 0x28 JUMPI PUSH1 0x0 CALLDATALOAD PUSH1 0xE0 SHR DUP1 PUSH4 0x7921381A EQ PUSH1 0x2D JUMPI JUMPDEST PUSH1 0x0 DUP1 REVERT JUMPDEST PUSH1 0x33 PUSH1 0x47 JUMP JUMPDEST PUSH1 0x40 MLOAD PUSH1 0x3E SWAP2 SWAP1 PUSH1 0x4C JUMP JUMPDEST PUSH1 0x40 MLOAD DUP1 SWAP2 SUB SWAP1 RETURN JUMPDEST PUSH1 0xA SWAP1 JUMP JUMPDEST SWAP1 DUP2 MSTORE PUSH1 0x20 ADD SWAP1 JUMP INVALID LOG2 PUSH5 0x6970667358 0x22 SLT KECCAK256 PUSH25 0x6C62B32BA9624CCF49B74FF57C3F4FAE8DE96A9F1CD1D09E0D 0xDD PUSH29 0xE474290164736F6C634300080100330000000000000000000000000000 "
				},
				"gasEstimates": {
					"creation": {
						"codeDepositCost": "27800",
						"executionCost": "20087",
						"totalCost": "47887"
					},
					"external": {
						"getLocalVal()": "206"
					}
				},
				"methodIdentifiers": {
					"getLocalVal()": "7921381a"
				}
			},
			"userdoc": {
				"kind": "user",
				"methods": {},
				"version": 1
			}
		}
	}
}