{
	"SendMoneyExample.sol": {
		"SendMoneyExample": {
			"abi": [
				{
					"inputs": [],
					"name": "balanceReceived",
					"outputs": [
						{
							"internalType": "uint256",
							"name": "",
							"type": "uint256"
						}
					],
					"stateMutability": "view",
					"type": "function"
				},
				{
					"inputs": [],
					"name": "getBalance",
					"outputs": [
						{
							"internalType": "uint256",
							"name": "",
							"type": "uint256"
						}
					],
					"stateMutability": "view",
					"type": "function"
				},
				{
					"inputs": [],
					"name": "receiveMoney",
					"outputs": [],
					"stateMutability": "payable",
					"type": "function"
				},
				{
					"inputs": [],
					"name": "withdrawMoney",
					"outputs": [],
					"stateMutability": "nonpayable",
					"type": "function"
				},
				{
					"inputs": [
						{
							"internalType": "address payable",
							"name": "_to",
							"type": "address"
						}
					],
					"name": "withdrawMoneyTo",
					"outputs": [],
					"stateMutability": "nonpayable",
					"type": "function"
				}
			],
			"devdoc": {
				"kind": "dev",
				"methods": {},
				"version": 1
			},
			"evm": {
				"assembly": "    /* \"SendMoneyExample.sol\":66:560  contract SendMoneyExample {\r... */\n  mstore(0x40, 0x80)\n  callvalue\n  dup1\n  iszero\n  tag_1\n  jumpi\n  0x00\n  dup1\n  revert\ntag_1:\n  pop\n  dataSize(sub_0)\n  dup1\n  dataOffset(sub_0)\n  0x00\n  codecopy\n  0x00\n  return\nstop\n\nsub_0: assembly {\n        /* \"SendMoneyExample.sol\":66:560  contract SendMoneyExample {\r... */\n      mstore(0x40, 0x80)\n      jumpi(tag_1, lt(calldatasize, 0x04))\n      shr(0xe0, calldataload(0x00))\n      dup1\n      0x0ff8d8a5\n      eq\n      tag_2\n      jumpi\n      dup1\n      0x12065fe0\n      eq\n      tag_3\n      jumpi\n      dup1\n      0x52a90c42\n      eq\n      tag_4\n      jumpi\n      dup1\n      0x6d26ec18\n      eq\n      tag_5\n      jumpi\n      dup1\n      0xac446002\n      eq\n      tag_6\n      jumpi\n    tag_1:\n      0x00\n      dup1\n      revert\n        /* \"SendMoneyExample.sol\":459:557  function withdrawMoneyTo(address payable _to) public {\r... */\n    tag_2:\n      callvalue\n      dup1\n      iszero\n      tag_7\n      jumpi\n      0x00\n      dup1\n      revert\n    tag_7:\n      pop\n      tag_8\n      tag_9\n      calldatasize\n      0x04\n      tag_10\n      jump\t// in\n    tag_9:\n      tag_11\n      jump\t// in\n    tag_8:\n      stop\n        /* \"SendMoneyExample.sol\":225:320  function getBalance() public view returns(uint) {\r... */\n    tag_3:\n      callvalue\n      dup1\n      iszero\n      tag_12\n      jumpi\n      0x00\n      dup1\n      revert\n    tag_12:\n      pop\n      tag_13\n      tag_14\n      jump\t// in\n    tag_13:\n      mload(0x40)\n      tag_15\n      swap2\n      swap1\n      tag_16\n      jump\t// in\n    tag_15:\n      mload(0x40)\n      dup1\n      swap2\n      sub\n      swap1\n      return\n        /* \"SendMoneyExample.sol\":99:126  uint public balanceReceived */\n    tag_4:\n      callvalue\n      dup1\n      iszero\n      tag_17\n      jumpi\n      0x00\n      dup1\n      revert\n    tag_17:\n      pop\n      tag_13\n      tag_19\n      jump\t// in\n        /* \"SendMoneyExample.sol\":133:219  function receiveMoney() public payable {\r... */\n    tag_5:\n      tag_8\n      tag_22\n      jump\t// in\n        /* \"SendMoneyExample.sol\":326:453  function withdrawMoney() public {\r... */\n    tag_6:\n      callvalue\n      dup1\n      iszero\n      tag_23\n      jumpi\n      0x00\n      dup1\n      revert\n    tag_23:\n      pop\n      tag_8\n      tag_25\n      jump\t// in\n        /* \"SendMoneyExample.sol\":459:557  function withdrawMoneyTo(address payable _to) public {\r... */\n    tag_11:\n        /* \"SendMoneyExample.sol\":523:526  _to */\n      dup1\n      sub(shl(0xa0, 0x01), 0x01)\n        /* \"SendMoneyExample.sol\":523:535  _to.transfer */\n      and\n        /* \"SendMoneyExample.sol\":523:549  _to.transfer(getBalance()) */\n      0x08fc\n        /* \"SendMoneyExample.sol\":536:548  getBalance() */\n      tag_27\n        /* \"SendMoneyExample.sol\":536:546  getBalance */\n      tag_14\n        /* \"SendMoneyExample.sol\":536:548  getBalance() */\n      jump\t// in\n    tag_27:\n        /* \"SendMoneyExample.sol\":523:549  _to.transfer(getBalance()) */\n      mload(0x40)\n      dup2\n      iszero\n      swap1\n      swap3\n      mul\n      swap2\n      0x00\n      dup2\n      dup2\n      dup2\n      dup6\n      dup9\n      dup9\n      call\n      swap4\n      pop\n      pop\n      pop\n      pop\n      iszero\n      dup1\n      iszero\n      tag_29\n      jumpi\n      returndatasize\n      0x00\n      dup1\n      returndatacopy\n      revert(0x00, returndatasize)\n    tag_29:\n      pop\n        /* \"SendMoneyExample.sol\":459:557  function withdrawMoneyTo(address payable _to) public {\r... */\n      pop\n      jump\t// out\n        /* \"SendMoneyExample.sol\":225:320  function getBalance() public view returns(uint) {\r... */\n    tag_14:\n        /* \"SendMoneyExample.sol\":291:312  address(this).balance */\n      selfbalance\n        /* \"SendMoneyExample.sol\":225:320  function getBalance() public view returns(uint) {\r... */\n      swap1\n      jump\t// out\n        /* \"SendMoneyExample.sol\":99:126  uint public balanceReceived */\n    tag_19:\n      sload(0x00)\n      dup2\n      jump\t// out\n        /* \"SendMoneyExample.sol\":133:219  function receiveMoney() public payable {\r... */\n    tag_22:\n        /* \"SendMoneyExample.sol\":202:211  msg.value */\n      callvalue\n        /* \"SendMoneyExample.sol\":183:198  balanceReceived */\n      0x00\n      dup1\n        /* \"SendMoneyExample.sol\":183:211  balanceReceived += msg.value */\n      dup3\n      dup3\n      sload\n      tag_32\n      swap2\n      swap1\n      tag_33\n      jump\t// in\n    tag_32:\n      swap1\n      swap2\n      sstore\n      pop\n      pop\n        /* \"SendMoneyExample.sol\":133:219  function receiveMoney() public payable {\r... */\n      jump\t// out\n        /* \"SendMoneyExample.sol\":326:453  function withdrawMoney() public {\r... */\n    tag_25:\n        /* \"SendMoneyExample.sol\":398:408  msg.sender */\n      caller\n      dup1\n        /* \"SendMoneyExample.sol\":420:445  to.transfer(getBalance()) */\n      0x08fc\n        /* \"SendMoneyExample.sol\":432:444  getBalance() */\n      tag_27\n        /* \"SendMoneyExample.sol\":432:442  getBalance */\n      tag_14\n        /* \"SendMoneyExample.sol\":432:444  getBalance() */\n      jump\t// in\n        /* \"#utility.yul\":14:328   */\n    tag_10:\n      0x00\n        /* \"#utility.yul\":134:136   */\n      0x20\n        /* \"#utility.yul\":122:131   */\n      dup3\n        /* \"#utility.yul\":113:120   */\n      dup5\n        /* \"#utility.yul\":109:132   */\n      sub\n        /* \"#utility.yul\":105:137   */\n      slt\n        /* \"#utility.yul\":102:104   */\n      iszero\n      tag_40\n      jumpi\n        /* \"#utility.yul\":155:161   */\n      dup1\n        /* \"#utility.yul\":147:153   */\n      dup2\n        /* \"#utility.yul\":140:162   */\n      revert\n        /* \"#utility.yul\":102:104   */\n    tag_40:\n        /* \"#utility.yul\":186:209   */\n      dup2\n      calldataload\n      sub(shl(0xa0, 0x01), 0x01)\n        /* \"#utility.yul\":238:269   */\n      dup2\n      and\n        /* \"#utility.yul\":228:270   */\n      dup2\n      eq\n        /* \"#utility.yul\":218:220   */\n      tag_41\n      jumpi\n        /* \"#utility.yul\":289:295   */\n      dup2\n        /* \"#utility.yul\":281:287   */\n      dup3\n        /* \"#utility.yul\":274:296   */\n      revert\n        /* \"#utility.yul\":218:220   */\n    tag_41:\n        /* \"#utility.yul\":317:322   */\n      swap4\n        /* \"#utility.yul\":92:328   */\n      swap3\n      pop\n      pop\n      pop\n      jump\t// out\n        /* \"#utility.yul\":333:510   */\n    tag_16:\n        /* \"#utility.yul\":479:504   */\n      swap1\n      dup2\n      mstore\n        /* \"#utility.yul\":467:469   */\n      0x20\n        /* \"#utility.yul\":452:470   */\n      add\n      swap1\n        /* \"#utility.yul\":434:510   */\n      jump\t// out\n        /* \"#utility.yul\":515:744   */\n    tag_33:\n      0x00\n        /* \"#utility.yul\":586:587   */\n      dup3\n        /* \"#utility.yul\":582:588   */\n      not\n        /* \"#utility.yul\":579:580   */\n      dup3\n        /* \"#utility.yul\":576:589   */\n      gt\n        /* \"#utility.yul\":573:575   */\n      iszero\n      tag_44\n      jumpi\n      shl(0xe0, 0x4e487b71)\n        /* \"#utility.yul\":612:645   */\n      dup2\n      mstore\n        /* \"#utility.yul\":668:672   */\n      0x11\n        /* \"#utility.yul\":665:666   */\n      0x04\n        /* \"#utility.yul\":658:673   */\n      mstore\n        /* \"#utility.yul\":698:702   */\n      0x24\n        /* \"#utility.yul\":619:622   */\n      dup2\n        /* \"#utility.yul\":686:703   */\n      revert\n        /* \"#utility.yul\":573:575   */\n    tag_44:\n      pop\n        /* \"#utility.yul\":729:738   */\n      add\n      swap1\n        /* \"#utility.yul\":563:744   */\n      jump\t// out\n\n    auxdata: 0xa2646970667358221220d070dd15c9dca3311ba37a2c4b4cc86703a3d2ff24403d05814c7691f72020f564736f6c63430008010033\n}\n",
				"bytecode": {
					"linkReferences": {},
					"object": "608060405234801561001057600080fd5b506101cf806100206000396000f3fe60806040526004361061004a5760003560e01c80630ff8d8a51461004f57806312065fe01461007157806352a90c421461009c5780636d26ec18146100b1578063ac446002146100b9575b600080fd5b34801561005b57600080fd5b5061006f61006a36600461013e565b6100ce565b005b34801561007d57600080fd5b5061008661010f565b604051610093919061016c565b60405180910390f35b3480156100a857600080fd5b50610086610113565b61006f610119565b3480156100c557600080fd5b5061006f610131565b806001600160a01b03166108fc6100e361010f565b6040518115909202916000818181858888f1935050505015801561010b573d6000803e3d6000fd5b5050565b4790565b60005481565b3460008082825461012a9190610175565b9091555050565b33806108fc6100e361010f565b60006020828403121561014f578081fd5b81356001600160a01b0381168114610165578182fd5b9392505050565b90815260200190565b6000821982111561019457634e487b7160e01b81526011600452602481fd5b50019056fea2646970667358221220d070dd15c9dca3311ba37a2c4b4cc86703a3d2ff24403d05814c7691f72020f564736f6c63430008010033",
					"opcodes": "PUSH1 0x80 PUSH1 0x40 MSTORE CALLVALUE DUP1 ISZERO PUSH2 0x10 JUMPI PUSH1 0x0 DUP1 REVERT JUMPDEST POP PUSH2 0x1CF DUP1 PUSH2 0x20 PUSH1 0x0 CODECOPY PUSH1 0x0 RETURN INVALID PUSH1 0x80 PUSH1 0x40 MSTORE PUSH1 0x4 CALLDATASIZE LT PUSH2 0x4A JUMPI PUSH1 0x0 CALLDATALOAD PUSH1 0xE0 SHR DUP1 PUSH4 0xFF8D8A5 EQ PUSH2 0x4F JUMPI DUP1 PUSH4 0x12065FE0 EQ PUSH2 0x71 JUMPI DUP1 PUSH4 0x52A90C42 EQ PUSH2 0x9C JUMPI DUP1 PUSH4 0x6D26EC18 EQ PUSH2 0xB1 JUMPI DUP1 PUSH4 0xAC446002 EQ PUSH2 0xB9 JUMPI JUMPDEST PUSH1 0x0 DUP1 REVERT JUMPDEST CALLVALUE DUP1 ISZERO PUSH2 0x5B JUMPI PUSH1 0x0 DUP1 REVERT JUMPDEST POP PUSH2 0x6F PUSH2 0x6A CALLDATASIZE PUSH1 0x4 PUSH2 0x13E JUMP JUMPDEST PUSH2 0xCE JUMP JUMPDEST STOP JUMPDEST CALLVALUE DUP1 ISZERO PUSH2 0x7D JUMPI PUSH1 0x0 DUP1 REVERT JUMPDEST POP PUSH2 0x86 PUSH2 0x10F JUMP JUMPDEST PUSH1 0x40 MLOAD PUSH2 0x93 SWAP2 SWAP1 PUSH2 0x16C JUMP JUMPDEST PUSH1 0x40 MLOAD DUP1 SWAP2 SUB SWAP1 RETURN JUMPDEST CALLVALUE DUP1 ISZERO PUSH2 0xA8 JUMPI PUSH1 0x0 DUP1 REVERT JUMPDEST POP PUSH2 0x86 PUSH2 0x113 JUMP JUMPDEST PUSH2 0x6F PUSH2 0x119 JUMP JUMPDEST CALLVALUE DUP1 ISZERO PUSH2 0xC5 JUMPI PUSH1 0x0 DUP1 REVERT JUMPDEST POP PUSH2 0x6F PUSH2 0x131 JUMP JUMPDEST DUP1 PUSH1 0x1 PUSH1 0x1 PUSH1 0xA0 SHL SUB AND PUSH2 0x8FC PUSH2 0xE3 PUSH2 0x10F JUMP JUMPDEST PUSH1 0x40 MLOAD DUP2 ISZERO SWAP1 SWAP3 MUL SWAP2 PUSH1 0x0 DUP2 DUP2 DUP2 DUP6 DUP9 DUP9 CALL SWAP4 POP POP POP POP ISZERO DUP1 ISZERO PUSH2 0x10B JUMPI RETURNDATASIZE PUSH1 0x0 DUP1 RETURNDATACOPY RETURNDATASIZE PUSH1 0x0 REVERT JUMPDEST POP POP JUMP JUMPDEST SELFBALANCE SWAP1 JUMP JUMPDEST PUSH1 0x0 SLOAD DUP2 JUMP JUMPDEST CALLVALUE PUSH1 0x0 DUP1 DUP3 DUP3 SLOAD PUSH2 0x12A SWAP2 SWAP1 PUSH2 0x175 JUMP JUMPDEST SWAP1 SWAP2 SSTORE POP POP JUMP JUMPDEST CALLER DUP1 PUSH2 0x8FC PUSH2 0xE3 PUSH2 0x10F JUMP JUMPDEST PUSH1 0x0 PUSH1 0x20 DUP3 DUP5 SUB SLT ISZERO PUSH2 0x14F JUMPI DUP1 DUP2 REVERT JUMPDEST DUP2 CALLDATALOAD PUSH1 0x1 PUSH1 0x1 PUSH1 0xA0 SHL SUB DUP2 AND DUP2 EQ PUSH2 0x165 JUMPI DUP2 DUP3 REVERT JUMPDEST SWAP4 SWAP3 POP POP POP JUMP JUMPDEST SWAP1 DUP2 MSTORE PUSH1 0x20 ADD SWAP1 JUMP JUMPDEST PUSH1 0x0 DUP3 NOT DUP3 GT ISZERO PUSH2 0x194 JUMPI PUSH4 0x4E487B71 PUSH1 0xE0 SHL DUP2 MSTORE PUSH1 0x11 PUSH1 0x4 MSTORE PUSH1 0x24 DUP2 REVERT JUMPDEST POP ADD SWAP1 JUMP INVALID LOG2 PUSH5 0x6970667358 0x22 SLT KECCAK256 0xD0 PUSH17 0xDD15C9DCA3311BA37A2C4B4CC86703A3D2 SELFDESTRUCT 0x24 BLOCKHASH RETURNDATASIZE SDIV DUP2 0x4C PUSH23 0x91F72020F564736F6C6343000801003300000000000000 "
				},
				"gasEstimates": {
					"creation": {
						"codeDepositCost": "92600",
						"executionCost": "141",
						"totalCost": "92741"
					},
					"external": {
						"balanceReceived()": "1050",
						"getBalance()": "230",
						"receiveMoney()": "21058",
						"withdrawMoney()": "infinite",
						"withdrawMoneyTo(address)": "infinite"
					}
				},
				"methodIdentifiers": {
					"balanceReceived()": "52a90c42",
					"getBalance()": "12065fe0",
					"receiveMoney()": "6d26ec18",
					"withdrawMoney()": "ac446002",
					"withdrawMoneyTo(address)": "0ff8d8a5"
				}
			},
			"userdoc": {
				"kind": "user",
				"methods": {},
				"version": 1
			}
		}
	}
}