{
	"StartingStopping.sol": {
		"StartStopUpdateExample": {
			"abi": [
				{
					"inputs": [],
					"stateMutability": "nonpayable",
					"type": "constructor"
				},
				{
					"inputs": [],
					"name": "getBalance",
					"outputs": [
						{
							"internalType": "uint256",
							"name": "",
							"type": "uint256"
						}
					],
					"stateMutability": "view",
					"type": "function"
				},
				{
					"inputs": [],
					"name": "owner",
					"outputs": [
						{
							"internalType": "address",
							"name": "",
							"type": "address"
						}
					],
					"stateMutability": "view",
					"type": "function"
				},
				{
					"inputs": [],
					"name": "paused",
					"outputs": [
						{
							"internalType": "bool",
							"name": "",
							"type": "bool"
						}
					],
					"stateMutability": "view",
					"type": "function"
				},
				{
					"inputs": [],
					"name": "sendMoney",
					"outputs": [],
					"stateMutability": "payable",
					"type": "function"
				},
				{
					"inputs": [
						{
							"internalType": "address payable",
							"name": "_to",
							"type": "address"
						}
					],
					"name": "withdrawAllMoney",
					"outputs": [],
					"stateMutability": "nonpayable",
					"type": "function"
				}
			],
			"devdoc": {
				"kind": "dev",
				"methods": {},
				"version": 1
			},
			"evm": {
				"assembly": "    /* \"StartingStopping.sol\":66:553  contract StartStopUpdateExample {\r... */\n  mstore(0x40, 0x80)\n    /* \"StartingStopping.sol\":165:216  constructor() {\r... */\n  callvalue\n  dup1\n  iszero\n  tag_1\n  jumpi\n  0x00\n  dup1\n  revert\ntag_1:\n  pop\n    /* \"StartingStopping.sol\":190:195  owner */\n  0x00\n    /* \"StartingStopping.sol\":190:208  owner = msg.sender */\n  dup1\n  sload\n  not(sub(shl(0xa0, 0x01), 0x01))\n  and\n    /* \"StartingStopping.sol\":198:208  msg.sender */\n  caller\n    /* \"StartingStopping.sol\":190:208  owner = msg.sender */\n  or\n  swap1\n  sstore\n    /* \"StartingStopping.sol\":66:553  contract StartStopUpdateExample {\r... */\n  dataSize(sub_0)\n  dup1\n  dataOffset(sub_0)\n  0x00\n  codecopy\n  0x00\n  return\nstop\n\nsub_0: assembly {\n        /* \"StartingStopping.sol\":66:553  contract StartStopUpdateExample {\r... */\n      mstore(0x40, 0x80)\n      jumpi(tag_1, lt(calldatasize, 0x04))\n      shr(0xe0, calldataload(0x00))\n      dup1\n      0x0adec93c\n      eq\n      tag_2\n      jumpi\n      dup1\n      0x12065fe0\n      eq\n      tag_3\n      jumpi\n      dup1\n      0x5c975abb\n      eq\n      tag_4\n      jumpi\n      dup1\n      0x8da5cb5b\n      eq\n      tag_5\n      jumpi\n      dup1\n      0xcbedbf5a\n      eq\n      tag_8\n      jumpi\n    tag_1:\n      0x00\n      dup1\n      revert\n        /* \"StartingStopping.sol\":276:447  function withdrawAllMoney(address payable _to) public {\r... */\n    tag_2:\n      callvalue\n      dup1\n      iszero\n      tag_7\n      jumpi\n      0x00\n      dup1\n      revert\n    tag_7:\n      pop\n      tag_8\n      tag_9\n      calldatasize\n      0x04\n      tag_10\n      jump\t// in\n    tag_9:\n      tag_11\n      jump\t// in\n    tag_8:\n      stop\n        /* \"StartingStopping.sol\":455:550  function getBalance() public view returns(uint) {\r... */\n    tag_3:\n      callvalue\n      dup1\n      iszero\n      tag_12\n      jumpi\n      0x00\n      dup1\n      revert\n    tag_12:\n      pop\n      mload(0x40)\n        /* \"StartingStopping.sol\":521:542  address(this).balance */\n      selfbalance\n        /* \"#utility.yul\":1208:1233   */\n      dup2\n      mstore\n        /* \"#utility.yul\":1196:1198   */\n      0x20\n        /* \"#utility.yul\":1181:1199   */\n      add\n        /* \"StartingStopping.sol\":455:550  function getBalance() public view returns(uint) {\r... */\n    tag_15:\n      mload(0x40)\n      dup1\n      swap2\n      sub\n      swap1\n      return\n        /* \"StartingStopping.sol\":138:156  bool public paused */\n    tag_4:\n      callvalue\n      dup1\n      iszero\n      tag_17\n      jumpi\n      0x00\n      dup1\n      revert\n    tag_17:\n      pop\n      sload(0x00)\n      tag_18\n      swap1\n      shl(0xa0, 0x01)\n      swap1\n      div\n      0xff\n      and\n      dup2\n      jump\n    tag_18:\n      mload(0x40)\n        /* \"#utility.yul\":686:700   */\n      swap1\n      iszero\n        /* \"#utility.yul\":679:701   */\n      iszero\n        /* \"#utility.yul\":661:702   */\n      dup2\n      mstore\n        /* \"#utility.yul\":649:651   */\n      0x20\n        /* \"#utility.yul\":634:652   */\n      add\n        /* \"StartingStopping.sol\":138:156  bool public paused */\n      tag_15\n        /* \"#utility.yul\":521:708   */\n      jump\n        /* \"StartingStopping.sol\":111:131  address public owner */\n    tag_5:\n      callvalue\n      dup1\n      iszero\n      tag_22\n      jumpi\n      0x00\n      dup1\n      revert\n    tag_22:\n      pop\n      sload(0x00)\n      tag_23\n      swap1\n      sub(shl(0xa0, 0x01), 0x01)\n      and\n      dup2\n      jump\n    tag_23:\n      mload(0x40)\n      sub(shl(0xa0, 0x01), 0x01)\n        /* \"#utility.yul\":477:509   */\n      swap1\n      swap2\n      and\n        /* \"#utility.yul\":459:510   */\n      dup2\n      mstore\n        /* \"#utility.yul\":447:449   */\n      0x20\n        /* \"#utility.yul\":432:450   */\n      add\n        /* \"StartingStopping.sol\":111:131  address public owner */\n      tag_15\n        /* \"#utility.yul\":313:516   */\n      jump\n        /* \"StartingStopping.sol\":276:447  function withdrawAllMoney(address payable _to) public {\r... */\n    tag_11:\n        /* \"StartingStopping.sol\":349:354  owner */\n      and(sub(shl(0xa0, 0x01), 0x01), sload(0x00))\n        /* \"StartingStopping.sol\":358:368  msg.sender */\n      caller\n        /* \"StartingStopping.sol\":349:368  owner == msg.sender */\n      eq\n        /* \"StartingStopping.sol\":341:393  require(owner == msg.sender, \"You cannot withdraw.\") */\n      tag_30\n      jumpi\n      mload(0x40)\n      shl(0xe5, 0x461bcd)\n      dup2\n      mstore\n        /* \"#utility.yul\":915:917   */\n      0x20\n        /* \"StartingStopping.sol\":341:393  require(owner == msg.sender, \"You cannot withdraw.\") */\n      0x04\n      dup3\n      add\n        /* \"#utility.yul\":897:918   */\n      mstore\n        /* \"#utility.yul\":954:956   */\n      0x14\n        /* \"#utility.yul\":934:952   */\n      0x24\n      dup3\n      add\n        /* \"#utility.yul\":927:957   */\n      mstore\n      shl(0x61, 0x2cb7ba9031b0b73737ba103bb4ba34323930bb97)\n        /* \"#utility.yul\":973:991   */\n      0x44\n      dup3\n      add\n        /* \"#utility.yul\":966:1016   */\n      mstore\n        /* \"#utility.yul\":1033:1051   */\n      0x64\n      add\n        /* \"StartingStopping.sol\":341:393  require(owner == msg.sender, \"You cannot withdraw.\") */\n      mload(0x40)\n      dup1\n      swap2\n      sub\n      swap1\n      revert\n    tag_30:\n        /* \"StartingStopping.sol\":404:439  _to.transfer(address(this).balance) */\n      mload(0x40)\n      sub(shl(0xa0, 0x01), 0x01)\n        /* \"StartingStopping.sol\":404:416  _to.transfer */\n      dup3\n      and\n      swap1\n        /* \"StartingStopping.sol\":417:438  address(this).balance */\n      selfbalance\n        /* \"StartingStopping.sol\":404:439  _to.transfer(address(this).balance) */\n      dup1\n      iszero\n      0x08fc\n      mul\n      swap2\n      0x00\n      dup2\n      dup2\n      dup2\n        /* \"StartingStopping.sol\":417:438  address(this).balance */\n      dup6\n        /* \"StartingStopping.sol\":404:416  _to.transfer */\n      dup9\n        /* \"StartingStopping.sol\":404:439  _to.transfer(address(this).balance) */\n      dup9\n      call\n      swap4\n      pop\n      pop\n      pop\n      pop\n      iszero\n      dup1\n      iszero\n      tag_34\n      jumpi\n      returndatasize\n      0x00\n      dup1\n      returndatacopy\n      revert(0x00, returndatasize)\n    tag_34:\n      pop\n        /* \"StartingStopping.sol\":276:447  function withdrawAllMoney(address payable _to) public {\r... */\n      pop\n      jump\t// out\n        /* \"#utility.yul\":14:308   */\n    tag_10:\n        /* \"#utility.yul\":81:87   */\n      0x00\n        /* \"#utility.yul\":134:136   */\n      0x20\n        /* \"#utility.yul\":122:131   */\n      dup3\n        /* \"#utility.yul\":113:120   */\n      dup5\n        /* \"#utility.yul\":109:132   */\n      sub\n        /* \"#utility.yul\":105:137   */\n      slt\n        /* \"#utility.yul\":102:154   */\n      iszero\n      tag_39\n      jumpi\n        /* \"#utility.yul\":150:151   */\n      0x00\n        /* \"#utility.yul\":147:148   */\n      dup1\n        /* \"#utility.yul\":140:152   */\n      revert\n        /* \"#utility.yul\":102:154   */\n    tag_39:\n        /* \"#utility.yul\":176:199   */\n      dup2\n      calldataload\n      sub(shl(0xa0, 0x01), 0x01)\n        /* \"#utility.yul\":228:259   */\n      dup2\n      and\n        /* \"#utility.yul\":218:260   */\n      dup2\n      eq\n        /* \"#utility.yul\":208:278   */\n      tag_40\n      jumpi\n        /* \"#utility.yul\":274:275   */\n      0x00\n        /* \"#utility.yul\":271:272   */\n      dup1\n        /* \"#utility.yul\":264:276   */\n      revert\n        /* \"#utility.yul\":208:278   */\n    tag_40:\n        /* \"#utility.yul\":297:302   */\n      swap4\n        /* \"#utility.yul\":14:308   */\n      swap3\n      pop\n      pop\n      pop\n      jump\t// out\n\n    auxdata: 0xa264697066735822122050c0d148ff764aebe4aac7b599eee0de09770787415137e713827db86090363f64736f6c63430008070033\n}\n",
				"bytecode": {
					"linkReferences": {},
					"object": "608060405234801561001057600080fd5b50600080546001600160a01b031916331790556101ee806100326000396000f3fe60806040526004361061004a5760003560e01c80630adec93c1461004f57806312065fe0146100715780635c975abb146100915780638da5cb5b146100c2578063cbedbf5a1461006f575b600080fd5b34801561005b57600080fd5b5061006f61006a366004610188565b6100fa565b005b34801561007d57600080fd5b506040514781526020015b60405180910390f35b34801561009d57600080fd5b506000546100b290600160a01b900460ff1681565b6040519015158152602001610088565b3480156100ce57600080fd5b506000546100e2906001600160a01b031681565b6040516001600160a01b039091168152602001610088565b6000546001600160a01b0316331461014f5760405162461bcd60e51b81526020600482015260146024820152732cb7ba9031b0b73737ba103bb4ba34323930bb9760611b604482015260640160405180910390fd5b6040516001600160a01b038216904780156108fc02916000818181858888f19350505050158015610184573d6000803e3d6000fd5b5050565b60006020828403121561019a57600080fd5b81356001600160a01b03811681146101b157600080fd5b939250505056fea264697066735822122050c0d148ff764aebe4aac7b599eee0de09770787415137e713827db86090363f64736f6c63430008070033",
					"opcodes": "PUSH1 0x80 PUSH1 0x40 MSTORE CALLVALUE DUP1 ISZERO PUSH2 0x10 JUMPI PUSH1 0x0 DUP1 REVERT JUMPDEST POP PUSH1 0x0 DUP1 SLOAD PUSH1 0x1 PUSH1 0x1 PUSH1 0xA0 SHL SUB NOT AND CALLER OR SWAP1 SSTORE PUSH2 0x1EE DUP1 PUSH2 0x32 PUSH1 0x0 CODECOPY PUSH1 0x0 RETURN INVALID PUSH1 0x80 PUSH1 0x40 MSTORE PUSH1 0x4 CALLDATASIZE LT PUSH2 0x4A JUMPI PUSH1 0x0 CALLDATALOAD PUSH1 0xE0 SHR DUP1 PUSH4 0xADEC93C EQ PUSH2 0x4F JUMPI DUP1 PUSH4 0x12065FE0 EQ PUSH2 0x71 JUMPI DUP1 PUSH4 0x5C975ABB EQ PUSH2 0x91 JUMPI DUP1 PUSH4 0x8DA5CB5B EQ PUSH2 0xC2 JUMPI DUP1 PUSH4 0xCBEDBF5A EQ PUSH2 0x6F JUMPI JUMPDEST PUSH1 0x0 DUP1 REVERT JUMPDEST CALLVALUE DUP1 ISZERO PUSH2 0x5B JUMPI PUSH1 0x0 DUP1 REVERT JUMPDEST POP PUSH2 0x6F PUSH2 0x6A CALLDATASIZE PUSH1 0x4 PUSH2 0x188 JUMP JUMPDEST PUSH2 0xFA JUMP JUMPDEST STOP JUMPDEST CALLVALUE DUP1 ISZERO PUSH2 0x7D JUMPI PUSH1 0x0 DUP1 REVERT JUMPDEST POP PUSH1 0x40 MLOAD SELFBALANCE DUP2 MSTORE PUSH1 0x20 ADD JUMPDEST PUSH1 0x40 MLOAD DUP1 SWAP2 SUB SWAP1 RETURN JUMPDEST CALLVALUE DUP1 ISZERO PUSH2 0x9D JUMPI PUSH1 0x0 DUP1 REVERT JUMPDEST POP PUSH1 0x0 SLOAD PUSH2 0xB2 SWAP1 PUSH1 0x1 PUSH1 0xA0 SHL SWAP1 DIV PUSH1 0xFF AND DUP2 JUMP JUMPDEST PUSH1 0x40 MLOAD SWAP1 ISZERO ISZERO DUP2 MSTORE PUSH1 0x20 ADD PUSH2 0x88 JUMP JUMPDEST CALLVALUE DUP1 ISZERO PUSH2 0xCE JUMPI PUSH1 0x0 DUP1 REVERT JUMPDEST POP PUSH1 0x0 SLOAD PUSH2 0xE2 SWAP1 PUSH1 0x1 PUSH1 0x1 PUSH1 0xA0 SHL SUB AND DUP2 JUMP JUMPDEST PUSH1 0x40 MLOAD PUSH1 0x1 PUSH1 0x1 PUSH1 0xA0 SHL SUB SWAP1 SWAP2 AND DUP2 MSTORE PUSH1 0x20 ADD PUSH2 0x88 JUMP JUMPDEST PUSH1 0x0 SLOAD PUSH1 0x1 PUSH1 0x1 PUSH1 0xA0 SHL SUB AND CALLER EQ PUSH2 0x14F JUMPI PUSH1 0x40 MLOAD PUSH3 0x461BCD PUSH1 0xE5 SHL DUP2 MSTORE PUSH1 0x20 PUSH1 0x4 DUP3 ADD MSTORE PUSH1 0x14 PUSH1 0x24 DUP3 ADD MSTORE PUSH20 0x2CB7BA9031B0B73737BA103BB4BA34323930BB97 PUSH1 0x61 SHL PUSH1 0x44 DUP3 ADD MSTORE PUSH1 0x64 ADD PUSH1 0x40 MLOAD DUP1 SWAP2 SUB SWAP1 REVERT JUMPDEST PUSH1 0x40 MLOAD PUSH1 0x1 PUSH1 0x1 PUSH1 0xA0 SHL SUB DUP3 AND SWAP1 SELFBALANCE DUP1 ISZERO PUSH2 0x8FC MUL SWAP2 PUSH1 0x0 DUP2 DUP2 DUP2 DUP6 DUP9 DUP9 CALL SWAP4 POP POP POP POP ISZERO DUP1 ISZERO PUSH2 0x184 JUMPI RETURNDATASIZE PUSH1 0x0 DUP1 RETURNDATACOPY RETURNDATASIZE PUSH1 0x0 REVERT JUMPDEST POP POP JUMP JUMPDEST PUSH1 0x0 PUSH1 0x20 DUP3 DUP5 SUB SLT ISZERO PUSH2 0x19A JUMPI PUSH1 0x0 DUP1 REVERT JUMPDEST DUP2 CALLDATALOAD PUSH1 0x1 PUSH1 0x1 PUSH1 0xA0 SHL SUB DUP2 AND DUP2 EQ PUSH2 0x1B1 JUMPI PUSH1 0x0 DUP1 REVERT JUMPDEST SWAP4 SWAP3 POP POP POP JUMP INVALID LOG2 PUSH5 0x6970667358 0x22 SLT KECCAK256 POP 0xC0 0xD1 BASEFEE SELFDESTRUCT PUSH23 0x4AEBE4AAC7B599EEE0DE09770787415137E713827DB860 SWAP1 CALLDATASIZE EXTCODEHASH PUSH5 0x736F6C6343 STOP ADDMOD SMOD STOP CALLER "
				},
				"gasEstimates": {
					"creation": {
						"codeDepositCost": "98800",
						"executionCost": "24382",
						"totalCost": "123182"
					},
					"external": {
						"getBalance()": "168",
						"owner()": "2381",
						"paused()": "2349",
						"sendMoney()": "162",
						"withdrawAllMoney(address)": "infinite"
					}
				},
				"methodIdentifiers": {
					"getBalance()": "12065fe0",
					"owner()": "8da5cb5b",
					"paused()": "5c975abb",
					"sendMoney()": "cbedbf5a",
					"withdrawAllMoney(address)": "0adec93c"
				}
			},
			"userdoc": {
				"kind": "user",
				"methods": {},
				"version": 1
			}
		}
	}
}