{
	"RolloverExample.sol": {
		"RolloverExample": {
			"abi": [
				{
					"inputs": [],
					"name": "decrement",
					"outputs": [],
					"stateMutability": "nonpayable",
					"type": "function"
				},
				{
					"inputs": [],
					"name": "increment",
					"outputs": [],
					"stateMutability": "nonpayable",
					"type": "function"
				},
				{
					"inputs": [],
					"name": "myUint8",
					"outputs": [
						{
							"internalType": "uint8",
							"name": "",
							"type": "uint8"
						}
					],
					"stateMutability": "view",
					"type": "function"
				},
				{
					"inputs": [
						{
							"internalType": "uint8",
							"name": "_myUint8",
							"type": "uint8"
						}
					],
					"name": "setMyUint8",
					"outputs": [],
					"stateMutability": "nonpayable",
					"type": "function"
				}
			],
			"devdoc": {
				"kind": "dev",
				"methods": {},
				"version": 1
			},
			"evm": {
				"assembly": "    /* \"RolloverExample.sol\":65:414  contract RolloverExample {\r... */\n  mstore(0x40, 0x80)\n  callvalue\n  dup1\n  iszero\n  tag_1\n  jumpi\n  0x00\n  dup1\n  revert\ntag_1:\n  pop\n  dataSize(sub_0)\n  dup1\n  dataOffset(sub_0)\n  0x00\n  codecopy\n  0x00\n  return\nstop\n\nsub_0: assembly {\n        /* \"RolloverExample.sol\":65:414  contract RolloverExample {\r... */\n      mstore(0x40, 0x80)\n      callvalue\n      dup1\n      iszero\n      tag_1\n      jumpi\n      0x00\n      dup1\n      revert\n    tag_1:\n      pop\n      jumpi(tag_2, lt(calldatasize, 0x04))\n      shr(0xe0, calldataload(0x00))\n      dup1\n      0x2baeceb7\n      eq\n      tag_3\n      jumpi\n      dup1\n      0x4f25eada\n      eq\n      tag_4\n      jumpi\n      dup1\n      0xd09de08a\n      eq\n      tag_5\n      jumpi\n      dup1\n      0xe2a4b2af\n      eq\n      tag_6\n      jumpi\n    tag_2:\n      0x00\n      dup1\n      revert\n        /* \"RolloverExample.sol\":218:310  function decrement() public {\r... */\n    tag_3:\n      tag_7\n      tag_8\n      jump\t// in\n    tag_7:\n      stop\n        /* \"RolloverExample.sol\":130:210  function setMyUint8(uint8 _myUint8) public {\r... */\n    tag_4:\n      tag_9\n      0x04\n      dup1\n      calldatasize\n      sub\n      dup2\n      add\n      swap1\n      tag_10\n      swap2\n      swap1\n      tag_11\n      jump\t// in\n    tag_10:\n      tag_12\n      jump\t// in\n    tag_9:\n      stop\n        /* \"RolloverExample.sol\":318:411  function increment() public {\r... */\n    tag_5:\n      tag_13\n      tag_14\n      jump\t// in\n    tag_13:\n      stop\n        /* \"RolloverExample.sol\":97:117  uint8 public myUint8 */\n    tag_6:\n      tag_15\n      tag_16\n      jump\t// in\n    tag_15:\n      mload(0x40)\n      tag_17\n      swap2\n      swap1\n      tag_18\n      jump\t// in\n    tag_17:\n      mload(0x40)\n      dup1\n      swap2\n      sub\n      swap1\n      return\n        /* \"RolloverExample.sol\":218:310  function decrement() public {\r... */\n    tag_8:\n        /* \"RolloverExample.sol\":282:289  myUint8 */\n      0x00\n      dup1\n        /* \"RolloverExample.sol\":282:291  myUint8-- */\n      dup2\n      dup2\n      swap1\n      sload\n      swap1\n      0x0100\n      exp\n      swap1\n      div\n      0xff\n      and\n      dup1\n      swap3\n      swap2\n      swap1\n      0x01\n      swap1\n      sub\n      swap2\n      swap1\n      0x0100\n      exp\n      dup2\n      sload\n      dup2\n      0xff\n      mul\n      not\n      and\n      swap1\n      dup4\n      0xff\n      and\n      mul\n      or\n      swap1\n      sstore\n      pop\n      pop\n        /* \"RolloverExample.sol\":218:310  function decrement() public {\r... */\n      jump\t// out\n        /* \"RolloverExample.sol\":130:210  function setMyUint8(uint8 _myUint8) public {\r... */\n    tag_12:\n        /* \"RolloverExample.sol\":194:202  _myUint8 */\n      dup1\n        /* \"RolloverExample.sol\":184:191  myUint8 */\n      0x00\n      dup1\n        /* \"RolloverExample.sol\":184:202  myUint8 = _myUint8 */\n      0x0100\n      exp\n      dup2\n      sload\n      dup2\n      0xff\n      mul\n      not\n      and\n      swap1\n      dup4\n      0xff\n      and\n      mul\n      or\n      swap1\n      sstore\n      pop\n        /* \"RolloverExample.sol\":130:210  function setMyUint8(uint8 _myUint8) public {\r... */\n      pop\n      jump\t// out\n        /* \"RolloverExample.sol\":318:411  function increment() public {\r... */\n    tag_14:\n        /* \"RolloverExample.sol\":394:401  myUint8 */\n      0x00\n      dup1\n        /* \"RolloverExample.sol\":394:403  myUint8++ */\n      dup2\n      dup2\n      swap1\n      sload\n      swap1\n      0x0100\n      exp\n      swap1\n      div\n      0xff\n      and\n      dup1\n      swap3\n      swap2\n      swap1\n      tag_22\n      swap1\n      tag_23\n      jump\t// in\n    tag_22:\n      swap2\n      swap1\n      0x0100\n      exp\n      dup2\n      sload\n      dup2\n      0xff\n      mul\n      not\n      and\n      swap1\n      dup4\n      0xff\n      and\n      mul\n      or\n      swap1\n      sstore\n      pop\n      pop\n        /* \"RolloverExample.sol\":318:411  function increment() public {\r... */\n      jump\t// out\n        /* \"RolloverExample.sol\":97:117  uint8 public myUint8 */\n    tag_16:\n      0x00\n      dup1\n      sload\n      swap1\n      0x0100\n      exp\n      swap1\n      div\n      0xff\n      and\n      dup2\n      jump\t// out\n        /* \"#utility.yul\":7:142   */\n    tag_25:\n      0x00\n        /* \"#utility.yul\":89:95   */\n      dup2\n        /* \"#utility.yul\":76:96   */\n      calldataload\n        /* \"#utility.yul\":67:96   */\n      swap1\n      pop\n        /* \"#utility.yul\":105:136   */\n      tag_27\n        /* \"#utility.yul\":130:135   */\n      dup2\n        /* \"#utility.yul\":105:136   */\n      tag_28\n      jump\t// in\n    tag_27:\n        /* \"#utility.yul\":57:142   */\n      swap3\n      swap2\n      pop\n      pop\n      jump\t// out\n        /* \"#utility.yul\":148:406   */\n    tag_11:\n      0x00\n        /* \"#utility.yul\":254:256   */\n      0x20\n        /* \"#utility.yul\":242:251   */\n      dup3\n        /* \"#utility.yul\":233:240   */\n      dup5\n        /* \"#utility.yul\":229:252   */\n      sub\n        /* \"#utility.yul\":225:257   */\n      slt\n        /* \"#utility.yul\":222:224   */\n      iszero\n      tag_30\n      jumpi\n        /* \"#utility.yul\":270:271   */\n      0x00\n        /* \"#utility.yul\":267:268   */\n      dup1\n        /* \"#utility.yul\":260:272   */\n      revert\n        /* \"#utility.yul\":222:224   */\n    tag_30:\n        /* \"#utility.yul\":313:314   */\n      0x00\n        /* \"#utility.yul\":338:389   */\n      tag_31\n        /* \"#utility.yul\":381:388   */\n      dup5\n        /* \"#utility.yul\":372:378   */\n      dup3\n        /* \"#utility.yul\":361:370   */\n      dup6\n        /* \"#utility.yul\":357:379   */\n      add\n        /* \"#utility.yul\":338:389   */\n      tag_25\n      jump\t// in\n    tag_31:\n        /* \"#utility.yul\":328:389   */\n      swap2\n      pop\n        /* \"#utility.yul\":284:399   */\n      pop\n        /* \"#utility.yul\":212:406   */\n      swap3\n      swap2\n      pop\n      pop\n      jump\t// out\n        /* \"#utility.yul\":412:524   */\n    tag_32:\n        /* \"#utility.yul\":495:517   */\n      tag_34\n        /* \"#utility.yul\":511:516   */\n      dup2\n        /* \"#utility.yul\":495:517   */\n      tag_35\n      jump\t// in\n    tag_34:\n        /* \"#utility.yul\":490:493   */\n      dup3\n        /* \"#utility.yul\":483:518   */\n      mstore\n        /* \"#utility.yul\":473:524   */\n      pop\n      pop\n      jump\t// out\n        /* \"#utility.yul\":530:744   */\n    tag_18:\n      0x00\n        /* \"#utility.yul\":657:659   */\n      0x20\n        /* \"#utility.yul\":646:655   */\n      dup3\n        /* \"#utility.yul\":642:660   */\n      add\n        /* \"#utility.yul\":634:660   */\n      swap1\n      pop\n        /* \"#utility.yul\":670:737   */\n      tag_37\n        /* \"#utility.yul\":734:735   */\n      0x00\n        /* \"#utility.yul\":723:732   */\n      dup4\n        /* \"#utility.yul\":719:736   */\n      add\n        /* \"#utility.yul\":710:716   */\n      dup5\n        /* \"#utility.yul\":670:737   */\n      tag_32\n      jump\t// in\n    tag_37:\n        /* \"#utility.yul\":624:744   */\n      swap3\n      swap2\n      pop\n      pop\n      jump\t// out\n        /* \"#utility.yul\":750:836   */\n    tag_35:\n      0x00\n        /* \"#utility.yul\":825:829   */\n      0xff\n        /* \"#utility.yul\":818:823   */\n      dup3\n        /* \"#utility.yul\":814:830   */\n      and\n        /* \"#utility.yul\":803:830   */\n      swap1\n      pop\n        /* \"#utility.yul\":793:836   */\n      swap2\n      swap1\n      pop\n      jump\t// out\n        /* \"#utility.yul\":842:1009   */\n    tag_23:\n      0x00\n        /* \"#utility.yul\":902:924   */\n      tag_40\n        /* \"#utility.yul\":918:923   */\n      dup3\n        /* \"#utility.yul\":902:924   */\n      tag_35\n      jump\t// in\n    tag_40:\n        /* \"#utility.yul\":893:924   */\n      swap2\n      pop\n        /* \"#utility.yul\":946:950   */\n      0xff\n        /* \"#utility.yul\":939:944   */\n      dup3\n        /* \"#utility.yul\":936:951   */\n      eq\n        /* \"#utility.yul\":933:935   */\n      iszero\n      tag_41\n      jumpi\n        /* \"#utility.yul\":954:972   */\n      tag_42\n      tag_43\n      jump\t// in\n    tag_42:\n        /* \"#utility.yul\":933:935   */\n    tag_41:\n        /* \"#utility.yul\":1001:1002   */\n      0x01\n        /* \"#utility.yul\":994:999   */\n      dup3\n        /* \"#utility.yul\":990:1003   */\n      add\n        /* \"#utility.yul\":983:1003   */\n      swap1\n      pop\n        /* \"#utility.yul\":883:1009   */\n      swap2\n      swap1\n      pop\n      jump\t// out\n        /* \"#utility.yul\":1015:1195   */\n    tag_43:\n        /* \"#utility.yul\":1063:1140   */\n      0x4e487b7100000000000000000000000000000000000000000000000000000000\n        /* \"#utility.yul\":1060:1061   */\n      0x00\n        /* \"#utility.yul\":1053:1141   */\n      mstore\n        /* \"#utility.yul\":1160:1164   */\n      0x11\n        /* \"#utility.yul\":1157:1158   */\n      0x04\n        /* \"#utility.yul\":1150:1165   */\n      mstore\n        /* \"#utility.yul\":1184:1188   */\n      0x24\n        /* \"#utility.yul\":1181:1182   */\n      0x00\n        /* \"#utility.yul\":1174:1189   */\n      revert\n        /* \"#utility.yul\":1201:1319   */\n    tag_28:\n        /* \"#utility.yul\":1272:1294   */\n      tag_46\n        /* \"#utility.yul\":1288:1293   */\n      dup2\n        /* \"#utility.yul\":1272:1294   */\n      tag_35\n      jump\t// in\n    tag_46:\n        /* \"#utility.yul\":1265:1270   */\n      dup2\n        /* \"#utility.yul\":1262:1295   */\n      eq\n        /* \"#utility.yul\":1252:1254   */\n      tag_47\n      jumpi\n        /* \"#utility.yul\":1309:1310   */\n      0x00\n        /* \"#utility.yul\":1306:1307   */\n      dup1\n        /* \"#utility.yul\":1299:1311   */\n      revert\n        /* \"#utility.yul\":1252:1254   */\n    tag_47:\n        /* \"#utility.yul\":1242:1319   */\n      pop\n      jump\t// out\n\n    auxdata: 0xa2646970667358221220db098f120d6e161312b095cc5d966f76ed9c55d6cdb6cd37a9001225b0b0976764736f6c63430008000033\n}\n",
				"bytecode": {
					"linkReferences": {},
					"object": "608060405234801561001057600080fd5b50610255806100206000396000f3fe608060405234801561001057600080fd5b506004361061004c5760003560e01c80632baeceb7146100515780634f25eada1461005b578063d09de08a14610077578063e2a4b2af14610081575b600080fd5b61005961009f565b005b6100756004803603810190610070919061014f565b6100d3565b005b61007f6100f0565b005b610089610129565b6040516100969190610187565b60405180910390f35b60008081819054906101000a900460ff16809291906001900391906101000a81548160ff021916908360ff16021790555050565b806000806101000a81548160ff021916908360ff16021790555050565b60008081819054906101000a900460ff168092919061010e906101af565b91906101000a81548160ff021916908360ff16021790555050565b60008054906101000a900460ff1681565b60008135905061014981610208565b92915050565b60006020828403121561016157600080fd5b600061016f8482850161013a565b91505092915050565b610181816101a2565b82525050565b600060208201905061019c6000830184610178565b92915050565b600060ff82169050919050565b60006101ba826101a2565b915060ff8214156101ce576101cd6101d9565b5b600182019050919050565b7f4e487b7100000000000000000000000000000000000000000000000000000000600052601160045260246000fd5b610211816101a2565b811461021c57600080fd5b5056fea2646970667358221220db098f120d6e161312b095cc5d966f76ed9c55d6cdb6cd37a9001225b0b0976764736f6c63430008000033",
					"opcodes": "PUSH1 0x80 PUSH1 0x40 MSTORE CALLVALUE DUP1 ISZERO PUSH2 0x10 JUMPI PUSH1 0x0 DUP1 REVERT JUMPDEST POP PUSH2 0x255 DUP1 PUSH2 0x20 PUSH1 0x0 CODECOPY PUSH1 0x0 RETURN INVALID PUSH1 0x80 PUSH1 0x40 MSTORE CALLVALUE DUP1 ISZERO PUSH2 0x10 JUMPI PUSH1 0x0 DUP1 REVERT JUMPDEST POP PUSH1 0x4 CALLDATASIZE LT PUSH2 0x4C JUMPI PUSH1 0x0 CALLDATALOAD PUSH1 0xE0 SHR DUP1 PUSH4 0x2BAECEB7 EQ PUSH2 0x51 JUMPI DUP1 PUSH4 0x4F25EADA EQ PUSH2 0x5B JUMPI DUP1 PUSH4 0xD09DE08A EQ PUSH2 0x77 JUMPI DUP1 PUSH4 0xE2A4B2AF EQ PUSH2 0x81 JUMPI JUMPDEST PUSH1 0x0 DUP1 REVERT JUMPDEST PUSH2 0x59 PUSH2 0x9F JUMP JUMPDEST STOP JUMPDEST PUSH2 0x75 PUSH1 0x4 DUP1 CALLDATASIZE SUB DUP2 ADD SWAP1 PUSH2 0x70 SWAP2 SWAP1 PUSH2 0x14F JUMP JUMPDEST PUSH2 0xD3 JUMP JUMPDEST STOP JUMPDEST PUSH2 0x7F PUSH2 0xF0 JUMP JUMPDEST STOP JUMPDEST PUSH2 0x89 PUSH2 0x129 JUMP JUMPDEST PUSH1 0x40 MLOAD PUSH2 0x96 SWAP2 SWAP1 PUSH2 0x187 JUMP JUMPDEST PUSH1 0x40 MLOAD DUP1 SWAP2 SUB SWAP1 RETURN JUMPDEST PUSH1 0x0 DUP1 DUP2 DUP2 SWAP1 SLOAD SWAP1 PUSH2 0x100 EXP SWAP1 DIV PUSH1 0xFF AND DUP1 SWAP3 SWAP2 SWAP1 PUSH1 0x1 SWAP1 SUB SWAP2 SWAP1 PUSH2 0x100 EXP DUP2 SLOAD DUP2 PUSH1 0xFF MUL NOT AND SWAP1 DUP4 PUSH1 0xFF AND MUL OR SWAP1 SSTORE POP POP JUMP JUMPDEST DUP1 PUSH1 0x0 DUP1 PUSH2 0x100 EXP DUP2 SLOAD DUP2 PUSH1 0xFF MUL NOT AND SWAP1 DUP4 PUSH1 0xFF AND MUL OR SWAP1 SSTORE POP POP JUMP JUMPDEST PUSH1 0x0 DUP1 DUP2 DUP2 SWAP1 SLOAD SWAP1 PUSH2 0x100 EXP SWAP1 DIV PUSH1 0xFF AND DUP1 SWAP3 SWAP2 SWAP1 PUSH2 0x10E SWAP1 PUSH2 0x1AF JUMP JUMPDEST SWAP2 SWAP1 PUSH2 0x100 EXP DUP2 SLOAD DUP2 PUSH1 0xFF MUL NOT AND SWAP1 DUP4 PUSH1 0xFF AND MUL OR SWAP1 SSTORE POP POP JUMP JUMPDEST PUSH1 0x0 DUP1 SLOAD SWAP1 PUSH2 0x100 EXP SWAP1 DIV PUSH1 0xFF AND DUP2 JUMP JUMPDEST PUSH1 0x0 DUP2 CALLDATALOAD SWAP1 POP PUSH2 0x149 DUP2 PUSH2 0x208 JUMP JUMPDEST SWAP3 SWAP2 POP POP JUMP JUMPDEST PUSH1 0x0 PUSH1 0x20 DUP3 DUP5 SUB SLT ISZERO PUSH2 0x161 JUMPI PUSH1 0x0 DUP1 REVERT JUMPDEST PUSH1 0x0 PUSH2 0x16F DUP5 DUP3 DUP6 ADD PUSH2 0x13A JUMP JUMPDEST SWAP2 POP POP SWAP3 SWAP2 POP POP JUMP JUMPDEST PUSH2 0x181 DUP2 PUSH2 0x1A2 JUMP JUMPDEST DUP3 MSTORE POP POP JUMP JUMPDEST PUSH1 0x0 PUSH1 0x20 DUP3 ADD SWAP1 POP PUSH2 0x19C PUSH1 0x0 DUP4 ADD DUP5 PUSH2 0x178 JUMP JUMPDEST SWAP3 SWAP2 POP POP JUMP JUMPDEST PUSH1 0x0 PUSH1 0xFF DUP3 AND SWAP1 POP SWAP2 SWAP1 POP JUMP JUMPDEST PUSH1 0x0 PUSH2 0x1BA DUP3 PUSH2 0x1A2 JUMP JUMPDEST SWAP2 POP PUSH1 0xFF DUP3 EQ ISZERO PUSH2 0x1CE JUMPI PUSH2 0x1CD PUSH2 0x1D9 JUMP JUMPDEST JUMPDEST PUSH1 0x1 DUP3 ADD SWAP1 POP SWAP2 SWAP1 POP JUMP JUMPDEST PUSH32 0x4E487B7100000000000000000000000000000000000000000000000000000000 PUSH1 0x0 MSTORE PUSH1 0x11 PUSH1 0x4 MSTORE PUSH1 0x24 PUSH1 0x0 REVERT JUMPDEST PUSH2 0x211 DUP2 PUSH2 0x1A2 JUMP JUMPDEST DUP2 EQ PUSH2 0x21C JUMPI PUSH1 0x0 DUP1 REVERT JUMPDEST POP JUMP INVALID LOG2 PUSH5 0x6970667358 0x22 SLT KECCAK256 0xDB MULMOD DUP16 SLT 0xD PUSH15 0x161312B095CC5D966F76ED9C55D6CD 0xB6 0xCD CALLDATACOPY 0xA9 STOP SLT 0x25 0xB0 0xB0 SWAP8 PUSH8 0x64736F6C63430008 STOP STOP CALLER "
				},
				"gasEstimates": {
					"creation": {
						"codeDepositCost": "119400",
						"executionCost": "165",
						"totalCost": "119565"
					},
					"external": {
						"decrement()": "21854",
						"increment()": "22024",
						"myUint8()": "1212",
						"setMyUint8(uint8)": "21279"
					}
				},
				"methodIdentifiers": {
					"decrement()": "2baeceb7",
					"increment()": "d09de08a",
					"myUint8()": "e2a4b2af",
					"setMyUint8(uint8)": "4f25eada"
				}
			},
			"userdoc": {
				"kind": "user",
				"methods": {},
				"version": 1
			}
		}
	}
}