{
	"AllExample.sol": {
		"AllExample": {
			"abi": [
				{
					"inputs": [],
					"stateMutability": "nonpayable",
					"type": "constructor"
				},
				{
					"inputs": [],
					"name": "getGlobalVal",
					"outputs": [
						{
							"internalType": "uint256",
							"name": "",
							"type": "uint256"
						}
					],
					"stateMutability": "view",
					"type": "function"
				},
				{
					"inputs": [],
					"name": "getLocalVal",
					"outputs": [
						{
							"internalType": "uint256",
							"name": "",
							"type": "uint256"
						}
					],
					"stateMutability": "view",
					"type": "function"
				}
			],
			"devdoc": {
				"kind": "dev",
				"methods": {},
				"version": 1
			},
			"evm": {
				"assembly": "    /* \"AllExample.sol\":66:366  contract AllExample {\r... */\n  mstore(0x40, 0x80)\n    /* \"AllExample.sol\":113:167  constructor() public {\r... */\n  callvalue\n  dup1\n  iszero\n  tag_1\n  jumpi\n  0x00\n  dup1\n  revert\ntag_1:\n  pop\n    /* \"AllExample.sol\":156:159  100 */\n  0x64\n    /* \"AllExample.sol\":145:153  stateVal */\n  0x00\n    /* \"AllExample.sol\":145:159  stateVal = 100 */\n  sstore\n    /* \"AllExample.sol\":66:366  contract AllExample {\r... */\n  dataSize(sub_0)\n  dup1\n  dataOffset(sub_0)\n  0x00\n  codecopy\n  0x00\n  return\nstop\n\nsub_0: assembly {\n        /* \"AllExample.sol\":66:366  contract AllExample {\r... */\n      mstore(0x40, 0x80)\n      callvalue\n      dup1\n      iszero\n      tag_1\n      jumpi\n      0x00\n      dup1\n      revert\n    tag_1:\n      pop\n      jumpi(tag_2, lt(calldatasize, 0x04))\n      shr(0xe0, calldataload(0x00))\n      dup1\n      0x7921381a\n      eq\n      tag_3\n      jumpi\n      dup1\n      0xa484b48e\n      eq\n      tag_4\n      jumpi\n    tag_2:\n      0x00\n      dup1\n      revert\n        /* \"AllExample.sol\":175:287  function getLocalVal() public view returns(uint) {\r... */\n    tag_3:\n      tag_5\n      tag_6\n      jump\t// in\n    tag_5:\n      mload(0x40)\n      tag_7\n      swap2\n      swap1\n      tag_8\n      jump\t// in\n    tag_7:\n      mload(0x40)\n      dup1\n      swap2\n      sub\n      swap1\n      return\n        /* \"AllExample.sol\":295:363  function getGlobalVal() public view returns(uint) {\r... */\n    tag_4:\n      tag_5\n      tag_10\n      jump\t// in\n        /* \"AllExample.sol\":175:287  function getLocalVal() public view returns(uint) {\r... */\n    tag_6:\n        /* \"AllExample.sol\":251:253  10 */\n      0x0a\n        /* \"AllExample.sol\":175:287  function getLocalVal() public view returns(uint) {\r... */\n      swap1\n      jump\t// out\n        /* \"AllExample.sol\":295:363  function getGlobalVal() public view returns(uint) {\r... */\n    tag_10:\n        /* \"AllExample.sol\":339:343  uint */\n      0x00\n        /* \"AllExample.sol\":295:363  function getGlobalVal() public view returns(uint) {\r... */\n      swap1\n      jump\t// out\n        /* \"#utility.yul\":14:191   */\n    tag_8:\n        /* \"#utility.yul\":160:185   */\n      swap1\n      dup2\n      mstore\n        /* \"#utility.yul\":148:150   */\n      0x20\n        /* \"#utility.yul\":133:151   */\n      add\n      swap1\n        /* \"#utility.yul\":115:191   */\n      jump\t// out\n\n    auxdata: 0xa2646970667358221220f2ab46c1efbd34117f5921c52e9f1f69c53f144bd5ce337de741f7d5b0ac488e64736f6c63430008010033\n}\n",
				"bytecode": {
					"linkReferences": {},
					"object": "6080604052348015600f57600080fd5b50606460005560a0806100236000396000f3fe6080604052348015600f57600080fd5b506004361060325760003560e01c80637921381a146037578063a484b48e146051575b600080fd5b603d6057565b604051604891906061565b60405180910390f35b603d605c565b600a90565b600090565b9081526020019056fea2646970667358221220f2ab46c1efbd34117f5921c52e9f1f69c53f144bd5ce337de741f7d5b0ac488e64736f6c63430008010033",
					"opcodes": "PUSH1 0x80 PUSH1 0x40 MSTORE CALLVALUE DUP1 ISZERO PUSH1 0xF JUMPI PUSH1 0x0 DUP1 REVERT JUMPDEST POP PUSH1 0x64 PUSH1 0x0 SSTORE PUSH1 0xA0 DUP1 PUSH2 0x23 PUSH1 0x0 CODECOPY PUSH1 0x0 RETURN INVALID PUSH1 0x80 PUSH1 0x40 MSTORE CALLVALUE DUP1 ISZERO PUSH1 0xF JUMPI PUSH1 0x0 DUP1 REVERT JUMPDEST POP PUSH1 0x4 CALLDATASIZE LT PUSH1 0x32 JUMPI PUSH1 0x0 CALLDATALOAD PUSH1 0xE0 SHR DUP1 PUSH4 0x7921381A EQ PUSH1 0x37 JUMPI DUP1 PUSH4 0xA484B48E EQ PUSH1 0x51 JUMPI JUMPDEST PUSH1 0x0 DUP1 REVERT JUMPDEST PUSH1 0x3D PUSH1 0x57 JUMP JUMPDEST PUSH1 0x40 MLOAD PUSH1 0x48 SWAP2 SWAP1 PUSH1 0x61 JUMP JUMPDEST PUSH1 0x40 MLOAD DUP1 SWAP2 SUB SWAP1 RETURN JUMPDEST PUSH1 0x3D PUSH1 0x5C JUMP JUMPDEST PUSH1 0xA SWAP1 JUMP JUMPDEST PUSH1 0x0 SWAP1 JUMP JUMPDEST SWAP1 DUP2 MSTORE PUSH1 0x20 ADD SWAP1 JUMP INVALID LOG2 PUSH5 0x6970667358 0x22 SLT KECCAK256 CALLCODE 0xAB CHAINID 0xC1 0xEF 0xBD CALLVALUE GT PUSH32 0x5921C52E9F1F69C53F144BD5CE337DE741F7D5B0AC488E64736F6C6343000801 STOP CALLER "
				},
				"gasEstimates": {
					"creation": {
						"codeDepositCost": "32000",
						"executionCost": "20087",
						"totalCost": "52087"
					},
					"external": {
						"getGlobalVal()": "228",
						"getLocalVal()": "206"
					}
				},
				"methodIdentifiers": {
					"getGlobalVal()": "a484b48e",
					"getLocalVal()": "7921381a"
				}
			},
			"userdoc": {
				"kind": "user",
				"methods": {},
				"version": 1
			}
		}
	}
}