{
	"StartingStopping.sol": {
		"StartStopUpdateExample": {
			"abi": [
				{
					"inputs": [],
					"stateMutability": "nonpayable",
					"type": "constructor"
				},
				{
					"inputs": [
						{
							"internalType": "address payable",
							"name": "_to",
							"type": "address"
						}
					],
					"name": "destroySmartContract",
					"outputs": [],
					"stateMutability": "nonpayable",
					"type": "function"
				},
				{
					"inputs": [],
					"name": "getAddressSender",
					"outputs": [
						{
							"internalType": "address",
							"name": "",
							"type": "address"
						}
					],
					"stateMutability": "view",
					"type": "function"
				},
				{
					"inputs": [],
					"name": "getBalance",
					"outputs": [
						{
							"internalType": "uint256",
							"name": "",
							"type": "uint256"
						}
					],
					"stateMutability": "view",
					"type": "function"
				},
				{
					"inputs": [],
					"name": "owner",
					"outputs": [
						{
							"internalType": "address",
							"name": "",
							"type": "address"
						}
					],
					"stateMutability": "view",
					"type": "function"
				},
				{
					"inputs": [],
					"name": "paused",
					"outputs": [
						{
							"internalType": "bool",
							"name": "",
							"type": "bool"
						}
					],
					"stateMutability": "view",
					"type": "function"
				},
				{
					"inputs": [],
					"name": "sendMoney",
					"outputs": [],
					"stateMutability": "payable",
					"type": "function"
				},
				{
					"inputs": [
						{
							"internalType": "bool",
							"name": "_paused",
							"type": "bool"
						}
					],
					"name": "setPaused",
					"outputs": [],
					"stateMutability": "nonpayable",
					"type": "function"
				},
				{
					"inputs": [
						{
							"internalType": "address payable",
							"name": "_to",
							"type": "address"
						}
					],
					"name": "withdrawAllMoney",
					"outputs": [],
					"stateMutability": "nonpayable",
					"type": "function"
				}
			],
			"devdoc": {
				"kind": "dev",
				"methods": {},
				"version": 1
			},
			"evm": {
				"assembly": "    /* \"StartingStopping.sol\":66:1027  contract StartStopUpdateExample {\r... */\n  mstore(0x40, 0x80)\n    /* \"StartingStopping.sol\":165:216  constructor() {\r... */\n  callvalue\n  dup1\n  iszero\n  tag_1\n  jumpi\n  0x00\n  dup1\n  revert\ntag_1:\n  pop\n    /* \"StartingStopping.sol\":190:195  owner */\n  0x00\n    /* \"StartingStopping.sol\":190:208  owner = msg.sender */\n  dup1\n  sload\n  not(sub(shl(0xa0, 0x01), 0x01))\n  and\n    /* \"StartingStopping.sol\":198:208  msg.sender */\n  caller\n    /* \"StartingStopping.sol\":190:208  owner = msg.sender */\n  or\n  swap1\n  sstore\n    /* \"StartingStopping.sol\":66:1027  contract StartStopUpdateExample {\r... */\n  dataSize(sub_0)\n  dup1\n  dataOffset(sub_0)\n  0x00\n  codecopy\n  0x00\n  return\nstop\n\nsub_0: assembly {\n        /* \"StartingStopping.sol\":66:1027  contract StartStopUpdateExample {\r... */\n      mstore(0x40, 0x80)\n      jumpi(tag_1, lt(calldatasize, 0x04))\n      shr(0xe0, calldataload(0x00))\n      dup1\n      0x5c975abb\n      gt\n      tag_10\n      jumpi\n      dup1\n      0x5c975abb\n      eq\n      tag_6\n      jumpi\n      dup1\n      0x6cc73bcc\n      eq\n      tag_7\n      jumpi\n      dup1\n      0x8da5cb5b\n      eq\n      tag_8\n      jumpi\n      dup1\n      0xcbedbf5a\n      eq\n      tag_12\n      jumpi\n      0x00\n      dup1\n      revert\n    tag_10:\n      dup1\n      0x0adec93c\n      eq\n      tag_2\n      jumpi\n      dup1\n      0x12065fe0\n      eq\n      tag_3\n      jumpi\n      dup1\n      0x16c38b3c\n      eq\n      tag_4\n      jumpi\n      dup1\n      0x39df43ff\n      eq\n      tag_5\n      jumpi\n    tag_1:\n      0x00\n      dup1\n      revert\n        /* \"StartingStopping.sol\":629:854  function withdrawAllMoney(address payable _to) public {\r... */\n    tag_2:\n      callvalue\n      dup1\n      iszero\n      tag_11\n      jumpi\n      0x00\n      dup1\n      revert\n    tag_11:\n      pop\n      tag_12\n      tag_13\n      calldatasize\n      0x04\n      tag_14\n      jump\t// in\n    tag_13:\n      tag_15\n      jump\t// in\n    tag_12:\n      stop\n        /* \"StartingStopping.sol\":224:319  function getBalance() public view returns(uint) {\r... */\n    tag_3:\n      callvalue\n      dup1\n      iszero\n      tag_16\n      jumpi\n      0x00\n      dup1\n      revert\n    tag_16:\n      pop\n      mload(0x40)\n        /* \"StartingStopping.sol\":290:311  address(this).balance */\n      selfbalance\n        /* \"#utility.yul\":2180:2205   */\n      dup2\n      mstore\n        /* \"#utility.yul\":2168:2170   */\n      0x20\n        /* \"#utility.yul\":2153:2171   */\n      add\n        /* \"StartingStopping.sol\":224:319  function getBalance() public view returns(uint) {\r... */\n    tag_19:\n      mload(0x40)\n      dup1\n      swap2\n      sub\n      swap1\n      return\n        /* \"StartingStopping.sol\":482:621  function setPaused(bool _paused) public {\r... */\n    tag_4:\n      callvalue\n      dup1\n      iszero\n      tag_21\n      jumpi\n      0x00\n      dup1\n      revert\n    tag_21:\n      pop\n      tag_12\n      tag_23\n      calldatasize\n      0x04\n      tag_24\n      jump\t// in\n    tag_23:\n      tag_25\n      jump\t// in\n        /* \"StartingStopping.sol\":862:1024  function destroySmartContract(address payable _to) public {\r... */\n    tag_5:\n      callvalue\n      dup1\n      iszero\n      tag_26\n      jumpi\n      0x00\n      dup1\n      revert\n    tag_26:\n      pop\n      tag_12\n      tag_28\n      calldatasize\n      0x04\n      tag_14\n      jump\t// in\n    tag_28:\n      tag_29\n      jump\t// in\n        /* \"StartingStopping.sol\":138:156  bool public paused */\n    tag_6:\n      callvalue\n      dup1\n      iszero\n      tag_30\n      jumpi\n      0x00\n      dup1\n      revert\n    tag_30:\n      pop\n      sload(0x00)\n      tag_31\n      swap1\n      shl(0xa0, 0x01)\n      swap1\n      div\n      0xff\n      and\n      dup2\n      jump\n    tag_31:\n      mload(0x40)\n        /* \"#utility.yul\":964:978   */\n      swap1\n      iszero\n        /* \"#utility.yul\":957:979   */\n      iszero\n        /* \"#utility.yul\":939:980   */\n      dup2\n      mstore\n        /* \"#utility.yul\":927:929   */\n      0x20\n        /* \"#utility.yul\":912:930   */\n      add\n        /* \"StartingStopping.sol\":138:156  bool public paused */\n      tag_19\n        /* \"#utility.yul\":799:986   */\n      jump\n        /* \"StartingStopping.sol\":327:420  function getAddressSender() public view returns(address) {\r... */\n    tag_7:\n      callvalue\n      dup1\n      iszero\n      tag_35\n      jumpi\n      0x00\n      dup1\n      revert\n    tag_35:\n      pop\n        /* \"StartingStopping.sol\":402:412  msg.sender */\n      caller\n        /* \"StartingStopping.sol\":327:420  function getAddressSender() public view returns(address) {\r... */\n    tag_36:\n      mload(0x40)\n      sub(shl(0xa0, 0x01), 0x01)\n        /* \"#utility.yul\":755:787   */\n      swap1\n      swap2\n      and\n        /* \"#utility.yul\":737:788   */\n      dup2\n      mstore\n        /* \"#utility.yul\":725:727   */\n      0x20\n        /* \"#utility.yul\":710:728   */\n      add\n        /* \"StartingStopping.sol\":327:420  function getAddressSender() public view returns(address) {\r... */\n      tag_19\n        /* \"#utility.yul\":591:794   */\n      jump\n        /* \"StartingStopping.sol\":111:131  address public owner */\n    tag_8:\n      callvalue\n      dup1\n      iszero\n      tag_40\n      jumpi\n      0x00\n      dup1\n      revert\n    tag_40:\n      pop\n      sload(0x00)\n      tag_36\n      swap1\n      sub(shl(0xa0, 0x01), 0x01)\n      and\n      dup2\n      jump\n        /* \"StartingStopping.sol\":629:854  function withdrawAllMoney(address payable _to) public {\r... */\n    tag_15:\n        /* \"StartingStopping.sol\":702:707  owner */\n      and(sub(shl(0xa0, 0x01), 0x01), sload(0x00))\n        /* \"StartingStopping.sol\":711:721  msg.sender */\n      caller\n        /* \"StartingStopping.sol\":702:721  owner == msg.sender */\n      eq\n        /* \"StartingStopping.sol\":694:746  require(owner == msg.sender, \"You cannot withdraw.\") */\n      tag_47\n      jumpi\n      mload(0x40)\n      shl(0xe5, 0x461bcd)\n      dup2\n      mstore\n        /* \"#utility.yul\":1543:1545   */\n      0x20\n        /* \"StartingStopping.sol\":694:746  require(owner == msg.sender, \"You cannot withdraw.\") */\n      0x04\n      dup3\n      add\n        /* \"#utility.yul\":1525:1546   */\n      mstore\n        /* \"#utility.yul\":1582:1584   */\n      0x14\n        /* \"#utility.yul\":1562:1580   */\n      0x24\n      dup3\n      add\n        /* \"#utility.yul\":1555:1585   */\n      mstore\n      shl(0x61, 0x2cb7ba9031b0b73737ba103bb4ba34323930bb97)\n        /* \"#utility.yul\":1601:1619   */\n      0x44\n      dup3\n      add\n        /* \"#utility.yul\":1594:1644   */\n      mstore\n        /* \"#utility.yul\":1661:1679   */\n      0x64\n      add\n        /* \"StartingStopping.sol\":694:746  require(owner == msg.sender, \"You cannot withdraw.\") */\n    tag_48:\n      mload(0x40)\n      dup1\n      swap2\n      sub\n      swap1\n      revert\n    tag_47:\n        /* \"StartingStopping.sol\":765:771  paused */\n      sload(0x00)\n      shl(0xa0, 0x01)\n      swap1\n      div\n      0xff\n      and\n        /* \"StartingStopping.sol\":765:780  paused == false */\n      iszero\n        /* \"StartingStopping.sol\":757:800  require(paused == false, \"Contract Paused\") */\n      tag_50\n      jumpi\n      mload(0x40)\n      shl(0xe5, 0x461bcd)\n      dup2\n      mstore\n        /* \"#utility.yul\":1892:1894   */\n      0x20\n        /* \"StartingStopping.sol\":757:800  require(paused == false, \"Contract Paused\") */\n      0x04\n      dup3\n      add\n        /* \"#utility.yul\":1874:1895   */\n      mstore\n        /* \"#utility.yul\":1931:1933   */\n      0x0f\n        /* \"#utility.yul\":1911:1929   */\n      0x24\n      dup3\n      add\n        /* \"#utility.yul\":1904:1934   */\n      mstore\n      shl(0x8a, 0x10dbdb9d1c9858dd0814185d5cd959)\n        /* \"#utility.yul\":1950:1968   */\n      0x44\n      dup3\n      add\n        /* \"#utility.yul\":1943:1988   */\n      mstore\n        /* \"#utility.yul\":2005:2023   */\n      0x64\n      add\n        /* \"StartingStopping.sol\":757:800  require(paused == false, \"Contract Paused\") */\n      tag_48\n        /* \"#utility.yul\":1690:2029   */\n      jump\n        /* \"StartingStopping.sol\":757:800  require(paused == false, \"Contract Paused\") */\n    tag_50:\n        /* \"StartingStopping.sol\":811:846  _to.transfer(address(this).balance) */\n      mload(0x40)\n      sub(shl(0xa0, 0x01), 0x01)\n        /* \"StartingStopping.sol\":811:823  _to.transfer */\n      dup3\n      and\n      swap1\n        /* \"StartingStopping.sol\":824:845  address(this).balance */\n      selfbalance\n        /* \"StartingStopping.sol\":811:846  _to.transfer(address(this).balance) */\n      dup1\n      iszero\n      0x08fc\n      mul\n      swap2\n      0x00\n      dup2\n      dup2\n      dup2\n        /* \"StartingStopping.sol\":824:845  address(this).balance */\n      dup6\n        /* \"StartingStopping.sol\":811:823  _to.transfer */\n      dup9\n        /* \"StartingStopping.sol\":811:846  _to.transfer(address(this).balance) */\n      dup9\n      call\n      swap4\n      pop\n      pop\n      pop\n      pop\n      iszero\n      dup1\n      iszero\n      tag_54\n      jumpi\n      returndatasize\n      0x00\n      dup1\n      returndatacopy\n      revert(0x00, returndatasize)\n    tag_54:\n      pop\n        /* \"StartingStopping.sol\":629:854  function withdrawAllMoney(address payable _to) public {\r... */\n      pop\n      jump\t// out\n        /* \"StartingStopping.sol\":482:621  function setPaused(bool _paused) public {\r... */\n    tag_25:\n        /* \"StartingStopping.sol\":555:560  owner */\n      and(sub(shl(0xa0, 0x01), 0x01), sload(0x00))\n        /* \"StartingStopping.sol\":541:551  msg.sender */\n      caller\n        /* \"StartingStopping.sol\":541:560  msg.sender == owner */\n      eq\n        /* \"StartingStopping.sol\":533:586  require(msg.sender == owner, \"You are not the owner\") */\n      tag_57\n      jumpi\n      mload(0x40)\n      shl(0xe5, 0x461bcd)\n      dup2\n      mstore\n        /* \"#utility.yul\":1193:1195   */\n      0x20\n        /* \"StartingStopping.sol\":533:586  require(msg.sender == owner, \"You are not the owner\") */\n      0x04\n      dup3\n      add\n        /* \"#utility.yul\":1175:1196   */\n      mstore\n        /* \"#utility.yul\":1232:1234   */\n      0x15\n        /* \"#utility.yul\":1212:1230   */\n      0x24\n      dup3\n      add\n        /* \"#utility.yul\":1205:1235   */\n      mstore\n      shl(0x59, 0x2cb7ba9030b932903737ba103a34329037bbb732b9)\n        /* \"#utility.yul\":1251:1269   */\n      0x44\n      dup3\n      add\n        /* \"#utility.yul\":1244:1295   */\n      mstore\n        /* \"#utility.yul\":1312:1330   */\n      0x64\n      add\n        /* \"StartingStopping.sol\":533:586  require(msg.sender == owner, \"You are not the owner\") */\n      tag_48\n        /* \"#utility.yul\":991:1336   */\n      jump\n        /* \"StartingStopping.sol\":533:586  require(msg.sender == owner, \"You are not the owner\") */\n    tag_57:\n        /* \"StartingStopping.sol\":597:603  paused */\n      0x00\n        /* \"StartingStopping.sol\":597:613  paused = _paused */\n      dup1\n      sload\n      swap2\n      iszero\n      iszero\n      shl(0xa0, 0x01)\n      mul\n      not(shl(0xa0, 0xff))\n      swap1\n      swap3\n      and\n      swap2\n      swap1\n      swap2\n      or\n      swap1\n      sstore\n        /* \"StartingStopping.sol\":482:621  function setPaused(bool _paused) public {\r... */\n      jump\t// out\n        /* \"StartingStopping.sol\":862:1024  function destroySmartContract(address payable _to) public {\r... */\n    tag_29:\n        /* \"StartingStopping.sol\":953:958  owner */\n      and(sub(shl(0xa0, 0x01), 0x01), sload(0x00))\n        /* \"StartingStopping.sol\":939:949  msg.sender */\n      caller\n        /* \"StartingStopping.sol\":939:958  msg.sender == owner */\n      eq\n        /* \"StartingStopping.sol\":931:984  require(msg.sender == owner, \"You are not the owner\") */\n      tag_61\n      jumpi\n      mload(0x40)\n      shl(0xe5, 0x461bcd)\n      dup2\n      mstore\n        /* \"#utility.yul\":1193:1195   */\n      0x20\n        /* \"StartingStopping.sol\":931:984  require(msg.sender == owner, \"You are not the owner\") */\n      0x04\n      dup3\n      add\n        /* \"#utility.yul\":1175:1196   */\n      mstore\n        /* \"#utility.yul\":1232:1234   */\n      0x15\n        /* \"#utility.yul\":1212:1230   */\n      0x24\n      dup3\n      add\n        /* \"#utility.yul\":1205:1235   */\n      mstore\n      shl(0x59, 0x2cb7ba9030b932903737ba103a34329037bbb732b9)\n        /* \"#utility.yul\":1251:1269   */\n      0x44\n      dup3\n      add\n        /* \"#utility.yul\":1244:1295   */\n      mstore\n        /* \"#utility.yul\":1312:1330   */\n      0x64\n      add\n        /* \"StartingStopping.sol\":931:984  require(msg.sender == owner, \"You are not the owner\") */\n      tag_48\n        /* \"#utility.yul\":991:1336   */\n      jump\n        /* \"StartingStopping.sol\":931:984  require(msg.sender == owner, \"You are not the owner\") */\n    tag_61:\n        /* \"StartingStopping.sol\":1008:1011  _to */\n      dup1\n      sub(shl(0xa0, 0x01), 0x01)\n        /* \"StartingStopping.sol\":995:1012  selfdestruct(_to) */\n      and\n      selfdestruct\n        /* \"#utility.yul\":14:308   */\n    tag_14:\n        /* \"#utility.yul\":81:87   */\n      0x00\n        /* \"#utility.yul\":134:136   */\n      0x20\n        /* \"#utility.yul\":122:131   */\n      dup3\n        /* \"#utility.yul\":113:120   */\n      dup5\n        /* \"#utility.yul\":109:132   */\n      sub\n        /* \"#utility.yul\":105:137   */\n      slt\n        /* \"#utility.yul\":102:154   */\n      iszero\n      tag_67\n      jumpi\n        /* \"#utility.yul\":150:151   */\n      0x00\n        /* \"#utility.yul\":147:148   */\n      dup1\n        /* \"#utility.yul\":140:152   */\n      revert\n        /* \"#utility.yul\":102:154   */\n    tag_67:\n        /* \"#utility.yul\":176:199   */\n      dup2\n      calldataload\n      sub(shl(0xa0, 0x01), 0x01)\n        /* \"#utility.yul\":228:259   */\n      dup2\n      and\n        /* \"#utility.yul\":218:260   */\n      dup2\n      eq\n        /* \"#utility.yul\":208:278   */\n      tag_68\n      jumpi\n        /* \"#utility.yul\":274:275   */\n      0x00\n        /* \"#utility.yul\":271:272   */\n      dup1\n        /* \"#utility.yul\":264:276   */\n      revert\n        /* \"#utility.yul\":208:278   */\n    tag_68:\n        /* \"#utility.yul\":297:302   */\n      swap4\n        /* \"#utility.yul\":14:308   */\n      swap3\n      pop\n      pop\n      pop\n      jump\t// out\n        /* \"#utility.yul\":313:586   */\n    tag_24:\n        /* \"#utility.yul\":369:375   */\n      0x00\n        /* \"#utility.yul\":422:424   */\n      0x20\n        /* \"#utility.yul\":410:419   */\n      dup3\n        /* \"#utility.yul\":401:408   */\n      dup5\n        /* \"#utility.yul\":397:420   */\n      sub\n        /* \"#utility.yul\":393:425   */\n      slt\n        /* \"#utility.yul\":390:442   */\n      iszero\n      tag_70\n      jumpi\n        /* \"#utility.yul\":438:439   */\n      0x00\n        /* \"#utility.yul\":435:436   */\n      dup1\n        /* \"#utility.yul\":428:440   */\n      revert\n        /* \"#utility.yul\":390:442   */\n    tag_70:\n        /* \"#utility.yul\":477:486   */\n      dup2\n        /* \"#utility.yul\":464:487   */\n      calldataload\n        /* \"#utility.yul\":530:535   */\n      dup1\n        /* \"#utility.yul\":523:536   */\n      iszero\n        /* \"#utility.yul\":516:537   */\n      iszero\n        /* \"#utility.yul\":509:514   */\n      dup2\n        /* \"#utility.yul\":506:538   */\n      eq\n        /* \"#utility.yul\":496:556   */\n      tag_68\n      jumpi\n        /* \"#utility.yul\":552:553   */\n      0x00\n        /* \"#utility.yul\":549:550   */\n      dup1\n        /* \"#utility.yul\":542:554   */\n      revert\n\n    auxdata: 0xa26469706673582212207b0dc7beae4cb949783e91f757806f51264c4253f62cd7bf991a24062e60eafb64736f6c63430008070033\n}\n",
				"bytecode": {
					"linkReferences": {},
					"object": "608060405234801561001057600080fd5b50600080546001600160a01b031916331790556103ab806100326000396000f3fe60806040526004361061007b5760003560e01c80635c975abb1161004e5780635c975abb146101025780636cc73bcc146101335780638da5cb5b1461015a578063cbedbf5a146100a057600080fd5b80630adec93c1461008057806312065fe0146100a257806316c38b3c146100c257806339df43ff146100e2575b600080fd5b34801561008c57600080fd5b506100a061009b366004610323565b61017a565b005b3480156100ae57600080fd5b506040514781526020015b60405180910390f35b3480156100ce57600080fd5b506100a06100dd366004610353565b610255565b3480156100ee57600080fd5b506100a06100fd366004610323565b6102c5565b34801561010e57600080fd5b5060005461012390600160a01b900460ff1681565b60405190151581526020016100b9565b34801561013f57600080fd5b50335b6040516001600160a01b0390911681526020016100b9565b34801561016657600080fd5b50600054610142906001600160a01b031681565b6000546001600160a01b031633146101d05760405162461bcd60e51b81526020600482015260146024820152732cb7ba9031b0b73737ba103bb4ba34323930bb9760611b60448201526064015b60405180910390fd5b600054600160a01b900460ff161561021c5760405162461bcd60e51b815260206004820152600f60248201526e10dbdb9d1c9858dd0814185d5cd959608a1b60448201526064016101c7565b6040516001600160a01b038216904780156108fc02916000818181858888f19350505050158015610251573d6000803e3d6000fd5b5050565b6000546001600160a01b031633146102a75760405162461bcd60e51b81526020600482015260156024820152742cb7ba9030b932903737ba103a34329037bbb732b960591b60448201526064016101c7565b60008054911515600160a01b0260ff60a01b19909216919091179055565b6000546001600160a01b031633146103175760405162461bcd60e51b81526020600482015260156024820152742cb7ba9030b932903737ba103a34329037bbb732b960591b60448201526064016101c7565b806001600160a01b0316ff5b60006020828403121561033557600080fd5b81356001600160a01b038116811461034c57600080fd5b9392505050565b60006020828403121561036557600080fd5b8135801515811461034c57600080fdfea26469706673582212207b0dc7beae4cb949783e91f757806f51264c4253f62cd7bf991a24062e60eafb64736f6c63430008070033",
					"opcodes": "PUSH1 0x80 PUSH1 0x40 MSTORE CALLVALUE DUP1 ISZERO PUSH2 0x10 JUMPI PUSH1 0x0 DUP1 REVERT JUMPDEST POP PUSH1 0x0 DUP1 SLOAD PUSH1 0x1 PUSH1 0x1 PUSH1 0xA0 SHL SUB NOT AND CALLER OR SWAP1 SSTORE PUSH2 0x3AB DUP1 PUSH2 0x32 PUSH1 0x0 CODECOPY PUSH1 0x0 RETURN INVALID PUSH1 0x80 PUSH1 0x40 MSTORE PUSH1 0x4 CALLDATASIZE LT PUSH2 0x7B JUMPI PUSH1 0x0 CALLDATALOAD PUSH1 0xE0 SHR DUP1 PUSH4 0x5C975ABB GT PUSH2 0x4E JUMPI DUP1 PUSH4 0x5C975ABB EQ PUSH2 0x102 JUMPI DUP1 PUSH4 0x6CC73BCC EQ PUSH2 0x133 JUMPI DUP1 PUSH4 0x8DA5CB5B EQ PUSH2 0x15A JUMPI DUP1 PUSH4 0xCBEDBF5A EQ PUSH2 0xA0 JUMPI PUSH1 0x0 DUP1 REVERT JUMPDEST DUP1 PUSH4 0xADEC93C EQ PUSH2 0x80 JUMPI DUP1 PUSH4 0x12065FE0 EQ PUSH2 0xA2 JUMPI DUP1 PUSH4 0x16C38B3C EQ PUSH2 0xC2 JUMPI DUP1 PUSH4 0x39DF43FF EQ PUSH2 0xE2 JUMPI JUMPDEST PUSH1 0x0 DUP1 REVERT JUMPDEST CALLVALUE DUP1 ISZERO PUSH2 0x8C JUMPI PUSH1 0x0 DUP1 REVERT JUMPDEST POP PUSH2 0xA0 PUSH2 0x9B CALLDATASIZE PUSH1 0x4 PUSH2 0x323 JUMP JUMPDEST PUSH2 0x17A JUMP JUMPDEST STOP JUMPDEST CALLVALUE DUP1 ISZERO PUSH2 0xAE JUMPI PUSH1 0x0 DUP1 REVERT JUMPDEST POP PUSH1 0x40 MLOAD SELFBALANCE DUP2 MSTORE PUSH1 0x20 ADD JUMPDEST PUSH1 0x40 MLOAD DUP1 SWAP2 SUB SWAP1 RETURN JUMPDEST CALLVALUE DUP1 ISZERO PUSH2 0xCE JUMPI PUSH1 0x0 DUP1 REVERT JUMPDEST POP PUSH2 0xA0 PUSH2 0xDD CALLDATASIZE PUSH1 0x4 PUSH2 0x353 JUMP JUMPDEST PUSH2 0x255 JUMP JUMPDEST CALLVALUE DUP1 ISZERO PUSH2 0xEE JUMPI PUSH1 0x0 DUP1 REVERT JUMPDEST POP PUSH2 0xA0 PUSH2 0xFD CALLDATASIZE PUSH1 0x4 PUSH2 0x323 JUMP JUMPDEST PUSH2 0x2C5 JUMP JUMPDEST CALLVALUE DUP1 ISZERO PUSH2 0x10E JUMPI PUSH1 0x0 DUP1 REVERT JUMPDEST POP PUSH1 0x0 SLOAD PUSH2 0x123 SWAP1 PUSH1 0x1 PUSH1 0xA0 SHL SWAP1 DIV PUSH1 0xFF AND DUP2 JUMP JUMPDEST PUSH1 0x40 MLOAD SWAP1 ISZERO ISZERO DUP2 MSTORE PUSH1 0x20 ADD PUSH2 0xB9 JUMP JUMPDEST CALLVALUE DUP1 ISZERO PUSH2 0x13F JUMPI PUSH1 0x0 DUP1 REVERT JUMPDEST POP CALLER JUMPDEST PUSH1 0x40 MLOAD PUSH1 0x1 PUSH1 0x1 PUSH1 0xA0 SHL SUB SWAP1 SWAP2 AND DUP2 MSTORE PUSH1 0x20 ADD PUSH2 0xB9 JUMP JUMPDEST CALLVALUE DUP1 ISZERO PUSH2 0x166 JUMPI PUSH1 0x0 DUP1 REVERT JUMPDEST POP PUSH1 0x0 SLOAD PUSH2 0x142 SWAP1 PUSH1 0x1 PUSH1 0x1 PUSH1 0xA0 SHL SUB AND DUP2 JUMP JUMPDEST PUSH1 0x0 SLOAD PUSH1 0x1 PUSH1 0x1 PUSH1 0xA0 SHL SUB AND CALLER EQ PUSH2 0x1D0 JUMPI PUSH1 0x40 MLOAD PUSH3 0x461BCD PUSH1 0xE5 SHL DUP2 MSTORE PUSH1 0x20 PUSH1 0x4 DUP3 ADD MSTORE PUSH1 0x14 PUSH1 0x24 DUP3 ADD MSTORE PUSH20 0x2CB7BA9031B0B73737BA103BB4BA34323930BB97 PUSH1 0x61 SHL PUSH1 0x44 DUP3 ADD MSTORE PUSH1 0x64 ADD JUMPDEST PUSH1 0x40 MLOAD DUP1 SWAP2 SUB SWAP1 REVERT JUMPDEST PUSH1 0x0 SLOAD PUSH1 0x1 PUSH1 0xA0 SHL SWAP1 DIV PUSH1 0xFF AND ISZERO PUSH2 0x21C JUMPI PUSH1 0x40 MLOAD PUSH3 0x461BCD PUSH1 0xE5 SHL DUP2 MSTORE PUSH1 0x20 PUSH1 0x4 DUP3 ADD MSTORE PUSH1 0xF PUSH1 0x24 DUP3 ADD MSTORE PUSH15 0x10DBDB9D1C9858DD0814185D5CD959 PUSH1 0x8A SHL PUSH1 0x44 DUP3 ADD MSTORE PUSH1 0x64 ADD PUSH2 0x1C7 JUMP JUMPDEST PUSH1 0x40 MLOAD PUSH1 0x1 PUSH1 0x1 PUSH1 0xA0 SHL SUB DUP3 AND SWAP1 SELFBALANCE DUP1 ISZERO PUSH2 0x8FC MUL SWAP2 PUSH1 0x0 DUP2 DUP2 DUP2 DUP6 DUP9 DUP9 CALL SWAP4 POP POP POP POP ISZERO DUP1 ISZERO PUSH2 0x251 JUMPI RETURNDATASIZE PUSH1 0x0 DUP1 RETURNDATACOPY RETURNDATASIZE PUSH1 0x0 REVERT JUMPDEST POP POP JUMP JUMPDEST PUSH1 0x0 SLOAD PUSH1 0x1 PUSH1 0x1 PUSH1 0xA0 SHL SUB AND CALLER EQ PUSH2 0x2A7 JUMPI PUSH1 0x40 MLOAD PUSH3 0x461BCD PUSH1 0xE5 SHL DUP2 MSTORE PUSH1 0x20 PUSH1 0x4 DUP3 ADD MSTORE PUSH1 0x15 PUSH1 0x24 DUP3 ADD MSTORE PUSH21 0x2CB7BA9030B932903737BA103A34329037BBB732B9 PUSH1 0x59 SHL PUSH1 0x44 DUP3 ADD MSTORE PUSH1 0x64 ADD PUSH2 0x1C7 JUMP JUMPDEST PUSH1 0x0 DUP1 SLOAD SWAP2 ISZERO ISZERO PUSH1 0x1 PUSH1 0xA0 SHL MUL PUSH1 0xFF PUSH1 0xA0 SHL NOT SWAP1 SWAP3 AND SWAP2 SWAP1 SWAP2 OR SWAP1 SSTORE JUMP JUMPDEST PUSH1 0x0 SLOAD PUSH1 0x1 PUSH1 0x1 PUSH1 0xA0 SHL SUB AND CALLER EQ PUSH2 0x317 JUMPI PUSH1 0x40 MLOAD PUSH3 0x461BCD PUSH1 0xE5 SHL DUP2 MSTORE PUSH1 0x20 PUSH1 0x4 DUP3 ADD MSTORE PUSH1 0x15 PUSH1 0x24 DUP3 ADD MSTORE PUSH21 0x2CB7BA9030B932903737BA103A34329037BBB732B9 PUSH1 0x59 SHL PUSH1 0x44 DUP3 ADD MSTORE PUSH1 0x64 ADD PUSH2 0x1C7 JUMP JUMPDEST DUP1 PUSH1 0x1 PUSH1 0x1 PUSH1 0xA0 SHL SUB AND SELFDESTRUCT JUMPDEST PUSH1 0x0 PUSH1 0x20 DUP3 DUP5 SUB SLT ISZERO PUSH2 0x335 JUMPI PUSH1 0x0 DUP1 REVERT JUMPDEST DUP2 CALLDATALOAD PUSH1 0x1 PUSH1 0x1 PUSH1 0xA0 SHL SUB DUP2 AND DUP2 EQ PUSH2 0x34C JUMPI PUSH1 0x0 DUP1 REVERT JUMPDEST SWAP4 SWAP3 POP POP POP JUMP JUMPDEST PUSH1 0x0 PUSH1 0x20 DUP3 DUP5 SUB SLT ISZERO PUSH2 0x365 JUMPI PUSH1 0x0 DUP1 REVERT JUMPDEST DUP2 CALLDATALOAD DUP1 ISZERO ISZERO DUP2 EQ PUSH2 0x34C JUMPI PUSH1 0x0 DUP1 REVERT INVALID LOG2 PUSH5 0x6970667358 0x22 SLT KECCAK256 PUSH28 0xDC7BEAE4CB949783E91F757806F51264C4253F62CD7BF991A24062E PUSH1 0xEA 0xFB PUSH5 0x736F6C6343 STOP ADDMOD SMOD STOP CALLER "
				},
				"gasEstimates": {
					"creation": {
						"codeDepositCost": "187800",
						"executionCost": "24467",
						"totalCost": "212267"
					},
					"external": {
						"destroySmartContract(address)": "30086",
						"getAddressSender()": "223",
						"getBalance()": "191",
						"owner()": "2381",
						"paused()": "2327",
						"sendMoney()": "162",
						"setPaused(bool)": "26705",
						"withdrawAllMoney(address)": "infinite"
					}
				},
				"methodIdentifiers": {
					"destroySmartContract(address)": "39df43ff",
					"getAddressSender()": "6cc73bcc",
					"getBalance()": "12065fe0",
					"owner()": "8da5cb5b",
					"paused()": "5c975abb",
					"sendMoney()": "cbedbf5a",
					"setPaused(bool)": "16c38b3c",
					"withdrawAllMoney(address)": "0adec93c"
				}
			},
			"userdoc": {
				"kind": "user",
				"methods": {},
				"version": 1
			}
		}
	}
}