{
	"MappingStructExample.sol": {
		"MappingsStructExample": {
			"abi": [
				{
					"inputs": [
						{
							"internalType": "address",
							"name": "",
							"type": "address"
						}
					],
					"name": "balanceReceived",
					"outputs": [
						{
							"internalType": "uint256",
							"name": "totalBalance",
							"type": "uint256"
						},
						{
							"internalType": "uint256",
							"name": "numPayments",
							"type": "uint256"
						}
					],
					"stateMutability": "view",
					"type": "function"
				},
				{
					"inputs": [],
					"name": "getBalance",
					"outputs": [
						{
							"internalType": "uint256",
							"name": "",
							"type": "uint256"
						}
					],
					"stateMutability": "view",
					"type": "function"
				},
				{
					"inputs": [],
					"name": "sendMoney",
					"outputs": [],
					"stateMutability": "payable",
					"type": "function"
				},
				{
					"inputs": [
						{
							"internalType": "address payable",
							"name": "_to",
							"type": "address"
						}
					],
					"name": "withdrawAllMoney",
					"outputs": [],
					"stateMutability": "nonpayable",
					"type": "function"
				},
				{
					"inputs": [
						{
							"internalType": "address payable",
							"name": "_to",
							"type": "address"
						},
						{
							"internalType": "uint256",
							"name": "_amount",
							"type": "uint256"
						}
					],
					"name": "withdrawMoney",
					"outputs": [],
					"stateMutability": "nonpayable",
					"type": "function"
				}
			],
			"devdoc": {
				"kind": "dev",
				"methods": {},
				"version": 1
			},
			"evm": {
				"assembly": "    /* \"MappingStructExample.sol\":59:1108  contract MappingsStructExample {\r... */\n  mstore(0x40, 0x80)\n  callvalue\n  dup1\n  iszero\n  tag_1\n  jumpi\n  0x00\n  dup1\n  revert\ntag_1:\n  pop\n  dataSize(sub_0)\n  dup1\n  dataOffset(sub_0)\n  0x00\n  codecopy\n  0x00\n  return\nstop\n\nsub_0: assembly {\n        /* \"MappingStructExample.sol\":59:1108  contract MappingsStructExample {\r... */\n      mstore(0x40, 0x80)\n      jumpi(tag_1, lt(calldatasize, 0x04))\n      shr(0xe0, calldataload(0x00))\n      dup1\n      0x0adec93c\n      eq\n      tag_2\n      jumpi\n      dup1\n      0x12065fe0\n      eq\n      tag_3\n      jumpi\n      dup1\n      0xcbedbf5a\n      eq\n      tag_4\n      jumpi\n      dup1\n      0xd18a42e1\n      eq\n      tag_5\n      jumpi\n      dup1\n      0xf274c897\n      eq\n      tag_6\n      jumpi\n    tag_1:\n      0x00\n      dup1\n      revert\n        /* \"MappingStructExample.sol\":906:1105  function withdrawAllMoney(address payable _to) public {\r... */\n    tag_2:\n      callvalue\n      dup1\n      iszero\n      tag_7\n      jumpi\n      0x00\n      dup1\n      revert\n    tag_7:\n      pop\n      tag_8\n      tag_9\n      calldatasize\n      0x04\n      tag_22\n      jump\t// in\n    tag_9:\n      tag_11\n      jump\t// in\n    tag_8:\n      stop\n        /* \"MappingStructExample.sol\":294:377  function getBalance() public view returns(uint) {\r... */\n    tag_3:\n      callvalue\n      dup1\n      iszero\n      tag_12\n      jumpi\n      0x00\n      dup1\n      revert\n    tag_12:\n      pop\n      mload(0x40)\n        /* \"MappingStructExample.sol\":352:373  address(this).balance */\n      selfbalance\n        /* \"#utility.yul\":1345:1370   */\n      dup2\n      mstore\n        /* \"#utility.yul\":1333:1335   */\n      0x20\n        /* \"#utility.yul\":1318:1336   */\n      add\n        /* \"MappingStructExample.sol\":294:377  function getBalance() public view returns(uint) {\r... */\n    tag_15:\n      mload(0x40)\n      dup1\n      swap2\n      sub\n      swap1\n      return\n        /* \"MappingStructExample.sol\":379:672  function sendMoney() public payable {\r... */\n    tag_4:\n      tag_8\n      tag_18\n      jump\t// in\n        /* \"MappingStructExample.sol\":241:291  mapping(address => Balance) public balanceReceived */\n    tag_5:\n      callvalue\n      dup1\n      iszero\n      tag_19\n      jumpi\n      0x00\n      dup1\n      revert\n    tag_19:\n      pop\n      tag_20\n      tag_21\n      calldatasize\n      0x04\n      tag_22\n      jump\t// in\n    tag_21:\n      0x00\n      0x20\n      dup2\n      swap1\n      mstore\n      swap1\n      dup2\n      mstore\n      0x40\n      swap1\n      keccak256\n      dup1\n      sload\n      0x01\n      swap1\n      swap2\n      add\n      sload\n      dup3\n      jump\n    tag_20:\n      0x40\n      dup1\n      mload\n        /* \"#utility.yul\":1555:1580   */\n      swap3\n      dup4\n      mstore\n        /* \"#utility.yul\":1611:1613   */\n      0x20\n        /* \"#utility.yul\":1596:1614   */\n      dup4\n      add\n        /* \"#utility.yul\":1589:1623   */\n      swap2\n      swap1\n      swap2\n      mstore\n        /* \"#utility.yul\":1528:1546   */\n      add\n        /* \"MappingStructExample.sol\":241:291  mapping(address => Balance) public balanceReceived */\n      tag_15\n        /* \"#utility.yul\":1381:1629   */\n      jump\n        /* \"MappingStructExample.sol\":674:904  function withdrawMoney(address payable _to, uint _amount) public {\r... */\n    tag_6:\n      callvalue\n      dup1\n      iszero\n      tag_26\n      jumpi\n      0x00\n      dup1\n      revert\n    tag_26:\n      pop\n      tag_8\n      tag_28\n      calldatasize\n      0x04\n      tag_29\n      jump\t// in\n    tag_28:\n      tag_30\n      jump\t// in\n        /* \"MappingStructExample.sol\":906:1105  function withdrawAllMoney(address payable _to) public {\r... */\n    tag_11:\n        /* \"MappingStructExample.sol\":1000:1010  msg.sender */\n      caller\n        /* \"MappingStructExample.sol\":963:981  uint balanceToSend */\n      0x00\n        /* \"MappingStructExample.sol\":984:1011  balanceReceived[msg.sender] */\n      swap1\n      dup2\n      mstore\n      0x20\n      dup2\n      swap1\n      mstore\n      0x40\n      dup1\n      dup3\n      keccak256\n        /* \"MappingStructExample.sol\":984:1024  balanceReceived[msg.sender].totalBalance */\n      dup1\n      sload\n        /* \"MappingStructExample.sol\":1027:1071  balanceReceived[msg.sender].totalBalance = 0 */\n      swap1\n      dup4\n      swap1\n      sstore\n        /* \"MappingStructExample.sol\":1074:1101  _to.transfer(balanceToSend) */\n      swap1\n      mload\n        /* \"MappingStructExample.sol\":984:1024  balanceReceived[msg.sender].totalBalance */\n      swap1\n      swap2\n      sub(shl(0xa0, 0x01), 0x01)\n        /* \"MappingStructExample.sol\":1074:1086  _to.transfer */\n      dup5\n      and\n      swap2\n        /* \"MappingStructExample.sol\":1074:1101  _to.transfer(balanceToSend) */\n      dup4\n      iszero\n      0x08fc\n      mul\n      swap2\n        /* \"MappingStructExample.sol\":984:1024  balanceReceived[msg.sender].totalBalance */\n      dup5\n      swap2\n        /* \"MappingStructExample.sol\":1074:1101  _to.transfer(balanceToSend) */\n      swap1\n      dup2\n        /* \"MappingStructExample.sol\":963:981  uint balanceToSend */\n      dup2\n        /* \"MappingStructExample.sol\":1074:1101  _to.transfer(balanceToSend) */\n      dup2\n        /* \"MappingStructExample.sol\":984:1024  balanceReceived[msg.sender].totalBalance */\n      dup6\n        /* \"MappingStructExample.sol\":1074:1086  _to.transfer */\n      dup9\n        /* \"MappingStructExample.sol\":1074:1101  _to.transfer(balanceToSend) */\n      dup9\n      call\n      swap4\n      pop\n      pop\n      pop\n      pop\n      iszero\n      dup1\n      iszero\n      tag_33\n      jumpi\n      returndatasize\n      0x00\n      dup1\n      returndatacopy\n      revert(0x00, returndatasize)\n    tag_33:\n      pop\n        /* \"MappingStructExample.sol\":960:1105  {\r... */\n      pop\n        /* \"MappingStructExample.sol\":906:1105  function withdrawAllMoney(address payable _to) public {\r... */\n      pop\n      jump\t// out\n        /* \"MappingStructExample.sol\":379:672  function sendMoney() public payable {\r... */\n    tag_18:\n        /* \"MappingStructExample.sol\":434:444  msg.sender */\n      caller\n        /* \"MappingStructExample.sol\":418:433  balanceReceived */\n      0x00\n        /* \"MappingStructExample.sol\":418:445  balanceReceived[msg.sender] */\n      swap1\n      dup2\n      mstore\n      0x20\n      dup2\n      swap1\n      mstore\n      0x40\n      dup2\n      keccak256\n        /* \"MappingStructExample.sol\":418:471  balanceReceived[msg.sender].totalBalance += msg.value */\n      dup1\n      sload\n        /* \"MappingStructExample.sol\":462:471  msg.value */\n      callvalue\n      swap3\n        /* \"MappingStructExample.sol\":418:433  balanceReceived */\n      swap1\n        /* \"MappingStructExample.sol\":418:471  balanceReceived[msg.sender].totalBalance += msg.value */\n      tag_36\n      swap1\n        /* \"MappingStructExample.sol\":462:471  msg.value */\n      dup5\n      swap1\n        /* \"MappingStructExample.sol\":418:471  balanceReceived[msg.sender].totalBalance += msg.value */\n      tag_37\n      jump\t// in\n    tag_36:\n      swap1\n      swap2\n      sstore\n      pop\n      pop\n        /* \"MappingStructExample.sol\":499:534  Payment(msg.value, block.timestamp) */\n      0x40\n      dup1\n      mload\n      dup1\n      dup3\n      add\n      dup3\n      mstore\n        /* \"MappingStructExample.sol\":507:516  msg.value */\n      callvalue\n        /* \"MappingStructExample.sol\":499:534  Payment(msg.value, block.timestamp) */\n      dup2\n      mstore\n        /* \"MappingStructExample.sol\":518:533  block.timestamp */\n      timestamp\n        /* \"MappingStructExample.sol\":499:534  Payment(msg.value, block.timestamp) */\n      0x20\n      dup1\n      dup4\n      add\n      swap2\n      dup3\n      mstore\n        /* \"MappingStructExample.sol\":553:563  msg.sender */\n      caller\n        /* \"MappingStructExample.sol\":474:496  Payment memory payment */\n      0x00\n        /* \"MappingStructExample.sol\":537:564  balanceReceived[msg.sender] */\n      dup2\n      dup2\n      mstore\n      dup1\n      dup4\n      mstore\n      dup6\n      dup2\n      keccak256\n        /* \"MappingStructExample.sol\":574:613  balanceReceived[msg.sender].numPayments */\n      0x01\n      dup1\n      dup3\n      add\n      dup1\n      sload\n        /* \"MappingStructExample.sol\":537:614  balanceReceived[msg.sender].payments[balanceReceived[msg.sender].numPayments] */\n      dup5\n      mstore\n        /* \"MappingStructExample.sol\":537:573  balanceReceived[msg.sender].payments */\n      0x02\n      swap1\n      swap3\n      add\n        /* \"MappingStructExample.sol\":537:614  balanceReceived[msg.sender].payments[balanceReceived[msg.sender].numPayments] */\n      dup6\n      mstore\n      swap7\n      dup3\n      keccak256\n        /* \"MappingStructExample.sol\":537:624  balanceReceived[msg.sender].payments[balanceReceived[msg.sender].numPayments] = payment */\n      dup7\n      mload\n      dup2\n      sstore\n      swap5\n      mload\n      swap5\n      swap1\n      swap7\n      add\n      swap4\n      swap1\n      swap4\n      sstore\n        /* \"MappingStructExample.sol\":627:654  balanceReceived[msg.sender] */\n      dup3\n      mstore\n      dup2\n      swap1\n      mstore\n        /* \"MappingStructExample.sol\":627:668  balanceReceived[msg.sender].numPayments++ */\n      dup3\n      sload\n        /* \"MappingStructExample.sol\":499:534  Payment(msg.value, block.timestamp) */\n      swap2\n      swap3\n        /* \"MappingStructExample.sol\":574:613  balanceReceived[msg.sender].numPayments */\n      swap1\n        /* \"MappingStructExample.sol\":627:668  balanceReceived[msg.sender].numPayments++ */\n      tag_38\n      dup4\n      tag_39\n      jump\t// in\n    tag_38:\n      swap2\n      swap1\n      pop\n      sstore\n      pop\n        /* \"MappingStructExample.sol\":415:672  {\r... */\n      pop\n        /* \"MappingStructExample.sol\":379:672  function sendMoney() public payable {\r... */\n      jump\t// out\n        /* \"MappingStructExample.sol\":674:904  function withdrawMoney(address payable _to, uint _amount) public {\r... */\n    tag_30:\n        /* \"MappingStructExample.sol\":777:787  msg.sender */\n      caller\n        /* \"MappingStructExample.sol\":761:776  balanceReceived */\n      0x00\n        /* \"MappingStructExample.sol\":761:788  balanceReceived[msg.sender] */\n      swap1\n      dup2\n      mstore\n      0x20\n      dup2\n      swap1\n      mstore\n      0x40\n      swap1\n      keccak256\n        /* \"MappingStructExample.sol\":761:801  balanceReceived[msg.sender].totalBalance */\n      sload\n        /* \"MappingStructExample.sol\":750:801  _amount <= balanceReceived[msg.sender].totalBalance */\n      dup2\n      gt\n      iszero\n        /* \"MappingStructExample.sol\":742:822  require(_amount <= balanceReceived[msg.sender].totalBalance, \"not enough funds\") */\n      tag_41\n      jumpi\n      mload(0x40)\n      shl(0xe5, 0x461bcd)\n      dup2\n      mstore\n        /* \"#utility.yul\":1056:1058   */\n      0x20\n        /* \"MappingStructExample.sol\":742:822  require(_amount <= balanceReceived[msg.sender].totalBalance, \"not enough funds\") */\n      0x04\n      dup3\n      add\n        /* \"#utility.yul\":1038:1059   */\n      mstore\n        /* \"#utility.yul\":1095:1097   */\n      0x10\n        /* \"#utility.yul\":1075:1093   */\n      0x24\n      dup3\n      add\n        /* \"#utility.yul\":1068:1098   */\n      mstore\n      shl(0x80, 0x6e6f7420656e6f7567682066756e6473)\n        /* \"#utility.yul\":1114:1132   */\n      0x44\n      dup3\n      add\n        /* \"#utility.yul\":1107:1153   */\n      mstore\n        /* \"#utility.yul\":1170:1188   */\n      0x64\n      add\n        /* \"MappingStructExample.sol\":742:822  require(_amount <= balanceReceived[msg.sender].totalBalance, \"not enough funds\") */\n      mload(0x40)\n      dup1\n      swap2\n      sub\n      swap1\n      revert\n    tag_41:\n        /* \"MappingStructExample.sol\":841:851  msg.sender */\n      caller\n        /* \"MappingStructExample.sol\":825:840  balanceReceived */\n      0x00\n        /* \"MappingStructExample.sol\":825:852  balanceReceived[msg.sender] */\n      swap1\n      dup2\n      mstore\n      0x20\n      dup2\n      swap1\n      mstore\n      0x40\n      dup2\n      keccak256\n        /* \"MappingStructExample.sol\":825:876  balanceReceived[msg.sender].totalBalance -= _amount */\n      dup1\n      sload\n        /* \"MappingStructExample.sol\":869:876  _amount */\n      dup4\n      swap3\n        /* \"MappingStructExample.sol\":825:840  balanceReceived */\n      swap1\n        /* \"MappingStructExample.sol\":825:876  balanceReceived[msg.sender].totalBalance -= _amount */\n      tag_44\n      swap1\n        /* \"MappingStructExample.sol\":869:876  _amount */\n      dup5\n      swap1\n        /* \"MappingStructExample.sol\":825:876  balanceReceived[msg.sender].totalBalance -= _amount */\n      tag_45\n      jump\t// in\n    tag_44:\n      swap1\n      swap2\n      sstore\n      pop\n      pop\n        /* \"MappingStructExample.sol\":879:900  _to.transfer(_amount) */\n      mload(0x40)\n      sub(shl(0xa0, 0x01), 0x01)\n        /* \"MappingStructExample.sol\":879:891  _to.transfer */\n      dup4\n      and\n      swap1\n        /* \"MappingStructExample.sol\":879:900  _to.transfer(_amount) */\n      dup3\n      iszero\n      0x08fc\n      mul\n      swap1\n        /* \"MappingStructExample.sol\":892:899  _amount */\n      dup4\n      swap1\n        /* \"MappingStructExample.sol\":879:900  _to.transfer(_amount) */\n      0x00\n      dup2\n      dup2\n      dup2\n        /* \"MappingStructExample.sol\":892:899  _amount */\n      dup6\n        /* \"MappingStructExample.sol\":879:891  _to.transfer */\n      dup9\n        /* \"MappingStructExample.sol\":879:900  _to.transfer(_amount) */\n      dup9\n      call\n      swap4\n      pop\n      pop\n      pop\n      pop\n      iszero\n      dup1\n      iszero\n      tag_33\n      jumpi\n      returndatasize\n      0x00\n      dup1\n      returndatacopy\n      revert(0x00, returndatasize)\n        /* \"#utility.yul\":14:261   */\n    tag_22:\n        /* \"#utility.yul\":73:79   */\n      0x00\n        /* \"#utility.yul\":126:128   */\n      0x20\n        /* \"#utility.yul\":114:123   */\n      dup3\n        /* \"#utility.yul\":105:112   */\n      dup5\n        /* \"#utility.yul\":101:124   */\n      sub\n        /* \"#utility.yul\":97:129   */\n      slt\n        /* \"#utility.yul\":94:146   */\n      iszero\n      tag_50\n      jumpi\n        /* \"#utility.yul\":142:143   */\n      0x00\n        /* \"#utility.yul\":139:140   */\n      dup1\n        /* \"#utility.yul\":132:144   */\n      revert\n        /* \"#utility.yul\":94:146   */\n    tag_50:\n        /* \"#utility.yul\":181:190   */\n      dup2\n        /* \"#utility.yul\":168:191   */\n      calldataload\n        /* \"#utility.yul\":200:231   */\n      tag_51\n        /* \"#utility.yul\":225:230   */\n      dup2\n        /* \"#utility.yul\":200:231   */\n      tag_52\n      jump\t// in\n    tag_51:\n        /* \"#utility.yul\":250:255   */\n      swap4\n        /* \"#utility.yul\":14:261   */\n      swap3\n      pop\n      pop\n      pop\n      jump\t// out\n        /* \"#utility.yul\":526:849   */\n    tag_29:\n        /* \"#utility.yul\":602:608   */\n      0x00\n        /* \"#utility.yul\":610:616   */\n      dup1\n        /* \"#utility.yul\":663:665   */\n      0x40\n        /* \"#utility.yul\":651:660   */\n      dup4\n        /* \"#utility.yul\":642:649   */\n      dup6\n        /* \"#utility.yul\":638:661   */\n      sub\n        /* \"#utility.yul\":634:666   */\n      slt\n        /* \"#utility.yul\":631:683   */\n      iszero\n      tag_57\n      jumpi\n        /* \"#utility.yul\":679:680   */\n      0x00\n        /* \"#utility.yul\":676:677   */\n      dup1\n        /* \"#utility.yul\":669:681   */\n      revert\n        /* \"#utility.yul\":631:683   */\n    tag_57:\n        /* \"#utility.yul\":718:727   */\n      dup3\n        /* \"#utility.yul\":705:728   */\n      calldataload\n        /* \"#utility.yul\":737:768   */\n      tag_58\n        /* \"#utility.yul\":762:767   */\n      dup2\n        /* \"#utility.yul\":737:768   */\n      tag_52\n      jump\t// in\n    tag_58:\n        /* \"#utility.yul\":787:792   */\n      swap5\n        /* \"#utility.yul\":839:841   */\n      0x20\n        /* \"#utility.yul\":824:842   */\n      swap4\n      swap1\n      swap4\n      add\n        /* \"#utility.yul\":811:843   */\n      calldataload\n      swap4\n      pop\n      pop\n      pop\n        /* \"#utility.yul\":526:849   */\n      jump\t// out\n        /* \"#utility.yul\":1634:1762   */\n    tag_37:\n        /* \"#utility.yul\":1674:1677   */\n      0x00\n        /* \"#utility.yul\":1705:1706   */\n      dup3\n        /* \"#utility.yul\":1701:1707   */\n      not\n        /* \"#utility.yul\":1698:1699   */\n      dup3\n        /* \"#utility.yul\":1695:1708   */\n      gt\n        /* \"#utility.yul\":1692:1731   */\n      iszero\n      tag_64\n      jumpi\n        /* \"#utility.yul\":1711:1729   */\n      tag_64\n      tag_65\n      jump\t// in\n    tag_64:\n      pop\n        /* \"#utility.yul\":1747:1756   */\n      add\n      swap1\n        /* \"#utility.yul\":1634:1762   */\n      jump\t// out\n        /* \"#utility.yul\":1767:1892   */\n    tag_45:\n        /* \"#utility.yul\":1807:1811   */\n      0x00\n        /* \"#utility.yul\":1835:1836   */\n      dup3\n        /* \"#utility.yul\":1832:1833   */\n      dup3\n        /* \"#utility.yul\":1829:1837   */\n      lt\n        /* \"#utility.yul\":1826:1860   */\n      iszero\n      tag_68\n      jumpi\n        /* \"#utility.yul\":1840:1858   */\n      tag_68\n      tag_65\n      jump\t// in\n    tag_68:\n      pop\n        /* \"#utility.yul\":1877:1886   */\n      sub\n      swap1\n        /* \"#utility.yul\":1767:1892   */\n      jump\t// out\n        /* \"#utility.yul\":1897:2032   */\n    tag_39:\n        /* \"#utility.yul\":1936:1939   */\n      0x00\n      not(0x00)\n        /* \"#utility.yul\":1957:1974   */\n      dup3\n      eq\n        /* \"#utility.yul\":1954:1997   */\n      iszero\n      tag_71\n      jumpi\n        /* \"#utility.yul\":1977:1995   */\n      tag_71\n      tag_65\n      jump\t// in\n    tag_71:\n      pop\n        /* \"#utility.yul\":2024:2025   */\n      0x01\n        /* \"#utility.yul\":2013:2026   */\n      add\n      swap1\n        /* \"#utility.yul\":1897:2032   */\n      jump\t// out\n        /* \"#utility.yul\":2037:2164   */\n    tag_65:\n        /* \"#utility.yul\":2098:2108   */\n      0x4e487b71\n        /* \"#utility.yul\":2093:2096   */\n      0xe0\n        /* \"#utility.yul\":2089:2109   */\n      shl\n        /* \"#utility.yul\":2086:2087   */\n      0x00\n        /* \"#utility.yul\":2079:2110   */\n      mstore\n        /* \"#utility.yul\":2129:2133   */\n      0x11\n        /* \"#utility.yul\":2126:2127   */\n      0x04\n        /* \"#utility.yul\":2119:2134   */\n      mstore\n        /* \"#utility.yul\":2153:2157   */\n      0x24\n        /* \"#utility.yul\":2150:2151   */\n      0x00\n        /* \"#utility.yul\":2143:2158   */\n      revert\n        /* \"#utility.yul\":2169:2300   */\n    tag_52:\n      sub(shl(0xa0, 0x01), 0x01)\n        /* \"#utility.yul\":2244:2275   */\n      dup2\n      and\n        /* \"#utility.yul\":2234:2276   */\n      dup2\n      eq\n        /* \"#utility.yul\":2224:2294   */\n      tag_74\n      jumpi\n        /* \"#utility.yul\":2290:2291   */\n      0x00\n        /* \"#utility.yul\":2287:2288   */\n      dup1\n        /* \"#utility.yul\":2280:2292   */\n      revert\n        /* \"#utility.yul\":2224:2294   */\n    tag_74:\n        /* \"#utility.yul\":2169:2300   */\n      pop\n      jump\t// out\n\n    auxdata: 0xa2646970667358221220e26bf9d482f818de26f33ed0136fff4ec019872ff7e1b7e862094d685a2559a764736f6c63430008070033\n}\n",
				"bytecode": {
					"linkReferences": {},
					"object": "608060405234801561001057600080fd5b50610382806100206000396000f3fe60806040526004361061004a5760003560e01c80630adec93c1461004f57806312065fe014610071578063cbedbf5a14610091578063d18a42e114610099578063f274c897146100e2575b600080fd5b34801561005b57600080fd5b5061006f61006a366004610284565b610102565b005b34801561007d57600080fd5b506040514781526020015b60405180910390f35b61006f610153565b3480156100a557600080fd5b506100cd6100b4366004610284565b6000602081905290815260409020805460019091015482565b60408051928352602083019190915201610088565b3480156100ee57600080fd5b5061006f6100fd3660046102a8565b6101d4565b33600090815260208190526040808220805490839055905190916001600160a01b0384169183156108fc0291849190818181858888f1935050505015801561014e573d6000803e3d6000fd5b505050565b33600090815260208190526040812080543492906101729084906102d4565b9091555050604080518082018252348152426020808301918252336000818152808352858120600180820180548452600290920185529682208651815594519490960193909355825281905282549192906101cc83610303565b919050555050565b3360009081526020819052604090205481111561022a5760405162461bcd60e51b815260206004820152601060248201526f6e6f7420656e6f7567682066756e647360801b604482015260640160405180910390fd5b33600090815260208190526040812080548392906102499084906102ec565b90915550506040516001600160a01b0383169082156108fc029083906000818181858888f1935050505015801561014e573d6000803e3d6000fd5b60006020828403121561029657600080fd5b81356102a181610334565b9392505050565b600080604083850312156102bb57600080fd5b82356102c681610334565b946020939093013593505050565b600082198211156102e7576102e761031e565b500190565b6000828210156102fe576102fe61031e565b500390565b60006000198214156103175761031761031e565b5060010190565b634e487b7160e01b600052601160045260246000fd5b6001600160a01b038116811461034957600080fd5b5056fea2646970667358221220e26bf9d482f818de26f33ed0136fff4ec019872ff7e1b7e862094d685a2559a764736f6c63430008070033",
					"opcodes": "PUSH1 0x80 PUSH1 0x40 MSTORE CALLVALUE DUP1 ISZERO PUSH2 0x10 JUMPI PUSH1 0x0 DUP1 REVERT JUMPDEST POP PUSH2 0x382 DUP1 PUSH2 0x20 PUSH1 0x0 CODECOPY PUSH1 0x0 RETURN INVALID PUSH1 0x80 PUSH1 0x40 MSTORE PUSH1 0x4 CALLDATASIZE LT PUSH2 0x4A JUMPI PUSH1 0x0 CALLDATALOAD PUSH1 0xE0 SHR DUP1 PUSH4 0xADEC93C EQ PUSH2 0x4F JUMPI DUP1 PUSH4 0x12065FE0 EQ PUSH2 0x71 JUMPI DUP1 PUSH4 0xCBEDBF5A EQ PUSH2 0x91 JUMPI DUP1 PUSH4 0xD18A42E1 EQ PUSH2 0x99 JUMPI DUP1 PUSH4 0xF274C897 EQ PUSH2 0xE2 JUMPI JUMPDEST PUSH1 0x0 DUP1 REVERT JUMPDEST CALLVALUE DUP1 ISZERO PUSH2 0x5B JUMPI PUSH1 0x0 DUP1 REVERT JUMPDEST POP PUSH2 0x6F PUSH2 0x6A CALLDATASIZE PUSH1 0x4 PUSH2 0x284 JUMP JUMPDEST PUSH2 0x102 JUMP JUMPDEST STOP JUMPDEST CALLVALUE DUP1 ISZERO PUSH2 0x7D JUMPI PUSH1 0x0 DUP1 REVERT JUMPDEST POP PUSH1 0x40 MLOAD SELFBALANCE DUP2 MSTORE PUSH1 0x20 ADD JUMPDEST PUSH1 0x40 MLOAD DUP1 SWAP2 SUB SWAP1 RETURN JUMPDEST PUSH2 0x6F PUSH2 0x153 JUMP JUMPDEST CALLVALUE DUP1 ISZERO PUSH2 0xA5 JUMPI PUSH1 0x0 DUP1 REVERT JUMPDEST POP PUSH2 0xCD PUSH2 0xB4 CALLDATASIZE PUSH1 0x4 PUSH2 0x284 JUMP JUMPDEST PUSH1 0x0 PUSH1 0x20 DUP2 SWAP1 MSTORE SWAP1 DUP2 MSTORE PUSH1 0x40 SWAP1 KECCAK256 DUP1 SLOAD PUSH1 0x1 SWAP1 SWAP2 ADD SLOAD DUP3 JUMP JUMPDEST PUSH1 0x40 DUP1 MLOAD SWAP3 DUP4 MSTORE PUSH1 0x20 DUP4 ADD SWAP2 SWAP1 SWAP2 MSTORE ADD PUSH2 0x88 JUMP JUMPDEST CALLVALUE DUP1 ISZERO PUSH2 0xEE JUMPI PUSH1 0x0 DUP1 REVERT JUMPDEST POP PUSH2 0x6F PUSH2 0xFD CALLDATASIZE PUSH1 0x4 PUSH2 0x2A8 JUMP JUMPDEST PUSH2 0x1D4 JUMP JUMPDEST CALLER PUSH1 0x0 SWAP1 DUP2 MSTORE PUSH1 0x20 DUP2 SWAP1 MSTORE PUSH1 0x40 DUP1 DUP3 KECCAK256 DUP1 SLOAD SWAP1 DUP4 SWAP1 SSTORE SWAP1 MLOAD SWAP1 SWAP2 PUSH1 0x1 PUSH1 0x1 PUSH1 0xA0 SHL SUB DUP5 AND SWAP2 DUP4 ISZERO PUSH2 0x8FC MUL SWAP2 DUP5 SWAP2 SWAP1 DUP2 DUP2 DUP2 DUP6 DUP9 DUP9 CALL SWAP4 POP POP POP POP ISZERO DUP1 ISZERO PUSH2 0x14E JUMPI RETURNDATASIZE PUSH1 0x0 DUP1 RETURNDATACOPY RETURNDATASIZE PUSH1 0x0 REVERT JUMPDEST POP POP POP JUMP JUMPDEST CALLER PUSH1 0x0 SWAP1 DUP2 MSTORE PUSH1 0x20 DUP2 SWAP1 MSTORE PUSH1 0x40 DUP2 KECCAK256 DUP1 SLOAD CALLVALUE SWAP3 SWAP1 PUSH2 0x172 SWAP1 DUP5 SWAP1 PUSH2 0x2D4 JUMP JUMPDEST SWAP1 SWAP2 SSTORE POP POP PUSH1 0x40 DUP1 MLOAD DUP1 DUP3 ADD DUP3 MSTORE CALLVALUE DUP2 MSTORE TIMESTAMP PUSH1 0x20 DUP1 DUP4 ADD SWAP2 DUP3 MSTORE CALLER PUSH1 0x0 DUP2 DUP2 MSTORE DUP1 DUP4 MSTORE DUP6 DUP2 KECCAK256 PUSH1 0x1 DUP1 DUP3 ADD DUP1 SLOAD DUP5 MSTORE PUSH1 0x2 SWAP1 SWAP3 ADD DUP6 MSTORE SWAP7 DUP3 KECCAK256 DUP7 MLOAD DUP2 SSTORE SWAP5 MLOAD SWAP5 SWAP1 SWAP7 ADD SWAP4 SWAP1 SWAP4 SSTORE DUP3 MSTORE DUP2 SWAP1 MSTORE DUP3 SLOAD SWAP2 SWAP3 SWAP1 PUSH2 0x1CC DUP4 PUSH2 0x303 JUMP JUMPDEST SWAP2 SWAP1 POP SSTORE POP POP JUMP JUMPDEST CALLER PUSH1 0x0 SWAP1 DUP2 MSTORE PUSH1 0x20 DUP2 SWAP1 MSTORE PUSH1 0x40 SWAP1 KECCAK256 SLOAD DUP2 GT ISZERO PUSH2 0x22A JUMPI PUSH1 0x40 MLOAD PUSH3 0x461BCD PUSH1 0xE5 SHL DUP2 MSTORE PUSH1 0x20 PUSH1 0x4 DUP3 ADD MSTORE PUSH1 0x10 PUSH1 0x24 DUP3 ADD MSTORE PUSH16 0x6E6F7420656E6F7567682066756E6473 PUSH1 0x80 SHL PUSH1 0x44 DUP3 ADD MSTORE PUSH1 0x64 ADD PUSH1 0x40 MLOAD DUP1 SWAP2 SUB SWAP1 REVERT JUMPDEST CALLER PUSH1 0x0 SWAP1 DUP2 MSTORE PUSH1 0x20 DUP2 SWAP1 MSTORE PUSH1 0x40 DUP2 KECCAK256 DUP1 SLOAD DUP4 SWAP3 SWAP1 PUSH2 0x249 SWAP1 DUP5 SWAP1 PUSH2 0x2EC JUMP JUMPDEST SWAP1 SWAP2 SSTORE POP POP PUSH1 0x40 MLOAD PUSH1 0x1 PUSH1 0x1 PUSH1 0xA0 SHL SUB DUP4 AND SWAP1 DUP3 ISZERO PUSH2 0x8FC MUL SWAP1 DUP4 SWAP1 PUSH1 0x0 DUP2 DUP2 DUP2 DUP6 DUP9 DUP9 CALL SWAP4 POP POP POP POP ISZERO DUP1 ISZERO PUSH2 0x14E JUMPI RETURNDATASIZE PUSH1 0x0 DUP1 RETURNDATACOPY RETURNDATASIZE PUSH1 0x0 REVERT JUMPDEST PUSH1 0x0 PUSH1 0x20 DUP3 DUP5 SUB SLT ISZERO PUSH2 0x296 JUMPI PUSH1 0x0 DUP1 REVERT JUMPDEST DUP2 CALLDATALOAD PUSH2 0x2A1 DUP2 PUSH2 0x334 JUMP JUMPDEST SWAP4 SWAP3 POP POP POP JUMP JUMPDEST PUSH1 0x0 DUP1 PUSH1 0x40 DUP4 DUP6 SUB SLT ISZERO PUSH2 0x2BB JUMPI PUSH1 0x0 DUP1 REVERT JUMPDEST DUP3 CALLDATALOAD PUSH2 0x2C6 DUP2 PUSH2 0x334 JUMP JUMPDEST SWAP5 PUSH1 0x20 SWAP4 SWAP1 SWAP4 ADD CALLDATALOAD SWAP4 POP POP POP JUMP JUMPDEST PUSH1 0x0 DUP3 NOT DUP3 GT ISZERO PUSH2 0x2E7 JUMPI PUSH2 0x2E7 PUSH2 0x31E JUMP JUMPDEST POP ADD SWAP1 JUMP JUMPDEST PUSH1 0x0 DUP3 DUP3 LT ISZERO PUSH2 0x2FE JUMPI PUSH2 0x2FE PUSH2 0x31E JUMP JUMPDEST POP SUB SWAP1 JUMP JUMPDEST PUSH1 0x0 PUSH1 0x0 NOT DUP3 EQ ISZERO PUSH2 0x317 JUMPI PUSH2 0x317 PUSH2 0x31E JUMP JUMPDEST POP PUSH1 0x1 ADD SWAP1 JUMP JUMPDEST PUSH4 0x4E487B71 PUSH1 0xE0 SHL PUSH1 0x0 MSTORE PUSH1 0x11 PUSH1 0x4 MSTORE PUSH1 0x24 PUSH1 0x0 REVERT JUMPDEST PUSH1 0x1 PUSH1 0x1 PUSH1 0xA0 SHL SUB DUP2 AND DUP2 EQ PUSH2 0x349 JUMPI PUSH1 0x0 DUP1 REVERT JUMPDEST POP JUMP INVALID LOG2 PUSH5 0x6970667358 0x22 SLT KECCAK256 0xE2 PUSH12 0xF9D482F818DE26F33ED0136F SELFDESTRUCT 0x4E 0xC0 NOT DUP8 0x2F 0xF7 0xE1 0xB7 0xE8 PUSH3 0x94D68 GAS 0x25 MSIZE 0xA7 PUSH5 0x736F6C6343 STOP ADDMOD SMOD STOP CALLER "
				},
				"gasEstimates": {
					"creation": {
						"codeDepositCost": "179600",
						"executionCost": "226",
						"totalCost": "179826"
					},
					"external": {
						"balanceReceived(address)": "4699",
						"getBalance()": "168",
						"sendMoney()": "95377",
						"withdrawAllMoney(address)": "infinite",
						"withdrawMoney(address,uint256)": "infinite"
					}
				},
				"methodIdentifiers": {
					"balanceReceived(address)": "d18a42e1",
					"getBalance()": "12065fe0",
					"sendMoney()": "cbedbf5a",
					"withdrawAllMoney(address)": "0adec93c",
					"withdrawMoney(address,uint256)": "f274c897"
				}
			},
			"userdoc": {
				"kind": "user",
				"methods": {},
				"version": 1
			}
		}
	}
}