{
	"StartingStopping.sol": {
		"StartStopUpdateExample": {
			"abi": [
				{
					"inputs": [],
					"stateMutability": "nonpayable",
					"type": "constructor"
				},
				{
					"inputs": [],
					"name": "owner",
					"outputs": [
						{
							"internalType": "address",
							"name": "",
							"type": "address"
						}
					],
					"stateMutability": "view",
					"type": "function"
				},
				{
					"inputs": [],
					"name": "paused",
					"outputs": [
						{
							"internalType": "bool",
							"name": "",
							"type": "bool"
						}
					],
					"stateMutability": "view",
					"type": "function"
				},
				{
					"inputs": [],
					"name": "sendMoney",
					"outputs": [],
					"stateMutability": "payable",
					"type": "function"
				},
				{
					"inputs": [
						{
							"internalType": "bool",
							"name": "_paused",
							"type": "bool"
						}
					],
					"name": "setPaused",
					"outputs": [],
					"stateMutability": "nonpayable",
					"type": "function"
				},
				{
					"inputs": [
						{
							"internalType": "address payable",
							"name": "_to",
							"type": "address"
						}
					],
					"name": "withdrawAllMoney",
					"outputs": [],
					"stateMutability": "nonpayable",
					"type": "function"
				}
			],
			"devdoc": {
				"kind": "dev",
				"methods": {},
				"version": 1
			},
			"evm": {
				"assembly": "    /* \"StartingStopping.sol\":66:655  contract StartStopUpdateExample {\r... */\n  mstore(0x40, 0x80)\n    /* \"StartingStopping.sol\":165:216  constructor() {\r... */\n  callvalue\n  dup1\n  iszero\n  tag_1\n  jumpi\n  0x00\n  dup1\n  revert\ntag_1:\n  pop\n    /* \"StartingStopping.sol\":190:195  owner */\n  0x00\n    /* \"StartingStopping.sol\":190:208  owner = msg.sender */\n  dup1\n  sload\n  not(sub(shl(0xa0, 0x01), 0x01))\n  and\n    /* \"StartingStopping.sol\":198:208  msg.sender */\n  caller\n    /* \"StartingStopping.sol\":190:208  owner = msg.sender */\n  or\n  swap1\n  sstore\n    /* \"StartingStopping.sol\":66:655  contract StartStopUpdateExample {\r... */\n  dataSize(sub_0)\n  dup1\n  dataOffset(sub_0)\n  0x00\n  codecopy\n  0x00\n  return\nstop\n\nsub_0: assembly {\n        /* \"StartingStopping.sol\":66:655  contract StartStopUpdateExample {\r... */\n      mstore(0x40, 0x80)\n      jumpi(tag_1, lt(calldatasize, 0x04))\n      shr(0xe0, calldataload(0x00))\n      dup1\n      0x0adec93c\n      eq\n      tag_2\n      jumpi\n      dup1\n      0x16c38b3c\n      eq\n      tag_3\n      jumpi\n      dup1\n      0x5c975abb\n      eq\n      tag_4\n      jumpi\n      dup1\n      0x8da5cb5b\n      eq\n      tag_5\n      jumpi\n      dup1\n      0xcbedbf5a\n      eq\n      tag_8\n      jumpi\n    tag_1:\n      0x00\n      dup1\n      revert\n        /* \"StartingStopping.sol\":427:652  function withdrawAllMoney(address payable _to) public {\r... */\n    tag_2:\n      callvalue\n      dup1\n      iszero\n      tag_7\n      jumpi\n      0x00\n      dup1\n      revert\n    tag_7:\n      pop\n      tag_8\n      tag_9\n      calldatasize\n      0x04\n      tag_10\n      jump\t// in\n    tag_9:\n      tag_11\n      jump\t// in\n    tag_8:\n      stop\n        /* \"StartingStopping.sol\":280:419  function setPaused(bool _paused) public {\r... */\n    tag_3:\n      callvalue\n      dup1\n      iszero\n      tag_12\n      jumpi\n      0x00\n      dup1\n      revert\n    tag_12:\n      pop\n      tag_8\n      tag_14\n      calldatasize\n      0x04\n      tag_15\n      jump\t// in\n    tag_14:\n      tag_16\n      jump\t// in\n        /* \"StartingStopping.sol\":138:156  bool public paused */\n    tag_4:\n      callvalue\n      dup1\n      iszero\n      tag_17\n      jumpi\n      0x00\n      dup1\n      revert\n    tag_17:\n      pop\n      sload(0x00)\n      tag_18\n      swap1\n      shl(0xa0, 0x01)\n      swap1\n      div\n      0xff\n      and\n      dup2\n      jump\n    tag_18:\n      mload(0x40)\n        /* \"#utility.yul\":964:978   */\n      swap1\n      iszero\n        /* \"#utility.yul\":957:979   */\n      iszero\n        /* \"#utility.yul\":939:980   */\n      dup2\n      mstore\n        /* \"#utility.yul\":927:929   */\n      0x20\n        /* \"#utility.yul\":912:930   */\n      add\n        /* \"StartingStopping.sol\":138:156  bool public paused */\n    tag_20:\n      mload(0x40)\n      dup1\n      swap2\n      sub\n      swap1\n      return\n        /* \"StartingStopping.sol\":111:131  address public owner */\n    tag_5:\n      callvalue\n      dup1\n      iszero\n      tag_22\n      jumpi\n      0x00\n      dup1\n      revert\n    tag_22:\n      pop\n      sload(0x00)\n      tag_23\n      swap1\n      sub(shl(0xa0, 0x01), 0x01)\n      and\n      dup2\n      jump\n    tag_23:\n      mload(0x40)\n      sub(shl(0xa0, 0x01), 0x01)\n        /* \"#utility.yul\":755:787   */\n      swap1\n      swap2\n      and\n        /* \"#utility.yul\":737:788   */\n      dup2\n      mstore\n        /* \"#utility.yul\":725:727   */\n      0x20\n        /* \"#utility.yul\":710:728   */\n      add\n        /* \"StartingStopping.sol\":111:131  address public owner */\n      tag_20\n        /* \"#utility.yul\":591:794   */\n      jump\n        /* \"StartingStopping.sol\":427:652  function withdrawAllMoney(address payable _to) public {\r... */\n    tag_11:\n        /* \"StartingStopping.sol\":500:505  owner */\n      and(sub(shl(0xa0, 0x01), 0x01), sload(0x00))\n        /* \"StartingStopping.sol\":509:519  msg.sender */\n      caller\n        /* \"StartingStopping.sol\":500:519  owner == msg.sender */\n      eq\n        /* \"StartingStopping.sol\":492:544  require(owner == msg.sender, \"You cannot withdraw.\") */\n      tag_30\n      jumpi\n      mload(0x40)\n      shl(0xe5, 0x461bcd)\n      dup2\n      mstore\n        /* \"#utility.yul\":1543:1545   */\n      0x20\n        /* \"StartingStopping.sol\":492:544  require(owner == msg.sender, \"You cannot withdraw.\") */\n      0x04\n      dup3\n      add\n        /* \"#utility.yul\":1525:1546   */\n      mstore\n        /* \"#utility.yul\":1582:1584   */\n      0x14\n        /* \"#utility.yul\":1562:1580   */\n      0x24\n      dup3\n      add\n        /* \"#utility.yul\":1555:1585   */\n      mstore\n      shl(0x61, 0x2cb7ba9031b0b73737ba103bb4ba34323930bb97)\n        /* \"#utility.yul\":1601:1619   */\n      0x44\n      dup3\n      add\n        /* \"#utility.yul\":1594:1644   */\n      mstore\n        /* \"#utility.yul\":1661:1679   */\n      0x64\n      add\n        /* \"StartingStopping.sol\":492:544  require(owner == msg.sender, \"You cannot withdraw.\") */\n    tag_31:\n      mload(0x40)\n      dup1\n      swap2\n      sub\n      swap1\n      revert\n    tag_30:\n        /* \"StartingStopping.sol\":563:569  paused */\n      sload(0x00)\n      shl(0xa0, 0x01)\n      swap1\n      div\n      0xff\n      and\n        /* \"StartingStopping.sol\":563:578  paused == false */\n      iszero\n        /* \"StartingStopping.sol\":555:598  require(paused == false, \"Contract Paused\") */\n      tag_33\n      jumpi\n      mload(0x40)\n      shl(0xe5, 0x461bcd)\n      dup2\n      mstore\n        /* \"#utility.yul\":1892:1894   */\n      0x20\n        /* \"StartingStopping.sol\":555:598  require(paused == false, \"Contract Paused\") */\n      0x04\n      dup3\n      add\n        /* \"#utility.yul\":1874:1895   */\n      mstore\n        /* \"#utility.yul\":1931:1933   */\n      0x0f\n        /* \"#utility.yul\":1911:1929   */\n      0x24\n      dup3\n      add\n        /* \"#utility.yul\":1904:1934   */\n      mstore\n      shl(0x8a, 0x10dbdb9d1c9858dd0814185d5cd959)\n        /* \"#utility.yul\":1950:1968   */\n      0x44\n      dup3\n      add\n        /* \"#utility.yul\":1943:1988   */\n      mstore\n        /* \"#utility.yul\":2005:2023   */\n      0x64\n      add\n        /* \"StartingStopping.sol\":555:598  require(paused == false, \"Contract Paused\") */\n      tag_31\n        /* \"#utility.yul\":1690:2029   */\n      jump\n        /* \"StartingStopping.sol\":555:598  require(paused == false, \"Contract Paused\") */\n    tag_33:\n        /* \"StartingStopping.sol\":609:644  _to.transfer(address(this).balance) */\n      mload(0x40)\n      sub(shl(0xa0, 0x01), 0x01)\n        /* \"StartingStopping.sol\":609:621  _to.transfer */\n      dup3\n      and\n      swap1\n        /* \"StartingStopping.sol\":622:643  address(this).balance */\n      selfbalance\n        /* \"StartingStopping.sol\":609:644  _to.transfer(address(this).balance) */\n      dup1\n      iszero\n      0x08fc\n      mul\n      swap2\n      0x00\n      dup2\n      dup2\n      dup2\n        /* \"StartingStopping.sol\":622:643  address(this).balance */\n      dup6\n        /* \"StartingStopping.sol\":609:621  _to.transfer */\n      dup9\n        /* \"StartingStopping.sol\":609:644  _to.transfer(address(this).balance) */\n      dup9\n      call\n      swap4\n      pop\n      pop\n      pop\n      pop\n      iszero\n      dup1\n      iszero\n      tag_37\n      jumpi\n      returndatasize\n      0x00\n      dup1\n      returndatacopy\n      revert(0x00, returndatasize)\n    tag_37:\n      pop\n        /* \"StartingStopping.sol\":427:652  function withdrawAllMoney(address payable _to) public {\r... */\n      pop\n      jump\t// out\n        /* \"StartingStopping.sol\":280:419  function setPaused(bool _paused) public {\r... */\n    tag_16:\n        /* \"StartingStopping.sol\":353:358  owner */\n      and(sub(shl(0xa0, 0x01), 0x01), sload(0x00))\n        /* \"StartingStopping.sol\":339:349  msg.sender */\n      caller\n        /* \"StartingStopping.sol\":339:358  msg.sender == owner */\n      eq\n        /* \"StartingStopping.sol\":331:384  require(msg.sender == owner, \"You are not the owner\") */\n      tag_39\n      jumpi\n      mload(0x40)\n      shl(0xe5, 0x461bcd)\n      dup2\n      mstore\n        /* \"#utility.yul\":1193:1195   */\n      0x20\n        /* \"StartingStopping.sol\":331:384  require(msg.sender == owner, \"You are not the owner\") */\n      0x04\n      dup3\n      add\n        /* \"#utility.yul\":1175:1196   */\n      mstore\n        /* \"#utility.yul\":1232:1234   */\n      0x15\n        /* \"#utility.yul\":1212:1230   */\n      0x24\n      dup3\n      add\n        /* \"#utility.yul\":1205:1235   */\n      mstore\n      shl(0x59, 0x2cb7ba9030b932903737ba103a34329037bbb732b9)\n        /* \"#utility.yul\":1251:1269   */\n      0x44\n      dup3\n      add\n        /* \"#utility.yul\":1244:1295   */\n      mstore\n        /* \"#utility.yul\":1312:1330   */\n      0x64\n      add\n        /* \"StartingStopping.sol\":331:384  require(msg.sender == owner, \"You are not the owner\") */\n      tag_31\n        /* \"#utility.yul\":991:1336   */\n      jump\n        /* \"StartingStopping.sol\":331:384  require(msg.sender == owner, \"You are not the owner\") */\n    tag_39:\n        /* \"StartingStopping.sol\":395:401  paused */\n      0x00\n        /* \"StartingStopping.sol\":395:411  paused = _paused */\n      dup1\n      sload\n      swap2\n      iszero\n      iszero\n      shl(0xa0, 0x01)\n      mul\n      not(shl(0xa0, 0xff))\n      swap1\n      swap3\n      and\n      swap2\n      swap1\n      swap2\n      or\n      swap1\n      sstore\n        /* \"StartingStopping.sol\":280:419  function setPaused(bool _paused) public {\r... */\n      jump\t// out\n        /* \"#utility.yul\":14:308   */\n    tag_10:\n        /* \"#utility.yul\":81:87   */\n      0x00\n        /* \"#utility.yul\":134:136   */\n      0x20\n        /* \"#utility.yul\":122:131   */\n      dup3\n        /* \"#utility.yul\":113:120   */\n      dup5\n        /* \"#utility.yul\":109:132   */\n      sub\n        /* \"#utility.yul\":105:137   */\n      slt\n        /* \"#utility.yul\":102:154   */\n      iszero\n      tag_45\n      jumpi\n        /* \"#utility.yul\":150:151   */\n      0x00\n        /* \"#utility.yul\":147:148   */\n      dup1\n        /* \"#utility.yul\":140:152   */\n      revert\n        /* \"#utility.yul\":102:154   */\n    tag_45:\n        /* \"#utility.yul\":176:199   */\n      dup2\n      calldataload\n      sub(shl(0xa0, 0x01), 0x01)\n        /* \"#utility.yul\":228:259   */\n      dup2\n      and\n        /* \"#utility.yul\":218:260   */\n      dup2\n      eq\n        /* \"#utility.yul\":208:278   */\n      tag_46\n      jumpi\n        /* \"#utility.yul\":274:275   */\n      0x00\n        /* \"#utility.yul\":271:272   */\n      dup1\n        /* \"#utility.yul\":264:276   */\n      revert\n        /* \"#utility.yul\":208:278   */\n    tag_46:\n        /* \"#utility.yul\":297:302   */\n      swap4\n        /* \"#utility.yul\":14:308   */\n      swap3\n      pop\n      pop\n      pop\n      jump\t// out\n        /* \"#utility.yul\":313:586   */\n    tag_15:\n        /* \"#utility.yul\":369:375   */\n      0x00\n        /* \"#utility.yul\":422:424   */\n      0x20\n        /* \"#utility.yul\":410:419   */\n      dup3\n        /* \"#utility.yul\":401:408   */\n      dup5\n        /* \"#utility.yul\":397:420   */\n      sub\n        /* \"#utility.yul\":393:425   */\n      slt\n        /* \"#utility.yul\":390:442   */\n      iszero\n      tag_48\n      jumpi\n        /* \"#utility.yul\":438:439   */\n      0x00\n        /* \"#utility.yul\":435:436   */\n      dup1\n        /* \"#utility.yul\":428:440   */\n      revert\n        /* \"#utility.yul\":390:442   */\n    tag_48:\n        /* \"#utility.yul\":477:486   */\n      dup2\n        /* \"#utility.yul\":464:487   */\n      calldataload\n        /* \"#utility.yul\":530:535   */\n      dup1\n        /* \"#utility.yul\":523:536   */\n      iszero\n        /* \"#utility.yul\":516:537   */\n      iszero\n        /* \"#utility.yul\":509:514   */\n      dup2\n        /* \"#utility.yul\":506:538   */\n      eq\n        /* \"#utility.yul\":496:556   */\n      tag_46\n      jumpi\n        /* \"#utility.yul\":552:553   */\n      0x00\n        /* \"#utility.yul\":549:550   */\n      dup1\n        /* \"#utility.yul\":542:554   */\n      revert\n\n    auxdata: 0xa264697066735822122004a8bfb98cae062a9c9ce9792fcb41b0d27eb3675a76646de2cbeea7f29708a764736f6c63430008070033\n}\n",
				"bytecode": {
					"linkReferences": {},
					"object": "608060405234801561001057600080fd5b50600080546001600160a01b031916331790556102d2806100326000396000f3fe60806040526004361061004a5760003560e01c80630adec93c1461004f57806316c38b3c146100715780635c975abb146100915780638da5cb5b146100c7578063cbedbf5a1461006f575b600080fd5b34801561005b57600080fd5b5061006f61006a36600461024a565b6100ff565b005b34801561007d57600080fd5b5061006f61008c36600461027a565b6101da565b34801561009d57600080fd5b506000546100b290600160a01b900460ff1681565b60405190151581526020015b60405180910390f35b3480156100d357600080fd5b506000546100e7906001600160a01b031681565b6040516001600160a01b0390911681526020016100be565b6000546001600160a01b031633146101555760405162461bcd60e51b81526020600482015260146024820152732cb7ba9031b0b73737ba103bb4ba34323930bb9760611b60448201526064015b60405180910390fd5b600054600160a01b900460ff16156101a15760405162461bcd60e51b815260206004820152600f60248201526e10dbdb9d1c9858dd0814185d5cd959608a1b604482015260640161014c565b6040516001600160a01b038216904780156108fc02916000818181858888f193505050501580156101d6573d6000803e3d6000fd5b5050565b6000546001600160a01b0316331461022c5760405162461bcd60e51b81526020600482015260156024820152742cb7ba9030b932903737ba103a34329037bbb732b960591b604482015260640161014c565b60008054911515600160a01b0260ff60a01b19909216919091179055565b60006020828403121561025c57600080fd5b81356001600160a01b038116811461027357600080fd5b9392505050565b60006020828403121561028c57600080fd5b8135801515811461027357600080fdfea264697066735822122004a8bfb98cae062a9c9ce9792fcb41b0d27eb3675a76646de2cbeea7f29708a764736f6c63430008070033",
					"opcodes": "PUSH1 0x80 PUSH1 0x40 MSTORE CALLVALUE DUP1 ISZERO PUSH2 0x10 JUMPI PUSH1 0x0 DUP1 REVERT JUMPDEST POP PUSH1 0x0 DUP1 SLOAD PUSH1 0x1 PUSH1 0x1 PUSH1 0xA0 SHL SUB NOT AND CALLER OR SWAP1 SSTORE PUSH2 0x2D2 DUP1 PUSH2 0x32 PUSH1 0x0 CODECOPY PUSH1 0x0 RETURN INVALID PUSH1 0x80 PUSH1 0x40 MSTORE PUSH1 0x4 CALLDATASIZE LT PUSH2 0x4A JUMPI PUSH1 0x0 CALLDATALOAD PUSH1 0xE0 SHR DUP1 PUSH4 0xADEC93C EQ PUSH2 0x4F JUMPI DUP1 PUSH4 0x16C38B3C EQ PUSH2 0x71 JUMPI DUP1 PUSH4 0x5C975ABB EQ PUSH2 0x91 JUMPI DUP1 PUSH4 0x8DA5CB5B EQ PUSH2 0xC7 JUMPI DUP1 PUSH4 0xCBEDBF5A EQ PUSH2 0x6F JUMPI JUMPDEST PUSH1 0x0 DUP1 REVERT JUMPDEST CALLVALUE DUP1 ISZERO PUSH2 0x5B JUMPI PUSH1 0x0 DUP1 REVERT JUMPDEST POP PUSH2 0x6F PUSH2 0x6A CALLDATASIZE PUSH1 0x4 PUSH2 0x24A JUMP JUMPDEST PUSH2 0xFF JUMP JUMPDEST STOP JUMPDEST CALLVALUE DUP1 ISZERO PUSH2 0x7D JUMPI PUSH1 0x0 DUP1 REVERT JUMPDEST POP PUSH2 0x6F PUSH2 0x8C CALLDATASIZE PUSH1 0x4 PUSH2 0x27A JUMP JUMPDEST PUSH2 0x1DA JUMP JUMPDEST CALLVALUE DUP1 ISZERO PUSH2 0x9D JUMPI PUSH1 0x0 DUP1 REVERT JUMPDEST POP PUSH1 0x0 SLOAD PUSH2 0xB2 SWAP1 PUSH1 0x1 PUSH1 0xA0 SHL SWAP1 DIV PUSH1 0xFF AND DUP2 JUMP JUMPDEST PUSH1 0x40 MLOAD SWAP1 ISZERO ISZERO DUP2 MSTORE PUSH1 0x20 ADD JUMPDEST PUSH1 0x40 MLOAD DUP1 SWAP2 SUB SWAP1 RETURN JUMPDEST CALLVALUE DUP1 ISZERO PUSH2 0xD3 JUMPI PUSH1 0x0 DUP1 REVERT JUMPDEST POP PUSH1 0x0 SLOAD PUSH2 0xE7 SWAP1 PUSH1 0x1 PUSH1 0x1 PUSH1 0xA0 SHL SUB AND DUP2 JUMP JUMPDEST PUSH1 0x40 MLOAD PUSH1 0x1 PUSH1 0x1 PUSH1 0xA0 SHL SUB SWAP1 SWAP2 AND DUP2 MSTORE PUSH1 0x20 ADD PUSH2 0xBE JUMP JUMPDEST PUSH1 0x0 SLOAD PUSH1 0x1 PUSH1 0x1 PUSH1 0xA0 SHL SUB AND CALLER EQ PUSH2 0x155 JUMPI PUSH1 0x40 MLOAD PUSH3 0x461BCD PUSH1 0xE5 SHL DUP2 MSTORE PUSH1 0x20 PUSH1 0x4 DUP3 ADD MSTORE PUSH1 0x14 PUSH1 0x24 DUP3 ADD MSTORE PUSH20 0x2CB7BA9031B0B73737BA103BB4BA34323930BB97 PUSH1 0x61 SHL PUSH1 0x44 DUP3 ADD MSTORE PUSH1 0x64 ADD JUMPDEST PUSH1 0x40 MLOAD DUP1 SWAP2 SUB SWAP1 REVERT JUMPDEST PUSH1 0x0 SLOAD PUSH1 0x1 PUSH1 0xA0 SHL SWAP1 DIV PUSH1 0xFF AND ISZERO PUSH2 0x1A1 JUMPI PUSH1 0x40 MLOAD PUSH3 0x461BCD PUSH1 0xE5 SHL DUP2 MSTORE PUSH1 0x20 PUSH1 0x4 DUP3 ADD MSTORE PUSH1 0xF PUSH1 0x24 DUP3 ADD MSTORE PUSH15 0x10DBDB9D1C9858DD0814185D5CD959 PUSH1 0x8A SHL PUSH1 0x44 DUP3 ADD MSTORE PUSH1 0x64 ADD PUSH2 0x14C JUMP JUMPDEST PUSH1 0x40 MLOAD PUSH1 0x1 PUSH1 0x1 PUSH1 0xA0 SHL SUB DUP3 AND SWAP1 SELFBALANCE DUP1 ISZERO PUSH2 0x8FC MUL SWAP2 PUSH1 0x0 DUP2 DUP2 DUP2 DUP6 DUP9 DUP9 CALL SWAP4 POP POP POP POP ISZERO DUP1 ISZERO PUSH2 0x1D6 JUMPI RETURNDATASIZE PUSH1 0x0 DUP1 RETURNDATACOPY RETURNDATASIZE PUSH1 0x0 REVERT JUMPDEST POP POP JUMP JUMPDEST PUSH1 0x0 SLOAD PUSH1 0x1 PUSH1 0x1 PUSH1 0xA0 SHL SUB AND CALLER EQ PUSH2 0x22C JUMPI PUSH1 0x40 MLOAD PUSH3 0x461BCD PUSH1 0xE5 SHL DUP2 MSTORE PUSH1 0x20 PUSH1 0x4 DUP3 ADD MSTORE PUSH1 0x15 PUSH1 0x24 DUP3 ADD MSTORE PUSH21 0x2CB7BA9030B932903737BA103A34329037BBB732B9 PUSH1 0x59 SHL PUSH1 0x44 DUP3 ADD MSTORE PUSH1 0x64 ADD PUSH2 0x14C JUMP JUMPDEST PUSH1 0x0 DUP1 SLOAD SWAP2 ISZERO ISZERO PUSH1 0x1 PUSH1 0xA0 SHL MUL PUSH1 0xFF PUSH1 0xA0 SHL NOT SWAP1 SWAP3 AND SWAP2 SWAP1 SWAP2 OR SWAP1 SSTORE JUMP JUMPDEST PUSH1 0x0 PUSH1 0x20 DUP3 DUP5 SUB SLT ISZERO PUSH2 0x25C JUMPI PUSH1 0x0 DUP1 REVERT JUMPDEST DUP2 CALLDATALOAD PUSH1 0x1 PUSH1 0x1 PUSH1 0xA0 SHL SUB DUP2 AND DUP2 EQ PUSH2 0x273 JUMPI PUSH1 0x0 DUP1 REVERT JUMPDEST SWAP4 SWAP3 POP POP POP JUMP JUMPDEST PUSH1 0x0 PUSH1 0x20 DUP3 DUP5 SUB SLT ISZERO PUSH2 0x28C JUMPI PUSH1 0x0 DUP1 REVERT JUMPDEST DUP2 CALLDATALOAD DUP1 ISZERO ISZERO DUP2 EQ PUSH2 0x273 JUMPI PUSH1 0x0 DUP1 REVERT INVALID LOG2 PUSH5 0x6970667358 0x22 SLT KECCAK256 DIV 0xA8 0xBF 0xB9 DUP13 0xAE MOD 0x2A SWAP13 SWAP13 0xE9 PUSH26 0x2FCB41B0D27EB3675A76646DE2CBEEA7F29708A764736F6C6343 STOP ADDMOD SMOD STOP CALLER "
				},
				"gasEstimates": {
					"creation": {
						"codeDepositCost": "144400",
						"executionCost": "24425",
						"totalCost": "168825"
					},
					"external": {
						"owner()": "2381",
						"paused()": "2338",
						"sendMoney()": "162",
						"setPaused(bool)": "26660",
						"withdrawAllMoney(address)": "infinite"
					}
				},
				"methodIdentifiers": {
					"owner()": "8da5cb5b",
					"paused()": "5c975abb",
					"sendMoney()": "cbedbf5a",
					"setPaused(bool)": "16c38b3c",
					"withdrawAllMoney(address)": "0adec93c"
				}
			},
			"userdoc": {
				"kind": "user",
				"methods": {},
				"version": 1
			}
		}
	}
}