{
	"contracts/02_simple/SharedWallet.sol": {
		"SharedWallet": {
			"abi": [
				{
					"anonymous": false,
					"inputs": [
						{
							"indexed": true,
							"internalType": "address",
							"name": "previousOwner",
							"type": "address"
						},
						{
							"indexed": true,
							"internalType": "address",
							"name": "newOwner",
							"type": "address"
						}
					],
					"name": "OwnershipTransferred",
					"type": "event"
				},
				{
					"inputs": [
						{
							"internalType": "address",
							"name": "_who",
							"type": "address"
						},
						{
							"internalType": "uint256",
							"name": "_amount",
							"type": "uint256"
						}
					],
					"name": "addAllowance",
					"outputs": [],
					"stateMutability": "nonpayable",
					"type": "function"
				},
				{
					"inputs": [
						{
							"internalType": "address",
							"name": "",
							"type": "address"
						}
					],
					"name": "allowance",
					"outputs": [
						{
							"internalType": "uint256",
							"name": "",
							"type": "uint256"
						}
					],
					"stateMutability": "view",
					"type": "function"
				},
				{
					"inputs": [],
					"name": "owner",
					"outputs": [
						{
							"internalType": "address",
							"name": "",
							"type": "address"
						}
					],
					"stateMutability": "view",
					"type": "function"
				},
				{
					"inputs": [
						{
							"internalType": "address",
							"name": "_who",
							"type": "address"
						},
						{
							"internalType": "uint256",
							"name": "_amount",
							"type": "uint256"
						}
					],
					"name": "reduceAllowance",
					"outputs": [],
					"stateMutability": "nonpayable",
					"type": "function"
				},
				{
					"inputs": [],
					"name": "renounceOwnership",
					"outputs": [],
					"stateMutability": "nonpayable",
					"type": "function"
				},
				{
					"inputs": [
						{
							"internalType": "address",
							"name": "_who",
							"type": "address"
						},
						{
							"internalType": "uint256",
							"name": "_amount",
							"type": "uint256"
						}
					],
					"name": "setAllowance",
					"outputs": [],
					"stateMutability": "nonpayable",
					"type": "function"
				},
				{
					"inputs": [
						{
							"internalType": "address",
							"name": "newOwner",
							"type": "address"
						}
					],
					"name": "transferOwnership",
					"outputs": [],
					"stateMutability": "nonpayable",
					"type": "function"
				},
				{
					"inputs": [
						{
							"internalType": "address payable",
							"name": "_to",
							"type": "address"
						},
						{
							"internalType": "uint256",
							"name": "_amount",
							"type": "uint256"
						}
					],
					"name": "withdrawMoney",
					"outputs": [],
					"stateMutability": "nonpayable",
					"type": "function"
				},
				{
					"stateMutability": "payable",
					"type": "receive"
				}
			],
			"devdoc": {
				"kind": "dev",
				"methods": {
					"owner()": {
						"details": "Returns the address of the current owner."
					},
					"renounceOwnership()": {
						"details": "Leaves the contract without owner. It will not be possible to call `onlyOwner` functions anymore. Can only be called by the current owner. NOTE: Renouncing ownership will leave the contract without an owner, thereby removing any functionality that is only available to the owner."
					},
					"transferOwnership(address)": {
						"details": "Transfers ownership of the contract to a new account (`newOwner`). Can only be called by the current owner."
					}
				},
				"version": 1
			},
			"evm": {
				"assembly": "    /* \"contracts/02_simple/SharedWallet.sol\":167:1241  contract SharedWallet is Ownable {\r... */\n  mstore(0x40, 0x80)\n  callvalue\n  dup1\n  iszero\n  tag_1\n  jumpi\n  0x00\n  dup1\n  revert\ntag_1:\n  pop\n    /* \"https://github.com/OpenZeppelin/openzeppelin-contracts/blob/master/contracts/access/Ownable.sol\":921:953  _transferOwnership(_msgSender()) */\n  tag_4\n    /* \"https://github.com/OpenZeppelin/openzeppelin-contracts/blob/master/contracts/access/Ownable.sol\":940:952  _msgSender() */\n  tag_5\n    /* \"https://github.com/OpenZeppelin/openzeppelin-contracts/blob/master/contracts/access/Ownable.sol\":940:950  _msgSender */\n  tag_6\n    /* \"https://github.com/OpenZeppelin/openzeppelin-contracts/blob/master/contracts/access/Ownable.sol\":940:952  _msgSender() */\n  jump\t// in\ntag_5:\n    /* \"https://github.com/OpenZeppelin/openzeppelin-contracts/blob/master/contracts/access/Ownable.sol\":921:939  _transferOwnership */\n  tag_7\n    /* \"https://github.com/OpenZeppelin/openzeppelin-contracts/blob/master/contracts/access/Ownable.sol\":921:953  _transferOwnership(_msgSender()) */\n  jump\t// in\ntag_4:\n    /* \"contracts/02_simple/SharedWallet.sol\":167:1241  contract SharedWallet is Ownable {\r... */\n  jump(tag_8)\n    /* \"https://github.com/OpenZeppelin/openzeppelin-contracts/blob/master/contracts/utils/Context.sol\":640:736  function _msgSender() internal view virtual returns (address) {... */\ntag_6:\n    /* \"https://github.com/OpenZeppelin/openzeppelin-contracts/blob/master/contracts/utils/Context.sol\":719:729  msg.sender */\n  caller\n    /* \"https://github.com/OpenZeppelin/openzeppelin-contracts/blob/master/contracts/utils/Context.sol\":640:736  function _msgSender() internal view virtual returns (address) {... */\n  swap1\n  jump\t// out\n    /* \"https://github.com/OpenZeppelin/openzeppelin-contracts/blob/master/contracts/access/Ownable.sol\":2270:2457  function _transferOwnership(address newOwner) internal virtual {... */\ntag_7:\n    /* \"https://github.com/OpenZeppelin/openzeppelin-contracts/blob/master/contracts/access/Ownable.sol\":2343:2359  address oldOwner */\n  0x00\n    /* \"https://github.com/OpenZeppelin/openzeppelin-contracts/blob/master/contracts/access/Ownable.sol\":2362:2368  _owner */\n  dup1\n  sload\n  sub(shl(0xa0, 0x01), 0x01)\n    /* \"https://github.com/OpenZeppelin/openzeppelin-contracts/blob/master/contracts/access/Ownable.sol\":2378:2395  _owner = newOwner */\n  dup4\n  dup2\n  and\n  not(sub(shl(0xa0, 0x01), 0x01))\n  dup4\n  and\n  dup2\n  or\n  dup5\n  sstore\n    /* \"https://github.com/OpenZeppelin/openzeppelin-contracts/blob/master/contracts/access/Ownable.sol\":2410:2450  OwnershipTransferred(oldOwner, newOwner) */\n  mload(0x40)\n    /* \"https://github.com/OpenZeppelin/openzeppelin-contracts/blob/master/contracts/access/Ownable.sol\":2362:2368  _owner */\n  swap2\n  swap1\n  swap3\n  and\n  swap3\n  dup4\n  swap2\n    /* \"https://github.com/OpenZeppelin/openzeppelin-contracts/blob/master/contracts/access/Ownable.sol\":2410:2450  OwnershipTransferred(oldOwner, newOwner) */\n  0x8be0079c531659141344cd1fd0a4f28419497f9722a3daafe3b4186f6b6457e0\n  swap2\n    /* \"https://github.com/OpenZeppelin/openzeppelin-contracts/blob/master/contracts/access/Ownable.sol\":2343:2359  address oldOwner */\n  swap1\n    /* \"https://github.com/OpenZeppelin/openzeppelin-contracts/blob/master/contracts/access/Ownable.sol\":2410:2450  OwnershipTransferred(oldOwner, newOwner) */\n  log3\n    /* \"https://github.com/OpenZeppelin/openzeppelin-contracts/blob/master/contracts/access/Ownable.sol\":2270:2457  function _transferOwnership(address newOwner) internal virtual {... */\n  pop\n  pop\n  jump\t// out\n    /* \"contracts/02_simple/SharedWallet.sol\":167:1241  contract SharedWallet is Ownable {\r... */\ntag_8:\n  dataSize(sub_0)\n  dup1\n  dataOffset(sub_0)\n  0x00\n  codecopy\n  0x00\n  return\nstop\n\nsub_0: assembly {\n        /* \"contracts/02_simple/SharedWallet.sol\":167:1241  contract SharedWallet is Ownable {\r... */\n      mstore(0x40, 0x80)\n      jumpi(tag_1, lt(calldatasize, 0x04))\n      shr(0xe0, calldataload(0x00))\n      dup1\n      0x8fdf08df\n      gt\n      tag_11\n      jumpi\n      dup1\n      0x8fdf08df\n      eq\n      tag_7\n      jumpi\n      dup1\n      0xf274c897\n      eq\n      tag_8\n      jumpi\n      dup1\n      0xf2fde38b\n      eq\n      tag_9\n      jumpi\n      dup1\n      0xf3c40c4b\n      eq\n      tag_3\n      jumpi\n      jump(tag_2)\n    tag_11:\n      dup1\n      0x310ec4a7\n      eq\n      tag_3\n      jumpi\n      dup1\n      0x3e5beab9\n      eq\n      tag_4\n      jumpi\n      dup1\n      0x715018a6\n      eq\n      tag_5\n      jumpi\n      dup1\n      0x8da5cb5b\n      eq\n      tag_6\n      jumpi\n      jump(tag_2)\n    tag_1:\n      jumpi(tag_2, calldatasize)\n      stop\n    tag_2:\n      0x00\n      dup1\n      revert\n        /* \"contracts/02_simple/SharedWallet.sol\":369:481  function setAllowance(address _who, uint _amount) public onlyOwner {\r... */\n    tag_3:\n      callvalue\n      dup1\n      iszero\n      tag_14\n      jumpi\n      0x00\n      dup1\n      revert\n    tag_14:\n      pop\n      tag_15\n      tag_16\n      calldatasize\n      0x04\n      tag_17\n      jump\t// in\n    tag_16:\n      tag_18\n      jump\t// in\n    tag_15:\n      stop\n        /* \"contracts/02_simple/SharedWallet.sol\":315:356  mapping(address => uint) public allowance */\n    tag_4:\n      callvalue\n      dup1\n      iszero\n      tag_19\n      jumpi\n      0x00\n      dup1\n      revert\n    tag_19:\n      pop\n      tag_20\n      tag_21\n      calldatasize\n      0x04\n      tag_22\n      jump\t// in\n    tag_21:\n      tag_23\n      jump\t// in\n    tag_20:\n      mload(0x40)\n      tag_24\n      swap2\n      swap1\n      tag_25\n      jump\t// in\n    tag_24:\n      mload(0x40)\n      dup1\n      swap2\n      sub\n      swap1\n      return\n        /* \"https://github.com/OpenZeppelin/openzeppelin-contracts/blob/master/contracts/access/Ownable.sol\":1668:1769  function renounceOwnership() public virtual onlyOwner {... */\n    tag_5:\n      callvalue\n      dup1\n      iszero\n      tag_26\n      jumpi\n      0x00\n      dup1\n      revert\n    tag_26:\n      pop\n      tag_15\n      tag_28\n      jump\t// in\n        /* \"https://github.com/OpenZeppelin/openzeppelin-contracts/blob/master/contracts/access/Ownable.sol\":1036:1121  function owner() public view virtual returns (address) {... */\n    tag_6:\n      callvalue\n      dup1\n      iszero\n      tag_29\n      jumpi\n      0x00\n      dup1\n      revert\n    tag_29:\n      pop\n      tag_30\n      tag_31\n      jump\t// in\n    tag_30:\n      mload(0x40)\n      tag_24\n      swap2\n      swap1\n      tag_33\n      jump\t// in\n        /* \"contracts/02_simple/SharedWallet.sol\":609:724  function reduceAllowance(address _who, uint _amount) public onlyOwner {\r... */\n    tag_7:\n      callvalue\n      dup1\n      iszero\n      tag_34\n      jumpi\n      0x00\n      dup1\n      revert\n    tag_34:\n      pop\n      tag_15\n      tag_36\n      calldatasize\n      0x04\n      tag_17\n      jump\t// in\n    tag_36:\n      tag_37\n      jump\t// in\n        /* \"contracts/02_simple/SharedWallet.sol\":889:1195  function withdrawMoney(address payable _to, uint _amount) public ownerOrAllowed(_amount) {\r... */\n    tag_8:\n      callvalue\n      dup1\n      iszero\n      tag_38\n      jumpi\n      0x00\n      dup1\n      revert\n    tag_38:\n      pop\n      tag_15\n      tag_40\n      calldatasize\n      0x04\n      tag_41\n      jump\t// in\n    tag_40:\n      tag_42\n      jump\t// in\n        /* \"https://github.com/OpenZeppelin/openzeppelin-contracts/blob/master/contracts/access/Ownable.sol\":1918:2116  function transferOwnership(address newOwner) public virtual onlyOwner {... */\n    tag_9:\n      callvalue\n      dup1\n      iszero\n      tag_43\n      jumpi\n      0x00\n      dup1\n      revert\n    tag_43:\n      pop\n      tag_15\n      tag_45\n      calldatasize\n      0x04\n      tag_22\n      jump\t// in\n    tag_45:\n      tag_46\n      jump\t// in\n        /* \"contracts/02_simple/SharedWallet.sol\":369:481  function setAllowance(address _who, uint _amount) public onlyOwner {\r... */\n    tag_18:\n        /* \"https://github.com/OpenZeppelin/openzeppelin-contracts/blob/master/contracts/access/Ownable.sol\":1259:1271  _msgSender() */\n      tag_52\n        /* \"https://github.com/OpenZeppelin/openzeppelin-contracts/blob/master/contracts/access/Ownable.sol\":1259:1269  _msgSender */\n      tag_53\n        /* \"https://github.com/OpenZeppelin/openzeppelin-contracts/blob/master/contracts/access/Ownable.sol\":1259:1271  _msgSender() */\n      jump\t// in\n    tag_52:\n      sub(shl(0xa0, 0x01), 0x01)\n        /* \"https://github.com/OpenZeppelin/openzeppelin-contracts/blob/master/contracts/access/Ownable.sol\":1248:1271  owner() == _msgSender() */\n      and\n        /* \"https://github.com/OpenZeppelin/openzeppelin-contracts/blob/master/contracts/access/Ownable.sol\":1248:1255  owner() */\n      tag_54\n        /* \"https://github.com/OpenZeppelin/openzeppelin-contracts/blob/master/contracts/access/Ownable.sol\":1248:1253  owner */\n      tag_31\n        /* \"https://github.com/OpenZeppelin/openzeppelin-contracts/blob/master/contracts/access/Ownable.sol\":1248:1255  owner() */\n      jump\t// in\n    tag_54:\n      sub(shl(0xa0, 0x01), 0x01)\n        /* \"https://github.com/OpenZeppelin/openzeppelin-contracts/blob/master/contracts/access/Ownable.sol\":1248:1271  owner() == _msgSender() */\n      and\n      eq\n        /* \"https://github.com/OpenZeppelin/openzeppelin-contracts/blob/master/contracts/access/Ownable.sol\":1240:1308  require(owner() == _msgSender(), \"Ownable: caller is not the owner\") */\n      tag_55\n      jumpi\n      mload(0x40)\n      shl(0xe5, 0x461bcd)\n      dup2\n      mstore\n      0x04\n      add\n      tag_56\n      swap1\n      tag_57\n      jump\t// in\n    tag_56:\n      mload(0x40)\n      dup1\n      swap2\n      sub\n      swap1\n      revert\n    tag_55:\n      sub(shl(0xa0, 0x01), 0x01)\n        /* \"contracts/02_simple/SharedWallet.sol\":447:462  allowance[_who] */\n      dup3\n      and\n      0x00\n      swap1\n      dup2\n      mstore\n        /* \"contracts/02_simple/SharedWallet.sol\":447:456  allowance */\n      0x01\n        /* \"contracts/02_simple/SharedWallet.sol\":447:462  allowance[_who] */\n      0x20\n      mstore\n      0x40\n      dup2\n      keccak256\n        /* \"contracts/02_simple/SharedWallet.sol\":447:473  allowance[_who] += _amount */\n      dup1\n      sload\n        /* \"contracts/02_simple/SharedWallet.sol\":466:473  _amount */\n      dup4\n      swap3\n        /* \"contracts/02_simple/SharedWallet.sol\":447:462  allowance[_who] */\n      swap1\n        /* \"contracts/02_simple/SharedWallet.sol\":447:473  allowance[_who] += _amount */\n      tag_59\n      swap1\n        /* \"contracts/02_simple/SharedWallet.sol\":466:473  _amount */\n      dup5\n      swap1\n        /* \"contracts/02_simple/SharedWallet.sol\":447:473  allowance[_who] += _amount */\n      tag_60\n      jump\t// in\n    tag_59:\n      swap1\n      swap2\n      sstore\n      pop\n      pop\n      pop\n      pop\n        /* \"contracts/02_simple/SharedWallet.sol\":369:481  function setAllowance(address _who, uint _amount) public onlyOwner {\r... */\n      jump\t// out\n        /* \"contracts/02_simple/SharedWallet.sol\":315:356  mapping(address => uint) public allowance */\n    tag_23:\n      mstore(0x20, 0x01)\n      0x00\n      swap1\n      dup2\n      mstore\n      0x40\n      swap1\n      keccak256\n      sload\n      dup2\n      jump\t// out\n        /* \"https://github.com/OpenZeppelin/openzeppelin-contracts/blob/master/contracts/access/Ownable.sol\":1668:1769  function renounceOwnership() public virtual onlyOwner {... */\n    tag_28:\n        /* \"https://github.com/OpenZeppelin/openzeppelin-contracts/blob/master/contracts/access/Ownable.sol\":1259:1271  _msgSender() */\n      tag_62\n        /* \"https://github.com/OpenZeppelin/openzeppelin-contracts/blob/master/contracts/access/Ownable.sol\":1259:1269  _msgSender */\n      tag_53\n        /* \"https://github.com/OpenZeppelin/openzeppelin-contracts/blob/master/contracts/access/Ownable.sol\":1259:1271  _msgSender() */\n      jump\t// in\n    tag_62:\n      sub(shl(0xa0, 0x01), 0x01)\n        /* \"https://github.com/OpenZeppelin/openzeppelin-contracts/blob/master/contracts/access/Ownable.sol\":1248:1271  owner() == _msgSender() */\n      and\n        /* \"https://github.com/OpenZeppelin/openzeppelin-contracts/blob/master/contracts/access/Ownable.sol\":1248:1255  owner() */\n      tag_63\n        /* \"https://github.com/OpenZeppelin/openzeppelin-contracts/blob/master/contracts/access/Ownable.sol\":1248:1253  owner */\n      tag_31\n        /* \"https://github.com/OpenZeppelin/openzeppelin-contracts/blob/master/contracts/access/Ownable.sol\":1248:1255  owner() */\n      jump\t// in\n    tag_63:\n      sub(shl(0xa0, 0x01), 0x01)\n        /* \"https://github.com/OpenZeppelin/openzeppelin-contracts/blob/master/contracts/access/Ownable.sol\":1248:1271  owner() == _msgSender() */\n      and\n      eq\n        /* \"https://github.com/OpenZeppelin/openzeppelin-contracts/blob/master/contracts/access/Ownable.sol\":1240:1308  require(owner() == _msgSender(), \"Ownable: caller is not the owner\") */\n      tag_64\n      jumpi\n      mload(0x40)\n      shl(0xe5, 0x461bcd)\n      dup2\n      mstore\n      0x04\n      add\n      tag_56\n      swap1\n      tag_57\n      jump\t// in\n    tag_64:\n        /* \"https://github.com/OpenZeppelin/openzeppelin-contracts/blob/master/contracts/access/Ownable.sol\":1732:1762  _transferOwnership(address(0)) */\n      tag_67\n        /* \"https://github.com/OpenZeppelin/openzeppelin-contracts/blob/master/contracts/access/Ownable.sol\":1759:1760  0 */\n      0x00\n        /* \"https://github.com/OpenZeppelin/openzeppelin-contracts/blob/master/contracts/access/Ownable.sol\":1732:1750  _transferOwnership */\n      tag_68\n        /* \"https://github.com/OpenZeppelin/openzeppelin-contracts/blob/master/contracts/access/Ownable.sol\":1732:1762  _transferOwnership(address(0)) */\n      jump\t// in\n    tag_67:\n        /* \"https://github.com/OpenZeppelin/openzeppelin-contracts/blob/master/contracts/access/Ownable.sol\":1668:1769  function renounceOwnership() public virtual onlyOwner {... */\n      jump\t// out\n        /* \"https://github.com/OpenZeppelin/openzeppelin-contracts/blob/master/contracts/access/Ownable.sol\":1036:1121  function owner() public view virtual returns (address) {... */\n    tag_31:\n        /* \"https://github.com/OpenZeppelin/openzeppelin-contracts/blob/master/contracts/access/Ownable.sol\":1082:1089  address */\n      0x00\n        /* \"https://github.com/OpenZeppelin/openzeppelin-contracts/blob/master/contracts/access/Ownable.sol\":1108:1114  _owner */\n      sload\n      sub(shl(0xa0, 0x01), 0x01)\n      and\n        /* \"https://github.com/OpenZeppelin/openzeppelin-contracts/blob/master/contracts/access/Ownable.sol\":1036:1121  function owner() public view virtual returns (address) {... */\n      swap1\n      jump\t// out\n        /* \"contracts/02_simple/SharedWallet.sol\":609:724  function reduceAllowance(address _who, uint _amount) public onlyOwner {\r... */\n    tag_37:\n        /* \"https://github.com/OpenZeppelin/openzeppelin-contracts/blob/master/contracts/access/Ownable.sol\":1259:1271  _msgSender() */\n      tag_71\n        /* \"https://github.com/OpenZeppelin/openzeppelin-contracts/blob/master/contracts/access/Ownable.sol\":1259:1269  _msgSender */\n      tag_53\n        /* \"https://github.com/OpenZeppelin/openzeppelin-contracts/blob/master/contracts/access/Ownable.sol\":1259:1271  _msgSender() */\n      jump\t// in\n    tag_71:\n      sub(shl(0xa0, 0x01), 0x01)\n        /* \"https://github.com/OpenZeppelin/openzeppelin-contracts/blob/master/contracts/access/Ownable.sol\":1248:1271  owner() == _msgSender() */\n      and\n        /* \"https://github.com/OpenZeppelin/openzeppelin-contracts/blob/master/contracts/access/Ownable.sol\":1248:1255  owner() */\n      tag_72\n        /* \"https://github.com/OpenZeppelin/openzeppelin-contracts/blob/master/contracts/access/Ownable.sol\":1248:1253  owner */\n      tag_31\n        /* \"https://github.com/OpenZeppelin/openzeppelin-contracts/blob/master/contracts/access/Ownable.sol\":1248:1255  owner() */\n      jump\t// in\n    tag_72:\n      sub(shl(0xa0, 0x01), 0x01)\n        /* \"https://github.com/OpenZeppelin/openzeppelin-contracts/blob/master/contracts/access/Ownable.sol\":1248:1271  owner() == _msgSender() */\n      and\n      eq\n        /* \"https://github.com/OpenZeppelin/openzeppelin-contracts/blob/master/contracts/access/Ownable.sol\":1240:1308  require(owner() == _msgSender(), \"Ownable: caller is not the owner\") */\n      tag_73\n      jumpi\n      mload(0x40)\n      shl(0xe5, 0x461bcd)\n      dup2\n      mstore\n      0x04\n      add\n      tag_56\n      swap1\n      tag_57\n      jump\t// in\n    tag_73:\n      sub(shl(0xa0, 0x01), 0x01)\n        /* \"contracts/02_simple/SharedWallet.sol\":690:705  allowance[_who] */\n      dup3\n      and\n      0x00\n      swap1\n      dup2\n      mstore\n        /* \"contracts/02_simple/SharedWallet.sol\":690:699  allowance */\n      0x01\n        /* \"contracts/02_simple/SharedWallet.sol\":690:705  allowance[_who] */\n      0x20\n      mstore\n      0x40\n      dup2\n      keccak256\n        /* \"contracts/02_simple/SharedWallet.sol\":690:716  allowance[_who] -= _amount */\n      dup1\n      sload\n        /* \"contracts/02_simple/SharedWallet.sol\":709:716  _amount */\n      dup4\n      swap3\n        /* \"contracts/02_simple/SharedWallet.sol\":690:705  allowance[_who] */\n      swap1\n        /* \"contracts/02_simple/SharedWallet.sol\":690:716  allowance[_who] -= _amount */\n      tag_59\n      swap1\n        /* \"contracts/02_simple/SharedWallet.sol\":709:716  _amount */\n      dup5\n      swap1\n        /* \"contracts/02_simple/SharedWallet.sol\":690:716  allowance[_who] -= _amount */\n      tag_77\n      jump\t// in\n        /* \"contracts/02_simple/SharedWallet.sol\":889:1195  function withdrawMoney(address payable _to, uint _amount) public ownerOrAllowed(_amount) {\r... */\n    tag_42:\n        /* \"contracts/02_simple/SharedWallet.sol\":969:976  _amount */\n      dup1\n        /* \"contracts/02_simple/SharedWallet.sol\":791:800  isOwner() */\n      tag_79\n        /* \"contracts/02_simple/SharedWallet.sol\":791:798  isOwner */\n      tag_80\n        /* \"contracts/02_simple/SharedWallet.sol\":791:800  isOwner() */\n      jump\t// in\n    tag_79:\n        /* \"contracts/02_simple/SharedWallet.sol\":791:836  isOwner() || allowance[msg.sender] >= _amount */\n      dup1\n      tag_81\n      jumpi\n      pop\n        /* \"contracts/02_simple/SharedWallet.sol\":814:824  msg.sender */\n      caller\n        /* \"contracts/02_simple/SharedWallet.sol\":804:825  allowance[msg.sender] */\n      0x00\n      swap1\n      dup2\n      mstore\n        /* \"contracts/02_simple/SharedWallet.sol\":804:813  allowance */\n      0x01\n        /* \"contracts/02_simple/SharedWallet.sol\":804:825  allowance[msg.sender] */\n      0x20\n      mstore\n      0x40\n      swap1\n      keccak256\n      sload\n        /* \"contracts/02_simple/SharedWallet.sol\":804:836  allowance[msg.sender] >= _amount */\n      dup2\n      gt\n      iszero\n        /* \"contracts/02_simple/SharedWallet.sol\":791:836  isOwner() || allowance[msg.sender] >= _amount */\n    tag_81:\n        /* \"contracts/02_simple/SharedWallet.sol\":783:861  require(isOwner() || allowance[msg.sender] >= _amount, \"You are not allowed!\") */\n      tag_82\n      jumpi\n      mload(0x40)\n      shl(0xe5, 0x461bcd)\n      dup2\n      mstore\n      0x04\n      add\n      tag_56\n      swap1\n      tag_84\n      jump\t// in\n    tag_82:\n        /* \"contracts/02_simple/SharedWallet.sol\":1008:1029  address(this).balance */\n      selfbalance\n        /* \"contracts/02_simple/SharedWallet.sol\":997:1004  _amount */\n      dup3\n        /* \"contracts/02_simple/SharedWallet.sol\":997:1029  _amount <= address(this).balance */\n      gt\n      iszero\n        /* \"contracts/02_simple/SharedWallet.sol\":989:1067  require(_amount <= address(this).balance, \"Contract doesn't own enough money\") */\n      tag_86\n      jumpi\n      mload(0x40)\n      shl(0xe5, 0x461bcd)\n      dup2\n      mstore\n      0x04\n      add\n      tag_56\n      swap1\n      tag_88\n      jump\t// in\n    tag_86:\n        /* \"contracts/02_simple/SharedWallet.sol\":1082:1091  isOwner() */\n      tag_89\n        /* \"contracts/02_simple/SharedWallet.sol\":1082:1089  isOwner */\n      tag_80\n        /* \"contracts/02_simple/SharedWallet.sol\":1082:1091  isOwner() */\n      jump\t// in\n    tag_89:\n        /* \"contracts/02_simple/SharedWallet.sol\":1078:1156  if(!isOwner()) {\r... */\n      tag_91\n      jumpi\n        /* \"contracts/02_simple/SharedWallet.sol\":1108:1144  reduceAllowance(msg.sender, _amount) */\n      tag_91\n        /* \"contracts/02_simple/SharedWallet.sol\":1124:1134  msg.sender */\n      caller\n        /* \"contracts/02_simple/SharedWallet.sol\":1136:1143  _amount */\n      dup4\n        /* \"contracts/02_simple/SharedWallet.sol\":1108:1123  reduceAllowance */\n      tag_37\n        /* \"contracts/02_simple/SharedWallet.sol\":1108:1144  reduceAllowance(msg.sender, _amount) */\n      jump\t// in\n    tag_91:\n        /* \"contracts/02_simple/SharedWallet.sol\":1166:1187  _to.transfer(_amount) */\n      mload(0x40)\n      sub(shl(0xa0, 0x01), 0x01)\n        /* \"contracts/02_simple/SharedWallet.sol\":1166:1178  _to.transfer */\n      dup5\n      and\n      swap1\n        /* \"contracts/02_simple/SharedWallet.sol\":1166:1187  _to.transfer(_amount) */\n      dup4\n      iszero\n      0x08fc\n      mul\n      swap1\n        /* \"contracts/02_simple/SharedWallet.sol\":1179:1186  _amount */\n      dup5\n      swap1\n        /* \"contracts/02_simple/SharedWallet.sol\":1166:1187  _to.transfer(_amount) */\n      0x00\n      dup2\n      dup2\n      dup2\n        /* \"contracts/02_simple/SharedWallet.sol\":1179:1186  _amount */\n      dup6\n        /* \"contracts/02_simple/SharedWallet.sol\":1166:1178  _to.transfer */\n      dup9\n        /* \"contracts/02_simple/SharedWallet.sol\":1166:1187  _to.transfer(_amount) */\n      dup9\n      call\n      swap4\n      pop\n      pop\n      pop\n      pop\n      iszero\n      dup1\n      iszero\n      tag_93\n      jumpi\n      returndatasize\n      0x00\n      dup1\n      returndatacopy\n      revert(0x00, returndatasize)\n    tag_93:\n      pop\n        /* \"contracts/02_simple/SharedWallet.sol\":889:1195  function withdrawMoney(address payable _to, uint _amount) public ownerOrAllowed(_amount) {\r... */\n      pop\n      pop\n      pop\n      jump\t// out\n        /* \"https://github.com/OpenZeppelin/openzeppelin-contracts/blob/master/contracts/access/Ownable.sol\":1918:2116  function transferOwnership(address newOwner) public virtual onlyOwner {... */\n    tag_46:\n        /* \"https://github.com/OpenZeppelin/openzeppelin-contracts/blob/master/contracts/access/Ownable.sol\":1259:1271  _msgSender() */\n      tag_95\n        /* \"https://github.com/OpenZeppelin/openzeppelin-contracts/blob/master/contracts/access/Ownable.sol\":1259:1269  _msgSender */\n      tag_53\n        /* \"https://github.com/OpenZeppelin/openzeppelin-contracts/blob/master/contracts/access/Ownable.sol\":1259:1271  _msgSender() */\n      jump\t// in\n    tag_95:\n      sub(shl(0xa0, 0x01), 0x01)\n        /* \"https://github.com/OpenZeppelin/openzeppelin-contracts/blob/master/contracts/access/Ownable.sol\":1248:1271  owner() == _msgSender() */\n      and\n        /* \"https://github.com/OpenZeppelin/openzeppelin-contracts/blob/master/contracts/access/Ownable.sol\":1248:1255  owner() */\n      tag_96\n        /* \"https://github.com/OpenZeppelin/openzeppelin-contracts/blob/master/contracts/access/Ownable.sol\":1248:1253  owner */\n      tag_31\n        /* \"https://github.com/OpenZeppelin/openzeppelin-contracts/blob/master/contracts/access/Ownable.sol\":1248:1255  owner() */\n      jump\t// in\n    tag_96:\n      sub(shl(0xa0, 0x01), 0x01)\n        /* \"https://github.com/OpenZeppelin/openzeppelin-contracts/blob/master/contracts/access/Ownable.sol\":1248:1271  owner() == _msgSender() */\n      and\n      eq\n        /* \"https://github.com/OpenZeppelin/openzeppelin-contracts/blob/master/contracts/access/Ownable.sol\":1240:1308  require(owner() == _msgSender(), \"Ownable: caller is not the owner\") */\n      tag_97\n      jumpi\n      mload(0x40)\n      shl(0xe5, 0x461bcd)\n      dup2\n      mstore\n      0x04\n      add\n      tag_56\n      swap1\n      tag_57\n      jump\t// in\n    tag_97:\n      sub(shl(0xa0, 0x01), 0x01)\n        /* \"https://github.com/OpenZeppelin/openzeppelin-contracts/blob/master/contracts/access/Ownable.sol\":2006:2028  newOwner != address(0) */\n      dup2\n      and\n        /* \"https://github.com/OpenZeppelin/openzeppelin-contracts/blob/master/contracts/access/Ownable.sol\":1998:2071  require(newOwner != address(0), \"Ownable: new owner is the zero address\") */\n      tag_100\n      jumpi\n      mload(0x40)\n      shl(0xe5, 0x461bcd)\n      dup2\n      mstore\n      0x04\n      add\n      tag_56\n      swap1\n      tag_102\n      jump\t// in\n    tag_100:\n        /* \"https://github.com/OpenZeppelin/openzeppelin-contracts/blob/master/contracts/access/Ownable.sol\":2081:2109  _transferOwnership(newOwner) */\n      tag_103\n        /* \"https://github.com/OpenZeppelin/openzeppelin-contracts/blob/master/contracts/access/Ownable.sol\":2100:2108  newOwner */\n      dup2\n        /* \"https://github.com/OpenZeppelin/openzeppelin-contracts/blob/master/contracts/access/Ownable.sol\":2081:2099  _transferOwnership */\n      tag_68\n        /* \"https://github.com/OpenZeppelin/openzeppelin-contracts/blob/master/contracts/access/Ownable.sol\":2081:2109  _transferOwnership(newOwner) */\n      jump\t// in\n    tag_103:\n        /* \"https://github.com/OpenZeppelin/openzeppelin-contracts/blob/master/contracts/access/Ownable.sol\":1918:2116  function transferOwnership(address newOwner) public virtual onlyOwner {... */\n      pop\n      jump\t// out\n        /* \"https://github.com/OpenZeppelin/openzeppelin-contracts/blob/master/contracts/utils/Context.sol\":640:736  function _msgSender() internal view virtual returns (address) {... */\n    tag_53:\n        /* \"https://github.com/OpenZeppelin/openzeppelin-contracts/blob/master/contracts/utils/Context.sol\":719:729  msg.sender */\n      caller\n        /* \"https://github.com/OpenZeppelin/openzeppelin-contracts/blob/master/contracts/utils/Context.sol\":640:736  function _msgSender() internal view virtual returns (address) {... */\n      swap1\n      jump\t// out\n        /* \"https://github.com/OpenZeppelin/openzeppelin-contracts/blob/master/contracts/access/Ownable.sol\":2270:2457  function _transferOwnership(address newOwner) internal virtual {... */\n    tag_68:\n        /* \"https://github.com/OpenZeppelin/openzeppelin-contracts/blob/master/contracts/access/Ownable.sol\":2343:2359  address oldOwner */\n      0x00\n        /* \"https://github.com/OpenZeppelin/openzeppelin-contracts/blob/master/contracts/access/Ownable.sol\":2362:2368  _owner */\n      dup1\n      sload\n      sub(shl(0xa0, 0x01), 0x01)\n        /* \"https://github.com/OpenZeppelin/openzeppelin-contracts/blob/master/contracts/access/Ownable.sol\":2378:2395  _owner = newOwner */\n      dup4\n      dup2\n      and\n      not(sub(shl(0xa0, 0x01), 0x01))\n      dup4\n      and\n      dup2\n      or\n      dup5\n      sstore\n        /* \"https://github.com/OpenZeppelin/openzeppelin-contracts/blob/master/contracts/access/Ownable.sol\":2410:2450  OwnershipTransferred(oldOwner, newOwner) */\n      mload(0x40)\n        /* \"https://github.com/OpenZeppelin/openzeppelin-contracts/blob/master/contracts/access/Ownable.sol\":2362:2368  _owner */\n      swap2\n      swap1\n      swap3\n      and\n      swap3\n      dup4\n      swap2\n        /* \"https://github.com/OpenZeppelin/openzeppelin-contracts/blob/master/contracts/access/Ownable.sol\":2410:2450  OwnershipTransferred(oldOwner, newOwner) */\n      0x8be0079c531659141344cd1fd0a4f28419497f9722a3daafe3b4186f6b6457e0\n      swap2\n        /* \"https://github.com/OpenZeppelin/openzeppelin-contracts/blob/master/contracts/access/Ownable.sol\":2343:2359  address oldOwner */\n      swap1\n        /* \"https://github.com/OpenZeppelin/openzeppelin-contracts/blob/master/contracts/access/Ownable.sol\":2410:2450  OwnershipTransferred(oldOwner, newOwner) */\n      log3\n        /* \"https://github.com/OpenZeppelin/openzeppelin-contracts/blob/master/contracts/access/Ownable.sol\":2270:2457  function _transferOwnership(address newOwner) internal virtual {... */\n      pop\n      pop\n      jump\t// out\n        /* \"contracts/02_simple/SharedWallet.sol\":213:307  function isOwner() internal view returns(bool) {\r... */\n    tag_80:\n        /* \"contracts/02_simple/SharedWallet.sol\":254:258  bool */\n      0x00\n        /* \"contracts/02_simple/SharedWallet.sol\":289:299  msg.sender */\n      caller\n        /* \"contracts/02_simple/SharedWallet.sol\":278:285  owner() */\n      tag_114\n        /* \"contracts/02_simple/SharedWallet.sol\":278:283  owner */\n      tag_31\n        /* \"contracts/02_simple/SharedWallet.sol\":278:285  owner() */\n      jump\t// in\n    tag_114:\n      sub(shl(0xa0, 0x01), 0x01)\n        /* \"contracts/02_simple/SharedWallet.sol\":278:299  owner() == msg.sender */\n      and\n      eq\n        /* \"contracts/02_simple/SharedWallet.sol\":271:299  return owner() == msg.sender */\n      swap1\n      pop\n        /* \"contracts/02_simple/SharedWallet.sol\":213:307  function isOwner() internal view returns(bool) {\r... */\n      swap1\n      jump\t// out\n        /* \"#utility.yul\":14:273   */\n    tag_22:\n      0x00\n        /* \"#utility.yul\":126:128   */\n      0x20\n        /* \"#utility.yul\":114:123   */\n      dup3\n        /* \"#utility.yul\":105:112   */\n      dup5\n        /* \"#utility.yul\":101:124   */\n      sub\n        /* \"#utility.yul\":97:129   */\n      slt\n        /* \"#utility.yul\":94:96   */\n      iszero\n      tag_117\n      jumpi\n        /* \"#utility.yul\":147:153   */\n      dup1\n        /* \"#utility.yul\":139:145   */\n      dup2\n        /* \"#utility.yul\":132:154   */\n      revert\n        /* \"#utility.yul\":94:96   */\n    tag_117:\n        /* \"#utility.yul\":191:200   */\n      dup2\n        /* \"#utility.yul\":178:201   */\n      calldataload\n        /* \"#utility.yul\":210:243   */\n      tag_118\n        /* \"#utility.yul\":237:242   */\n      dup2\n        /* \"#utility.yul\":210:243   */\n      tag_119\n      jump\t// in\n    tag_118:\n        /* \"#utility.yul\":262:267   */\n      swap4\n        /* \"#utility.yul\":84:273   */\n      swap3\n      pop\n      pop\n      pop\n      jump\t// out\n        /* \"#utility.yul\":278:613   */\n    tag_41:\n      0x00\n      dup1\n        /* \"#utility.yul\":415:417   */\n      0x40\n        /* \"#utility.yul\":403:412   */\n      dup4\n        /* \"#utility.yul\":394:401   */\n      dup6\n        /* \"#utility.yul\":390:413   */\n      sub\n        /* \"#utility.yul\":386:418   */\n      slt\n        /* \"#utility.yul\":383:385   */\n      iszero\n      tag_121\n      jumpi\n        /* \"#utility.yul\":436:442   */\n      dup1\n        /* \"#utility.yul\":428:434   */\n      dup2\n        /* \"#utility.yul\":421:443   */\n      revert\n        /* \"#utility.yul\":383:385   */\n    tag_121:\n        /* \"#utility.yul\":480:489   */\n      dup3\n        /* \"#utility.yul\":467:490   */\n      calldataload\n        /* \"#utility.yul\":499:532   */\n      tag_122\n        /* \"#utility.yul\":526:531   */\n      dup2\n        /* \"#utility.yul\":499:532   */\n      tag_119\n      jump\t// in\n    tag_122:\n        /* \"#utility.yul\":551:556   */\n      swap5\n        /* \"#utility.yul\":603:605   */\n      0x20\n        /* \"#utility.yul\":588:606   */\n      swap4\n      swap1\n      swap4\n      add\n        /* \"#utility.yul\":575:607   */\n      calldataload\n      swap4\n      pop\n      pop\n      pop\n        /* \"#utility.yul\":373:613   */\n      jump\t// out\n        /* \"#utility.yul\":618:945   */\n    tag_17:\n      0x00\n      dup1\n        /* \"#utility.yul\":747:749   */\n      0x40\n        /* \"#utility.yul\":735:744   */\n      dup4\n        /* \"#utility.yul\":726:733   */\n      dup6\n        /* \"#utility.yul\":722:745   */\n      sub\n        /* \"#utility.yul\":718:750   */\n      slt\n        /* \"#utility.yul\":715:717   */\n      iszero\n      tag_121\n      jumpi\n        /* \"#utility.yul\":768:774   */\n      dup2\n        /* \"#utility.yul\":760:766   */\n      dup3\n        /* \"#utility.yul\":753:775   */\n      revert\n        /* \"#utility.yul\":950:1153   */\n    tag_33:\n      sub(shl(0xa0, 0x01), 0x01)\n        /* \"#utility.yul\":1114:1146   */\n      swap2\n      swap1\n      swap2\n      and\n        /* \"#utility.yul\":1096:1147   */\n      dup2\n      mstore\n        /* \"#utility.yul\":1084:1086   */\n      0x20\n        /* \"#utility.yul\":1069:1087   */\n      add\n      swap1\n        /* \"#utility.yul\":1051:1153   */\n      jump\t// out\n        /* \"#utility.yul\":1158:1560   */\n    tag_102:\n        /* \"#utility.yul\":1360:1362   */\n      0x20\n        /* \"#utility.yul\":1342:1363   */\n      dup1\n      dup3\n      mstore\n        /* \"#utility.yul\":1399:1401   */\n      0x26\n        /* \"#utility.yul\":1379:1397   */\n      swap1\n      dup3\n      add\n        /* \"#utility.yul\":1372:1402   */\n      mstore\n        /* \"#utility.yul\":1438:1472   */\n      0x4f776e61626c653a206e6577206f776e657220697320746865207a65726f2061\n        /* \"#utility.yul\":1433:1435   */\n      0x40\n        /* \"#utility.yul\":1418:1436   */\n      dup3\n      add\n        /* \"#utility.yul\":1411:1473   */\n      mstore\n      shl(0xd0, 0x646472657373)\n        /* \"#utility.yul\":1504:1506   */\n      0x60\n        /* \"#utility.yul\":1489:1507   */\n      dup3\n      add\n        /* \"#utility.yul\":1482:1518   */\n      mstore\n        /* \"#utility.yul\":1550:1553   */\n      0x80\n        /* \"#utility.yul\":1535:1554   */\n      add\n      swap1\n        /* \"#utility.yul\":1332:1560   */\n      jump\t// out\n        /* \"#utility.yul\":1565:1962   */\n    tag_88:\n        /* \"#utility.yul\":1767:1769   */\n      0x20\n        /* \"#utility.yul\":1749:1770   */\n      dup1\n      dup3\n      mstore\n        /* \"#utility.yul\":1806:1808   */\n      0x21\n        /* \"#utility.yul\":1786:1804   */\n      swap1\n      dup3\n      add\n        /* \"#utility.yul\":1779:1809   */\n      mstore\n        /* \"#utility.yul\":1845:1879   */\n      0x436f6e747261637420646f65736e2774206f776e20656e6f756768206d6f6e65\n        /* \"#utility.yul\":1840:1842   */\n      0x40\n        /* \"#utility.yul\":1825:1843   */\n      dup3\n      add\n        /* \"#utility.yul\":1818:1880   */\n      mstore\n      shl(0xf8, 0x79)\n        /* \"#utility.yul\":1911:1913   */\n      0x60\n        /* \"#utility.yul\":1896:1914   */\n      dup3\n      add\n        /* \"#utility.yul\":1889:1920   */\n      mstore\n        /* \"#utility.yul\":1952:1955   */\n      0x80\n        /* \"#utility.yul\":1937:1956   */\n      add\n      swap1\n        /* \"#utility.yul\":1739:1962   */\n      jump\t// out\n        /* \"#utility.yul\":1967:2323   */\n    tag_57:\n        /* \"#utility.yul\":2169:2171   */\n      0x20\n        /* \"#utility.yul\":2151:2172   */\n      dup1\n      dup3\n      mstore\n        /* \"#utility.yul\":2188:2206   */\n      dup2\n      dup2\n      add\n        /* \"#utility.yul\":2181:2211   */\n      mstore\n        /* \"#utility.yul\":2247:2281   */\n      0x4f776e61626c653a2063616c6c6572206973206e6f7420746865206f776e6572\n        /* \"#utility.yul\":2242:2244   */\n      0x40\n        /* \"#utility.yul\":2227:2245   */\n      dup3\n      add\n        /* \"#utility.yul\":2220:2282   */\n      mstore\n        /* \"#utility.yul\":2314:2316   */\n      0x60\n        /* \"#utility.yul\":2299:2317   */\n      add\n      swap1\n        /* \"#utility.yul\":2141:2323   */\n      jump\t// out\n        /* \"#utility.yul\":2328:2672   */\n    tag_84:\n        /* \"#utility.yul\":2530:2532   */\n      0x20\n        /* \"#utility.yul\":2512:2533   */\n      dup1\n      dup3\n      mstore\n        /* \"#utility.yul\":2569:2571   */\n      0x14\n        /* \"#utility.yul\":2549:2567   */\n      swap1\n      dup3\n      add\n        /* \"#utility.yul\":2542:2572   */\n      mstore\n      shl(0x60, 0x596f7520617265206e6f7420616c6c6f77656421)\n        /* \"#utility.yul\":2603:2605   */\n      0x40\n        /* \"#utility.yul\":2588:2606   */\n      dup3\n      add\n        /* \"#utility.yul\":2581:2631   */\n      mstore\n        /* \"#utility.yul\":2663:2665   */\n      0x60\n        /* \"#utility.yul\":2648:2666   */\n      add\n      swap1\n        /* \"#utility.yul\":2502:2672   */\n      jump\t// out\n        /* \"#utility.yul\":2677:2854   */\n    tag_25:\n        /* \"#utility.yul\":2823:2848   */\n      swap1\n      dup2\n      mstore\n        /* \"#utility.yul\":2811:2813   */\n      0x20\n        /* \"#utility.yul\":2796:2814   */\n      add\n      swap1\n        /* \"#utility.yul\":2778:2854   */\n      jump\t// out\n        /* \"#utility.yul\":2859:2987   */\n    tag_60:\n      0x00\n        /* \"#utility.yul\":2930:2931   */\n      dup3\n        /* \"#utility.yul\":2926:2932   */\n      not\n        /* \"#utility.yul\":2923:2924   */\n      dup3\n        /* \"#utility.yul\":2920:2933   */\n      gt\n        /* \"#utility.yul\":2917:2919   */\n      iszero\n      tag_134\n      jumpi\n        /* \"#utility.yul\":2936:2954   */\n      tag_134\n      tag_135\n      jump\t// in\n    tag_134:\n      pop\n        /* \"#utility.yul\":2972:2981   */\n      add\n      swap1\n        /* \"#utility.yul\":2907:2987   */\n      jump\t// out\n        /* \"#utility.yul\":2992:3117   */\n    tag_77:\n      0x00\n        /* \"#utility.yul\":3060:3061   */\n      dup3\n        /* \"#utility.yul\":3057:3058   */\n      dup3\n        /* \"#utility.yul\":3054:3062   */\n      lt\n        /* \"#utility.yul\":3051:3053   */\n      iszero\n      tag_138\n      jumpi\n        /* \"#utility.yul\":3065:3083   */\n      tag_138\n      tag_135\n      jump\t// in\n    tag_138:\n      pop\n        /* \"#utility.yul\":3102:3111   */\n      sub\n      swap1\n        /* \"#utility.yul\":3041:3117   */\n      jump\t// out\n        /* \"#utility.yul\":3122:3249   */\n    tag_135:\n        /* \"#utility.yul\":3183:3193   */\n      0x4e487b71\n        /* \"#utility.yul\":3178:3181   */\n      0xe0\n        /* \"#utility.yul\":3174:3194   */\n      shl\n        /* \"#utility.yul\":3171:3172   */\n      0x00\n        /* \"#utility.yul\":3164:3195   */\n      mstore\n        /* \"#utility.yul\":3214:3218   */\n      0x11\n        /* \"#utility.yul\":3211:3212   */\n      0x04\n        /* \"#utility.yul\":3204:3219   */\n      mstore\n        /* \"#utility.yul\":3238:3242   */\n      0x24\n        /* \"#utility.yul\":3235:3236   */\n      0x00\n        /* \"#utility.yul\":3228:3243   */\n      revert\n        /* \"#utility.yul\":3254:3387   */\n    tag_119:\n      sub(shl(0xa0, 0x01), 0x01)\n        /* \"#utility.yul\":3331:3362   */\n      dup2\n      and\n        /* \"#utility.yul\":3321:3363   */\n      dup2\n      eq\n        /* \"#utility.yul\":3311:3313   */\n      tag_103\n      jumpi\n        /* \"#utility.yul\":3377:3378   */\n      0x00\n        /* \"#utility.yul\":3374:3375   */\n      dup1\n        /* \"#utility.yul\":3367:3379   */\n      revert\n\n    auxdata: 0xa26469706673582212204c7852e219d68479c60a8aa9920d93f7613d29a5b9523ac7fe60ee3613519ea764736f6c63430008010033\n}\n",
				"bytecode": {
					"linkReferences": {},
					"object": "608060405234801561001057600080fd5b5061002161001c610026565b61002a565b61007a565b3390565b600080546001600160a01b038381166001600160a01b0319831681178455604051919092169283917f8be0079c531659141344cd1fd0a4f28419497f9722a3daafe3b4186f6b6457e09190a35050565b61064d806100896000396000f3fe60806040526004361061007f5760003560e01c80638fdf08df1161004e5780638fdf08df1461011a578063f274c8971461013a578063f2fde38b1461015a578063f3c40c4b1461008b57610086565b8063310ec4a71461008b5780633e5beab9146100ad578063715018a6146100e35780638da5cb5b146100f857610086565b3661008657005b600080fd5b34801561009757600080fd5b506100ab6100a63660046104a4565b61017a565b005b3480156100b957600080fd5b506100cd6100c8366004610456565b6101f3565b6040516100da91906105b4565b60405180910390f35b3480156100ef57600080fd5b506100ab610205565b34801561010457600080fd5b5061010d610250565b6040516100da91906104b6565b34801561012657600080fd5b506100ab6101353660046104a4565b61025f565b34801561014657600080fd5b506100ab610155366004610479565b6102c6565b34801561016657600080fd5b506100ab610175366004610456565b610377565b6101826103e8565b6001600160a01b0316610193610250565b6001600160a01b0316146101c25760405162461bcd60e51b81526004016101b990610551565b60405180910390fd5b6001600160a01b038216600090815260016020526040812080548392906101ea9084906105bd565b90915550505050565b60016020526000908152604090205481565b61020d6103e8565b6001600160a01b031661021e610250565b6001600160a01b0316146102445760405162461bcd60e51b81526004016101b990610551565b61024e60006103ec565b565b6000546001600160a01b031690565b6102676103e8565b6001600160a01b0316610278610250565b6001600160a01b03161461029e5760405162461bcd60e51b81526004016101b990610551565b6001600160a01b038216600090815260016020526040812080548392906101ea9084906105d5565b806102cf61043c565b806102e95750336000908152600160205260409020548111155b6103055760405162461bcd60e51b81526004016101b990610586565b478211156103255760405162461bcd60e51b81526004016101b990610510565b61032d61043c565b61033b5761033b338361025f565b6040516001600160a01b0384169083156108fc029084906000818181858888f19350505050158015610371573d6000803e3d6000fd5b50505050565b61037f6103e8565b6001600160a01b0316610390610250565b6001600160a01b0316146103b65760405162461bcd60e51b81526004016101b990610551565b6001600160a01b0381166103dc5760405162461bcd60e51b81526004016101b9906104ca565b6103e5816103ec565b50565b3390565b600080546001600160a01b038381166001600160a01b0319831681178455604051919092169283917f8be0079c531659141344cd1fd0a4f28419497f9722a3daafe3b4186f6b6457e09190a35050565b600033610447610250565b6001600160a01b031614905090565b600060208284031215610467578081fd5b813561047281610602565b9392505050565b6000806040838503121561048b578081fd5b823561049681610602565b946020939093013593505050565b6000806040838503121561048b578182fd5b6001600160a01b0391909116815260200190565b60208082526026908201527f4f776e61626c653a206e6577206f776e657220697320746865207a65726f206160408201526564647265737360d01b606082015260800190565b60208082526021908201527f436f6e747261637420646f65736e2774206f776e20656e6f756768206d6f6e656040820152607960f81b606082015260800190565b6020808252818101527f4f776e61626c653a2063616c6c6572206973206e6f7420746865206f776e6572604082015260600190565b602080825260149082015273596f7520617265206e6f7420616c6c6f7765642160601b604082015260600190565b90815260200190565b600082198211156105d0576105d06105ec565b500190565b6000828210156105e7576105e76105ec565b500390565b634e487b7160e01b600052601160045260246000fd5b6001600160a01b03811681146103e557600080fdfea26469706673582212204c7852e219d68479c60a8aa9920d93f7613d29a5b9523ac7fe60ee3613519ea764736f6c63430008010033",
					"opcodes": "PUSH1 0x80 PUSH1 0x40 MSTORE CALLVALUE DUP1 ISZERO PUSH2 0x10 JUMPI PUSH1 0x0 DUP1 REVERT JUMPDEST POP PUSH2 0x21 PUSH2 0x1C PUSH2 0x26 JUMP JUMPDEST PUSH2 0x2A JUMP JUMPDEST PUSH2 0x7A JUMP JUMPDEST CALLER SWAP1 JUMP JUMPDEST PUSH1 0x0 DUP1 SLOAD PUSH1 0x1 PUSH1 0x1 PUSH1 0xA0 SHL SUB DUP4 DUP2 AND PUSH1 0x1 PUSH1 0x1 PUSH1 0xA0 SHL SUB NOT DUP4 AND DUP2 OR DUP5 SSTORE PUSH1 0x40 MLOAD SWAP2 SWAP1 SWAP3 AND SWAP3 DUP4 SWAP2 PUSH32 0x8BE0079C531659141344CD1FD0A4F28419497F9722A3DAAFE3B4186F6B6457E0 SWAP2 SWAP1 LOG3 POP POP JUMP JUMPDEST PUSH2 0x64D DUP1 PUSH2 0x89 PUSH1 0x0 CODECOPY PUSH1 0x0 RETURN INVALID PUSH1 0x80 PUSH1 0x40 MSTORE PUSH1 0x4 CALLDATASIZE LT PUSH2 0x7F JUMPI PUSH1 0x0 CALLDATALOAD PUSH1 0xE0 SHR DUP1 PUSH4 0x8FDF08DF GT PUSH2 0x4E JUMPI DUP1 PUSH4 0x8FDF08DF EQ PUSH2 0x11A JUMPI DUP1 PUSH4 0xF274C897 EQ PUSH2 0x13A JUMPI DUP1 PUSH4 0xF2FDE38B EQ PUSH2 0x15A JUMPI DUP1 PUSH4 0xF3C40C4B EQ PUSH2 0x8B JUMPI PUSH2 0x86 JUMP JUMPDEST DUP1 PUSH4 0x310EC4A7 EQ PUSH2 0x8B JUMPI DUP1 PUSH4 0x3E5BEAB9 EQ PUSH2 0xAD JUMPI DUP1 PUSH4 0x715018A6 EQ PUSH2 0xE3 JUMPI DUP1 PUSH4 0x8DA5CB5B EQ PUSH2 0xF8 JUMPI PUSH2 0x86 JUMP JUMPDEST CALLDATASIZE PUSH2 0x86 JUMPI STOP JUMPDEST PUSH1 0x0 DUP1 REVERT JUMPDEST CALLVALUE DUP1 ISZERO PUSH2 0x97 JUMPI PUSH1 0x0 DUP1 REVERT JUMPDEST POP PUSH2 0xAB PUSH2 0xA6 CALLDATASIZE PUSH1 0x4 PUSH2 0x4A4 JUMP JUMPDEST PUSH2 0x17A JUMP JUMPDEST STOP JUMPDEST CALLVALUE DUP1 ISZERO PUSH2 0xB9 JUMPI PUSH1 0x0 DUP1 REVERT JUMPDEST POP PUSH2 0xCD PUSH2 0xC8 CALLDATASIZE PUSH1 0x4 PUSH2 0x456 JUMP JUMPDEST PUSH2 0x1F3 JUMP JUMPDEST PUSH1 0x40 MLOAD PUSH2 0xDA SWAP2 SWAP1 PUSH2 0x5B4 JUMP JUMPDEST PUSH1 0x40 MLOAD DUP1 SWAP2 SUB SWAP1 RETURN JUMPDEST CALLVALUE DUP1 ISZERO PUSH2 0xEF JUMPI PUSH1 0x0 DUP1 REVERT JUMPDEST POP PUSH2 0xAB PUSH2 0x205 JUMP JUMPDEST CALLVALUE DUP1 ISZERO PUSH2 0x104 JUMPI PUSH1 0x0 DUP1 REVERT JUMPDEST POP PUSH2 0x10D PUSH2 0x250 JUMP JUMPDEST PUSH1 0x40 MLOAD PUSH2 0xDA SWAP2 SWAP1 PUSH2 0x4B6 JUMP JUMPDEST CALLVALUE DUP1 ISZERO PUSH2 0x126 JUMPI PUSH1 0x0 DUP1 REVERT JUMPDEST POP PUSH2 0xAB PUSH2 0x135 CALLDATASIZE PUSH1 0x4 PUSH2 0x4A4 JUMP JUMPDEST PUSH2 0x25F JUMP JUMPDEST CALLVALUE DUP1 ISZERO PUSH2 0x146 JUMPI PUSH1 0x0 DUP1 REVERT JUMPDEST POP PUSH2 0xAB PUSH2 0x155 CALLDATASIZE PUSH1 0x4 PUSH2 0x479 JUMP JUMPDEST PUSH2 0x2C6 JUMP JUMPDEST CALLVALUE DUP1 ISZERO PUSH2 0x166 JUMPI PUSH1 0x0 DUP1 REVERT JUMPDEST POP PUSH2 0xAB PUSH2 0x175 CALLDATASIZE PUSH1 0x4 PUSH2 0x456 JUMP JUMPDEST PUSH2 0x377 JUMP JUMPDEST PUSH2 0x182 PUSH2 0x3E8 JUMP JUMPDEST PUSH1 0x1 PUSH1 0x1 PUSH1 0xA0 SHL SUB AND PUSH2 0x193 PUSH2 0x250 JUMP JUMPDEST PUSH1 0x1 PUSH1 0x1 PUSH1 0xA0 SHL SUB AND EQ PUSH2 0x1C2 JUMPI PUSH1 0x40 MLOAD PUSH3 0x461BCD PUSH1 0xE5 SHL DUP2 MSTORE PUSH1 0x4 ADD PUSH2 0x1B9 SWAP1 PUSH2 0x551 JUMP JUMPDEST PUSH1 0x40 MLOAD DUP1 SWAP2 SUB SWAP1 REVERT JUMPDEST PUSH1 0x1 PUSH1 0x1 PUSH1 0xA0 SHL SUB DUP3 AND PUSH1 0x0 SWAP1 DUP2 MSTORE PUSH1 0x1 PUSH1 0x20 MSTORE PUSH1 0x40 DUP2 KECCAK256 DUP1 SLOAD DUP4 SWAP3 SWAP1 PUSH2 0x1EA SWAP1 DUP5 SWAP1 PUSH2 0x5BD JUMP JUMPDEST SWAP1 SWAP2 SSTORE POP POP POP POP JUMP JUMPDEST PUSH1 0x1 PUSH1 0x20 MSTORE PUSH1 0x0 SWAP1 DUP2 MSTORE PUSH1 0x40 SWAP1 KECCAK256 SLOAD DUP2 JUMP JUMPDEST PUSH2 0x20D PUSH2 0x3E8 JUMP JUMPDEST PUSH1 0x1 PUSH1 0x1 PUSH1 0xA0 SHL SUB AND PUSH2 0x21E PUSH2 0x250 JUMP JUMPDEST PUSH1 0x1 PUSH1 0x1 PUSH1 0xA0 SHL SUB AND EQ PUSH2 0x244 JUMPI PUSH1 0x40 MLOAD PUSH3 0x461BCD PUSH1 0xE5 SHL DUP2 MSTORE PUSH1 0x4 ADD PUSH2 0x1B9 SWAP1 PUSH2 0x551 JUMP JUMPDEST PUSH2 0x24E PUSH1 0x0 PUSH2 0x3EC JUMP JUMPDEST JUMP JUMPDEST PUSH1 0x0 SLOAD PUSH1 0x1 PUSH1 0x1 PUSH1 0xA0 SHL SUB AND SWAP1 JUMP JUMPDEST PUSH2 0x267 PUSH2 0x3E8 JUMP JUMPDEST PUSH1 0x1 PUSH1 0x1 PUSH1 0xA0 SHL SUB AND PUSH2 0x278 PUSH2 0x250 JUMP JUMPDEST PUSH1 0x1 PUSH1 0x1 PUSH1 0xA0 SHL SUB AND EQ PUSH2 0x29E JUMPI PUSH1 0x40 MLOAD PUSH3 0x461BCD PUSH1 0xE5 SHL DUP2 MSTORE PUSH1 0x4 ADD PUSH2 0x1B9 SWAP1 PUSH2 0x551 JUMP JUMPDEST PUSH1 0x1 PUSH1 0x1 PUSH1 0xA0 SHL SUB DUP3 AND PUSH1 0x0 SWAP1 DUP2 MSTORE PUSH1 0x1 PUSH1 0x20 MSTORE PUSH1 0x40 DUP2 KECCAK256 DUP1 SLOAD DUP4 SWAP3 SWAP1 PUSH2 0x1EA SWAP1 DUP5 SWAP1 PUSH2 0x5D5 JUMP JUMPDEST DUP1 PUSH2 0x2CF PUSH2 0x43C JUMP JUMPDEST DUP1 PUSH2 0x2E9 JUMPI POP CALLER PUSH1 0x0 SWAP1 DUP2 MSTORE PUSH1 0x1 PUSH1 0x20 MSTORE PUSH1 0x40 SWAP1 KECCAK256 SLOAD DUP2 GT ISZERO JUMPDEST PUSH2 0x305 JUMPI PUSH1 0x40 MLOAD PUSH3 0x461BCD PUSH1 0xE5 SHL DUP2 MSTORE PUSH1 0x4 ADD PUSH2 0x1B9 SWAP1 PUSH2 0x586 JUMP JUMPDEST SELFBALANCE DUP3 GT ISZERO PUSH2 0x325 JUMPI PUSH1 0x40 MLOAD PUSH3 0x461BCD PUSH1 0xE5 SHL DUP2 MSTORE PUSH1 0x4 ADD PUSH2 0x1B9 SWAP1 PUSH2 0x510 JUMP JUMPDEST PUSH2 0x32D PUSH2 0x43C JUMP JUMPDEST PUSH2 0x33B JUMPI PUSH2 0x33B CALLER DUP4 PUSH2 0x25F JUMP JUMPDEST PUSH1 0x40 MLOAD PUSH1 0x1 PUSH1 0x1 PUSH1 0xA0 SHL SUB DUP5 AND SWAP1 DUP4 ISZERO PUSH2 0x8FC MUL SWAP1 DUP5 SWAP1 PUSH1 0x0 DUP2 DUP2 DUP2 DUP6 DUP9 DUP9 CALL SWAP4 POP POP POP POP ISZERO DUP1 ISZERO PUSH2 0x371 JUMPI RETURNDATASIZE PUSH1 0x0 DUP1 RETURNDATACOPY RETURNDATASIZE PUSH1 0x0 REVERT JUMPDEST POP POP POP POP JUMP JUMPDEST PUSH2 0x37F PUSH2 0x3E8 JUMP JUMPDEST PUSH1 0x1 PUSH1 0x1 PUSH1 0xA0 SHL SUB AND PUSH2 0x390 PUSH2 0x250 JUMP JUMPDEST PUSH1 0x1 PUSH1 0x1 PUSH1 0xA0 SHL SUB AND EQ PUSH2 0x3B6 JUMPI PUSH1 0x40 MLOAD PUSH3 0x461BCD PUSH1 0xE5 SHL DUP2 MSTORE PUSH1 0x4 ADD PUSH2 0x1B9 SWAP1 PUSH2 0x551 JUMP JUMPDEST PUSH1 0x1 PUSH1 0x1 PUSH1 0xA0 SHL SUB DUP2 AND PUSH2 0x3DC JUMPI PUSH1 0x40 MLOAD PUSH3 0x461BCD PUSH1 0xE5 SHL DUP2 MSTORE PUSH1 0x4 ADD PUSH2 0x1B9 SWAP1 PUSH2 0x4CA JUMP JUMPDEST PUSH2 0x3E5 DUP2 PUSH2 0x3EC JUMP JUMPDEST POP JUMP JUMPDEST CALLER SWAP1 JUMP JUMPDEST PUSH1 0x0 DUP1 SLOAD PUSH1 0x1 PUSH1 0x1 PUSH1 0xA0 SHL SUB DUP4 DUP2 AND PUSH1 0x1 PUSH1 0x1 PUSH1 0xA0 SHL SUB NOT DUP4 AND DUP2 OR DUP5 SSTORE PUSH1 0x40 MLOAD SWAP2 SWAP1 SWAP3 AND SWAP3 DUP4 SWAP2 PUSH32 0x8BE0079C531659141344CD1FD0A4F28419497F9722A3DAAFE3B4186F6B6457E0 SWAP2 SWAP1 LOG3 POP POP JUMP JUMPDEST PUSH1 0x0 CALLER PUSH2 0x447 PUSH2 0x250 JUMP JUMPDEST PUSH1 0x1 PUSH1 0x1 PUSH1 0xA0 SHL SUB AND EQ SWAP1 POP SWAP1 JUMP JUMPDEST PUSH1 0x0 PUSH1 0x20 DUP3 DUP5 SUB SLT ISZERO PUSH2 0x467 JUMPI DUP1 DUP2 REVERT JUMPDEST DUP2 CALLDATALOAD PUSH2 0x472 DUP2 PUSH2 0x602 JUMP JUMPDEST SWAP4 SWAP3 POP POP POP JUMP JUMPDEST PUSH1 0x0 DUP1 PUSH1 0x40 DUP4 DUP6 SUB SLT ISZERO PUSH2 0x48B JUMPI DUP1 DUP2 REVERT JUMPDEST DUP3 CALLDATALOAD PUSH2 0x496 DUP2 PUSH2 0x602 JUMP JUMPDEST SWAP5 PUSH1 0x20 SWAP4 SWAP1 SWAP4 ADD CALLDATALOAD SWAP4 POP POP POP JUMP JUMPDEST PUSH1 0x0 DUP1 PUSH1 0x40 DUP4 DUP6 SUB SLT ISZERO PUSH2 0x48B JUMPI DUP2 DUP3 REVERT JUMPDEST PUSH1 0x1 PUSH1 0x1 PUSH1 0xA0 SHL SUB SWAP2 SWAP1 SWAP2 AND DUP2 MSTORE PUSH1 0x20 ADD SWAP1 JUMP JUMPDEST PUSH1 0x20 DUP1 DUP3 MSTORE PUSH1 0x26 SWAP1 DUP3 ADD MSTORE PUSH32 0x4F776E61626C653A206E6577206F776E657220697320746865207A65726F2061 PUSH1 0x40 DUP3 ADD MSTORE PUSH6 0x646472657373 PUSH1 0xD0 SHL PUSH1 0x60 DUP3 ADD MSTORE PUSH1 0x80 ADD SWAP1 JUMP JUMPDEST PUSH1 0x20 DUP1 DUP3 MSTORE PUSH1 0x21 SWAP1 DUP3 ADD MSTORE PUSH32 0x436F6E747261637420646F65736E2774206F776E20656E6F756768206D6F6E65 PUSH1 0x40 DUP3 ADD MSTORE PUSH1 0x79 PUSH1 0xF8 SHL PUSH1 0x60 DUP3 ADD MSTORE PUSH1 0x80 ADD SWAP1 JUMP JUMPDEST PUSH1 0x20 DUP1 DUP3 MSTORE DUP2 DUP2 ADD MSTORE PUSH32 0x4F776E61626C653A2063616C6C6572206973206E6F7420746865206F776E6572 PUSH1 0x40 DUP3 ADD MSTORE PUSH1 0x60 ADD SWAP1 JUMP JUMPDEST PUSH1 0x20 DUP1 DUP3 MSTORE PUSH1 0x14 SWAP1 DUP3 ADD MSTORE PUSH20 0x596F7520617265206E6F7420616C6C6F77656421 PUSH1 0x60 SHL PUSH1 0x40 DUP3 ADD MSTORE PUSH1 0x60 ADD SWAP1 JUMP JUMPDEST SWAP1 DUP2 MSTORE PUSH1 0x20 ADD SWAP1 JUMP JUMPDEST PUSH1 0x0 DUP3 NOT DUP3 GT ISZERO PUSH2 0x5D0 JUMPI PUSH2 0x5D0 PUSH2 0x5EC JUMP JUMPDEST POP ADD SWAP1 JUMP JUMPDEST PUSH1 0x0 DUP3 DUP3 LT ISZERO PUSH2 0x5E7 JUMPI PUSH2 0x5E7 PUSH2 0x5EC JUMP JUMPDEST POP SUB SWAP1 JUMP JUMPDEST PUSH4 0x4E487B71 PUSH1 0xE0 SHL PUSH1 0x0 MSTORE PUSH1 0x11 PUSH1 0x4 MSTORE PUSH1 0x24 PUSH1 0x0 REVERT JUMPDEST PUSH1 0x1 PUSH1 0x1 PUSH1 0xA0 SHL SUB DUP2 AND DUP2 EQ PUSH2 0x3E5 JUMPI PUSH1 0x0 DUP1 REVERT INVALID LOG2 PUSH5 0x6970667358 0x22 SLT KECCAK256 0x4C PUSH25 0x52E219D68479C60A8AA9920D93F7613D29A5B9523AC7FE60EE CALLDATASIZE SGT MLOAD SWAP15 0xA7 PUSH5 0x736F6C6343 STOP ADDMOD ADD STOP CALLER "
				},
				"gasEstimates": {
					"creation": {
						"codeDepositCost": "322600",
						"executionCost": "22830",
						"totalCost": "345430"
					},
					"external": {
						"addAllowance(address,uint256)": "22302",
						"allowance(address)": "1269",
						"owner()": "1137",
						"reduceAllowance(address,uint256)": "22233",
						"renounceOwnership()": "23549",
						"setAllowance(address,uint256)": "22237",
						"transferOwnership(address)": "infinite",
						"withdrawMoney(address,uint256)": "infinite"
					},
					"internal": {
						"isOwner()": "891"
					}
				},
				"methodIdentifiers": {
					"addAllowance(address,uint256)": "f3c40c4b",
					"allowance(address)": "3e5beab9",
					"owner()": "8da5cb5b",
					"reduceAllowance(address,uint256)": "8fdf08df",
					"renounceOwnership()": "715018a6",
					"setAllowance(address,uint256)": "310ec4a7",
					"transferOwnership(address)": "f2fde38b",
					"withdrawMoney(address,uint256)": "f274c897"
				}
			},
			"storageLayout": {
				"storage": [
					{
						"astId": 139,
						"contract": "contracts/02_simple/SharedWallet.sol:SharedWallet",
						"label": "_owner",
						"offset": 0,
						"slot": "0",
						"type": "t_address"
					},
					{
						"astId": 20,
						"contract": "contracts/02_simple/SharedWallet.sol:SharedWallet",
						"label": "allowance",
						"offset": 0,
						"slot": "1",
						"type": "t_mapping(t_address,t_uint256)"
					}
				],
				"types": {
					"t_address": {
						"encoding": "inplace",
						"label": "address",
						"numberOfBytes": "20"
					},
					"t_mapping(t_address,t_uint256)": {
						"encoding": "mapping",
						"key": "t_address",
						"label": "mapping(address => uint256)",
						"numberOfBytes": "32",
						"value": "t_uint256"
					},
					"t_uint256": {
						"encoding": "inplace",
						"label": "uint256",
						"numberOfBytes": "32"
					}
				}
			},
			"userdoc": {
				"kind": "user",
				"methods": {},
				"version": 1
			}
		}
	}
}