{
	"contracts/02_simple/SharedWallet.sol": {
		"Allowance": {
			"abi": [
				{
					"anonymous": false,
					"inputs": [
						{
							"indexed": true,
							"internalType": "address",
							"name": "_forWho",
							"type": "address"
						},
						{
							"indexed": true,
							"internalType": "address",
							"name": "_byWhom",
							"type": "address"
						},
						{
							"indexed": false,
							"internalType": "uint256",
							"name": "_oldAmount",
							"type": "uint256"
						},
						{
							"indexed": false,
							"internalType": "uint256",
							"name": "_newAmount",
							"type": "uint256"
						}
					],
					"name": "AllowanceChanged",
					"type": "event"
				},
				{
					"anonymous": false,
					"inputs": [
						{
							"indexed": true,
							"internalType": "address",
							"name": "previousOwner",
							"type": "address"
						},
						{
							"indexed": true,
							"internalType": "address",
							"name": "newOwner",
							"type": "address"
						}
					],
					"name": "OwnershipTransferred",
					"type": "event"
				},
				{
					"inputs": [
						{
							"internalType": "address",
							"name": "_who",
							"type": "address"
						},
						{
							"internalType": "uint256",
							"name": "_amount",
							"type": "uint256"
						}
					],
					"name": "addAllowance",
					"outputs": [],
					"stateMutability": "nonpayable",
					"type": "function"
				},
				{
					"inputs": [
						{
							"internalType": "address",
							"name": "",
							"type": "address"
						}
					],
					"name": "allowance",
					"outputs": [
						{
							"internalType": "uint256",
							"name": "",
							"type": "uint256"
						}
					],
					"stateMutability": "view",
					"type": "function"
				},
				{
					"inputs": [],
					"name": "owner",
					"outputs": [
						{
							"internalType": "address",
							"name": "",
							"type": "address"
						}
					],
					"stateMutability": "view",
					"type": "function"
				},
				{
					"inputs": [
						{
							"internalType": "address",
							"name": "_who",
							"type": "address"
						},
						{
							"internalType": "uint256",
							"name": "_amount",
							"type": "uint256"
						}
					],
					"name": "reduceAllowance",
					"outputs": [],
					"stateMutability": "nonpayable",
					"type": "function"
				},
				{
					"inputs": [],
					"name": "renounceOwnership",
					"outputs": [],
					"stateMutability": "nonpayable",
					"type": "function"
				},
				{
					"inputs": [
						{
							"internalType": "address",
							"name": "_who",
							"type": "address"
						},
						{
							"internalType": "uint256",
							"name": "_amount",
							"type": "uint256"
						}
					],
					"name": "setAllowance",
					"outputs": [],
					"stateMutability": "nonpayable",
					"type": "function"
				},
				{
					"inputs": [
						{
							"internalType": "address",
							"name": "newOwner",
							"type": "address"
						}
					],
					"name": "transferOwnership",
					"outputs": [],
					"stateMutability": "nonpayable",
					"type": "function"
				}
			],
			"devdoc": {
				"kind": "dev",
				"methods": {
					"owner()": {
						"details": "Returns the address of the current owner."
					},
					"renounceOwnership()": {
						"details": "Leaves the contract without owner. It will not be possible to call `onlyOwner` functions anymore. Can only be called by the current owner. NOTE: Renouncing ownership will leave the contract without an owner, thereby removing any functionality that is only available to the owner."
					},
					"transferOwnership(address)": {
						"details": "Transfers ownership of the contract to a new account (`newOwner`). Can only be called by the current owner."
					}
				},
				"version": 1
			},
			"evm": {
				"assembly": "    /* \"contracts/02_simple/SharedWallet.sol\":167:1166  contract Allowance  is Ownable {\r... */\n  mstore(0x40, 0x80)\n  callvalue\n  dup1\n  iszero\n  tag_1\n  jumpi\n  0x00\n  dup1\n  revert\ntag_1:\n  pop\n    /* \"https://github.com/OpenZeppelin/openzeppelin-contracts/blob/master/contracts/access/Ownable.sol\":921:953  _transferOwnership(_msgSender()) */\n  tag_4\n    /* \"https://github.com/OpenZeppelin/openzeppelin-contracts/blob/master/contracts/access/Ownable.sol\":940:952  _msgSender() */\n  tag_5\n    /* \"https://github.com/OpenZeppelin/openzeppelin-contracts/blob/master/contracts/access/Ownable.sol\":940:950  _msgSender */\n  tag_6\n    /* \"https://github.com/OpenZeppelin/openzeppelin-contracts/blob/master/contracts/access/Ownable.sol\":940:952  _msgSender() */\n  jump\t// in\ntag_5:\n    /* \"https://github.com/OpenZeppelin/openzeppelin-contracts/blob/master/contracts/access/Ownable.sol\":921:939  _transferOwnership */\n  tag_7\n    /* \"https://github.com/OpenZeppelin/openzeppelin-contracts/blob/master/contracts/access/Ownable.sol\":921:953  _transferOwnership(_msgSender()) */\n  jump\t// in\ntag_4:\n    /* \"contracts/02_simple/SharedWallet.sol\":167:1166  contract Allowance  is Ownable {\r... */\n  jump(tag_8)\n    /* \"https://github.com/OpenZeppelin/openzeppelin-contracts/blob/master/contracts/utils/Context.sol\":640:736  function _msgSender() internal view virtual returns (address) {... */\ntag_6:\n    /* \"https://github.com/OpenZeppelin/openzeppelin-contracts/blob/master/contracts/utils/Context.sol\":719:729  msg.sender */\n  caller\n    /* \"https://github.com/OpenZeppelin/openzeppelin-contracts/blob/master/contracts/utils/Context.sol\":640:736  function _msgSender() internal view virtual returns (address) {... */\n  swap1\n  jump\t// out\n    /* \"https://github.com/OpenZeppelin/openzeppelin-contracts/blob/master/contracts/access/Ownable.sol\":2270:2457  function _transferOwnership(address newOwner) internal virtual {... */\ntag_7:\n    /* \"https://github.com/OpenZeppelin/openzeppelin-contracts/blob/master/contracts/access/Ownable.sol\":2343:2359  address oldOwner */\n  0x00\n    /* \"https://github.com/OpenZeppelin/openzeppelin-contracts/blob/master/contracts/access/Ownable.sol\":2362:2368  _owner */\n  dup1\n  sload\n  sub(shl(0xa0, 0x01), 0x01)\n    /* \"https://github.com/OpenZeppelin/openzeppelin-contracts/blob/master/contracts/access/Ownable.sol\":2378:2395  _owner = newOwner */\n  dup4\n  dup2\n  and\n  not(sub(shl(0xa0, 0x01), 0x01))\n  dup4\n  and\n  dup2\n  or\n  dup5\n  sstore\n    /* \"https://github.com/OpenZeppelin/openzeppelin-contracts/blob/master/contracts/access/Ownable.sol\":2410:2450  OwnershipTransferred(oldOwner, newOwner) */\n  mload(0x40)\n    /* \"https://github.com/OpenZeppelin/openzeppelin-contracts/blob/master/contracts/access/Ownable.sol\":2362:2368  _owner */\n  swap2\n  swap1\n  swap3\n  and\n  swap3\n  dup4\n  swap2\n    /* \"https://github.com/OpenZeppelin/openzeppelin-contracts/blob/master/contracts/access/Ownable.sol\":2410:2450  OwnershipTransferred(oldOwner, newOwner) */\n  0x8be0079c531659141344cd1fd0a4f28419497f9722a3daafe3b4186f6b6457e0\n  swap2\n    /* \"https://github.com/OpenZeppelin/openzeppelin-contracts/blob/master/contracts/access/Ownable.sol\":2343:2359  address oldOwner */\n  swap1\n    /* \"https://github.com/OpenZeppelin/openzeppelin-contracts/blob/master/contracts/access/Ownable.sol\":2410:2450  OwnershipTransferred(oldOwner, newOwner) */\n  log3\n    /* \"https://github.com/OpenZeppelin/openzeppelin-contracts/blob/master/contracts/access/Ownable.sol\":2270:2457  function _transferOwnership(address newOwner) internal virtual {... */\n  pop\n  pop\n  jump\t// out\n    /* \"contracts/02_simple/SharedWallet.sol\":167:1166  contract Allowance  is Ownable {\r... */\ntag_8:\n  dataSize(sub_0)\n  dup1\n  dataOffset(sub_0)\n  0x00\n  codecopy\n  0x00\n  return\nstop\n\nsub_0: assembly {\n        /* \"contracts/02_simple/SharedWallet.sol\":167:1166  contract Allowance  is Ownable {\r... */\n      mstore(0x40, 0x80)\n      callvalue\n      dup1\n      iszero\n      tag_1\n      jumpi\n      0x00\n      dup1\n      revert\n    tag_1:\n      pop\n      jumpi(tag_2, lt(calldatasize, 0x04))\n      shr(0xe0, calldataload(0x00))\n      dup1\n      0x8da5cb5b\n      gt\n      tag_10\n      jumpi\n      dup1\n      0x8da5cb5b\n      eq\n      tag_6\n      jumpi\n      dup1\n      0x8fdf08df\n      eq\n      tag_7\n      jumpi\n      dup1\n      0xf2fde38b\n      eq\n      tag_8\n      jumpi\n      dup1\n      0xf3c40c4b\n      eq\n      tag_9\n      jumpi\n      jump(tag_2)\n    tag_10:\n      dup1\n      0x310ec4a7\n      eq\n      tag_3\n      jumpi\n      dup1\n      0x3e5beab9\n      eq\n      tag_4\n      jumpi\n      dup1\n      0x715018a6\n      eq\n      tag_5\n      jumpi\n    tag_2:\n      0x00\n      dup1\n      revert\n        /* \"contracts/02_simple/SharedWallet.sol\":576:763  function setAllowance(address _who, uint _amount) public onlyOwner {\r... */\n    tag_3:\n      tag_11\n      tag_12\n      calldatasize\n      0x04\n      tag_13\n      jump\t// in\n    tag_12:\n      tag_14\n      jump\t// in\n    tag_11:\n      stop\n        /* \"contracts/02_simple/SharedWallet.sol\":522:563  mapping(address => uint) public allowance */\n    tag_4:\n      tag_15\n      tag_16\n      calldatasize\n      0x04\n      tag_17\n      jump\t// in\n    tag_16:\n      tag_18\n      jump\t// in\n    tag_15:\n      mload(0x40)\n      tag_19\n      swap2\n      swap1\n      tag_20\n      jump\t// in\n    tag_19:\n      mload(0x40)\n      dup1\n      swap2\n      sub\n      swap1\n      return\n        /* \"https://github.com/OpenZeppelin/openzeppelin-contracts/blob/master/contracts/access/Ownable.sol\":1668:1769  function renounceOwnership() public virtual onlyOwner {... */\n    tag_5:\n      tag_11\n      tag_22\n      jump\t// in\n        /* \"https://github.com/OpenZeppelin/openzeppelin-contracts/blob/master/contracts/access/Ownable.sol\":1036:1121  function owner() public view virtual returns (address) {... */\n    tag_6:\n      tag_23\n      tag_24\n      jump\t// in\n    tag_23:\n      mload(0x40)\n      tag_19\n      swap2\n      swap1\n      tag_26\n      jump\t// in\n        /* \"contracts/02_simple/SharedWallet.sol\":891:1006  function reduceAllowance(address _who, uint _amount) public onlyOwner {\r... */\n    tag_7:\n      tag_11\n      tag_28\n      calldatasize\n      0x04\n      tag_13\n      jump\t// in\n    tag_28:\n      tag_29\n      jump\t// in\n        /* \"https://github.com/OpenZeppelin/openzeppelin-contracts/blob/master/contracts/access/Ownable.sol\":1918:2116  function transferOwnership(address newOwner) public virtual onlyOwner {... */\n    tag_8:\n      tag_11\n      tag_31\n      calldatasize\n      0x04\n      tag_17\n      jump\t// in\n    tag_31:\n      tag_32\n      jump\t// in\n        /* \"contracts/02_simple/SharedWallet.sol\":771:883  function addAllowance(address _who, uint _amount) public onlyOwner {\r... */\n    tag_9:\n      tag_11\n      tag_34\n      calldatasize\n      0x04\n      tag_13\n      jump\t// in\n    tag_34:\n      tag_35\n      jump\t// in\n        /* \"contracts/02_simple/SharedWallet.sol\":576:763  function setAllowance(address _who, uint _amount) public onlyOwner {\r... */\n    tag_14:\n        /* \"https://github.com/OpenZeppelin/openzeppelin-contracts/blob/master/contracts/access/Ownable.sol\":1259:1271  _msgSender() */\n      tag_37\n        /* \"https://github.com/OpenZeppelin/openzeppelin-contracts/blob/master/contracts/access/Ownable.sol\":1259:1269  _msgSender */\n      tag_38\n        /* \"https://github.com/OpenZeppelin/openzeppelin-contracts/blob/master/contracts/access/Ownable.sol\":1259:1271  _msgSender() */\n      jump\t// in\n    tag_37:\n      sub(shl(0xa0, 0x01), 0x01)\n        /* \"https://github.com/OpenZeppelin/openzeppelin-contracts/blob/master/contracts/access/Ownable.sol\":1248:1271  owner() == _msgSender() */\n      and\n        /* \"https://github.com/OpenZeppelin/openzeppelin-contracts/blob/master/contracts/access/Ownable.sol\":1248:1255  owner() */\n      tag_39\n        /* \"https://github.com/OpenZeppelin/openzeppelin-contracts/blob/master/contracts/access/Ownable.sol\":1248:1253  owner */\n      tag_24\n        /* \"https://github.com/OpenZeppelin/openzeppelin-contracts/blob/master/contracts/access/Ownable.sol\":1248:1255  owner() */\n      jump\t// in\n    tag_39:\n      sub(shl(0xa0, 0x01), 0x01)\n        /* \"https://github.com/OpenZeppelin/openzeppelin-contracts/blob/master/contracts/access/Ownable.sol\":1248:1271  owner() == _msgSender() */\n      and\n      eq\n        /* \"https://github.com/OpenZeppelin/openzeppelin-contracts/blob/master/contracts/access/Ownable.sol\":1240:1308  require(owner() == _msgSender(), \"Ownable: caller is not the owner\") */\n      tag_40\n      jumpi\n      mload(0x40)\n      shl(0xe5, 0x461bcd)\n      dup2\n      mstore\n      0x04\n      add\n      tag_41\n      swap1\n      tag_42\n      jump\t// in\n    tag_41:\n      mload(0x40)\n      dup1\n      swap2\n      sub\n      swap1\n      revert\n    tag_40:\n      sub(shl(0xa0, 0x01), 0x01)\n        /* \"contracts/02_simple/SharedWallet.sol\":654:669  allowance[_who] */\n      dup3\n      and\n      0x00\n      dup2\n      dup2\n      mstore\n        /* \"contracts/02_simple/SharedWallet.sol\":654:663  allowance */\n      0x01\n        /* \"contracts/02_simple/SharedWallet.sol\":654:669  allowance[_who] */\n      0x20\n      mstore\n      0x40\n      swap1\n      dup2\n      swap1\n      keccak256\n        /* \"contracts/02_simple/SharedWallet.sol\":654:679  allowance[_who] = _amount */\n      dup4\n      swap1\n      sstore\n        /* \"contracts/02_simple/SharedWallet.sol\":695:755  AllowanceChanged(_who, msg.sender, allowance[_who], _amount) */\n      mload\n        /* \"contracts/02_simple/SharedWallet.sol\":718:728  msg.sender */\n      caller\n      swap2\n        /* \"contracts/02_simple/SharedWallet.sol\":654:669  allowance[_who] */\n      swap1\n        /* \"contracts/02_simple/SharedWallet.sol\":695:755  AllowanceChanged(_who, msg.sender, allowance[_who], _amount) */\n      0x3691d1a86d99355e52b689ca70a7bdf6d80763237a6aa06e5fa43964eac7244b\n      swap1\n      tag_44\n      swap1\n        /* \"contracts/02_simple/SharedWallet.sol\":672:679  _amount */\n      dup6\n      swap1\n      dup2\n      swap1\n        /* \"contracts/02_simple/SharedWallet.sol\":695:755  AllowanceChanged(_who, msg.sender, allowance[_who], _amount) */\n      tag_45\n      jump\t// in\n    tag_44:\n      mload(0x40)\n      dup1\n      swap2\n      sub\n      swap1\n      log3\n        /* \"contracts/02_simple/SharedWallet.sol\":576:763  function setAllowance(address _who, uint _amount) public onlyOwner {\r... */\n      pop\n      pop\n      jump\t// out\n        /* \"contracts/02_simple/SharedWallet.sol\":522:563  mapping(address => uint) public allowance */\n    tag_18:\n      mstore(0x20, 0x01)\n      0x00\n      swap1\n      dup2\n      mstore\n      0x40\n      swap1\n      keccak256\n      sload\n      dup2\n      jump\t// out\n        /* \"https://github.com/OpenZeppelin/openzeppelin-contracts/blob/master/contracts/access/Ownable.sol\":1668:1769  function renounceOwnership() public virtual onlyOwner {... */\n    tag_22:\n        /* \"https://github.com/OpenZeppelin/openzeppelin-contracts/blob/master/contracts/access/Ownable.sol\":1259:1271  _msgSender() */\n      tag_47\n        /* \"https://github.com/OpenZeppelin/openzeppelin-contracts/blob/master/contracts/access/Ownable.sol\":1259:1269  _msgSender */\n      tag_38\n        /* \"https://github.com/OpenZeppelin/openzeppelin-contracts/blob/master/contracts/access/Ownable.sol\":1259:1271  _msgSender() */\n      jump\t// in\n    tag_47:\n      sub(shl(0xa0, 0x01), 0x01)\n        /* \"https://github.com/OpenZeppelin/openzeppelin-contracts/blob/master/contracts/access/Ownable.sol\":1248:1271  owner() == _msgSender() */\n      and\n        /* \"https://github.com/OpenZeppelin/openzeppelin-contracts/blob/master/contracts/access/Ownable.sol\":1248:1255  owner() */\n      tag_48\n        /* \"https://github.com/OpenZeppelin/openzeppelin-contracts/blob/master/contracts/access/Ownable.sol\":1248:1253  owner */\n      tag_24\n        /* \"https://github.com/OpenZeppelin/openzeppelin-contracts/blob/master/contracts/access/Ownable.sol\":1248:1255  owner() */\n      jump\t// in\n    tag_48:\n      sub(shl(0xa0, 0x01), 0x01)\n        /* \"https://github.com/OpenZeppelin/openzeppelin-contracts/blob/master/contracts/access/Ownable.sol\":1248:1271  owner() == _msgSender() */\n      and\n      eq\n        /* \"https://github.com/OpenZeppelin/openzeppelin-contracts/blob/master/contracts/access/Ownable.sol\":1240:1308  require(owner() == _msgSender(), \"Ownable: caller is not the owner\") */\n      tag_49\n      jumpi\n      mload(0x40)\n      shl(0xe5, 0x461bcd)\n      dup2\n      mstore\n      0x04\n      add\n      tag_41\n      swap1\n      tag_42\n      jump\t// in\n    tag_49:\n        /* \"https://github.com/OpenZeppelin/openzeppelin-contracts/blob/master/contracts/access/Ownable.sol\":1732:1762  _transferOwnership(address(0)) */\n      tag_52\n        /* \"https://github.com/OpenZeppelin/openzeppelin-contracts/blob/master/contracts/access/Ownable.sol\":1759:1760  0 */\n      0x00\n        /* \"https://github.com/OpenZeppelin/openzeppelin-contracts/blob/master/contracts/access/Ownable.sol\":1732:1750  _transferOwnership */\n      tag_53\n        /* \"https://github.com/OpenZeppelin/openzeppelin-contracts/blob/master/contracts/access/Ownable.sol\":1732:1762  _transferOwnership(address(0)) */\n      jump\t// in\n    tag_52:\n        /* \"https://github.com/OpenZeppelin/openzeppelin-contracts/blob/master/contracts/access/Ownable.sol\":1668:1769  function renounceOwnership() public virtual onlyOwner {... */\n      jump\t// out\n        /* \"https://github.com/OpenZeppelin/openzeppelin-contracts/blob/master/contracts/access/Ownable.sol\":1036:1121  function owner() public view virtual returns (address) {... */\n    tag_24:\n        /* \"https://github.com/OpenZeppelin/openzeppelin-contracts/blob/master/contracts/access/Ownable.sol\":1082:1089  address */\n      0x00\n        /* \"https://github.com/OpenZeppelin/openzeppelin-contracts/blob/master/contracts/access/Ownable.sol\":1108:1114  _owner */\n      sload\n      sub(shl(0xa0, 0x01), 0x01)\n      and\n        /* \"https://github.com/OpenZeppelin/openzeppelin-contracts/blob/master/contracts/access/Ownable.sol\":1036:1121  function owner() public view virtual returns (address) {... */\n      swap1\n      jump\t// out\n        /* \"contracts/02_simple/SharedWallet.sol\":891:1006  function reduceAllowance(address _who, uint _amount) public onlyOwner {\r... */\n    tag_29:\n        /* \"https://github.com/OpenZeppelin/openzeppelin-contracts/blob/master/contracts/access/Ownable.sol\":1259:1271  _msgSender() */\n      tag_56\n        /* \"https://github.com/OpenZeppelin/openzeppelin-contracts/blob/master/contracts/access/Ownable.sol\":1259:1269  _msgSender */\n      tag_38\n        /* \"https://github.com/OpenZeppelin/openzeppelin-contracts/blob/master/contracts/access/Ownable.sol\":1259:1271  _msgSender() */\n      jump\t// in\n    tag_56:\n      sub(shl(0xa0, 0x01), 0x01)\n        /* \"https://github.com/OpenZeppelin/openzeppelin-contracts/blob/master/contracts/access/Ownable.sol\":1248:1271  owner() == _msgSender() */\n      and\n        /* \"https://github.com/OpenZeppelin/openzeppelin-contracts/blob/master/contracts/access/Ownable.sol\":1248:1255  owner() */\n      tag_57\n        /* \"https://github.com/OpenZeppelin/openzeppelin-contracts/blob/master/contracts/access/Ownable.sol\":1248:1253  owner */\n      tag_24\n        /* \"https://github.com/OpenZeppelin/openzeppelin-contracts/blob/master/contracts/access/Ownable.sol\":1248:1255  owner() */\n      jump\t// in\n    tag_57:\n      sub(shl(0xa0, 0x01), 0x01)\n        /* \"https://github.com/OpenZeppelin/openzeppelin-contracts/blob/master/contracts/access/Ownable.sol\":1248:1271  owner() == _msgSender() */\n      and\n      eq\n        /* \"https://github.com/OpenZeppelin/openzeppelin-contracts/blob/master/contracts/access/Ownable.sol\":1240:1308  require(owner() == _msgSender(), \"Ownable: caller is not the owner\") */\n      tag_58\n      jumpi\n      mload(0x40)\n      shl(0xe5, 0x461bcd)\n      dup2\n      mstore\n      0x04\n      add\n      tag_41\n      swap1\n      tag_42\n      jump\t// in\n    tag_58:\n      sub(shl(0xa0, 0x01), 0x01)\n        /* \"contracts/02_simple/SharedWallet.sol\":972:987  allowance[_who] */\n      dup3\n      and\n      0x00\n      swap1\n      dup2\n      mstore\n        /* \"contracts/02_simple/SharedWallet.sol\":972:981  allowance */\n      0x01\n        /* \"contracts/02_simple/SharedWallet.sol\":972:987  allowance[_who] */\n      0x20\n      mstore\n      0x40\n      dup2\n      keccak256\n        /* \"contracts/02_simple/SharedWallet.sol\":972:998  allowance[_who] -= _amount */\n      dup1\n      sload\n        /* \"contracts/02_simple/SharedWallet.sol\":991:998  _amount */\n      dup4\n      swap3\n        /* \"contracts/02_simple/SharedWallet.sol\":972:987  allowance[_who] */\n      swap1\n        /* \"contracts/02_simple/SharedWallet.sol\":972:998  allowance[_who] -= _amount */\n      tag_61\n      swap1\n        /* \"contracts/02_simple/SharedWallet.sol\":991:998  _amount */\n      dup5\n      swap1\n        /* \"contracts/02_simple/SharedWallet.sol\":972:998  allowance[_who] -= _amount */\n      tag_62\n      jump\t// in\n    tag_61:\n      swap1\n      swap2\n      sstore\n      pop\n      pop\n      pop\n      pop\n        /* \"contracts/02_simple/SharedWallet.sol\":891:1006  function reduceAllowance(address _who, uint _amount) public onlyOwner {\r... */\n      jump\t// out\n        /* \"https://github.com/OpenZeppelin/openzeppelin-contracts/blob/master/contracts/access/Ownable.sol\":1918:2116  function transferOwnership(address newOwner) public virtual onlyOwner {... */\n    tag_32:\n        /* \"https://github.com/OpenZeppelin/openzeppelin-contracts/blob/master/contracts/access/Ownable.sol\":1259:1271  _msgSender() */\n      tag_64\n        /* \"https://github.com/OpenZeppelin/openzeppelin-contracts/blob/master/contracts/access/Ownable.sol\":1259:1269  _msgSender */\n      tag_38\n        /* \"https://github.com/OpenZeppelin/openzeppelin-contracts/blob/master/contracts/access/Ownable.sol\":1259:1271  _msgSender() */\n      jump\t// in\n    tag_64:\n      sub(shl(0xa0, 0x01), 0x01)\n        /* \"https://github.com/OpenZeppelin/openzeppelin-contracts/blob/master/contracts/access/Ownable.sol\":1248:1271  owner() == _msgSender() */\n      and\n        /* \"https://github.com/OpenZeppelin/openzeppelin-contracts/blob/master/contracts/access/Ownable.sol\":1248:1255  owner() */\n      tag_65\n        /* \"https://github.com/OpenZeppelin/openzeppelin-contracts/blob/master/contracts/access/Ownable.sol\":1248:1253  owner */\n      tag_24\n        /* \"https://github.com/OpenZeppelin/openzeppelin-contracts/blob/master/contracts/access/Ownable.sol\":1248:1255  owner() */\n      jump\t// in\n    tag_65:\n      sub(shl(0xa0, 0x01), 0x01)\n        /* \"https://github.com/OpenZeppelin/openzeppelin-contracts/blob/master/contracts/access/Ownable.sol\":1248:1271  owner() == _msgSender() */\n      and\n      eq\n        /* \"https://github.com/OpenZeppelin/openzeppelin-contracts/blob/master/contracts/access/Ownable.sol\":1240:1308  require(owner() == _msgSender(), \"Ownable: caller is not the owner\") */\n      tag_66\n      jumpi\n      mload(0x40)\n      shl(0xe5, 0x461bcd)\n      dup2\n      mstore\n      0x04\n      add\n      tag_41\n      swap1\n      tag_42\n      jump\t// in\n    tag_66:\n      sub(shl(0xa0, 0x01), 0x01)\n        /* \"https://github.com/OpenZeppelin/openzeppelin-contracts/blob/master/contracts/access/Ownable.sol\":2006:2028  newOwner != address(0) */\n      dup2\n      and\n        /* \"https://github.com/OpenZeppelin/openzeppelin-contracts/blob/master/contracts/access/Ownable.sol\":1998:2071  require(newOwner != address(0), \"Ownable: new owner is the zero address\") */\n      tag_69\n      jumpi\n      mload(0x40)\n      shl(0xe5, 0x461bcd)\n      dup2\n      mstore\n      0x04\n      add\n      tag_41\n      swap1\n      tag_71\n      jump\t// in\n    tag_69:\n        /* \"https://github.com/OpenZeppelin/openzeppelin-contracts/blob/master/contracts/access/Ownable.sol\":2081:2109  _transferOwnership(newOwner) */\n      tag_72\n        /* \"https://github.com/OpenZeppelin/openzeppelin-contracts/blob/master/contracts/access/Ownable.sol\":2100:2108  newOwner */\n      dup2\n        /* \"https://github.com/OpenZeppelin/openzeppelin-contracts/blob/master/contracts/access/Ownable.sol\":2081:2099  _transferOwnership */\n      tag_53\n        /* \"https://github.com/OpenZeppelin/openzeppelin-contracts/blob/master/contracts/access/Ownable.sol\":2081:2109  _transferOwnership(newOwner) */\n      jump\t// in\n    tag_72:\n        /* \"https://github.com/OpenZeppelin/openzeppelin-contracts/blob/master/contracts/access/Ownable.sol\":1918:2116  function transferOwnership(address newOwner) public virtual onlyOwner {... */\n      pop\n      jump\t// out\n        /* \"contracts/02_simple/SharedWallet.sol\":771:883  function addAllowance(address _who, uint _amount) public onlyOwner {\r... */\n    tag_35:\n        /* \"https://github.com/OpenZeppelin/openzeppelin-contracts/blob/master/contracts/access/Ownable.sol\":1259:1271  _msgSender() */\n      tag_74\n        /* \"https://github.com/OpenZeppelin/openzeppelin-contracts/blob/master/contracts/access/Ownable.sol\":1259:1269  _msgSender */\n      tag_38\n        /* \"https://github.com/OpenZeppelin/openzeppelin-contracts/blob/master/contracts/access/Ownable.sol\":1259:1271  _msgSender() */\n      jump\t// in\n    tag_74:\n      sub(shl(0xa0, 0x01), 0x01)\n        /* \"https://github.com/OpenZeppelin/openzeppelin-contracts/blob/master/contracts/access/Ownable.sol\":1248:1271  owner() == _msgSender() */\n      and\n        /* \"https://github.com/OpenZeppelin/openzeppelin-contracts/blob/master/contracts/access/Ownable.sol\":1248:1255  owner() */\n      tag_75\n        /* \"https://github.com/OpenZeppelin/openzeppelin-contracts/blob/master/contracts/access/Ownable.sol\":1248:1253  owner */\n      tag_24\n        /* \"https://github.com/OpenZeppelin/openzeppelin-contracts/blob/master/contracts/access/Ownable.sol\":1248:1255  owner() */\n      jump\t// in\n    tag_75:\n      sub(shl(0xa0, 0x01), 0x01)\n        /* \"https://github.com/OpenZeppelin/openzeppelin-contracts/blob/master/contracts/access/Ownable.sol\":1248:1271  owner() == _msgSender() */\n      and\n      eq\n        /* \"https://github.com/OpenZeppelin/openzeppelin-contracts/blob/master/contracts/access/Ownable.sol\":1240:1308  require(owner() == _msgSender(), \"Ownable: caller is not the owner\") */\n      tag_76\n      jumpi\n      mload(0x40)\n      shl(0xe5, 0x461bcd)\n      dup2\n      mstore\n      0x04\n      add\n      tag_41\n      swap1\n      tag_42\n      jump\t// in\n    tag_76:\n      sub(shl(0xa0, 0x01), 0x01)\n        /* \"contracts/02_simple/SharedWallet.sol\":849:864  allowance[_who] */\n      dup3\n      and\n      0x00\n      swap1\n      dup2\n      mstore\n        /* \"contracts/02_simple/SharedWallet.sol\":849:858  allowance */\n      0x01\n        /* \"contracts/02_simple/SharedWallet.sol\":849:864  allowance[_who] */\n      0x20\n      mstore\n      0x40\n      dup2\n      keccak256\n        /* \"contracts/02_simple/SharedWallet.sol\":849:875  allowance[_who] += _amount */\n      dup1\n      sload\n        /* \"contracts/02_simple/SharedWallet.sol\":868:875  _amount */\n      dup4\n      swap3\n        /* \"contracts/02_simple/SharedWallet.sol\":849:864  allowance[_who] */\n      swap1\n        /* \"contracts/02_simple/SharedWallet.sol\":849:875  allowance[_who] += _amount */\n      tag_61\n      swap1\n        /* \"contracts/02_simple/SharedWallet.sol\":868:875  _amount */\n      dup5\n      swap1\n        /* \"contracts/02_simple/SharedWallet.sol\":849:875  allowance[_who] += _amount */\n      tag_80\n      jump\t// in\n        /* \"https://github.com/OpenZeppelin/openzeppelin-contracts/blob/master/contracts/utils/Context.sol\":640:736  function _msgSender() internal view virtual returns (address) {... */\n    tag_38:\n        /* \"https://github.com/OpenZeppelin/openzeppelin-contracts/blob/master/contracts/utils/Context.sol\":719:729  msg.sender */\n      caller\n        /* \"https://github.com/OpenZeppelin/openzeppelin-contracts/blob/master/contracts/utils/Context.sol\":640:736  function _msgSender() internal view virtual returns (address) {... */\n      swap1\n      jump\t// out\n        /* \"https://github.com/OpenZeppelin/openzeppelin-contracts/blob/master/contracts/access/Ownable.sol\":2270:2457  function _transferOwnership(address newOwner) internal virtual {... */\n    tag_53:\n        /* \"https://github.com/OpenZeppelin/openzeppelin-contracts/blob/master/contracts/access/Ownable.sol\":2343:2359  address oldOwner */\n      0x00\n        /* \"https://github.com/OpenZeppelin/openzeppelin-contracts/blob/master/contracts/access/Ownable.sol\":2362:2368  _owner */\n      dup1\n      sload\n      sub(shl(0xa0, 0x01), 0x01)\n        /* \"https://github.com/OpenZeppelin/openzeppelin-contracts/blob/master/contracts/access/Ownable.sol\":2378:2395  _owner = newOwner */\n      dup4\n      dup2\n      and\n      not(sub(shl(0xa0, 0x01), 0x01))\n      dup4\n      and\n      dup2\n      or\n      dup5\n      sstore\n        /* \"https://github.com/OpenZeppelin/openzeppelin-contracts/blob/master/contracts/access/Ownable.sol\":2410:2450  OwnershipTransferred(oldOwner, newOwner) */\n      mload(0x40)\n        /* \"https://github.com/OpenZeppelin/openzeppelin-contracts/blob/master/contracts/access/Ownable.sol\":2362:2368  _owner */\n      swap2\n      swap1\n      swap3\n      and\n      swap3\n      dup4\n      swap2\n        /* \"https://github.com/OpenZeppelin/openzeppelin-contracts/blob/master/contracts/access/Ownable.sol\":2410:2450  OwnershipTransferred(oldOwner, newOwner) */\n      0x8be0079c531659141344cd1fd0a4f28419497f9722a3daafe3b4186f6b6457e0\n      swap2\n        /* \"https://github.com/OpenZeppelin/openzeppelin-contracts/blob/master/contracts/access/Ownable.sol\":2343:2359  address oldOwner */\n      swap1\n        /* \"https://github.com/OpenZeppelin/openzeppelin-contracts/blob/master/contracts/access/Ownable.sol\":2410:2450  OwnershipTransferred(oldOwner, newOwner) */\n      log3\n        /* \"https://github.com/OpenZeppelin/openzeppelin-contracts/blob/master/contracts/access/Ownable.sol\":2270:2457  function _transferOwnership(address newOwner) internal virtual {... */\n      pop\n      pop\n      jump\t// out\n        /* \"#utility.yul\":14:189   */\n    tag_84:\n        /* \"#utility.yul\":84:104   */\n      dup1\n      calldataload\n      sub(shl(0xa0, 0x01), 0x01)\n        /* \"#utility.yul\":133:164   */\n      dup2\n      and\n        /* \"#utility.yul\":123:165   */\n      dup2\n      eq\n        /* \"#utility.yul\":113:115   */\n      tag_86\n      jumpi\n        /* \"#utility.yul\":179:180   */\n      0x00\n        /* \"#utility.yul\":176:177   */\n      dup1\n        /* \"#utility.yul\":169:181   */\n      revert\n        /* \"#utility.yul\":113:115   */\n    tag_86:\n        /* \"#utility.yul\":65:189   */\n      swap2\n      swap1\n      pop\n      jump\t// out\n        /* \"#utility.yul\":194:392   */\n    tag_17:\n      0x00\n        /* \"#utility.yul\":306:308   */\n      0x20\n        /* \"#utility.yul\":294:303   */\n      dup3\n        /* \"#utility.yul\":285:292   */\n      dup5\n        /* \"#utility.yul\":281:304   */\n      sub\n        /* \"#utility.yul\":277:309   */\n      slt\n        /* \"#utility.yul\":274:276   */\n      iszero\n      tag_88\n      jumpi\n        /* \"#utility.yul\":327:333   */\n      dup1\n        /* \"#utility.yul\":319:325   */\n      dup2\n        /* \"#utility.yul\":312:334   */\n      revert\n        /* \"#utility.yul\":274:276   */\n    tag_88:\n        /* \"#utility.yul\":355:386   */\n      tag_89\n        /* \"#utility.yul\":376:385   */\n      dup3\n        /* \"#utility.yul\":355:386   */\n      tag_84\n      jump\t// in\n    tag_89:\n        /* \"#utility.yul\":345:386   */\n      swap4\n        /* \"#utility.yul\":264:392   */\n      swap3\n      pop\n      pop\n      pop\n      jump\t// out\n        /* \"#utility.yul\":397:663   */\n    tag_13:\n      0x00\n      dup1\n        /* \"#utility.yul\":526:528   */\n      0x40\n        /* \"#utility.yul\":514:523   */\n      dup4\n        /* \"#utility.yul\":505:512   */\n      dup6\n        /* \"#utility.yul\":501:524   */\n      sub\n        /* \"#utility.yul\":497:529   */\n      slt\n        /* \"#utility.yul\":494:496   */\n      iszero\n      tag_91\n      jumpi\n        /* \"#utility.yul\":547:553   */\n      dup1\n        /* \"#utility.yul\":539:545   */\n      dup2\n        /* \"#utility.yul\":532:554   */\n      revert\n        /* \"#utility.yul\":494:496   */\n    tag_91:\n        /* \"#utility.yul\":575:606   */\n      tag_92\n        /* \"#utility.yul\":596:605   */\n      dup4\n        /* \"#utility.yul\":575:606   */\n      tag_84\n      jump\t// in\n    tag_92:\n        /* \"#utility.yul\":565:606   */\n      swap5\n        /* \"#utility.yul\":653:655   */\n      0x20\n        /* \"#utility.yul\":638:656   */\n      swap4\n      swap1\n      swap4\n      add\n        /* \"#utility.yul\":625:657   */\n      calldataload\n      swap4\n      pop\n      pop\n      pop\n        /* \"#utility.yul\":484:663   */\n      jump\t// out\n        /* \"#utility.yul\":668:871   */\n    tag_26:\n      sub(shl(0xa0, 0x01), 0x01)\n        /* \"#utility.yul\":832:864   */\n      swap2\n      swap1\n      swap2\n      and\n        /* \"#utility.yul\":814:865   */\n      dup2\n      mstore\n        /* \"#utility.yul\":802:804   */\n      0x20\n        /* \"#utility.yul\":787:805   */\n      add\n      swap1\n        /* \"#utility.yul\":769:871   */\n      jump\t// out\n        /* \"#utility.yul\":876:1278   */\n    tag_71:\n        /* \"#utility.yul\":1078:1080   */\n      0x20\n        /* \"#utility.yul\":1060:1081   */\n      dup1\n      dup3\n      mstore\n        /* \"#utility.yul\":1117:1119   */\n      0x26\n        /* \"#utility.yul\":1097:1115   */\n      swap1\n      dup3\n      add\n        /* \"#utility.yul\":1090:1120   */\n      mstore\n        /* \"#utility.yul\":1156:1190   */\n      0x4f776e61626c653a206e6577206f776e657220697320746865207a65726f2061\n        /* \"#utility.yul\":1151:1153   */\n      0x40\n        /* \"#utility.yul\":1136:1154   */\n      dup3\n      add\n        /* \"#utility.yul\":1129:1191   */\n      mstore\n      shl(0xd0, 0x646472657373)\n        /* \"#utility.yul\":1222:1224   */\n      0x60\n        /* \"#utility.yul\":1207:1225   */\n      dup3\n      add\n        /* \"#utility.yul\":1200:1236   */\n      mstore\n        /* \"#utility.yul\":1268:1271   */\n      0x80\n        /* \"#utility.yul\":1253:1272   */\n      add\n      swap1\n        /* \"#utility.yul\":1050:1278   */\n      jump\t// out\n        /* \"#utility.yul\":1283:1639   */\n    tag_42:\n        /* \"#utility.yul\":1485:1487   */\n      0x20\n        /* \"#utility.yul\":1467:1488   */\n      dup1\n      dup3\n      mstore\n        /* \"#utility.yul\":1504:1522   */\n      dup2\n      dup2\n      add\n        /* \"#utility.yul\":1497:1527   */\n      mstore\n        /* \"#utility.yul\":1563:1597   */\n      0x4f776e61626c653a2063616c6c6572206973206e6f7420746865206f776e6572\n        /* \"#utility.yul\":1558:1560   */\n      0x40\n        /* \"#utility.yul\":1543:1561   */\n      dup3\n      add\n        /* \"#utility.yul\":1536:1598   */\n      mstore\n        /* \"#utility.yul\":1630:1632   */\n      0x60\n        /* \"#utility.yul\":1615:1633   */\n      add\n      swap1\n        /* \"#utility.yul\":1457:1639   */\n      jump\t// out\n        /* \"#utility.yul\":1644:1821   */\n    tag_20:\n        /* \"#utility.yul\":1790:1815   */\n      swap1\n      dup2\n      mstore\n        /* \"#utility.yul\":1778:1780   */\n      0x20\n        /* \"#utility.yul\":1763:1781   */\n      add\n      swap1\n        /* \"#utility.yul\":1745:1821   */\n      jump\t// out\n        /* \"#utility.yul\":1826:2074   */\n    tag_45:\n        /* \"#utility.yul\":2000:2025   */\n      swap2\n      dup3\n      mstore\n        /* \"#utility.yul\":2056:2058   */\n      0x20\n        /* \"#utility.yul\":2041:2059   */\n      dup3\n      add\n        /* \"#utility.yul\":2034:2068   */\n      mstore\n        /* \"#utility.yul\":1988:1990   */\n      0x40\n        /* \"#utility.yul\":1973:1991   */\n      add\n      swap1\n        /* \"#utility.yul\":1955:2074   */\n      jump\t// out\n        /* \"#utility.yul\":2079:2207   */\n    tag_80:\n      0x00\n        /* \"#utility.yul\":2150:2151   */\n      dup3\n        /* \"#utility.yul\":2146:2152   */\n      not\n        /* \"#utility.yul\":2143:2144   */\n      dup3\n        /* \"#utility.yul\":2140:2153   */\n      gt\n        /* \"#utility.yul\":2137:2139   */\n      iszero\n      tag_100\n      jumpi\n        /* \"#utility.yul\":2156:2174   */\n      tag_100\n      tag_101\n      jump\t// in\n    tag_100:\n      pop\n        /* \"#utility.yul\":2192:2201   */\n      add\n      swap1\n        /* \"#utility.yul\":2127:2207   */\n      jump\t// out\n        /* \"#utility.yul\":2212:2337   */\n    tag_62:\n      0x00\n        /* \"#utility.yul\":2280:2281   */\n      dup3\n        /* \"#utility.yul\":2277:2278   */\n      dup3\n        /* \"#utility.yul\":2274:2282   */\n      lt\n        /* \"#utility.yul\":2271:2273   */\n      iszero\n      tag_104\n      jumpi\n        /* \"#utility.yul\":2285:2303   */\n      tag_104\n      tag_101\n      jump\t// in\n    tag_104:\n      pop\n        /* \"#utility.yul\":2322:2331   */\n      sub\n      swap1\n        /* \"#utility.yul\":2261:2337   */\n      jump\t// out\n        /* \"#utility.yul\":2342:2469   */\n    tag_101:\n        /* \"#utility.yul\":2403:2413   */\n      0x4e487b71\n        /* \"#utility.yul\":2398:2401   */\n      0xe0\n        /* \"#utility.yul\":2394:2414   */\n      shl\n        /* \"#utility.yul\":2391:2392   */\n      0x00\n        /* \"#utility.yul\":2384:2415   */\n      mstore\n        /* \"#utility.yul\":2434:2438   */\n      0x11\n        /* \"#utility.yul\":2431:2432   */\n      0x04\n        /* \"#utility.yul\":2424:2439   */\n      mstore\n        /* \"#utility.yul\":2458:2462   */\n      0x24\n        /* \"#utility.yul\":2455:2456   */\n      0x00\n        /* \"#utility.yul\":2448:2463   */\n      revert\n\n    auxdata: 0xa26469706673582212200fdb06f07da3d5679413ce5e5cc5e979036d93a81e04e8dba248f3de7af8c7d764736f6c63430008010033\n}\n",
				"bytecode": {
					"linkReferences": {},
					"object": "608060405234801561001057600080fd5b5061002161001c610026565b61002a565b61007a565b3390565b600080546001600160a01b038381166001600160a01b0319831681178455604051919092169283917f8be0079c531659141344cd1fd0a4f28419497f9722a3daafe3b4186f6b6457e09190a35050565b610549806100896000396000f3fe608060405234801561001057600080fd5b506004361061007d5760003560e01c80638da5cb5b1161005b5780638da5cb5b146100c85780638fdf08df146100dd578063f2fde38b146100f0578063f3c40c4b146101035761007d565b8063310ec4a7146100825780633e5beab914610097578063715018a6146100c0575b600080fd5b6100956100903660046103ff565b610116565b005b6100aa6100a53660046103de565b6101ba565b6040516100b791906104b7565b60405180910390f35b6100956101cc565b6100d0610217565b6040516100b79190610428565b6100956100eb3660046103ff565b610226565b6100956100fe3660046103de565b610296565b6100956101113660046103ff565b610307565b61011e61036e565b6001600160a01b031661012f610217565b6001600160a01b03161461015e5760405162461bcd60e51b815260040161015590610482565b60405180910390fd5b6001600160a01b03821660008181526001602052604090819020839055513391907f3691d1a86d99355e52b689ca70a7bdf6d80763237a6aa06e5fa43964eac7244b906101ae90859081906104c0565b60405180910390a35050565b60016020526000908152604090205481565b6101d461036e565b6001600160a01b03166101e5610217565b6001600160a01b03161461020b5760405162461bcd60e51b815260040161015590610482565b6102156000610372565b565b6000546001600160a01b031690565b61022e61036e565b6001600160a01b031661023f610217565b6001600160a01b0316146102655760405162461bcd60e51b815260040161015590610482565b6001600160a01b0382166000908152600160205260408120805483929061028d9084906104e6565b90915550505050565b61029e61036e565b6001600160a01b03166102af610217565b6001600160a01b0316146102d55760405162461bcd60e51b815260040161015590610482565b6001600160a01b0381166102fb5760405162461bcd60e51b81526004016101559061043c565b61030481610372565b50565b61030f61036e565b6001600160a01b0316610320610217565b6001600160a01b0316146103465760405162461bcd60e51b815260040161015590610482565b6001600160a01b0382166000908152600160205260408120805483929061028d9084906104ce565b3390565b600080546001600160a01b038381166001600160a01b0319831681178455604051919092169283917f8be0079c531659141344cd1fd0a4f28419497f9722a3daafe3b4186f6b6457e09190a35050565b80356001600160a01b03811681146103d957600080fd5b919050565b6000602082840312156103ef578081fd5b6103f8826103c2565b9392505050565b60008060408385031215610411578081fd5b61041a836103c2565b946020939093013593505050565b6001600160a01b0391909116815260200190565b60208082526026908201527f4f776e61626c653a206e6577206f776e657220697320746865207a65726f206160408201526564647265737360d01b606082015260800190565b6020808252818101527f4f776e61626c653a2063616c6c6572206973206e6f7420746865206f776e6572604082015260600190565b90815260200190565b918252602082015260400190565b600082198211156104e1576104e16104fd565b500190565b6000828210156104f8576104f86104fd565b500390565b634e487b7160e01b600052601160045260246000fdfea26469706673582212200fdb06f07da3d5679413ce5e5cc5e979036d93a81e04e8dba248f3de7af8c7d764736f6c63430008010033",
					"opcodes": "PUSH1 0x80 PUSH1 0x40 MSTORE CALLVALUE DUP1 ISZERO PUSH2 0x10 JUMPI PUSH1 0x0 DUP1 REVERT JUMPDEST POP PUSH2 0x21 PUSH2 0x1C PUSH2 0x26 JUMP JUMPDEST PUSH2 0x2A JUMP JUMPDEST PUSH2 0x7A JUMP JUMPDEST CALLER SWAP1 JUMP JUMPDEST PUSH1 0x0 DUP1 SLOAD PUSH1 0x1 PUSH1 0x1 PUSH1 0xA0 SHL SUB DUP4 DUP2 AND PUSH1 0x1 PUSH1 0x1 PUSH1 0xA0 SHL SUB NOT DUP4 AND DUP2 OR DUP5 SSTORE PUSH1 0x40 MLOAD SWAP2 SWAP1 SWAP3 AND SWAP3 DUP4 SWAP2 PUSH32 0x8BE0079C531659141344CD1FD0A4F28419497F9722A3DAAFE3B4186F6B6457E0 SWAP2 SWAP1 LOG3 POP POP JUMP JUMPDEST PUSH2 0x549 DUP1 PUSH2 0x89 PUSH1 0x0 CODECOPY PUSH1 0x0 RETURN INVALID PUSH1 0x80 PUSH1 0x40 MSTORE CALLVALUE DUP1 ISZERO PUSH2 0x10 JUMPI PUSH1 0x0 DUP1 REVERT JUMPDEST POP PUSH1 0x4 CALLDATASIZE LT PUSH2 0x7D JUMPI PUSH1 0x0 CALLDATALOAD PUSH1 0xE0 SHR DUP1 PUSH4 0x8DA5CB5B GT PUSH2 0x5B JUMPI DUP1 PUSH4 0x8DA5CB5B EQ PUSH2 0xC8 JUMPI DUP1 PUSH4 0x8FDF08DF EQ PUSH2 0xDD JUMPI DUP1 PUSH4 0xF2FDE38B EQ PUSH2 0xF0 JUMPI DUP1 PUSH4 0xF3C40C4B EQ PUSH2 0x103 JUMPI PUSH2 0x7D JUMP JUMPDEST DUP1 PUSH4 0x310EC4A7 EQ PUSH2 0x82 JUMPI DUP1 PUSH4 0x3E5BEAB9 EQ PUSH2 0x97 JUMPI DUP1 PUSH4 0x715018A6 EQ PUSH2 0xC0 JUMPI JUMPDEST PUSH1 0x0 DUP1 REVERT JUMPDEST PUSH2 0x95 PUSH2 0x90 CALLDATASIZE PUSH1 0x4 PUSH2 0x3FF JUMP JUMPDEST PUSH2 0x116 JUMP JUMPDEST STOP JUMPDEST PUSH2 0xAA PUSH2 0xA5 CALLDATASIZE PUSH1 0x4 PUSH2 0x3DE JUMP JUMPDEST PUSH2 0x1BA JUMP JUMPDEST PUSH1 0x40 MLOAD PUSH2 0xB7 SWAP2 SWAP1 PUSH2 0x4B7 JUMP JUMPDEST PUSH1 0x40 MLOAD DUP1 SWAP2 SUB SWAP1 RETURN JUMPDEST PUSH2 0x95 PUSH2 0x1CC JUMP JUMPDEST PUSH2 0xD0 PUSH2 0x217 JUMP JUMPDEST PUSH1 0x40 MLOAD PUSH2 0xB7 SWAP2 SWAP1 PUSH2 0x428 JUMP JUMPDEST PUSH2 0x95 PUSH2 0xEB CALLDATASIZE PUSH1 0x4 PUSH2 0x3FF JUMP JUMPDEST PUSH2 0x226 JUMP JUMPDEST PUSH2 0x95 PUSH2 0xFE CALLDATASIZE PUSH1 0x4 PUSH2 0x3DE JUMP JUMPDEST PUSH2 0x296 JUMP JUMPDEST PUSH2 0x95 PUSH2 0x111 CALLDATASIZE PUSH1 0x4 PUSH2 0x3FF JUMP JUMPDEST PUSH2 0x307 JUMP JUMPDEST PUSH2 0x11E PUSH2 0x36E JUMP JUMPDEST PUSH1 0x1 PUSH1 0x1 PUSH1 0xA0 SHL SUB AND PUSH2 0x12F PUSH2 0x217 JUMP JUMPDEST PUSH1 0x1 PUSH1 0x1 PUSH1 0xA0 SHL SUB AND EQ PUSH2 0x15E JUMPI PUSH1 0x40 MLOAD PUSH3 0x461BCD PUSH1 0xE5 SHL DUP2 MSTORE PUSH1 0x4 ADD PUSH2 0x155 SWAP1 PUSH2 0x482 JUMP JUMPDEST PUSH1 0x40 MLOAD DUP1 SWAP2 SUB SWAP1 REVERT JUMPDEST PUSH1 0x1 PUSH1 0x1 PUSH1 0xA0 SHL SUB DUP3 AND PUSH1 0x0 DUP2 DUP2 MSTORE PUSH1 0x1 PUSH1 0x20 MSTORE PUSH1 0x40 SWAP1 DUP2 SWAP1 KECCAK256 DUP4 SWAP1 SSTORE MLOAD CALLER SWAP2 SWAP1 PUSH32 0x3691D1A86D99355E52B689CA70A7BDF6D80763237A6AA06E5FA43964EAC7244B SWAP1 PUSH2 0x1AE SWAP1 DUP6 SWAP1 DUP2 SWAP1 PUSH2 0x4C0 JUMP JUMPDEST PUSH1 0x40 MLOAD DUP1 SWAP2 SUB SWAP1 LOG3 POP POP JUMP JUMPDEST PUSH1 0x1 PUSH1 0x20 MSTORE PUSH1 0x0 SWAP1 DUP2 MSTORE PUSH1 0x40 SWAP1 KECCAK256 SLOAD DUP2 JUMP JUMPDEST PUSH2 0x1D4 PUSH2 0x36E JUMP JUMPDEST PUSH1 0x1 PUSH1 0x1 PUSH1 0xA0 SHL SUB AND PUSH2 0x1E5 PUSH2 0x217 JUMP JUMPDEST PUSH1 0x1 PUSH1 0x1 PUSH1 0xA0 SHL SUB AND EQ PUSH2 0x20B JUMPI PUSH1 0x40 MLOAD PUSH3 0x461BCD PUSH1 0xE5 SHL DUP2 MSTORE PUSH1 0x4 ADD PUSH2 0x155 SWAP1 PUSH2 0x482 JUMP JUMPDEST PUSH2 0x215 PUSH1 0x0 PUSH2 0x372 JUMP JUMPDEST JUMP JUMPDEST PUSH1 0x0 SLOAD PUSH1 0x1 PUSH1 0x1 PUSH1 0xA0 SHL SUB AND SWAP1 JUMP JUMPDEST PUSH2 0x22E PUSH2 0x36E JUMP JUMPDEST PUSH1 0x1 PUSH1 0x1 PUSH1 0xA0 SHL SUB AND PUSH2 0x23F PUSH2 0x217 JUMP JUMPDEST PUSH1 0x1 PUSH1 0x1 PUSH1 0xA0 SHL SUB AND EQ PUSH2 0x265 JUMPI PUSH1 0x40 MLOAD PUSH3 0x461BCD PUSH1 0xE5 SHL DUP2 MSTORE PUSH1 0x4 ADD PUSH2 0x155 SWAP1 PUSH2 0x482 JUMP JUMPDEST PUSH1 0x1 PUSH1 0x1 PUSH1 0xA0 SHL SUB DUP3 AND PUSH1 0x0 SWAP1 DUP2 MSTORE PUSH1 0x1 PUSH1 0x20 MSTORE PUSH1 0x40 DUP2 KECCAK256 DUP1 SLOAD DUP4 SWAP3 SWAP1 PUSH2 0x28D SWAP1 DUP5 SWAP1 PUSH2 0x4E6 JUMP JUMPDEST SWAP1 SWAP2 SSTORE POP POP POP POP JUMP JUMPDEST PUSH2 0x29E PUSH2 0x36E JUMP JUMPDEST PUSH1 0x1 PUSH1 0x1 PUSH1 0xA0 SHL SUB AND PUSH2 0x2AF PUSH2 0x217 JUMP JUMPDEST PUSH1 0x1 PUSH1 0x1 PUSH1 0xA0 SHL SUB AND EQ PUSH2 0x2D5 JUMPI PUSH1 0x40 MLOAD PUSH3 0x461BCD PUSH1 0xE5 SHL DUP2 MSTORE PUSH1 0x4 ADD PUSH2 0x155 SWAP1 PUSH2 0x482 JUMP JUMPDEST PUSH1 0x1 PUSH1 0x1 PUSH1 0xA0 SHL SUB DUP2 AND PUSH2 0x2FB JUMPI PUSH1 0x40 MLOAD PUSH3 0x461BCD PUSH1 0xE5 SHL DUP2 MSTORE PUSH1 0x4 ADD PUSH2 0x155 SWAP1 PUSH2 0x43C JUMP JUMPDEST PUSH2 0x304 DUP2 PUSH2 0x372 JUMP JUMPDEST POP JUMP JUMPDEST PUSH2 0x30F PUSH2 0x36E JUMP JUMPDEST PUSH1 0x1 PUSH1 0x1 PUSH1 0xA0 SHL SUB AND PUSH2 0x320 PUSH2 0x217 JUMP JUMPDEST PUSH1 0x1 PUSH1 0x1 PUSH1 0xA0 SHL SUB AND EQ PUSH2 0x346 JUMPI PUSH1 0x40 MLOAD PUSH3 0x461BCD PUSH1 0xE5 SHL DUP2 MSTORE PUSH1 0x4 ADD PUSH2 0x155 SWAP1 PUSH2 0x482 JUMP JUMPDEST PUSH1 0x1 PUSH1 0x1 PUSH1 0xA0 SHL SUB DUP3 AND PUSH1 0x0 SWAP1 DUP2 MSTORE PUSH1 0x1 PUSH1 0x20 MSTORE PUSH1 0x40 DUP2 KECCAK256 DUP1 SLOAD DUP4 SWAP3 SWAP1 PUSH2 0x28D SWAP1 DUP5 SWAP1 PUSH2 0x4CE JUMP JUMPDEST CALLER SWAP1 JUMP JUMPDEST PUSH1 0x0 DUP1 SLOAD PUSH1 0x1 PUSH1 0x1 PUSH1 0xA0 SHL SUB DUP4 DUP2 AND PUSH1 0x1 PUSH1 0x1 PUSH1 0xA0 SHL SUB NOT DUP4 AND DUP2 OR DUP5 SSTORE PUSH1 0x40 MLOAD SWAP2 SWAP1 SWAP3 AND SWAP3 DUP4 SWAP2 PUSH32 0x8BE0079C531659141344CD1FD0A4F28419497F9722A3DAAFE3B4186F6B6457E0 SWAP2 SWAP1 LOG3 POP POP JUMP JUMPDEST DUP1 CALLDATALOAD PUSH1 0x1 PUSH1 0x1 PUSH1 0xA0 SHL SUB DUP2 AND DUP2 EQ PUSH2 0x3D9 JUMPI PUSH1 0x0 DUP1 REVERT JUMPDEST SWAP2 SWAP1 POP JUMP JUMPDEST PUSH1 0x0 PUSH1 0x20 DUP3 DUP5 SUB SLT ISZERO PUSH2 0x3EF JUMPI DUP1 DUP2 REVERT JUMPDEST PUSH2 0x3F8 DUP3 PUSH2 0x3C2 JUMP JUMPDEST SWAP4 SWAP3 POP POP POP JUMP JUMPDEST PUSH1 0x0 DUP1 PUSH1 0x40 DUP4 DUP6 SUB SLT ISZERO PUSH2 0x411 JUMPI DUP1 DUP2 REVERT JUMPDEST PUSH2 0x41A DUP4 PUSH2 0x3C2 JUMP JUMPDEST SWAP5 PUSH1 0x20 SWAP4 SWAP1 SWAP4 ADD CALLDATALOAD SWAP4 POP POP POP JUMP JUMPDEST PUSH1 0x1 PUSH1 0x1 PUSH1 0xA0 SHL SUB SWAP2 SWAP1 SWAP2 AND DUP2 MSTORE PUSH1 0x20 ADD SWAP1 JUMP JUMPDEST PUSH1 0x20 DUP1 DUP3 MSTORE PUSH1 0x26 SWAP1 DUP3 ADD MSTORE PUSH32 0x4F776E61626C653A206E6577206F776E657220697320746865207A65726F2061 PUSH1 0x40 DUP3 ADD MSTORE PUSH6 0x646472657373 PUSH1 0xD0 SHL PUSH1 0x60 DUP3 ADD MSTORE PUSH1 0x80 ADD SWAP1 JUMP JUMPDEST PUSH1 0x20 DUP1 DUP3 MSTORE DUP2 DUP2 ADD MSTORE PUSH32 0x4F776E61626C653A2063616C6C6572206973206E6F7420746865206F776E6572 PUSH1 0x40 DUP3 ADD MSTORE PUSH1 0x60 ADD SWAP1 JUMP JUMPDEST SWAP1 DUP2 MSTORE PUSH1 0x20 ADD SWAP1 JUMP JUMPDEST SWAP2 DUP3 MSTORE PUSH1 0x20 DUP3 ADD MSTORE PUSH1 0x40 ADD SWAP1 JUMP JUMPDEST PUSH1 0x0 DUP3 NOT DUP3 GT ISZERO PUSH2 0x4E1 JUMPI PUSH2 0x4E1 PUSH2 0x4FD JUMP JUMPDEST POP ADD SWAP1 JUMP JUMPDEST PUSH1 0x0 DUP3 DUP3 LT ISZERO PUSH2 0x4F8 JUMPI PUSH2 0x4F8 PUSH2 0x4FD JUMP JUMPDEST POP SUB SWAP1 JUMP JUMPDEST PUSH4 0x4E487B71 PUSH1 0xE0 SHL PUSH1 0x0 MSTORE PUSH1 0x11 PUSH1 0x4 MSTORE PUSH1 0x24 PUSH1 0x0 REVERT INVALID LOG2 PUSH5 0x6970667358 0x22 SLT KECCAK256 0xF 0xDB MOD CREATE PUSH30 0xA3D5679413CE5E5CC5E979036D93A81E04E8DBA248F3DE7AF8C7D764736F PUSH13 0x63430008010033000000000000 "
				},
				"gasEstimates": {
					"creation": {
						"codeDepositCost": "270600",
						"executionCost": "22780",
						"totalCost": "293380"
					},
					"external": {
						"addAllowance(address,uint256)": "22308",
						"allowance(address)": "1275",
						"owner()": "1070",
						"reduceAllowance(address,uint256)": "22261",
						"renounceOwnership()": "23549",
						"setAllowance(address,uint256)": "23485",
						"transferOwnership(address)": "23743"
					},
					"internal": {
						"isOwner()": "infinite"
					}
				},
				"methodIdentifiers": {
					"addAllowance(address,uint256)": "f3c40c4b",
					"allowance(address)": "3e5beab9",
					"owner()": "8da5cb5b",
					"reduceAllowance(address,uint256)": "8fdf08df",
					"renounceOwnership()": "715018a6",
					"setAllowance(address,uint256)": "310ec4a7",
					"transferOwnership(address)": "f2fde38b"
				}
			},
			"storageLayout": {
				"storage": [
					{
						"astId": 174,
						"contract": "contracts/02_simple/SharedWallet.sol:Allowance",
						"label": "_owner",
						"offset": 0,
						"slot": "0",
						"type": "t_address"
					},
					{
						"astId": 30,
						"contract": "contracts/02_simple/SharedWallet.sol:Allowance",
						"label": "allowance",
						"offset": 0,
						"slot": "1",
						"type": "t_mapping(t_address,t_uint256)"
					}
				],
				"types": {
					"t_address": {
						"encoding": "inplace",
						"label": "address",
						"numberOfBytes": "20"
					},
					"t_mapping(t_address,t_uint256)": {
						"encoding": "mapping",
						"key": "t_address",
						"label": "mapping(address => uint256)",
						"numberOfBytes": "32",
						"value": "t_uint256"
					},
					"t_uint256": {
						"encoding": "inplace",
						"label": "uint256",
						"numberOfBytes": "32"
					}
				}
			},
			"userdoc": {
				"kind": "user",
				"methods": {},
				"version": 1
			}
		}
	}
}