{
	"contracts/Sharedwallet.sol": {
		"SharedWallet": {
			"abi": [
				{
					"inputs": [
						{
							"internalType": "address payable",
							"name": "_to",
							"type": "address"
						},
						{
							"internalType": "uint256",
							"name": "_amount",
							"type": "uint256"
						}
					],
					"name": "withdrawMoney",
					"outputs": [],
					"stateMutability": "nonpayable",
					"type": "function"
				},
				{
					"stateMutability": "payable",
					"type": "receive"
				}
			],
			"devdoc": {
				"kind": "dev",
				"methods": {},
				"version": 1
			},
			"evm": {
				"assembly": "    /* \"contracts/Sharedwallet.sol\":58:220  contract SharedWallet {\r... */\n  mstore(0x40, 0x80)\n  callvalue\n  dup1\n  iszero\n  tag_1\n  jumpi\n  0x00\n  dup1\n  revert\ntag_1:\n  pop\n  dataSize(sub_0)\n  dup1\n  dataOffset(sub_0)\n  0x00\n  codecopy\n  0x00\n  return\nstop\n\nsub_0: assembly {\n        /* \"contracts/Sharedwallet.sol\":58:220  contract SharedWallet {\r... */\n      mstore(0x40, 0x80)\n      jumpi(tag_1, lt(calldatasize, 0x04))\n      shr(0xe0, calldataload(0x00))\n      dup1\n      0xf274c897\n      eq\n      tag_3\n      jumpi\n      jump(tag_2)\n    tag_1:\n      jumpi(tag_2, calldatasize)\n      stop\n    tag_2:\n      0x00\n      dup1\n      revert\n        /* \"contracts/Sharedwallet.sol\":85:182  function withdrawMoney(address payable _to, uint _amount) public {\r... */\n    tag_3:\n      callvalue\n      dup1\n      iszero\n      tag_6\n      jumpi\n      0x00\n      dup1\n      revert\n    tag_6:\n      pop\n      tag_7\n      tag_8\n      calldatasize\n      0x04\n      tag_9\n      jump\t// in\n    tag_8:\n      tag_10\n      jump\t// in\n    tag_7:\n      stop\n    tag_10:\n        /* \"contracts/Sharedwallet.sol\":157:178  _to.transfer(_amount) */\n      mload(0x40)\n      sub(shl(0xa0, 0x01), 0x01)\n        /* \"contracts/Sharedwallet.sol\":157:169  _to.transfer */\n      dup4\n      and\n      swap1\n        /* \"contracts/Sharedwallet.sol\":157:178  _to.transfer(_amount) */\n      dup3\n      iszero\n      0x08fc\n      mul\n      swap1\n        /* \"contracts/Sharedwallet.sol\":170:177  _amount */\n      dup4\n      swap1\n        /* \"contracts/Sharedwallet.sol\":157:178  _to.transfer(_amount) */\n      0x00\n      dup2\n      dup2\n      dup2\n        /* \"contracts/Sharedwallet.sol\":170:177  _amount */\n      dup6\n        /* \"contracts/Sharedwallet.sol\":157:169  _to.transfer */\n      dup9\n        /* \"contracts/Sharedwallet.sol\":157:178  _to.transfer(_amount) */\n      dup9\n      call\n      swap4\n      pop\n      pop\n      pop\n      pop\n      iszero\n      dup1\n      iszero\n      tag_13\n      jumpi\n      returndatasize\n      0x00\n      dup1\n      returndatacopy\n      revert(0x00, returndatasize)\n    tag_13:\n      pop\n        /* \"contracts/Sharedwallet.sol\":85:182  function withdrawMoney(address payable _to, uint _amount) public {\r... */\n      pop\n      pop\n      jump\t// out\n        /* \"#utility.yul\":14:396   */\n    tag_9:\n      0x00\n      dup1\n        /* \"#utility.yul\":151:153   */\n      0x40\n        /* \"#utility.yul\":139:148   */\n      dup4\n        /* \"#utility.yul\":130:137   */\n      dup6\n        /* \"#utility.yul\":126:149   */\n      sub\n        /* \"#utility.yul\":122:154   */\n      slt\n        /* \"#utility.yul\":119:121   */\n      iszero\n      tag_16\n      jumpi\n        /* \"#utility.yul\":172:178   */\n      dup2\n        /* \"#utility.yul\":164:170   */\n      dup3\n        /* \"#utility.yul\":157:179   */\n      revert\n        /* \"#utility.yul\":119:121   */\n    tag_16:\n        /* \"#utility.yul\":203:226   */\n      dup3\n      calldataload\n      sub(shl(0xa0, 0x01), 0x01)\n        /* \"#utility.yul\":255:286   */\n      dup2\n      and\n        /* \"#utility.yul\":245:287   */\n      dup2\n      eq\n        /* \"#utility.yul\":235:237   */\n      tag_17\n      jumpi\n        /* \"#utility.yul\":306:312   */\n      dup3\n        /* \"#utility.yul\":298:304   */\n      dup4\n        /* \"#utility.yul\":291:313   */\n      revert\n        /* \"#utility.yul\":235:237   */\n    tag_17:\n        /* \"#utility.yul\":334:339   */\n      swap5\n        /* \"#utility.yul\":386:388   */\n      0x20\n        /* \"#utility.yul\":371:389   */\n      swap4\n      swap1\n      swap4\n      add\n        /* \"#utility.yul\":358:390   */\n      calldataload\n      swap4\n      pop\n      pop\n      pop\n        /* \"#utility.yul\":109:396   */\n      jump\t// out\n\n    auxdata: 0xa264697066735822122043bdb13f0005aaf07db5d53c988be4174084a9766f5884964c061bb8f4a6a33864736f6c63430008010033\n}\n",
				"bytecode": {
					"linkReferences": {},
					"object": "608060405234801561001057600080fd5b5060eb8061001f6000396000f3fe608060405260043610601f5760003560e01c8063f274c89714602a576025565b36602557005b600080fd5b348015603557600080fd5b50604560413660046081565b6047565b005b6040516001600160a01b0383169082156108fc029083906000818181858888f19350505050158015607c573d6000803e3d6000fd5b505050565b600080604083850312156092578182fd5b82356001600160a01b038116811460a7578283fd5b94602093909301359350505056fea264697066735822122043bdb13f0005aaf07db5d53c988be4174084a9766f5884964c061bb8f4a6a33864736f6c63430008010033",
					"opcodes": "PUSH1 0x80 PUSH1 0x40 MSTORE CALLVALUE DUP1 ISZERO PUSH2 0x10 JUMPI PUSH1 0x0 DUP1 REVERT JUMPDEST POP PUSH1 0xEB DUP1 PUSH2 0x1F PUSH1 0x0 CODECOPY PUSH1 0x0 RETURN INVALID PUSH1 0x80 PUSH1 0x40 MSTORE PUSH1 0x4 CALLDATASIZE LT PUSH1 0x1F JUMPI PUSH1 0x0 CALLDATALOAD PUSH1 0xE0 SHR DUP1 PUSH4 0xF274C897 EQ PUSH1 0x2A JUMPI PUSH1 0x25 JUMP JUMPDEST CALLDATASIZE PUSH1 0x25 JUMPI STOP JUMPDEST PUSH1 0x0 DUP1 REVERT JUMPDEST CALLVALUE DUP1 ISZERO PUSH1 0x35 JUMPI PUSH1 0x0 DUP1 REVERT JUMPDEST POP PUSH1 0x45 PUSH1 0x41 CALLDATASIZE PUSH1 0x4 PUSH1 0x81 JUMP JUMPDEST PUSH1 0x47 JUMP JUMPDEST STOP JUMPDEST PUSH1 0x40 MLOAD PUSH1 0x1 PUSH1 0x1 PUSH1 0xA0 SHL SUB DUP4 AND SWAP1 DUP3 ISZERO PUSH2 0x8FC MUL SWAP1 DUP4 SWAP1 PUSH1 0x0 DUP2 DUP2 DUP2 DUP6 DUP9 DUP9 CALL SWAP4 POP POP POP POP ISZERO DUP1 ISZERO PUSH1 0x7C JUMPI RETURNDATASIZE PUSH1 0x0 DUP1 RETURNDATACOPY RETURNDATASIZE PUSH1 0x0 REVERT JUMPDEST POP POP POP JUMP JUMPDEST PUSH1 0x0 DUP1 PUSH1 0x40 DUP4 DUP6 SUB SLT ISZERO PUSH1 0x92 JUMPI DUP2 DUP3 REVERT JUMPDEST DUP3 CALLDATALOAD PUSH1 0x1 PUSH1 0x1 PUSH1 0xA0 SHL SUB DUP2 AND DUP2 EQ PUSH1 0xA7 JUMPI DUP3 DUP4 REVERT JUMPDEST SWAP5 PUSH1 0x20 SWAP4 SWAP1 SWAP4 ADD CALLDATALOAD SWAP4 POP POP POP JUMP INVALID LOG2 PUSH5 0x6970667358 0x22 SLT KECCAK256 NUMBER 0xBD 0xB1 EXTCODEHASH STOP SDIV 0xAA CREATE PUSH30 0xB5D53C988BE4174084A9766F5884964C061BB8F4A6A33864736F6C634300 ADDMOD ADD STOP CALLER "
				},
				"gasEstimates": {
					"creation": {
						"codeDepositCost": "47000",
						"executionCost": "99",
						"totalCost": "47099"
					},
					"external": {
						"withdrawMoney(address,uint256)": "infinite"
					}
				},
				"methodIdentifiers": {
					"withdrawMoney(address,uint256)": "f274c897"
				}
			},
			"storageLayout": {
				"storage": [],
				"types": null
			},
			"userdoc": {
				"kind": "user",
				"methods": {},
				"version": 1
			}
		}
	}
}