{
	"contracts/MyContract.sol": {
		"MyContract": {
			"abi": [
				{
					"inputs": [],
					"name": "myString",
					"outputs": [
						{
							"internalType": "string",
							"name": "",
							"type": "string"
						}
					],
					"stateMutability": "view",
					"type": "function"
				}
			],
			"devdoc": {
				"kind": "dev",
				"methods": {},
				"version": 1
			},
			"evm": {
				"assembly": "    /* \"contracts/MyContract.sol\":91:129  string public myString = 'hello world' */\n  0xc0\n    /* \"contracts/MyContract.sol\":64:133  contract MyContract {\r... */\n  0x40\n    /* \"contracts/MyContract.sol\":91:129  string public myString = 'hello world' */\n  mstore\n  0x0b\n    /* \"contracts/MyContract.sol\":64:133  contract MyContract {\r... */\n  0x80\n    /* \"contracts/MyContract.sol\":91:129  string public myString = 'hello world' */\n  dup2\n  swap1\n  mstore\n  shl(0xaa, 0x1a195b1b1bc81ddbdc9b19)\n  0xa0\n  swap1\n  dup2\n  mstore\n  tag_1\n  swap2\n  0x00\n  swap2\n  swap1\n  tag_2\n  jump\t// in\ntag_1:\n  pop\n    /* \"contracts/MyContract.sol\":64:133  contract MyContract {\r... */\n  callvalue\n  dup1\n  iszero\n  tag_3\n  jumpi\n  0x00\n  dup1\n  revert\ntag_3:\n  pop\n  jump(tag_16)\ntag_2:\n  dup3\n  dup1\n  sload\n  tag_5\n  swap1\n  tag_6\n  jump\t// in\ntag_5:\n  swap1\n  0x00\n  mstore\n  keccak256(0x00, 0x20)\n  swap1\n  0x1f\n  add\n  0x20\n  swap1\n  div\n  dup2\n  add\n  swap3\n  dup3\n  tag_8\n  jumpi\n  0x00\n  dup6\n  sstore\n  jump(tag_11)\ntag_8:\n  dup3\n  0x1f\n  lt\n  tag_9\n  jumpi\n  dup1\n  mload\n  not(0xff)\n  and\n  dup4\n  dup1\n  add\n  or\n  dup6\n  sstore\n  jump(tag_11)\ntag_9:\n  dup3\n  dup1\n  add\n  0x01\n  add\n  dup6\n  sstore\n  dup3\n  iszero\n  tag_11\n  jumpi\n  swap2\n  dup3\n  add\ntag_10:\n  dup3\n  dup2\n  gt\n  iszero\n  tag_11\n  jumpi\n  dup3\n  mload\n  dup3\n  sstore\n  swap2\n  0x20\n  add\n  swap2\n  swap1\n  0x01\n  add\n  swap1\n  jump(tag_10)\ntag_11:\n  pop\n  tag_12\n  swap3\n  swap2\n  pop\n  tag_13\n  jump\t// in\ntag_12:\n  pop\n  swap1\n  jump\t// out\ntag_13:\ntag_14:\n  dup1\n  dup3\n  gt\n  iszero\n  tag_12\n  jumpi\n  0x00\n  dup2\n  sstore\n  0x01\n  add\n  jump(tag_14)\n    /* \"#utility.yul\":14:394   */\ntag_6:\n    /* \"#utility.yul\":93:94   */\n  0x01\n    /* \"#utility.yul\":89:101   */\n  dup2\n  dup2\n  shr\n  swap1\n    /* \"#utility.yul\":136:148   */\n  dup3\n  and\n  dup1\n    /* \"#utility.yul\":157:159   */\n  tag_18\n  jumpi\n    /* \"#utility.yul\":211:215   */\n  0x7f\n    /* \"#utility.yul\":203:209   */\n  dup3\n    /* \"#utility.yul\":199:216   */\n  and\n    /* \"#utility.yul\":189:216   */\n  swap2\n  pop\n    /* \"#utility.yul\":157:159   */\ntag_18:\n    /* \"#utility.yul\":264:266   */\n  0x20\n    /* \"#utility.yul\":256:262   */\n  dup3\n    /* \"#utility.yul\":253:267   */\n  lt\n    /* \"#utility.yul\":233:251   */\n  dup2\n    /* \"#utility.yul\":230:268   */\n  eq\n    /* \"#utility.yul\":227:229   */\n  iszero\n  tag_19\n  jumpi\n    /* \"#utility.yul\":310:320   */\n  0x4e487b71\n    /* \"#utility.yul\":305:308   */\n  0xe0\n    /* \"#utility.yul\":301:321   */\n  shl\n    /* \"#utility.yul\":298:299   */\n  0x00\n    /* \"#utility.yul\":291:322   */\n  mstore\n    /* \"#utility.yul\":345:349   */\n  0x22\n    /* \"#utility.yul\":342:343   */\n  0x04\n    /* \"#utility.yul\":335:350   */\n  mstore\n    /* \"#utility.yul\":373:377   */\n  0x24\n    /* \"#utility.yul\":370:371   */\n  0x00\n    /* \"#utility.yul\":363:378   */\n  revert\n    /* \"#utility.yul\":227:229   */\ntag_19:\n  pop\n    /* \"#utility.yul\":69:394   */\n  swap2\n  swap1\n  pop\n  jump\t// out\ntag_16:\n    /* \"contracts/MyContract.sol\":64:133  contract MyContract {\r... */\n  dataSize(sub_0)\n  dup1\n  dataOffset(sub_0)\n  0x00\n  codecopy\n  0x00\n  return\nstop\n\nsub_0: assembly {\n        /* \"contracts/MyContract.sol\":64:133  contract MyContract {\r... */\n      mstore(0x40, 0x80)\n      callvalue\n      dup1\n      iszero\n      tag_1\n      jumpi\n      0x00\n      dup1\n      revert\n    tag_1:\n      pop\n      jumpi(tag_2, lt(calldatasize, 0x04))\n      shr(0xe0, calldataload(0x00))\n      dup1\n      0x492bfa18\n      eq\n      tag_3\n      jumpi\n    tag_2:\n      0x00\n      dup1\n      revert\n        /* \"contracts/MyContract.sol\":91:129  string public myString = 'hello world' */\n    tag_3:\n      tag_4\n      tag_5\n      jump\t// in\n    tag_4:\n      mload(0x40)\n      tag_6\n      swap2\n      swap1\n      tag_7\n      jump\t// in\n    tag_6:\n      mload(0x40)\n      dup1\n      swap2\n      sub\n      swap1\n      return\n    tag_5:\n      0x00\n      dup1\n      sload\n      tag_8\n      swap1\n      tag_9\n      jump\t// in\n    tag_8:\n      dup1\n      0x1f\n      add\n      0x20\n      dup1\n      swap2\n      div\n      mul\n      0x20\n      add\n      mload(0x40)\n      swap1\n      dup2\n      add\n      0x40\n      mstore\n      dup1\n      swap3\n      swap2\n      swap1\n      dup2\n      dup2\n      mstore\n      0x20\n      add\n      dup3\n      dup1\n      sload\n      tag_10\n      swap1\n      tag_9\n      jump\t// in\n    tag_10:\n      dup1\n      iszero\n      tag_11\n      jumpi\n      dup1\n      0x1f\n      lt\n      tag_12\n      jumpi\n      0x0100\n      dup1\n      dup4\n      sload\n      div\n      mul\n      dup4\n      mstore\n      swap2\n      0x20\n      add\n      swap2\n      jump(tag_11)\n    tag_12:\n      dup3\n      add\n      swap2\n      swap1\n      0x00\n      mstore\n      keccak256(0x00, 0x20)\n      swap1\n    tag_13:\n      dup2\n      sload\n      dup2\n      mstore\n      swap1\n      0x01\n      add\n      swap1\n      0x20\n      add\n      dup1\n      dup4\n      gt\n      tag_13\n      jumpi\n      dup3\n      swap1\n      sub\n      0x1f\n      and\n      dup3\n      add\n      swap2\n    tag_11:\n      pop\n      pop\n      pop\n      pop\n      pop\n      dup2\n      jump\t// out\n        /* \"#utility.yul\":14:617   */\n    tag_7:\n        /* \"#utility.yul\":126:130   */\n      0x00\n        /* \"#utility.yul\":155:157   */\n      0x20\n        /* \"#utility.yul\":184:186   */\n      dup1\n        /* \"#utility.yul\":173:182   */\n      dup4\n        /* \"#utility.yul\":166:187   */\n      mstore\n        /* \"#utility.yul\":216:222   */\n      dup4\n        /* \"#utility.yul\":210:223   */\n      mload\n        /* \"#utility.yul\":259:265   */\n      dup1\n        /* \"#utility.yul\":254:256   */\n      dup3\n        /* \"#utility.yul\":243:252   */\n      dup6\n        /* \"#utility.yul\":239:257   */\n      add\n        /* \"#utility.yul\":232:266   */\n      mstore\n        /* \"#utility.yul\":284:288   */\n      dup3\n        /* \"#utility.yul\":297:437   */\n    tag_16:\n        /* \"#utility.yul\":311:317   */\n      dup2\n        /* \"#utility.yul\":308:309   */\n      dup2\n        /* \"#utility.yul\":305:318   */\n      lt\n        /* \"#utility.yul\":297:437   */\n      iszero\n      tag_18\n      jumpi\n        /* \"#utility.yul\":406:420   */\n      dup6\n      dup2\n      add\n        /* \"#utility.yul\":402:425   */\n      dup4\n      add\n        /* \"#utility.yul\":396:426   */\n      mload\n        /* \"#utility.yul\":372:389   */\n      dup6\n      dup3\n      add\n        /* \"#utility.yul\":391:393   */\n      0x40\n        /* \"#utility.yul\":368:394   */\n      add\n        /* \"#utility.yul\":361:427   */\n      mstore\n        /* \"#utility.yul\":326:336   */\n      dup3\n      add\n        /* \"#utility.yul\":297:437   */\n      jump(tag_16)\n    tag_18:\n        /* \"#utility.yul\":455:461   */\n      dup2\n        /* \"#utility.yul\":452:453   */\n      dup2\n        /* \"#utility.yul\":449:462   */\n      gt\n        /* \"#utility.yul\":446:448   */\n      iszero\n      tag_19\n      jumpi\n        /* \"#utility.yul\":525:529   */\n      dup4\n        /* \"#utility.yul\":520:522   */\n      0x40\n        /* \"#utility.yul\":511:517   */\n      dup4\n        /* \"#utility.yul\":500:509   */\n      dup8\n        /* \"#utility.yul\":496:518   */\n      add\n        /* \"#utility.yul\":492:523   */\n      add\n        /* \"#utility.yul\":485:530   */\n      mstore\n        /* \"#utility.yul\":446:448   */\n    tag_19:\n      pop\n        /* \"#utility.yul\":601:603   */\n      0x1f\n        /* \"#utility.yul\":580:595   */\n      add\n      not(0x1f)\n        /* \"#utility.yul\":576:605   */\n      and\n        /* \"#utility.yul\":561:606   */\n      swap3\n      swap1\n      swap3\n      add\n        /* \"#utility.yul\":608:610   */\n      0x40\n        /* \"#utility.yul\":557:611   */\n      add\n      swap4\n        /* \"#utility.yul\":135:617   */\n      swap3\n      pop\n      pop\n      pop\n      jump\t// out\n        /* \"#utility.yul\":622:1002   */\n    tag_9:\n        /* \"#utility.yul\":701:702   */\n      0x01\n        /* \"#utility.yul\":697:709   */\n      dup2\n      dup2\n      shr\n      swap1\n        /* \"#utility.yul\":744:756   */\n      dup3\n      and\n      dup1\n        /* \"#utility.yul\":765:767   */\n      tag_21\n      jumpi\n        /* \"#utility.yul\":819:823   */\n      0x7f\n        /* \"#utility.yul\":811:817   */\n      dup3\n        /* \"#utility.yul\":807:824   */\n      and\n        /* \"#utility.yul\":797:824   */\n      swap2\n      pop\n        /* \"#utility.yul\":765:767   */\n    tag_21:\n        /* \"#utility.yul\":872:874   */\n      0x20\n        /* \"#utility.yul\":864:870   */\n      dup3\n        /* \"#utility.yul\":861:875   */\n      lt\n        /* \"#utility.yul\":841:859   */\n      dup2\n        /* \"#utility.yul\":838:876   */\n      eq\n        /* \"#utility.yul\":835:837   */\n      iszero\n      tag_22\n      jumpi\n        /* \"#utility.yul\":918:928   */\n      0x4e487b71\n        /* \"#utility.yul\":913:916   */\n      0xe0\n        /* \"#utility.yul\":909:929   */\n      shl\n        /* \"#utility.yul\":906:907   */\n      0x00\n        /* \"#utility.yul\":899:930   */\n      mstore\n        /* \"#utility.yul\":953:957   */\n      0x22\n        /* \"#utility.yul\":950:951   */\n      0x04\n        /* \"#utility.yul\":943:958   */\n      mstore\n        /* \"#utility.yul\":981:985   */\n      0x24\n        /* \"#utility.yul\":978:979   */\n      0x00\n        /* \"#utility.yul\":971:986   */\n      revert\n        /* \"#utility.yul\":835:837   */\n    tag_22:\n      pop\n        /* \"#utility.yul\":677:1002   */\n      swap2\n      swap1\n      pop\n      jump\t// out\n\n    auxdata: 0xa2646970667358221220a28f5ab2344766977b3541aba0bdd3f08a0fe8d9d298805e67ff22ec2eef229864736f6c63430008040033\n}\n",
				"bytecode": {
					"linkReferences": {},
					"object": "60c0604052600b60808190526a1a195b1b1bc81ddbdc9b1960aa1b60a090815261002c916000919061003f565b5034801561003957600080fd5b50610113565b82805461004b906100d8565b90600052602060002090601f01602090048101928261006d57600085556100b3565b82601f1061008657805160ff19168380011785556100b3565b828001600101855582156100b3579182015b828111156100b3578251825591602001919060010190610098565b506100bf9291506100c3565b5090565b5b808211156100bf57600081556001016100c4565b600181811c908216806100ec57607f821691505b6020821081141561010d57634e487b7160e01b600052602260045260246000fd5b50919050565b6101a0806101226000396000f3fe608060405234801561001057600080fd5b506004361061002b5760003560e01c8063492bfa1814610030575b600080fd5b61003861004e565b60405161004591906100dc565b60405180910390f35b6000805461005b9061012f565b80601f01602080910402602001604051908101604052809291908181526020018280546100879061012f565b80156100d45780601f106100a9576101008083540402835291602001916100d4565b820191906000526020600020905b8154815290600101906020018083116100b757829003601f168201915b505050505081565b6000602080835283518082850152825b81811015610108578581018301518582016040015282016100ec565b818111156101195783604083870101525b50601f01601f1916929092016040019392505050565b600181811c9082168061014357607f821691505b6020821081141561016457634e487b7160e01b600052602260045260246000fd5b5091905056fea2646970667358221220a28f5ab2344766977b3541aba0bdd3f08a0fe8d9d298805e67ff22ec2eef229864736f6c63430008040033",
					"opcodes": "PUSH1 0xC0 PUSH1 0x40 MSTORE PUSH1 0xB PUSH1 0x80 DUP2 SWAP1 MSTORE PUSH11 0x1A195B1B1BC81DDBDC9B19 PUSH1 0xAA SHL PUSH1 0xA0 SWAP1 DUP2 MSTORE PUSH2 0x2C SWAP2 PUSH1 0x0 SWAP2 SWAP1 PUSH2 0x3F JUMP JUMPDEST POP CALLVALUE DUP1 ISZERO PUSH2 0x39 JUMPI PUSH1 0x0 DUP1 REVERT JUMPDEST POP PUSH2 0x113 JUMP JUMPDEST DUP3 DUP1 SLOAD PUSH2 0x4B SWAP1 PUSH2 0xD8 JUMP JUMPDEST SWAP1 PUSH1 0x0 MSTORE PUSH1 0x20 PUSH1 0x0 KECCAK256 SWAP1 PUSH1 0x1F ADD PUSH1 0x20 SWAP1 DIV DUP2 ADD SWAP3 DUP3 PUSH2 0x6D JUMPI PUSH1 0x0 DUP6 SSTORE PUSH2 0xB3 JUMP JUMPDEST DUP3 PUSH1 0x1F LT PUSH2 0x86 JUMPI DUP1 MLOAD PUSH1 0xFF NOT AND DUP4 DUP1 ADD OR DUP6 SSTORE PUSH2 0xB3 JUMP JUMPDEST DUP3 DUP1 ADD PUSH1 0x1 ADD DUP6 SSTORE DUP3 ISZERO PUSH2 0xB3 JUMPI SWAP2 DUP3 ADD JUMPDEST DUP3 DUP2 GT ISZERO PUSH2 0xB3 JUMPI DUP3 MLOAD DUP3 SSTORE SWAP2 PUSH1 0x20 ADD SWAP2 SWAP1 PUSH1 0x1 ADD SWAP1 PUSH2 0x98 JUMP JUMPDEST POP PUSH2 0xBF SWAP3 SWAP2 POP PUSH2 0xC3 JUMP JUMPDEST POP SWAP1 JUMP JUMPDEST JUMPDEST DUP1 DUP3 GT ISZERO PUSH2 0xBF JUMPI PUSH1 0x0 DUP2 SSTORE PUSH1 0x1 ADD PUSH2 0xC4 JUMP JUMPDEST PUSH1 0x1 DUP2 DUP2 SHR SWAP1 DUP3 AND DUP1 PUSH2 0xEC JUMPI PUSH1 0x7F DUP3 AND SWAP2 POP JUMPDEST PUSH1 0x20 DUP3 LT DUP2 EQ ISZERO PUSH2 0x10D JUMPI PUSH4 0x4E487B71 PUSH1 0xE0 SHL PUSH1 0x0 MSTORE PUSH1 0x22 PUSH1 0x4 MSTORE PUSH1 0x24 PUSH1 0x0 REVERT JUMPDEST POP SWAP2 SWAP1 POP JUMP JUMPDEST PUSH2 0x1A0 DUP1 PUSH2 0x122 PUSH1 0x0 CODECOPY PUSH1 0x0 RETURN INVALID PUSH1 0x80 PUSH1 0x40 MSTORE CALLVALUE DUP1 ISZERO PUSH2 0x10 JUMPI PUSH1 0x0 DUP1 REVERT JUMPDEST POP PUSH1 0x4 CALLDATASIZE LT PUSH2 0x2B JUMPI PUSH1 0x0 CALLDATALOAD PUSH1 0xE0 SHR DUP1 PUSH4 0x492BFA18 EQ PUSH2 0x30 JUMPI JUMPDEST PUSH1 0x0 DUP1 REVERT JUMPDEST PUSH2 0x38 PUSH2 0x4E JUMP JUMPDEST PUSH1 0x40 MLOAD PUSH2 0x45 SWAP2 SWAP1 PUSH2 0xDC JUMP JUMPDEST PUSH1 0x40 MLOAD DUP1 SWAP2 SUB SWAP1 RETURN JUMPDEST PUSH1 0x0 DUP1 SLOAD PUSH2 0x5B SWAP1 PUSH2 0x12F JUMP JUMPDEST DUP1 PUSH1 0x1F ADD PUSH1 0x20 DUP1 SWAP2 DIV MUL PUSH1 0x20 ADD PUSH1 0x40 MLOAD SWAP1 DUP2 ADD PUSH1 0x40 MSTORE DUP1 SWAP3 SWAP2 SWAP1 DUP2 DUP2 MSTORE PUSH1 0x20 ADD DUP3 DUP1 SLOAD PUSH2 0x87 SWAP1 PUSH2 0x12F JUMP JUMPDEST DUP1 ISZERO PUSH2 0xD4 JUMPI DUP1 PUSH1 0x1F LT PUSH2 0xA9 JUMPI PUSH2 0x100 DUP1 DUP4 SLOAD DIV MUL DUP4 MSTORE SWAP2 PUSH1 0x20 ADD SWAP2 PUSH2 0xD4 JUMP JUMPDEST DUP3 ADD SWAP2 SWAP1 PUSH1 0x0 MSTORE PUSH1 0x20 PUSH1 0x0 KECCAK256 SWAP1 JUMPDEST DUP2 SLOAD DUP2 MSTORE SWAP1 PUSH1 0x1 ADD SWAP1 PUSH1 0x20 ADD DUP1 DUP4 GT PUSH2 0xB7 JUMPI DUP3 SWAP1 SUB PUSH1 0x1F AND DUP3 ADD SWAP2 JUMPDEST POP POP POP POP POP DUP2 JUMP JUMPDEST PUSH1 0x0 PUSH1 0x20 DUP1 DUP4 MSTORE DUP4 MLOAD DUP1 DUP3 DUP6 ADD MSTORE DUP3 JUMPDEST DUP2 DUP2 LT ISZERO PUSH2 0x108 JUMPI DUP6 DUP2 ADD DUP4 ADD MLOAD DUP6 DUP3 ADD PUSH1 0x40 ADD MSTORE DUP3 ADD PUSH2 0xEC JUMP JUMPDEST DUP2 DUP2 GT ISZERO PUSH2 0x119 JUMPI DUP4 PUSH1 0x40 DUP4 DUP8 ADD ADD MSTORE JUMPDEST POP PUSH1 0x1F ADD PUSH1 0x1F NOT AND SWAP3 SWAP1 SWAP3 ADD PUSH1 0x40 ADD SWAP4 SWAP3 POP POP POP JUMP JUMPDEST PUSH1 0x1 DUP2 DUP2 SHR SWAP1 DUP3 AND DUP1 PUSH2 0x143 JUMPI PUSH1 0x7F DUP3 AND SWAP2 POP JUMPDEST PUSH1 0x20 DUP3 LT DUP2 EQ ISZERO PUSH2 0x164 JUMPI PUSH4 0x4E487B71 PUSH1 0xE0 SHL PUSH1 0x0 MSTORE PUSH1 0x22 PUSH1 0x4 MSTORE PUSH1 0x24 PUSH1 0x0 REVERT JUMPDEST POP SWAP2 SWAP1 POP JUMP INVALID LOG2 PUSH5 0x6970667358 0x22 SLT KECCAK256 LOG2 DUP16 GAS 0xB2 CALLVALUE SELFBALANCE PUSH7 0x977B3541ABA0BD 0xD3 CREATE DUP11 0xF 0xE8 0xD9 0xD2 SWAP9 DUP1 0x5E PUSH8 0xFF22EC2EEF229864 PUSH20 0x6F6C634300080400330000000000000000000000 "
				},
				"gasEstimates": {
					"creation": {
						"codeDepositCost": "83200",
						"executionCost": "infinite",
						"totalCost": "infinite"
					},
					"external": {
						"myString()": "infinite"
					}
				},
				"methodIdentifiers": {
					"myString()": "492bfa18"
				}
			},
			"userdoc": {
				"kind": "user",
				"methods": {},
				"version": 1
			}
		}
	}
}