{
	"data": {
		"bytecode": {
			"linkReferences": {},
			"object": "6080604052348015600f57600080fd5b506064600055609f806100236000396000f3fe6080604052348015600f57600080fd5b506004361060325760003560e01c80637921381a146037578063a484b48e14603f575b600080fd5b603d6059565b005b6045605b565b604051605091906060565b60405180910390f35b565b600090565b9081526020019056fea2646970667358221220544bdecf5ecb706fd4969fb05d91ff09bd65ba186ac0e34255e5eb15ae77983a64736f6c63430008010033",
			"opcodes": "PUSH1 0x80 PUSH1 0x40 MSTORE CALLVALUE DUP1 ISZERO PUSH1 0xF JUMPI PUSH1 0x0 DUP1 REVERT JUMPDEST POP PUSH1 0x64 PUSH1 0x0 SSTORE PUSH1 0x9F DUP1 PUSH2 0x23 PUSH1 0x0 CODECOPY PUSH1 0x0 RETURN INVALID PUSH1 0x80 PUSH1 0x40 MSTORE CALLVALUE DUP1 ISZERO PUSH1 0xF JUMPI PUSH1 0x0 DUP1 REVERT JUMPDEST POP PUSH1 0x4 CALLDATASIZE LT PUSH1 0x32 JUMPI PUSH1 0x0 CALLDATALOAD PUSH1 0xE0 SHR DUP1 PUSH4 0x7921381A EQ PUSH1 0x37 JUMPI DUP1 PUSH4 0xA484B48E EQ PUSH1 0x3F JUMPI JUMPDEST PUSH1 0x0 DUP1 REVERT JUMPDEST PUSH1 0x3D PUSH1 0x59 JUMP JUMPDEST STOP JUMPDEST PUSH1 0x45 PUSH1 0x5B JUMP JUMPDEST PUSH1 0x40 MLOAD PUSH1 0x50 SWAP2 SWAP1 PUSH1 0x60 JUMP JUMPDEST PUSH1 0x40 MLOAD DUP1 SWAP2 SUB SWAP1 RETURN JUMPDEST JUMP JUMPDEST PUSH1 0x0 SWAP1 JUMP JUMPDEST SWAP1 DUP2 MSTORE PUSH1 0x20 ADD SWAP1 JUMP INVALID LOG2 PUSH5 0x6970667358 0x22 SLT KECCAK256 SLOAD 0x4B 0xDE 0xCF 0x5E 0xCB PUSH17 0x6FD4969FB05D91FF09BD65BA186AC0E342 SSTORE 0xE5 0xEB ISZERO 0xAE PUSH24 0x983A64736F6C634300080100330000000000000000000000 "
		},
		"gasEstimates": {
			"creation": {
				"codeDepositCost": "31800",
				"executionCost": "20087",
				"totalCost": "51887"
			},
			"external": {
				"getGlobalVal()": "228",
				"getLocalVal()": "122"
			}
		},
		"methodIdentifiers": {
			"getGlobalVal()": "a484b48e",
			"getLocalVal()": "7921381a"
		}
	},
	"abi": [
		{
			"inputs": [],
			"stateMutability": "nonpayable",
			"type": "constructor"
		},
		{
			"inputs": [],
			"name": "getGlobalVal",
			"outputs": [
				{
					"internalType": "uint256",
					"name": "",
					"type": "uint256"
				}
			],
			"stateMutability": "view",
			"type": "function"
		},
		{
			"inputs": [],
			"name": "getLocalVal",
			"outputs": [],
			"stateMutability": "pure",
			"type": "function"
		}
	]
}