{
	"data": {
		"bytecode": {
			"linkReferences": {},
			"object": "608060405234801561001057600080fd5b506101f9806100206000396000f3fe6080604052600436106100555760003560e01c80630ff8d8a51461005a57806312065fe01461007c57806352a90c421461009e5780636d26ec18146100b4578063ac446002146100bc578063ce0617ec146100d1575b600080fd5b34801561006657600080fd5b5061007a61007536600461016d565b6100e7565b005b34801561008857600080fd5b5030315b60405190815260200160405180910390f35b3480156100aa57600080fd5b5061008c60005481565b61007a61012e565b3480156100c857600080fd5b5061007a610155565b3480156100dd57600080fd5b5061008c60015481565b42600154101561012b576001600160a01b0381166108fc30315b6040518115909202916000818181858888f19350505050158015610129573d6000803e3d6000fd5b505b50565b3460008082825461013f919061019d565b90915550610150905042603c61019d565b600155565b42600154101561016b5733806108fc3031610101565b565b60006020828403121561017f57600080fd5b81356001600160a01b038116811461019657600080fd5b9392505050565b600082198211156101be57634e487b7160e01b600052601160045260246000fd5b50019056fea2646970667358221220de146dc1b882df73b973d1b8050c3680a0608ade61f8e9698e3829883c1e94ec64736f6c63430008070033",
			"opcodes": "PUSH1 0x80 PUSH1 0x40 MSTORE CALLVALUE DUP1 ISZERO PUSH2 0x10 JUMPI PUSH1 0x0 DUP1 REVERT JUMPDEST POP PUSH2 0x1F9 DUP1 PUSH2 0x20 PUSH1 0x0 CODECOPY PUSH1 0x0 RETURN INVALID PUSH1 0x80 PUSH1 0x40 MSTORE PUSH1 0x4 CALLDATASIZE LT PUSH2 0x55 JUMPI PUSH1 0x0 CALLDATALOAD PUSH1 0xE0 SHR DUP1 PUSH4 0xFF8D8A5 EQ PUSH2 0x5A JUMPI DUP1 PUSH4 0x12065FE0 EQ PUSH2 0x7C JUMPI DUP1 PUSH4 0x52A90C42 EQ PUSH2 0x9E JUMPI DUP1 PUSH4 0x6D26EC18 EQ PUSH2 0xB4 JUMPI DUP1 PUSH4 0xAC446002 EQ PUSH2 0xBC JUMPI DUP1 PUSH4 0xCE0617EC EQ PUSH2 0xD1 JUMPI JUMPDEST PUSH1 0x0 DUP1 REVERT JUMPDEST CALLVALUE DUP1 ISZERO PUSH2 0x66 JUMPI PUSH1 0x0 DUP1 REVERT JUMPDEST POP PUSH2 0x7A PUSH2 0x75 CALLDATASIZE PUSH1 0x4 PUSH2 0x16D JUMP JUMPDEST PUSH2 0xE7 JUMP JUMPDEST STOP JUMPDEST CALLVALUE DUP1 ISZERO PUSH2 0x88 JUMPI PUSH1 0x0 DUP1 REVERT JUMPDEST POP ADDRESS BALANCE JUMPDEST PUSH1 0x40 MLOAD SWAP1 DUP2 MSTORE PUSH1 0x20 ADD PUSH1 0x40 MLOAD DUP1 SWAP2 SUB SWAP1 RETURN JUMPDEST CALLVALUE DUP1 ISZERO PUSH2 0xAA JUMPI PUSH1 0x0 DUP1 REVERT JUMPDEST POP PUSH2 0x8C PUSH1 0x0 SLOAD DUP2 JUMP JUMPDEST PUSH2 0x7A PUSH2 0x12E JUMP JUMPDEST CALLVALUE DUP1 ISZERO PUSH2 0xC8 JUMPI PUSH1 0x0 DUP1 REVERT JUMPDEST POP PUSH2 0x7A PUSH2 0x155 JUMP JUMPDEST CALLVALUE DUP1 ISZERO PUSH2 0xDD JUMPI PUSH1 0x0 DUP1 REVERT JUMPDEST POP PUSH2 0x8C PUSH1 0x1 SLOAD DUP2 JUMP JUMPDEST TIMESTAMP PUSH1 0x1 SLOAD LT ISZERO PUSH2 0x12B JUMPI PUSH1 0x1 PUSH1 0x1 PUSH1 0xA0 SHL SUB DUP2 AND PUSH2 0x8FC ADDRESS BALANCE JUMPDEST PUSH1 0x40 MLOAD DUP2 ISZERO SWAP1 SWAP3 MUL SWAP2 PUSH1 0x0 DUP2 DUP2 DUP2 DUP6 DUP9 DUP9 CALL SWAP4 POP POP POP POP ISZERO DUP1 ISZERO PUSH2 0x129 JUMPI RETURNDATASIZE PUSH1 0x0 DUP1 RETURNDATACOPY RETURNDATASIZE PUSH1 0x0 REVERT JUMPDEST POP JUMPDEST POP JUMP JUMPDEST CALLVALUE PUSH1 0x0 DUP1 DUP3 DUP3 SLOAD PUSH2 0x13F SWAP2 SWAP1 PUSH2 0x19D JUMP JUMPDEST SWAP1 SWAP2 SSTORE POP PUSH2 0x150 SWAP1 POP TIMESTAMP PUSH1 0x3C PUSH2 0x19D JUMP JUMPDEST PUSH1 0x1 SSTORE JUMP JUMPDEST TIMESTAMP PUSH1 0x1 SLOAD LT ISZERO PUSH2 0x16B JUMPI CALLER DUP1 PUSH2 0x8FC ADDRESS BALANCE PUSH2 0x101 JUMP JUMPDEST JUMP JUMPDEST PUSH1 0x0 PUSH1 0x20 DUP3 DUP5 SUB SLT ISZERO PUSH2 0x17F JUMPI PUSH1 0x0 DUP1 REVERT JUMPDEST DUP2 CALLDATALOAD PUSH1 0x1 PUSH1 0x1 PUSH1 0xA0 SHL SUB DUP2 AND DUP2 EQ PUSH2 0x196 JUMPI PUSH1 0x0 DUP1 REVERT JUMPDEST SWAP4 SWAP3 POP POP POP JUMP JUMPDEST PUSH1 0x0 DUP3 NOT DUP3 GT ISZERO PUSH2 0x1BE JUMPI PUSH4 0x4E487B71 PUSH1 0xE0 SHL PUSH1 0x0 MSTORE PUSH1 0x11 PUSH1 0x4 MSTORE PUSH1 0x24 PUSH1 0x0 REVERT JUMPDEST POP ADD SWAP1 JUMP INVALID LOG2 PUSH5 0x6970667358 0x22 SLT KECCAK256 0xDE EQ PUSH14 0xC1B882DF73B973D1B8050C3680A0 PUSH1 0x8A 0xDE PUSH2 0xF8E9 PUSH10 0x8E3829883C1E94EC6473 PUSH16 0x6C634300080700330000000000000000 "
		},
		"gasEstimates": {
			"creation": {
				"codeDepositCost": "101000",
				"executionCost": "147",
				"totalCost": "101147"
			},
			"external": {
				"balanceReceived()": "2305",
				"getBalance()": "2768",
				"lockedUntil()": "2371",
				"receiveMoney()": "infinite",
				"withdrawMoney()": "infinite",
				"withdrawMoneyTo(address)": "infinite"
			}
		},
		"methodIdentifiers": {
			"balanceReceived()": "52a90c42",
			"getBalance()": "12065fe0",
			"lockedUntil()": "ce0617ec",
			"receiveMoney()": "6d26ec18",
			"withdrawMoney()": "ac446002",
			"withdrawMoneyTo(address)": "0ff8d8a5"
		}
	},
	"abi": [
		{
			"inputs": [],
			"name": "balanceReceived",
			"outputs": [
				{
					"internalType": "uint256",
					"name": "",
					"type": "uint256"
				}
			],
			"stateMutability": "view",
			"type": "function"
		},
		{
			"inputs": [],
			"name": "getBalance",
			"outputs": [
				{
					"internalType": "uint256",
					"name": "",
					"type": "uint256"
				}
			],
			"stateMutability": "view",
			"type": "function"
		},
		{
			"inputs": [],
			"name": "lockedUntil",
			"outputs": [
				{
					"internalType": "uint256",
					"name": "",
					"type": "uint256"
				}
			],
			"stateMutability": "view",
			"type": "function"
		},
		{
			"inputs": [],
			"name": "receiveMoney",
			"outputs": [],
			"stateMutability": "payable",
			"type": "function"
		},
		{
			"inputs": [],
			"name": "withdrawMoney",
			"outputs": [],
			"stateMutability": "nonpayable",
			"type": "function"
		},
		{
			"inputs": [
				{
					"internalType": "address payable",
					"name": "_to",
					"type": "address"
				}
			],
			"name": "withdrawMoneyTo",
			"outputs": [],
			"stateMutability": "nonpayable",
			"type": "function"
		}
	]
}